{
  "abi": [
    {
      "inputs": [
        {
          "internalType": "address[]",
          "name": "_addresses_O50I",
          "type": "address[]"
        },
        {
          "internalType": "address[]",
          "name": "_addresses_O250I",
          "type": "address[]"
        },
        {
          "internalType": "uint256[]",
          "name": "_tokens_O50I",
          "type": "uint256[]"
        },
        {
          "internalType": "uint256[]",
          "name": "_tokens_O250I",
          "type": "uint256[]"
        },
        {
          "internalType": "uint256[]",
          "name": "_percent_per_milestone",
          "type": "uint256[]"
        },
        {
          "internalType": "uint256",
          "name": "_tokens_O50ITotal",
          "type": "uint256"
        },
        {
          "internalType": "uint256",
          "name": "_tokens_O250ITotal",
          "type": "uint256"
        },
        {
          "internalType": "address",
          "name": "_tokenAddress",
          "type": "address"
        }
      ],
      "stateMutability": "nonpayable",
      "type": "constructor"
    },
    {
      "anonymous": false,
      "inputs": [
        {
          "indexed": true,
          "internalType": "address",
          "name": "_token",
          "type": "address"
        },
        {
          "indexed": false,
          "internalType": "uint256",
          "name": "amount",
          "type": "uint256"
        }
      ],
      "name": "ERC20Released",
      "type": "event"
    },
    {
      "anonymous": false,
      "inputs": [
        {
          "indexed": true,
          "internalType": "address",
          "name": "previousOwner",
          "type": "address"
        },
        {
          "indexed": true,
          "internalType": "address",
          "name": "newOwner",
          "type": "address"
        }
      ],
      "name": "OwnershipTransferred",
      "type": "event"
    },
    {
      "inputs": [],
      "name": "contract_balance",
      "outputs": [
        {
          "internalType": "uint256",
          "name": "",
          "type": "uint256"
        }
      ],
      "stateMutability": "view",
      "type": "function"
    },
    {
      "inputs": [],
      "name": "legacy_token",
      "outputs": [
        {
          "internalType": "contract IERC20",
          "name": "",
          "type": "address"
        }
      ],
      "stateMutability": "view",
      "type": "function"
    },
    {
      "inputs": [
        {
          "internalType": "uint256",
          "name": "_amount",
          "type": "uint256"
        },
        {
          "internalType": "address",
          "name": "_newInvestor_address",
          "type": "address"
        },
        {
          "internalType": "bool",
          "name": "_under250K",
          "type": "bool"
        }
      ],
      "name": "new_Investor",
      "outputs": [],
      "stateMutability": "nonpayable",
      "type": "function"
    },
    {
      "inputs": [],
      "name": "owner",
      "outputs": [
        {
          "internalType": "address",
          "name": "",
          "type": "address"
        }
      ],
      "stateMutability": "view",
      "type": "function"
    },
    {
      "inputs": [],
      "name": "release",
      "outputs": [],
      "stateMutability": "nonpayable",
      "type": "function"
    },
    {
      "inputs": [],
      "name": "renounceOwnership",
      "outputs": [],
      "stateMutability": "nonpayable",
      "type": "function"
    },
    {
      "inputs": [
        {
          "internalType": "address",
          "name": "newOwner",
          "type": "address"
        }
      ],
      "name": "transferOwnership",
      "outputs": [],
      "stateMutability": "nonpayable",
      "type": "function"
    },
    {
      "inputs": [],
      "name": "view_can_release_percent",
      "outputs": [
        {
          "internalType": "uint256",
          "name": "",
          "type": "uint256"
        }
      ],
      "stateMutability": "view",
      "type": "function"
    },
    {
      "inputs": [
        {
          "internalType": "address",
          "name": "",
          "type": "address"
        }
      ],
      "name": "walletToInvestor",
      "outputs": [
        {
          "internalType": "address",
          "name": "investor_address",
          "type": "address"
        },
        {
          "internalType": "uint256",
          "name": "tokens_received",
          "type": "uint256"
        },
        {
          "internalType": "uint256",
          "name": "tokens_promised",
          "type": "uint256"
        },
        {
          "internalType": "uint256",
          "name": "lock_start",
          "type": "uint256"
        },
        {
          "internalType": "bool",
          "name": "under250k_investor",
          "type": "bool"
        }
      ],
      "stateMutability": "view",
      "type": "function"
    }
  ],
  "bytecode": "60806040523480156200001157600080fd5b50604051620019a8380380620019a88339810160408190526200003491620006b4565b6200003f336200043b565b8351620000549060089060208701906200048b565b508751600c8190558751600d55620000749060049060208b0190620004db565b5086516200008a9060059060208a0190620004db565b508551620000a09060069060208901906200048b565b508451620000b69060079060208801906200048b565b50600e839055600f82905560005b600c54811015620002625760006001600160a01b031660048281548110620000f057620000f0620007bb565b6000918252602090912001546001600160a01b0316036200016d5760405162461bcd60e51b815260206004820152603460248201526000805160206200198883398151915260448201527f72657373206973207a65726f206164647265737300000000000000000000000060648201526084015b60405180910390fd5b600060048281548110620001855762000185620007bb565b6000918252602082200154600680546001600160a01b0390921693509084908110620001b557620001b5620007bb565b6000918252602080832091909101546040805160a0810182526001600160a01b03968716808252818501868152828401948552426060840190815260016080850181815293895260029788905294909720925183546001600160a01b03191699169890981782559651918101919091559051918101919091559051600382015591516004909201805460ff19169215159290921790915550806200025981620007d1565b915050620000c4565b5060005b600d54811015620003fb5760006001600160a01b031660058281548110620002925762000292620007bb565b6000918252602090912001546001600160a01b0316036200030b5760405162461bcd60e51b815260206004820152603460248201526000805160206200198883398151915260448201527f72657373206973207a65726f2061646472657373000000000000000000000000606482015260840162000164565b600060058281548110620003235762000323620007bb565b6000918252602082200154600780546001600160a01b0390921693509084908110620003535762000353620007bb565b6000918252602080832091909101546040805160a0810182526001600160a01b0396871680825281850186815282840194855242606084019081526080840188815292885260029687905293909620915182546001600160a01b03191698169790971781559351600185015590519183019190915551600382015591516004909201805460ff1916921515929092179091555080620003f281620007d1565b91505062000266565b5060108054600180546001600160a01b0319166001600160a01b0390941693841790556001600160a81b031916909117905550620007f995505050505050565b600080546001600160a01b038381166001600160a01b0319831681178455604051919092169283917f8be0079c531659141344cd1fd0a4f28419497f9722a3daafe3b4186f6b6457e09190a35050565b828054828255906000526020600020908101928215620004c9579160200282015b82811115620004c9578251825591602001919060010190620004ac565b50620004d792915062000533565b5090565b828054828255906000526020600020908101928215620004c9579160200282015b82811115620004c957825182546001600160a01b0319166001600160a01b03909116178255602090920191600190910190620004fc565b5b80821115620004d7576000815560010162000534565b634e487b7160e01b600052604160045260246000fd5b604051601f8201601f191681016001600160401b03811182821017156200058b576200058b6200054a565b604052919050565b60006001600160401b03821115620005af57620005af6200054a565b5060051b60200190565b80516001600160a01b0381168114620005d157600080fd5b919050565b600082601f830112620005e857600080fd5b8151602062000601620005fb8362000593565b62000560565b82815260059290921b840181019181810190868411156200062157600080fd5b8286015b8481101562000647576200063981620005b9565b835291830191830162000625565b509695505050505050565b600082601f8301126200066457600080fd5b8151602062000677620005fb8362000593565b82815260059290921b840181019181810190868411156200069757600080fd5b8286015b848110156200064757805183529183019183016200069b565b600080600080600080600080610100898b031215620006d257600080fd5b88516001600160401b0380821115620006ea57600080fd5b620006f88c838d01620005d6565b995060208b01519150808211156200070f57600080fd5b6200071d8c838d01620005d6565b985060408b01519150808211156200073457600080fd5b620007428c838d0162000652565b975060608b01519150808211156200075957600080fd5b620007678c838d0162000652565b965060808b01519150808211156200077e57600080fd5b506200078d8b828c0162000652565b94505060a0890151925060c08901519150620007ac60e08a01620005b9565b90509295985092959890939650565b634e487b7160e01b600052603260045260246000fd5b600060018201620007f257634e487b7160e01b600052601160045260246000fd5b5060010190565b61117f80620008096000396000f3fe608060405234801561001057600080fd5b50600436106100935760003560e01c806392347b5e1161006657806392347b5e146100ea578063d41d826a14610168578063df1299791461017b578063f2fde38b1461018e578063f5cd7277146101a157600080fd5b8063057440d314610098578063715018a6146100b357806386d1a69f146100bd5780638da5cb5b146100c5575b600080fd5b6100a06101a9565b6040519081526020015b60405180910390f35b6100bb61021b565b005b6100bb610286565b6000546001600160a01b03165b6040516001600160a01b0390911681526020016100aa565b6101346100f8366004610f76565b6002602081905260009182526040909120805460018201549282015460038301546004909301546001600160a01b039092169392909160ff1685565b604080516001600160a01b03909616865260208601949094529284019190915260608301521515608082015260a0016100aa565b6100bb610176366004610f9f565b610399565b6001546100d2906001600160a01b031681565b6100bb61019c366004610f76565b6106d4565b6100a061079f565b6001546040516370a0823160e01b81523060048201526000916001600160a01b0316906370a0823190602401602060405180830381865afa1580156101f2573d6000803e3d6000fd5b505050506040513d601f19601f820116820180604052508101906102169190610fdf565b905090565b6000546001600160a01b0316331461027a5760405162461bcd60e51b815260206004820181905260248201527f4f776e61626c653a2063616c6c6572206973206e6f7420746865206f776e657260448201526064015b60405180910390fd5b61028460006109de565b565b601054600160a01b900460ff16156102d15760405162461bcd60e51b815260206004820152600e60248201526d4e6f2072652d656e7472616e637960901b6044820152606401610271565b6010805460ff60a01b1916600160a01b17905560006102f03342610a2e565b905080600a6000828254610304919061100e565b90915550506010546040518281526001600160a01b03909116907fc0e523490dd523c33b1878c9eb14ff46991e3f5b2cd33710918618f2a39cba1b9060200160405180910390a2601054610362906001600160a01b03163383610cbe565b336000908152600260205260408120600101805483929061038490849061100e565b90915550506010805460ff60a01b1916905550565b6001546040516370a0823160e01b81526001600160a01b038481166004830152859216906370a0823190602401602060405180830381865afa1580156103e3573d6000803e3d6000fd5b505050506040513d601f19601f820116820180604052508101906104079190610fdf565b101561047b5760405162461bcd60e51b815260206004820152603e60248201527f596f7520646f6e2774206861766520656e6f756768204c656761637920746f6b60448201527f656e7320666f722074686520707269636520726571756972656d656e742e00006064820152608401610271565b6001600160a01b03821660009081526002602081905260409091200154156104fe5760405162461bcd60e51b815260206004820152603060248201527f54686973206164647265737320697320616c726561647920696e20746865207660448201526f32b9ba34b7339031b7b73a3930b1ba1760811b6064820152608401610271565b6001546040516323b872dd60e01b81526001600160a01b03848116600483015230602483015260448201869052909116906323b872dd906064016020604051808303816000875af1158015610557573d6000803e3d6000fd5b505050506040513d601f19601f8201168201806040525081019061057b9190611026565b5080156105ff576004805460018082019092557f8a35acfbc15ff81a39ae7d344fd709f28e8600b4aa8c65c6b64bfe7fe36bd19b0180546001600160a01b0319166001600160a01b0385161790556006805491820181556000527ff652222313e28459528d920b65115c16c04f3efc82aaedc97be59f3f377c0d3f0183905561063d565b6005805460019081019091556007805491820181556000527fa66cc928b5edb82af9bd49922954155ab7b0942694bea4ce44661d9a8736c688018390555b506040805160a0810182526001600160a01b03928316808252600060208084018281528486019788524267ffffffffffffffff166060860190815260016080870181815295855260029384905296909320945185546001600160a01b031916971696909617845594519383019390935593519281019290925551600382015590516004909101805460ff1916911515919091179055565b6000546001600160a01b0316331461072e5760405162461bcd60e51b815260206004820181905260248201527f4f776e61626c653a2063616c6c6572206973206e6f7420746865206f776e65726044820152606401610271565b6001600160a01b0381166107935760405162461bcd60e51b815260206004820152602660248201527f4f776e61626c653a206e6577206f776e657220697320746865207a65726f206160448201526564647265737360d01b6064820152608401610271565b61079c816109de565b50565b336000908152600260208190526040822090810154600190910154106108075760405162461bcd60e51b815260206004820152601c60248201527f416c6c20746f6b656e732068617665206265656e20636c61696d6564000000006044820152606401610271565b33600090815260026020819052604082200154429190819060015b60085481116109b4576108388162278d00611043565b33600090815260026020526040902060030154610855919061100e565b8511156108f757610867600182611062565b6108749062278d00611043565b6108818262278d00611043565b61088b9190611062565b92508262278d0061271060086108a2600186611062565b815481106108b2576108b2611079565b9060005260206000200154856108c89190611043565b6108d2919061108f565b6108dc919061108f565b6108e69190611043565b6108f0908561100e565b93506109a2565b33600090815260026020526040902060030154610915600183611062565b6109229062278d00611043565b61092c9087611062565b6109369190611062565b92508262278d00612710600861094d600186611062565b8154811061095d5761095d611079565b9060005260206000200154856109739190611043565b61097d919061108f565b610987919061108f565b6109919190611043565b61099b908561100e565b93506109b4565b806109ac816110b1565b915050610822565b5033600090815260026020526040812060010154906109d38286611062565b979650505050505050565b600080546001600160a01b038381166001600160a01b0319831681178455604051919092169283917f8be0079c531659141344cd1fd0a4f28419497f9722a3daafe3b4186f6b6457e09190a35050565b33600090815260026020819052604082209081015460019091015410610a965760405162461bcd60e51b815260206004820152601c60248201527f416c6c20746f6b656e732068617665206265656e20636c61696d6564000000006044820152606401610271565b33600090815260026020819052604082200154839190819060015b6008548111610c4357610ac78162278d00611043565b33600090815260026020526040902060030154610ae4919061100e565b851115610b8657610af6600182611062565b610b039062278d00611043565b610b108262278d00611043565b610b1a9190611062565b92508262278d006127106008610b31600186611062565b81548110610b4157610b41611079565b906000526020600020015485610b579190611043565b610b61919061108f565b610b6b919061108f565b610b759190611043565b610b7f908561100e565b9350610c31565b33600090815260026020526040902060030154610ba4600183611062565b610bb19062278d00611043565b610bbb9087611062565b610bc59190611062565b92508262278d006127106008610bdc600186611062565b81548110610bec57610bec611079565b906000526020600020015485610c029190611043565b610c0c919061108f565b610c16919061108f565b610c209190611043565b610c2a908561100e565b9350610c43565b80610c3b816110b1565b915050610ab1565b506001600160a01b03871660009081526002602052604081206001015490610c6b8286611062565b6001600160a01b038a16600090815260026020526040902060010154909150610c9590829061100e565b6001600160a01b038a166000908152600260205260409020600101559550505050505092915050565b604080516001600160a01b038416602482015260448082018490528251808303909101815260649091019091526020810180516001600160e01b031663a9059cbb60e01b179052610d10908490610d15565b505050565b6000610d6a826040518060400160405280602081526020017f5361666545524332303a206c6f772d6c6576656c2063616c6c206661696c6564815250856001600160a01b0316610de79092919063ffffffff16565b805190915015610d105780806020019051810190610d889190611026565b610d105760405162461bcd60e51b815260206004820152602a60248201527f5361666545524332303a204552433230206f7065726174696f6e20646964206e6044820152691bdd081cdd58d8d9595960b21b6064820152608401610271565b6060610df68484600085610e00565b90505b9392505050565b606082471015610e615760405162461bcd60e51b815260206004820152602660248201527f416464726573733a20696e73756666696369656e742062616c616e636520666f6044820152651c8818d85b1b60d21b6064820152608401610271565b6001600160a01b0385163b610eb85760405162461bcd60e51b815260206004820152601d60248201527f416464726573733a2063616c6c20746f206e6f6e2d636f6e74726163740000006044820152606401610271565b600080866001600160a01b03168587604051610ed491906110fa565b60006040518083038185875af1925050503d8060008114610f11576040519150601f19603f3d011682016040523d82523d6000602084013e610f16565b606091505b50915091506109d382828660608315610f30575081610df9565b825115610f405782518084602001fd5b8160405162461bcd60e51b81526004016102719190611116565b80356001600160a01b0381168114610f7157600080fd5b919050565b600060208284031215610f8857600080fd5b610df982610f5a565b801515811461079c57600080fd5b600080600060608486031215610fb457600080fd5b83359250610fc460208501610f5a565b91506040840135610fd481610f91565b809150509250925092565b600060208284031215610ff157600080fd5b5051919050565b634e487b7160e01b600052601160045260246000fd5b6000821982111561102157611021610ff8565b500190565b60006020828403121561103857600080fd5b8151610df981610f91565b600081600019048311821515161561105d5761105d610ff8565b500290565b60008282101561107457611074610ff8565b500390565b634e487b7160e01b600052603260045260246000fd5b6000826110ac57634e487b7160e01b600052601260045260246000fd5b500490565b6000600182016110c3576110c3610ff8565b5060010190565b60005b838110156110e55781810151838201526020016110cd565b838111156110f4576000848401525b50505050565b6000825161110c8184602087016110ca565b9190910192915050565b60208152600082518060208401526111358160408501602087016110ca565b601f01601f1916919091016040019291505056fea2646970667358221220bc68a580e73e861b29d3a57b714d5ffa46791f949bfc519d57f57324160c105564736f6c634300080f0033436f6e7374727563746f723a206c6f636b656420496e766573746f7220616464",
  "bytecodeSha1": "da39a3ee5e6b4b0d3255bfef95601890afd80709",
  "compiler": {
    "evm_version": "istanbul",
    "optimizer": {
      "enabled": true,
      "runs": 200
    },
    "version": "0.8.15+commit.e14f2714"
  },
  "contractName": "LockContract",
  "language": "Solidity",
  "natspec": {
    "details": "This contract handles the vesting of a ERC20 tokens for a given beneficiary. Custody of the _token amount can be given to this contract, which will release the _token to the beneficiary following a given schedule. The vesting schedule is established by a key->value pair in the form of _duration->_amounts. This two arrays have the same length and are iterated by the _milestone variable",
    "kind": "dev",
    "methods": {
      "constructor": {
        "details": "Set the beneficiary, start timestamp and locking durations and amounts."
      },
      "contract_balance()": {
        "details": "View function to get contract balance"
      },
      "new_Investor(uint256,address,bool)": {
        "details": "Adds a new Investor."
      },
      "owner()": {
        "details": "Returns the address of the current owner."
      },
      "release()": {
        "details": "Release the tokens  Emits a {ERC20Released} event."
      },
      "renounceOwnership()": {
        "details": "Leaves the contract without owner. It will not be possible to call `onlyOwner` functions anymore. Can only be called by the current owner. NOTE: Renouncing ownership will leave the contract without an owner, thereby removing any functionality that is only available to the owner."
      },
      "transferOwnership(address)": {
        "details": "Transfers ownership of the contract to a new account (`newOwner`). Can only be called by the current owner."
      },
      "view_can_release_percent()": {
        "details": "View function that an investor can use to see how many tokens he can withdraw"
      }
    },
    "title": "LockContract",
    "version": 1
  },
  "opcodes": "PUSH1 0x80 PUSH1 0x40 MSTORE CALLVALUE DUP1 ISZERO PUSH2 0x10 JUMPI PUSH1 0x0 DUP1 REVERT JUMPDEST POP PUSH1 0x4 CALLDATASIZE LT PUSH2 0x93 JUMPI PUSH1 0x0 CALLDATALOAD PUSH1 0xE0 SHR DUP1 PUSH4 0x92347B5E GT PUSH2 0x66 JUMPI DUP1 PUSH4 0x92347B5E EQ PUSH2 0xEA JUMPI DUP1 PUSH4 0xD41D826A EQ PUSH2 0x168 JUMPI DUP1 PUSH4 0xDF129979 EQ PUSH2 0x17B JUMPI DUP1 PUSH4 0xF2FDE38B EQ PUSH2 0x18E JUMPI DUP1 PUSH4 0xF5CD7277 EQ PUSH2 0x1A1 JUMPI PUSH1 0x0 DUP1 REVERT JUMPDEST DUP1 PUSH4 0x57440D3 EQ PUSH2 0x98 JUMPI DUP1 PUSH4 0x715018A6 EQ PUSH2 0xB3 JUMPI DUP1 PUSH4 0x86D1A69F EQ PUSH2 0xBD JUMPI DUP1 PUSH4 0x8DA5CB5B EQ PUSH2 0xC5 JUMPI JUMPDEST PUSH1 0x0 DUP1 REVERT JUMPDEST PUSH2 0xA0 PUSH2 0x1A9 JUMP JUMPDEST PUSH1 0x40 MLOAD SWAP1 DUP2 MSTORE PUSH1 0x20 ADD JUMPDEST PUSH1 0x40 MLOAD DUP1 SWAP2 SUB SWAP1 RETURN JUMPDEST PUSH2 0xBB PUSH2 0x21B JUMP JUMPDEST STOP JUMPDEST PUSH2 0xBB PUSH2 0x286 JUMP JUMPDEST PUSH1 0x0 SLOAD PUSH1 0x1 PUSH1 0x1 PUSH1 0xA0 SHL SUB AND JUMPDEST PUSH1 0x40 MLOAD PUSH1 0x1 PUSH1 0x1 PUSH1 0xA0 SHL SUB SWAP1 SWAP2 AND DUP2 MSTORE PUSH1 0x20 ADD PUSH2 0xAA JUMP JUMPDEST PUSH2 0x134 PUSH2 0xF8 CALLDATASIZE PUSH1 0x4 PUSH2 0xF76 JUMP JUMPDEST PUSH1 0x2 PUSH1 0x20 DUP2 SWAP1 MSTORE PUSH1 0x0 SWAP2 DUP3 MSTORE PUSH1 0x40 SWAP1 SWAP2 KECCAK256 DUP1 SLOAD PUSH1 0x1 DUP3 ADD SLOAD SWAP3 DUP3 ADD SLOAD PUSH1 0x3 DUP4 ADD SLOAD PUSH1 0x4 SWAP1 SWAP4 ADD SLOAD PUSH1 0x1 PUSH1 0x1 PUSH1 0xA0 SHL SUB SWAP1 SWAP3 AND SWAP4 SWAP3 SWAP1 SWAP2 PUSH1 0xFF AND DUP6 JUMP JUMPDEST PUSH1 0x40 DUP1 MLOAD PUSH1 0x1 PUSH1 0x1 PUSH1 0xA0 SHL SUB SWAP1 SWAP7 AND DUP7 MSTORE PUSH1 0x20 DUP7 ADD SWAP5 SWAP1 SWAP5 MSTORE SWAP3 DUP5 ADD SWAP2 SWAP1 SWAP2 MSTORE PUSH1 0x60 DUP4 ADD MSTORE ISZERO ISZERO PUSH1 0x80 DUP3 ADD MSTORE PUSH1 0xA0 ADD PUSH2 0xAA JUMP JUMPDEST PUSH2 0xBB PUSH2 0x176 CALLDATASIZE PUSH1 0x4 PUSH2 0xF9F JUMP JUMPDEST PUSH2 0x399 JUMP JUMPDEST PUSH1 0x1 SLOAD PUSH2 0xD2 SWAP1 PUSH1 0x1 PUSH1 0x1 PUSH1 0xA0 SHL SUB AND DUP2 JUMP JUMPDEST PUSH2 0xBB PUSH2 0x19C CALLDATASIZE PUSH1 0x4 PUSH2 0xF76 JUMP JUMPDEST PUSH2 0x6D4 JUMP JUMPDEST PUSH2 0xA0 PUSH2 0x79F JUMP JUMPDEST PUSH1 0x1 SLOAD PUSH1 0x40 MLOAD PUSH4 0x70A08231 PUSH1 0xE0 SHL DUP2 MSTORE ADDRESS PUSH1 0x4 DUP3 ADD MSTORE PUSH1 0x0 SWAP2 PUSH1 0x1 PUSH1 0x1 PUSH1 0xA0 SHL SUB AND SWAP1 PUSH4 0x70A08231 SWAP1 PUSH1 0x24 ADD PUSH1 0x20 PUSH1 0x40 MLOAD DUP1 DUP4 SUB DUP2 DUP7 GAS STATICCALL ISZERO DUP1 ISZERO PUSH2 0x1F2 JUMPI RETURNDATASIZE PUSH1 0x0 DUP1 RETURNDATACOPY RETURNDATASIZE PUSH1 0x0 REVERT JUMPDEST POP POP POP POP PUSH1 0x40 MLOAD RETURNDATASIZE PUSH1 0x1F NOT PUSH1 0x1F DUP3 ADD AND DUP3 ADD DUP1 PUSH1 0x40 MSTORE POP DUP2 ADD SWAP1 PUSH2 0x216 SWAP2 SWAP1 PUSH2 0xFDF JUMP JUMPDEST SWAP1 POP SWAP1 JUMP JUMPDEST PUSH1 0x0 SLOAD PUSH1 0x1 PUSH1 0x1 PUSH1 0xA0 SHL SUB AND CALLER EQ PUSH2 0x27A JUMPI PUSH1 0x40 MLOAD PUSH3 0x461BCD PUSH1 0xE5 SHL DUP2 MSTORE PUSH1 0x20 PUSH1 0x4 DUP3 ADD DUP2 SWAP1 MSTORE PUSH1 0x24 DUP3 ADD MSTORE PUSH32 0x4F776E61626C653A2063616C6C6572206973206E6F7420746865206F776E6572 PUSH1 0x44 DUP3 ADD MSTORE PUSH1 0x64 ADD JUMPDEST PUSH1 0x40 MLOAD DUP1 SWAP2 SUB SWAP1 REVERT JUMPDEST PUSH2 0x284 PUSH1 0x0 PUSH2 0x9DE JUMP JUMPDEST JUMP JUMPDEST PUSH1 0x10 SLOAD PUSH1 0x1 PUSH1 0xA0 SHL SWAP1 DIV PUSH1 0xFF AND ISZERO PUSH2 0x2D1 JUMPI PUSH1 0x40 MLOAD PUSH3 0x461BCD PUSH1 0xE5 SHL DUP2 MSTORE PUSH1 0x20 PUSH1 0x4 DUP3 ADD MSTORE PUSH1 0xE PUSH1 0x24 DUP3 ADD MSTORE PUSH14 0x4E6F2072652D656E7472616E6379 PUSH1 0x90 SHL PUSH1 0x44 DUP3 ADD MSTORE PUSH1 0x64 ADD PUSH2 0x271 JUMP JUMPDEST PUSH1 0x10 DUP1 SLOAD PUSH1 0xFF PUSH1 0xA0 SHL NOT AND PUSH1 0x1 PUSH1 0xA0 SHL OR SWAP1 SSTORE PUSH1 0x0 PUSH2 0x2F0 CALLER TIMESTAMP PUSH2 0xA2E JUMP JUMPDEST SWAP1 POP DUP1 PUSH1 0xA PUSH1 0x0 DUP3 DUP3 SLOAD PUSH2 0x304 SWAP2 SWAP1 PUSH2 0x100E JUMP JUMPDEST SWAP1 SWAP2 SSTORE POP POP PUSH1 0x10 SLOAD PUSH1 0x40 MLOAD DUP3 DUP2 MSTORE PUSH1 0x1 PUSH1 0x1 PUSH1 0xA0 SHL SUB SWAP1 SWAP2 AND SWAP1 PUSH32 0xC0E523490DD523C33B1878C9EB14FF46991E3F5B2CD33710918618F2A39CBA1B SWAP1 PUSH1 0x20 ADD PUSH1 0x40 MLOAD DUP1 SWAP2 SUB SWAP1 LOG2 PUSH1 0x10 SLOAD PUSH2 0x362 SWAP1 PUSH1 0x1 PUSH1 0x1 PUSH1 0xA0 SHL SUB AND CALLER DUP4 PUSH2 0xCBE JUMP JUMPDEST CALLER PUSH1 0x0 SWAP1 DUP2 MSTORE PUSH1 0x2 PUSH1 0x20 MSTORE PUSH1 0x40 DUP2 KECCAK256 PUSH1 0x1 ADD DUP1 SLOAD DUP4 SWAP3 SWAP1 PUSH2 0x384 SWAP1 DUP5 SWAP1 PUSH2 0x100E JUMP JUMPDEST SWAP1 SWAP2 SSTORE POP POP PUSH1 0x10 DUP1 SLOAD PUSH1 0xFF PUSH1 0xA0 SHL NOT AND SWAP1 SSTORE POP JUMP JUMPDEST PUSH1 0x1 SLOAD PUSH1 0x40 MLOAD PUSH4 0x70A08231 PUSH1 0xE0 SHL DUP2 MSTORE PUSH1 0x1 PUSH1 0x1 PUSH1 0xA0 SHL SUB DUP5 DUP2 AND PUSH1 0x4 DUP4 ADD MSTORE DUP6 SWAP3 AND SWAP1 PUSH4 0x70A08231 SWAP1 PUSH1 0x24 ADD PUSH1 0x20 PUSH1 0x40 MLOAD DUP1 DUP4 SUB DUP2 DUP7 GAS STATICCALL ISZERO DUP1 ISZERO PUSH2 0x3E3 JUMPI RETURNDATASIZE PUSH1 0x0 DUP1 RETURNDATACOPY RETURNDATASIZE PUSH1 0x0 REVERT JUMPDEST POP POP POP POP PUSH1 0x40 MLOAD RETURNDATASIZE PUSH1 0x1F NOT PUSH1 0x1F DUP3 ADD AND DUP3 ADD DUP1 PUSH1 0x40 MSTORE POP DUP2 ADD SWAP1 PUSH2 0x407 SWAP2 SWAP1 PUSH2 0xFDF JUMP JUMPDEST LT ISZERO PUSH2 0x47B JUMPI PUSH1 0x40 MLOAD PUSH3 0x461BCD PUSH1 0xE5 SHL DUP2 MSTORE PUSH1 0x20 PUSH1 0x4 DUP3 ADD MSTORE PUSH1 0x3E PUSH1 0x24 DUP3 ADD MSTORE PUSH32 0x596F7520646F6E2774206861766520656E6F756768204C656761637920746F6B PUSH1 0x44 DUP3 ADD MSTORE PUSH32 0x656E7320666F722074686520707269636520726571756972656D656E742E0000 PUSH1 0x64 DUP3 ADD MSTORE PUSH1 0x84 ADD PUSH2 0x271 JUMP JUMPDEST PUSH1 0x1 PUSH1 0x1 PUSH1 0xA0 SHL SUB DUP3 AND PUSH1 0x0 SWAP1 DUP2 MSTORE PUSH1 0x2 PUSH1 0x20 DUP2 SWAP1 MSTORE PUSH1 0x40 SWAP1 SWAP2 KECCAK256 ADD SLOAD ISZERO PUSH2 0x4FE JUMPI PUSH1 0x40 MLOAD PUSH3 0x461BCD PUSH1 0xE5 SHL DUP2 MSTORE PUSH1 0x20 PUSH1 0x4 DUP3 ADD MSTORE PUSH1 0x30 PUSH1 0x24 DUP3 ADD MSTORE PUSH32 0x54686973206164647265737320697320616C726561647920696E207468652076 PUSH1 0x44 DUP3 ADD MSTORE PUSH16 0x32B9BA34B7339031B7B73A3930B1BA17 PUSH1 0x81 SHL PUSH1 0x64 DUP3 ADD MSTORE PUSH1 0x84 ADD PUSH2 0x271 JUMP JUMPDEST PUSH1 0x1 SLOAD PUSH1 0x40 MLOAD PUSH4 0x23B872DD PUSH1 0xE0 SHL DUP2 MSTORE PUSH1 0x1 PUSH1 0x1 PUSH1 0xA0 SHL SUB DUP5 DUP2 AND PUSH1 0x4 DUP4 ADD MSTORE ADDRESS PUSH1 0x24 DUP4 ADD MSTORE PUSH1 0x44 DUP3 ADD DUP7 SWAP1 MSTORE SWAP1 SWAP2 AND SWAP1 PUSH4 0x23B872DD SWAP1 PUSH1 0x64 ADD PUSH1 0x20 PUSH1 0x40 MLOAD DUP1 DUP4 SUB DUP2 PUSH1 0x0 DUP8 GAS CALL ISZERO DUP1 ISZERO PUSH2 0x557 JUMPI RETURNDATASIZE PUSH1 0x0 DUP1 RETURNDATACOPY RETURNDATASIZE PUSH1 0x0 REVERT JUMPDEST POP POP POP POP PUSH1 0x40 MLOAD RETURNDATASIZE PUSH1 0x1F NOT PUSH1 0x1F DUP3 ADD AND DUP3 ADD DUP1 PUSH1 0x40 MSTORE POP DUP2 ADD SWAP1 PUSH2 0x57B SWAP2 SWAP1 PUSH2 0x1026 JUMP JUMPDEST POP DUP1 ISZERO PUSH2 0x5FF JUMPI PUSH1 0x4 DUP1 SLOAD PUSH1 0x1 DUP1 DUP3 ADD SWAP1 SWAP3 SSTORE PUSH32 0x8A35ACFBC15FF81A39AE7D344FD709F28E8600B4AA8C65C6B64BFE7FE36BD19B ADD DUP1 SLOAD PUSH1 0x1 PUSH1 0x1 PUSH1 0xA0 SHL SUB NOT AND PUSH1 0x1 PUSH1 0x1 PUSH1 0xA0 SHL SUB DUP6 AND OR SWAP1 SSTORE PUSH1 0x6 DUP1 SLOAD SWAP2 DUP3 ADD DUP2 SSTORE PUSH1 0x0 MSTORE PUSH32 0xF652222313E28459528D920B65115C16C04F3EFC82AAEDC97BE59F3F377C0D3F ADD DUP4 SWAP1 SSTORE PUSH2 0x63D JUMP JUMPDEST PUSH1 0x5 DUP1 SLOAD PUSH1 0x1 SWAP1 DUP2 ADD SWAP1 SWAP2 SSTORE PUSH1 0x7 DUP1 SLOAD SWAP2 DUP3 ADD DUP2 SSTORE PUSH1 0x0 MSTORE PUSH32 0xA66CC928B5EDB82AF9BD49922954155AB7B0942694BEA4CE44661D9A8736C688 ADD DUP4 SWAP1 SSTORE JUMPDEST POP PUSH1 0x40 DUP1 MLOAD PUSH1 0xA0 DUP2 ADD DUP3 MSTORE PUSH1 0x1 PUSH1 0x1 PUSH1 0xA0 SHL SUB SWAP3 DUP4 AND DUP1 DUP3 MSTORE PUSH1 0x0 PUSH1 0x20 DUP1 DUP5 ADD DUP3 DUP2 MSTORE DUP5 DUP7 ADD SWAP8 DUP9 MSTORE TIMESTAMP PUSH8 0xFFFFFFFFFFFFFFFF AND PUSH1 0x60 DUP7 ADD SWAP1 DUP2 MSTORE PUSH1 0x1 PUSH1 0x80 DUP8 ADD DUP2 DUP2 MSTORE SWAP6 DUP6 MSTORE PUSH1 0x2 SWAP4 DUP5 SWAP1 MSTORE SWAP7 SWAP1 SWAP4 KECCAK256 SWAP5 MLOAD DUP6 SLOAD PUSH1 0x1 PUSH1 0x1 PUSH1 0xA0 SHL SUB NOT AND SWAP8 AND SWAP7 SWAP1 SWAP7 OR DUP5 SSTORE SWAP5 MLOAD SWAP4 DUP4 ADD SWAP4 SWAP1 SWAP4 SSTORE SWAP4 MLOAD SWAP3 DUP2 ADD SWAP3 SWAP1 SWAP3 SSTORE MLOAD PUSH1 0x3 DUP3 ADD SSTORE SWAP1 MLOAD PUSH1 0x4 SWAP1 SWAP2 ADD DUP1 SLOAD PUSH1 0xFF NOT AND SWAP2 ISZERO ISZERO SWAP2 SWAP1 SWAP2 OR SWAP1 SSTORE JUMP JUMPDEST PUSH1 0x0 SLOAD PUSH1 0x1 PUSH1 0x1 PUSH1 0xA0 SHL SUB AND CALLER EQ PUSH2 0x72E JUMPI PUSH1 0x40 MLOAD PUSH3 0x461BCD PUSH1 0xE5 SHL DUP2 MSTORE PUSH1 0x20 PUSH1 0x4 DUP3 ADD DUP2 SWAP1 MSTORE PUSH1 0x24 DUP3 ADD MSTORE PUSH32 0x4F776E61626C653A2063616C6C6572206973206E6F7420746865206F776E6572 PUSH1 0x44 DUP3 ADD MSTORE PUSH1 0x64 ADD PUSH2 0x271 JUMP JUMPDEST PUSH1 0x1 PUSH1 0x1 PUSH1 0xA0 SHL SUB DUP2 AND PUSH2 0x793 JUMPI PUSH1 0x40 MLOAD PUSH3 0x461BCD PUSH1 0xE5 SHL DUP2 MSTORE PUSH1 0x20 PUSH1 0x4 DUP3 ADD MSTORE PUSH1 0x26 PUSH1 0x24 DUP3 ADD MSTORE PUSH32 0x4F776E61626C653A206E6577206F776E657220697320746865207A65726F2061 PUSH1 0x44 DUP3 ADD MSTORE PUSH6 0x646472657373 PUSH1 0xD0 SHL PUSH1 0x64 DUP3 ADD MSTORE PUSH1 0x84 ADD PUSH2 0x271 JUMP JUMPDEST PUSH2 0x79C DUP2 PUSH2 0x9DE JUMP JUMPDEST POP JUMP JUMPDEST CALLER PUSH1 0x0 SWAP1 DUP2 MSTORE PUSH1 0x2 PUSH1 0x20 DUP2 SWAP1 MSTORE PUSH1 0x40 DUP3 KECCAK256 SWAP1 DUP2 ADD SLOAD PUSH1 0x1 SWAP1 SWAP2 ADD SLOAD LT PUSH2 0x807 JUMPI PUSH1 0x40 MLOAD PUSH3 0x461BCD PUSH1 0xE5 SHL DUP2 MSTORE PUSH1 0x20 PUSH1 0x4 DUP3 ADD MSTORE PUSH1 0x1C PUSH1 0x24 DUP3 ADD MSTORE PUSH32 0x416C6C20746F6B656E732068617665206265656E20636C61696D656400000000 PUSH1 0x44 DUP3 ADD MSTORE PUSH1 0x64 ADD PUSH2 0x271 JUMP JUMPDEST CALLER PUSH1 0x0 SWAP1 DUP2 MSTORE PUSH1 0x2 PUSH1 0x20 DUP2 SWAP1 MSTORE PUSH1 0x40 DUP3 KECCAK256 ADD SLOAD TIMESTAMP SWAP2 SWAP1 DUP2 SWAP1 PUSH1 0x1 JUMPDEST PUSH1 0x8 SLOAD DUP2 GT PUSH2 0x9B4 JUMPI PUSH2 0x838 DUP2 PUSH3 0x278D00 PUSH2 0x1043 JUMP JUMPDEST CALLER PUSH1 0x0 SWAP1 DUP2 MSTORE PUSH1 0x2 PUSH1 0x20 MSTORE PUSH1 0x40 SWAP1 KECCAK256 PUSH1 0x3 ADD SLOAD PUSH2 0x855 SWAP2 SWAP1 PUSH2 0x100E JUMP JUMPDEST DUP6 GT ISZERO PUSH2 0x8F7 JUMPI PUSH2 0x867 PUSH1 0x1 DUP3 PUSH2 0x1062 JUMP JUMPDEST PUSH2 0x874 SWAP1 PUSH3 0x278D00 PUSH2 0x1043 JUMP JUMPDEST PUSH2 0x881 DUP3 PUSH3 0x278D00 PUSH2 0x1043 JUMP JUMPDEST PUSH2 0x88B SWAP2 SWAP1 PUSH2 0x1062 JUMP JUMPDEST SWAP3 POP DUP3 PUSH3 0x278D00 PUSH2 0x2710 PUSH1 0x8 PUSH2 0x8A2 PUSH1 0x1 DUP7 PUSH2 0x1062 JUMP JUMPDEST DUP2 SLOAD DUP2 LT PUSH2 0x8B2 JUMPI PUSH2 0x8B2 PUSH2 0x1079 JUMP JUMPDEST SWAP1 PUSH1 0x0 MSTORE PUSH1 0x20 PUSH1 0x0 KECCAK256 ADD SLOAD DUP6 PUSH2 0x8C8 SWAP2 SWAP1 PUSH2 0x1043 JUMP JUMPDEST PUSH2 0x8D2 SWAP2 SWAP1 PUSH2 0x108F JUMP JUMPDEST PUSH2 0x8DC SWAP2 SWAP1 PUSH2 0x108F JUMP JUMPDEST PUSH2 0x8E6 SWAP2 SWAP1 PUSH2 0x1043 JUMP JUMPDEST PUSH2 0x8F0 SWAP1 DUP6 PUSH2 0x100E JUMP JUMPDEST SWAP4 POP PUSH2 0x9A2 JUMP JUMPDEST CALLER PUSH1 0x0 SWAP1 DUP2 MSTORE PUSH1 0x2 PUSH1 0x20 MSTORE PUSH1 0x40 SWAP1 KECCAK256 PUSH1 0x3 ADD SLOAD PUSH2 0x915 PUSH1 0x1 DUP4 PUSH2 0x1062 JUMP JUMPDEST PUSH2 0x922 SWAP1 PUSH3 0x278D00 PUSH2 0x1043 JUMP JUMPDEST PUSH2 0x92C SWAP1 DUP8 PUSH2 0x1062 JUMP JUMPDEST PUSH2 0x936 SWAP2 SWAP1 PUSH2 0x1062 JUMP JUMPDEST SWAP3 POP DUP3 PUSH3 0x278D00 PUSH2 0x2710 PUSH1 0x8 PUSH2 0x94D PUSH1 0x1 DUP7 PUSH2 0x1062 JUMP JUMPDEST DUP2 SLOAD DUP2 LT PUSH2 0x95D JUMPI PUSH2 0x95D PUSH2 0x1079 JUMP JUMPDEST SWAP1 PUSH1 0x0 MSTORE PUSH1 0x20 PUSH1 0x0 KECCAK256 ADD SLOAD DUP6 PUSH2 0x973 SWAP2 SWAP1 PUSH2 0x1043 JUMP JUMPDEST PUSH2 0x97D SWAP2 SWAP1 PUSH2 0x108F JUMP JUMPDEST PUSH2 0x987 SWAP2 SWAP1 PUSH2 0x108F JUMP JUMPDEST PUSH2 0x991 SWAP2 SWAP1 PUSH2 0x1043 JUMP JUMPDEST PUSH2 0x99B SWAP1 DUP6 PUSH2 0x100E JUMP JUMPDEST SWAP4 POP PUSH2 0x9B4 JUMP JUMPDEST DUP1 PUSH2 0x9AC DUP2 PUSH2 0x10B1 JUMP JUMPDEST SWAP2 POP POP PUSH2 0x822 JUMP JUMPDEST POP CALLER PUSH1 0x0 SWAP1 DUP2 MSTORE PUSH1 0x2 PUSH1 0x20 MSTORE PUSH1 0x40 DUP2 KECCAK256 PUSH1 0x1 ADD SLOAD SWAP1 PUSH2 0x9D3 DUP3 DUP7 PUSH2 0x1062 JUMP JUMPDEST SWAP8 SWAP7 POP POP POP POP POP POP POP JUMP JUMPDEST PUSH1 0x0 DUP1 SLOAD PUSH1 0x1 PUSH1 0x1 PUSH1 0xA0 SHL SUB DUP4 DUP2 AND PUSH1 0x1 PUSH1 0x1 PUSH1 0xA0 SHL SUB NOT DUP4 AND DUP2 OR DUP5 SSTORE PUSH1 0x40 MLOAD SWAP2 SWAP1 SWAP3 AND SWAP3 DUP4 SWAP2 PUSH32 0x8BE0079C531659141344CD1FD0A4F28419497F9722A3DAAFE3B4186F6B6457E0 SWAP2 SWAP1 LOG3 POP POP JUMP JUMPDEST CALLER PUSH1 0x0 SWAP1 DUP2 MSTORE PUSH1 0x2 PUSH1 0x20 DUP2 SWAP1 MSTORE PUSH1 0x40 DUP3 KECCAK256 SWAP1 DUP2 ADD SLOAD PUSH1 0x1 SWAP1 SWAP2 ADD SLOAD LT PUSH2 0xA96 JUMPI PUSH1 0x40 MLOAD PUSH3 0x461BCD PUSH1 0xE5 SHL DUP2 MSTORE PUSH1 0x20 PUSH1 0x4 DUP3 ADD MSTORE PUSH1 0x1C PUSH1 0x24 DUP3 ADD MSTORE PUSH32 0x416C6C20746F6B656E732068617665206265656E20636C61696D656400000000 PUSH1 0x44 DUP3 ADD MSTORE PUSH1 0x64 ADD PUSH2 0x271 JUMP JUMPDEST CALLER PUSH1 0x0 SWAP1 DUP2 MSTORE PUSH1 0x2 PUSH1 0x20 DUP2 SWAP1 MSTORE PUSH1 0x40 DUP3 KECCAK256 ADD SLOAD DUP4 SWAP2 SWAP1 DUP2 SWAP1 PUSH1 0x1 JUMPDEST PUSH1 0x8 SLOAD DUP2 GT PUSH2 0xC43 JUMPI PUSH2 0xAC7 DUP2 PUSH3 0x278D00 PUSH2 0x1043 JUMP JUMPDEST CALLER PUSH1 0x0 SWAP1 DUP2 MSTORE PUSH1 0x2 PUSH1 0x20 MSTORE PUSH1 0x40 SWAP1 KECCAK256 PUSH1 0x3 ADD SLOAD PUSH2 0xAE4 SWAP2 SWAP1 PUSH2 0x100E JUMP JUMPDEST DUP6 GT ISZERO PUSH2 0xB86 JUMPI PUSH2 0xAF6 PUSH1 0x1 DUP3 PUSH2 0x1062 JUMP JUMPDEST PUSH2 0xB03 SWAP1 PUSH3 0x278D00 PUSH2 0x1043 JUMP JUMPDEST PUSH2 0xB10 DUP3 PUSH3 0x278D00 PUSH2 0x1043 JUMP JUMPDEST PUSH2 0xB1A SWAP2 SWAP1 PUSH2 0x1062 JUMP JUMPDEST SWAP3 POP DUP3 PUSH3 0x278D00 PUSH2 0x2710 PUSH1 0x8 PUSH2 0xB31 PUSH1 0x1 DUP7 PUSH2 0x1062 JUMP JUMPDEST DUP2 SLOAD DUP2 LT PUSH2 0xB41 JUMPI PUSH2 0xB41 PUSH2 0x1079 JUMP JUMPDEST SWAP1 PUSH1 0x0 MSTORE PUSH1 0x20 PUSH1 0x0 KECCAK256 ADD SLOAD DUP6 PUSH2 0xB57 SWAP2 SWAP1 PUSH2 0x1043 JUMP JUMPDEST PUSH2 0xB61 SWAP2 SWAP1 PUSH2 0x108F JUMP JUMPDEST PUSH2 0xB6B SWAP2 SWAP1 PUSH2 0x108F JUMP JUMPDEST PUSH2 0xB75 SWAP2 SWAP1 PUSH2 0x1043 JUMP JUMPDEST PUSH2 0xB7F SWAP1 DUP6 PUSH2 0x100E JUMP JUMPDEST SWAP4 POP PUSH2 0xC31 JUMP JUMPDEST CALLER PUSH1 0x0 SWAP1 DUP2 MSTORE PUSH1 0x2 PUSH1 0x20 MSTORE PUSH1 0x40 SWAP1 KECCAK256 PUSH1 0x3 ADD SLOAD PUSH2 0xBA4 PUSH1 0x1 DUP4 PUSH2 0x1062 JUMP JUMPDEST PUSH2 0xBB1 SWAP1 PUSH3 0x278D00 PUSH2 0x1043 JUMP JUMPDEST PUSH2 0xBBB SWAP1 DUP8 PUSH2 0x1062 JUMP JUMPDEST PUSH2 0xBC5 SWAP2 SWAP1 PUSH2 0x1062 JUMP JUMPDEST SWAP3 POP DUP3 PUSH3 0x278D00 PUSH2 0x2710 PUSH1 0x8 PUSH2 0xBDC PUSH1 0x1 DUP7 PUSH2 0x1062 JUMP JUMPDEST DUP2 SLOAD DUP2 LT PUSH2 0xBEC JUMPI PUSH2 0xBEC PUSH2 0x1079 JUMP JUMPDEST SWAP1 PUSH1 0x0 MSTORE PUSH1 0x20 PUSH1 0x0 KECCAK256 ADD SLOAD DUP6 PUSH2 0xC02 SWAP2 SWAP1 PUSH2 0x1043 JUMP JUMPDEST PUSH2 0xC0C SWAP2 SWAP1 PUSH2 0x108F JUMP JUMPDEST PUSH2 0xC16 SWAP2 SWAP1 PUSH2 0x108F JUMP JUMPDEST PUSH2 0xC20 SWAP2 SWAP1 PUSH2 0x1043 JUMP JUMPDEST PUSH2 0xC2A SWAP1 DUP6 PUSH2 0x100E JUMP JUMPDEST SWAP4 POP PUSH2 0xC43 JUMP JUMPDEST DUP1 PUSH2 0xC3B DUP2 PUSH2 0x10B1 JUMP JUMPDEST SWAP2 POP POP PUSH2 0xAB1 JUMP JUMPDEST POP PUSH1 0x1 PUSH1 0x1 PUSH1 0xA0 SHL SUB DUP8 AND PUSH1 0x0 SWAP1 DUP2 MSTORE PUSH1 0x2 PUSH1 0x20 MSTORE PUSH1 0x40 DUP2 KECCAK256 PUSH1 0x1 ADD SLOAD SWAP1 PUSH2 0xC6B DUP3 DUP7 PUSH2 0x1062 JUMP JUMPDEST PUSH1 0x1 PUSH1 0x1 PUSH1 0xA0 SHL SUB DUP11 AND PUSH1 0x0 SWAP1 DUP2 MSTORE PUSH1 0x2 PUSH1 0x20 MSTORE PUSH1 0x40 SWAP1 KECCAK256 PUSH1 0x1 ADD SLOAD SWAP1 SWAP2 POP PUSH2 0xC95 SWAP1 DUP3 SWAP1 PUSH2 0x100E JUMP JUMPDEST PUSH1 0x1 PUSH1 0x1 PUSH1 0xA0 SHL SUB DUP11 AND PUSH1 0x0 SWAP1 DUP2 MSTORE PUSH1 0x2 PUSH1 0x20 MSTORE PUSH1 0x40 SWAP1 KECCAK256 PUSH1 0x1 ADD SSTORE SWAP6 POP POP POP POP POP POP SWAP3 SWAP2 POP POP JUMP JUMPDEST PUSH1 0x40 DUP1 MLOAD PUSH1 0x1 PUSH1 0x1 PUSH1 0xA0 SHL SUB DUP5 AND PUSH1 0x24 DUP3 ADD MSTORE PUSH1 0x44 DUP1 DUP3 ADD DUP5 SWAP1 MSTORE DUP3 MLOAD DUP1 DUP4 SUB SWAP1 SWAP2 ADD DUP2 MSTORE PUSH1 0x64 SWAP1 SWAP2 ADD SWAP1 SWAP2 MSTORE PUSH1 0x20 DUP2 ADD DUP1 MLOAD PUSH1 0x1 PUSH1 0x1 PUSH1 0xE0 SHL SUB AND PUSH4 0xA9059CBB PUSH1 0xE0 SHL OR SWAP1 MSTORE PUSH2 0xD10 SWAP1 DUP5 SWAP1 PUSH2 0xD15 JUMP JUMPDEST POP POP POP JUMP JUMPDEST PUSH1 0x0 PUSH2 0xD6A DUP3 PUSH1 0x40 MLOAD DUP1 PUSH1 0x40 ADD PUSH1 0x40 MSTORE DUP1 PUSH1 0x20 DUP2 MSTORE PUSH1 0x20 ADD PUSH32 0x5361666545524332303A206C6F772D6C6576656C2063616C6C206661696C6564 DUP2 MSTORE POP DUP6 PUSH1 0x1 PUSH1 0x1 PUSH1 0xA0 SHL SUB AND PUSH2 0xDE7 SWAP1 SWAP3 SWAP2 SWAP1 PUSH4 0xFFFFFFFF AND JUMP JUMPDEST DUP1 MLOAD SWAP1 SWAP2 POP ISZERO PUSH2 0xD10 JUMPI DUP1 DUP1 PUSH1 0x20 ADD SWAP1 MLOAD DUP2 ADD SWAP1 PUSH2 0xD88 SWAP2 SWAP1 PUSH2 0x1026 JUMP JUMPDEST PUSH2 0xD10 JUMPI PUSH1 0x40 MLOAD PUSH3 0x461BCD PUSH1 0xE5 SHL DUP2 MSTORE PUSH1 0x20 PUSH1 0x4 DUP3 ADD MSTORE PUSH1 0x2A PUSH1 0x24 DUP3 ADD MSTORE PUSH32 0x5361666545524332303A204552433230206F7065726174696F6E20646964206E PUSH1 0x44 DUP3 ADD MSTORE PUSH10 0x1BDD081CDD58D8D95959 PUSH1 0xB2 SHL PUSH1 0x64 DUP3 ADD MSTORE PUSH1 0x84 ADD PUSH2 0x271 JUMP JUMPDEST PUSH1 0x60 PUSH2 0xDF6 DUP5 DUP5 PUSH1 0x0 DUP6 PUSH2 0xE00 JUMP JUMPDEST SWAP1 POP JUMPDEST SWAP4 SWAP3 POP POP POP JUMP JUMPDEST PUSH1 0x60 DUP3 SELFBALANCE LT ISZERO PUSH2 0xE61 JUMPI PUSH1 0x40 MLOAD PUSH3 0x461BCD PUSH1 0xE5 SHL DUP2 MSTORE PUSH1 0x20 PUSH1 0x4 DUP3 ADD MSTORE PUSH1 0x26 PUSH1 0x24 DUP3 ADD MSTORE PUSH32 0x416464726573733A20696E73756666696369656E742062616C616E636520666F PUSH1 0x44 DUP3 ADD MSTORE PUSH6 0x1C8818D85B1B PUSH1 0xD2 SHL PUSH1 0x64 DUP3 ADD MSTORE PUSH1 0x84 ADD PUSH2 0x271 JUMP JUMPDEST PUSH1 0x1 PUSH1 0x1 PUSH1 0xA0 SHL SUB DUP6 AND EXTCODESIZE PUSH2 0xEB8 JUMPI PUSH1 0x40 MLOAD PUSH3 0x461BCD PUSH1 0xE5 SHL DUP2 MSTORE PUSH1 0x20 PUSH1 0x4 DUP3 ADD MSTORE PUSH1 0x1D PUSH1 0x24 DUP3 ADD MSTORE PUSH32 0x416464726573733A2063616C6C20746F206E6F6E2D636F6E7472616374000000 PUSH1 0x44 DUP3 ADD MSTORE PUSH1 0x64 ADD PUSH2 0x271 JUMP JUMPDEST PUSH1 0x0 DUP1 DUP7 PUSH1 0x1 PUSH1 0x1 PUSH1 0xA0 SHL SUB AND DUP6 DUP8 PUSH1 0x40 MLOAD PUSH2 0xED4 SWAP2 SWAP1 PUSH2 0x10FA JUMP JUMPDEST PUSH1 0x0 PUSH1 0x40 MLOAD DUP1 DUP4 SUB DUP2 DUP6 DUP8 GAS CALL SWAP3 POP POP POP RETURNDATASIZE DUP1 PUSH1 0x0 DUP2 EQ PUSH2 0xF11 JUMPI PUSH1 0x40 MLOAD SWAP2 POP PUSH1 0x1F NOT PUSH1 0x3F RETURNDATASIZE ADD AND DUP3 ADD PUSH1 0x40 MSTORE RETURNDATASIZE DUP3 MSTORE RETURNDATASIZE PUSH1 0x0 PUSH1 0x20 DUP5 ADD RETURNDATACOPY PUSH2 0xF16 JUMP JUMPDEST PUSH1 0x60 SWAP2 POP JUMPDEST POP SWAP2 POP SWAP2 POP PUSH2 0x9D3 DUP3 DUP3 DUP7 PUSH1 0x60 DUP4 ISZERO PUSH2 0xF30 JUMPI POP DUP2 PUSH2 0xDF9 JUMP JUMPDEST DUP3 MLOAD ISZERO PUSH2 0xF40 JUMPI DUP3 MLOAD DUP1 DUP5 PUSH1 0x20 ADD REVERT JUMPDEST DUP2 PUSH1 0x40 MLOAD PUSH3 0x461BCD PUSH1 0xE5 SHL DUP2 MSTORE PUSH1 0x4 ADD PUSH2 0x271 SWAP2 SWAP1 PUSH2 0x1116 JUMP JUMPDEST DUP1 CALLDATALOAD PUSH1 0x1 PUSH1 0x1 PUSH1 0xA0 SHL SUB DUP2 AND DUP2 EQ PUSH2 0xF71 JUMPI PUSH1 0x0 DUP1 REVERT JUMPDEST SWAP2 SWAP1 POP JUMP JUMPDEST PUSH1 0x0 PUSH1 0x20 DUP3 DUP5 SUB SLT ISZERO PUSH2 0xF88 JUMPI PUSH1 0x0 DUP1 REVERT JUMPDEST PUSH2 0xDF9 DUP3 PUSH2 0xF5A JUMP JUMPDEST DUP1 ISZERO ISZERO DUP2 EQ PUSH2 0x79C JUMPI PUSH1 0x0 DUP1 REVERT JUMPDEST PUSH1 0x0 DUP1 PUSH1 0x0 PUSH1 0x60 DUP5 DUP7 SUB SLT ISZERO PUSH2 0xFB4 JUMPI PUSH1 0x0 DUP1 REVERT JUMPDEST DUP4 CALLDATALOAD SWAP3 POP PUSH2 0xFC4 PUSH1 0x20 DUP6 ADD PUSH2 0xF5A JUMP JUMPDEST SWAP2 POP PUSH1 0x40 DUP5 ADD CALLDATALOAD PUSH2 0xFD4 DUP2 PUSH2 0xF91 JUMP JUMPDEST DUP1 SWAP2 POP POP SWAP3 POP SWAP3 POP SWAP3 JUMP JUMPDEST PUSH1 0x0 PUSH1 0x20 DUP3 DUP5 SUB SLT ISZERO PUSH2 0xFF1 JUMPI PUSH1 0x0 DUP1 REVERT JUMPDEST POP MLOAD SWAP2 SWAP1 POP JUMP JUMPDEST PUSH4 0x4E487B71 PUSH1 0xE0 SHL PUSH1 0x0 MSTORE PUSH1 0x11 PUSH1 0x4 MSTORE PUSH1 0x24 PUSH1 0x0 REVERT JUMPDEST PUSH1 0x0 DUP3 NOT DUP3 GT ISZERO PUSH2 0x1021 JUMPI PUSH2 0x1021 PUSH2 0xFF8 JUMP JUMPDEST POP ADD SWAP1 JUMP JUMPDEST PUSH1 0x0 PUSH1 0x20 DUP3 DUP5 SUB SLT ISZERO PUSH2 0x1038 JUMPI PUSH1 0x0 DUP1 REVERT JUMPDEST DUP2 MLOAD PUSH2 0xDF9 DUP2 PUSH2 0xF91 JUMP JUMPDEST PUSH1 0x0 DUP2 PUSH1 0x0 NOT DIV DUP4 GT DUP3 ISZERO ISZERO AND ISZERO PUSH2 0x105D JUMPI PUSH2 0x105D PUSH2 0xFF8 JUMP JUMPDEST POP MUL SWAP1 JUMP JUMPDEST PUSH1 0x0 DUP3 DUP3 LT ISZERO PUSH2 0x1074 JUMPI PUSH2 0x1074 PUSH2 0xFF8 JUMP JUMPDEST POP SUB SWAP1 JUMP JUMPDEST PUSH4 0x4E487B71 PUSH1 0xE0 SHL PUSH1 0x0 MSTORE PUSH1 0x32 PUSH1 0x4 MSTORE PUSH1 0x24 PUSH1 0x0 REVERT JUMPDEST PUSH1 0x0 DUP3 PUSH2 0x10AC JUMPI PUSH4 0x4E487B71 PUSH1 0xE0 SHL PUSH1 0x0 MSTORE PUSH1 0x12 PUSH1 0x4 MSTORE PUSH1 0x24 PUSH1 0x0 REVERT JUMPDEST POP DIV SWAP1 JUMP JUMPDEST PUSH1 0x0 PUSH1 0x1 DUP3 ADD PUSH2 0x10C3 JUMPI PUSH2 0x10C3 PUSH2 0xFF8 JUMP JUMPDEST POP PUSH1 0x1 ADD SWAP1 JUMP JUMPDEST PUSH1 0x0 JUMPDEST DUP4 DUP2 LT ISZERO PUSH2 0x10E5 JUMPI DUP2 DUP2 ADD MLOAD DUP4 DUP3 ADD MSTORE PUSH1 0x20 ADD PUSH2 0x10CD JUMP JUMPDEST DUP4 DUP2 GT ISZERO PUSH2 0x10F4 JUMPI PUSH1 0x0 DUP5 DUP5 ADD MSTORE JUMPDEST POP POP POP POP JUMP JUMPDEST PUSH1 0x0 DUP3 MLOAD PUSH2 0x110C DUP2 DUP5 PUSH1 0x20 DUP8 ADD PUSH2 0x10CA JUMP JUMPDEST SWAP2 SWAP1 SWAP2 ADD SWAP3 SWAP2 POP POP JUMP JUMPDEST PUSH1 0x20 DUP2 MSTORE PUSH1 0x0 DUP3 MLOAD DUP1 PUSH1 0x20 DUP5 ADD MSTORE PUSH2 0x1135 DUP2 PUSH1 0x40 DUP6 ADD PUSH1 0x20 DUP8 ADD PUSH2 0x10CA JUMP JUMPDEST PUSH1 0x1F ADD PUSH1 0x1F NOT AND SWAP2 SWAP1 SWAP2 ADD PUSH1 0x40 ADD SWAP3 SWAP2 POP POP JUMP INVALID LOG2 PUSH5 0x6970667358 0x22 SLT KECCAK256 0xBC PUSH9 0xA580E73E861B29D3A5 PUSH28 0x714D5FFA46791F949BFC519D57F57324160C105564736F6C63430008 0xF STOP CALLER ",
  "sha1": "4b9fd6e41245f42220f76bf7888ec9eea36c5ed8",
  "source": "// SPDX-License-Identifier: MIT\n// OpenZeppelin Contracts (last updated v4.7.0) (finance/LockContract.sol)\npragma solidity ^0.8.0;\n\nimport \"@openzeppelin/contracts/token/ERC20/utils/SafeERC20.sol\";\nimport \"@openzeppelin/contracts/utils/Address.sol\";\nimport \"@openzeppelin/contracts/utils/Context.sol\";\nimport \"@openzeppelin/contracts/utils/math/Math.sol\";\nimport \"@openzeppelin/contracts/access/Ownable.sol\";\n\n/**\n * @title LockContract\n * @dev This contract handles the vesting of a ERC20 tokens for a given beneficiary. Custody of the _token amount\n * can be given to this contract, which will release the _token to the beneficiary following a given schedule.\n * The vesting schedule is established by a key->value pair in the form of _duration->_amounts. This two arrays\n * have the same length and are iterated by the _milestone variable\n */\ncontract LockContract is Context, Ownable  {\n\n    //Token\n    IERC20 public legacy_token;\n\n    //Events\n    event ERC20Released(address indexed _token, uint256 amount);\n\n    //Mappings\n    mapping(address => Investor) public walletToInvestor;\n\n    //Structs\n    struct Investor {\n        address investor_address;// probably can take it out\n\n        uint256 tokens_received;// amount of tokens the Investor has received\n\n        uint256 tokens_promised;// amount of tokens the Investor is owed\n\n        //uint256 can_withdraw;// percentage of his tokens the investor can withdraw at the moment\n\n        //uint256 has_withdrawn;// percentage of tokens th einvestor has withdrawn\n\n        uint256 lock_start;// saves the date of the initial locking of the contract\n\n        bool under250k_investor;// if true than it is an investor between 50k-250k, if false it is 250k+\n    }\n\n    //Variables\n    address[] investor_address;// array with all the investor aaddresses\n    address[] addresses_O50I;\n    address[] addresses_O250I;\n    uint256[] tokens_O50I;\n    uint256[] tokens_O250I;\n    uint256[] percent_per_milestone;//percentages per month that will be released (in basis points)\n    uint256 initLock;// initial lock period \n    uint256 erc20Released;// total amount of released tokens\n    uint256 numMilestones;// number of milestones (number of payments for each Investor)\n    uint256 num_O50I;// number of under 50k token vested investors\n    uint256 num_O250I;// number of over 50k token vested investors\n    uint256 totalTokens_O50I;// total tokens promised to investors with 50k-250k tokens vested\n    uint256 totalTokens_O250I;// total tokens promised to investors with more than 250k tokens vested\n    address tokenAddress;// token address\n    bool internal locked;   // boolean to prevent reentrancy\n\n    //Functions\n    /**\n     * @dev Set the beneficiary, start timestamp and locking durations and amounts.\n     */\n    constructor(\n        address[] memory _addresses_O50I,\n        address[] memory _addresses_O250I,\n        uint256[] memory _tokens_O50I,\n        uint256[] memory _tokens_O250I,\n        uint256[] memory _percent_per_milestone,\n        uint256 _tokens_O50ITotal,// sum all the tokens for the investors with with 50k-250k tokens vested\n        uint256 _tokens_O250ITotal,// ... more than 250k tokens\n        address _tokenAddress\n    ) {\n\n        // percentage of tokens an investor can withdraw at each milestone\n        percent_per_milestone = _percent_per_milestone;\n\n        // number of investors with...\n        num_O50I = _addresses_O50I.length;// with 50k-250k tokens vested\n        num_O250I = _addresses_O250I.length;// more than 250k tokens vested\n\n        // array of addresses of investors with ...\n        addresses_O50I= _addresses_O50I;// with 50k-250k tokens vested\n        addresses_O250I= _addresses_O250I;// more than 250k tokens vested\n\n        // array of tokens promised to investors with ...\n        tokens_O50I = _tokens_O50I;// with 50k-250k tokens vested\n        tokens_O250I = _tokens_O250I;// more than 250k tokens vested\n\n        // total tokens promised to investors with ...\n        totalTokens_O50I = _tokens_O50ITotal;// with 50k-250k tokens vested\n        totalTokens_O250I = _tokens_O250ITotal;// more than 250k tokens vested\n\n        // create an Investor struct for each investor with less than 50k tokens\n        for (uint i=0; i<num_O50I; i++){\n\n            // Investor address can't be the zero address\n            require(addresses_O50I[i] != address(0),\n                     \"Constructor: locked Investor address is zero address\");\n\n            // get the amount of tokens and the address correpsonding to this investor\n            address _investor_address = addresses_O50I[i];\n            uint256 _investor_tokens = tokens_O50I[i];\n           \n            // create the new Investor struct\n            Investor memory investor = Investor(_investor_address, \n                                                0, \n                                                _investor_tokens, \n                                                block.timestamp, \n                                                true);\n\n            // map the new Investor address to its struct\n            walletToInvestor[_investor_address]=investor;\n\n        }\n\n        // create an Investor struct for each investor with more than 250k tokens\n        for (uint i=0; i<num_O250I; i++){\n\n            // Investor address can't be the zero address\n            require(addresses_O250I[i] != address(0),\n                     \"Constructor: locked Investor address is zero address\");\n\n            // get the amount of tokens and the address correpsonding to this investor\n            address _investor_address = addresses_O250I[i];\n            uint256 _investor_tokens = tokens_O250I[i];\n           \n            // create the new Investor struct\n            Investor memory investor = Investor(_investor_address, \n                                                0, \n                                                _investor_tokens, \n                                                block.timestamp, \n                                                false);\n\n            // map the new Investor address to its struct\n            walletToInvestor[_investor_address]=investor;\n\n        }\n\n        // establish token address\n        tokenAddress = _tokenAddress;\n\n        // establish the IERC20 for legacy token to contract interactions\n        legacy_token = IERC20(_tokenAddress);\n\n        // Initialize the reentrancy variable to not locked\n        locked = false;\n\n    }\n\n\n    // Modifier\n    /**\n     * @dev Prevents reentrancy\n     */\n    modifier noReentrant() {\n        require(!locked, \"No re-entrancy\");\n        locked = true;\n        _;\n        locked = false;\n    }\n\n    /**\n     * @dev Release the tokens \n     *\n     * Emits a {ERC20Released} event.\n     */\n    function release() public virtual noReentrant(){\n        uint256 releasable = can_release_percent(msg.sender, uint256(block.timestamp));\n        erc20Released += releasable;\n        emit ERC20Released(tokenAddress, releasable);\n        SafeERC20.safeTransfer(IERC20(tokenAddress), msg.sender, releasable);\n        walletToInvestor[msg.sender].tokens_received += releasable;\n    }\n\n\n    /**\n     * @dev Claculates and returns the amount of tokens that can be withdrawn, as function of milestones passed.\n     * Updates the investor struct with the amount of tokens he has withdrawn.\n     */\n    function can_release_percent(address _callerAddress, uint256 timestamp) internal virtual returns (uint256) {\n\n        // require that the investor has not already withdrawn everything\n        require(walletToInvestor[msg.sender].tokens_received < walletToInvestor[msg.sender].tokens_promised, \n                \"All tokens have been claimed\");\n        \n\n        uint256 _current_time =timestamp;\n\n        uint256 _can_release = 0;  //Sum them all up in a variable called **can_elease**\n        uint256 _second_in_bracket = 0;\n\n        uint _tokens_promised = walletToInvestor[msg.sender].tokens_promised;\n        \n        for(uint i = 1; i<= percent_per_milestone.length; i++){\n        \n            if(_current_time > (walletToInvestor[msg.sender].lock_start+2592000*i)){\n                //Check how much time has elapsed how may percentage brakctes/months \n                    //we have passed since the initLock\n                _second_in_bracket =2592000*i -2592000*(i-1);\n                \n                // For each bracket, claculate the the tokens to be released in that period  \n                _can_release = _can_release + \n                    _tokens_promised * \n                    percent_per_milestone[i-1]/10000/2592000 * _second_in_bracket;// remember the percent_per \n                                                                                // milestone are percents multiplied by 1000 \n                \n            }else{\n                //If the current time is in the middle of one of the months\n                _second_in_bracket = _current_time - 2592000*(i-1)-walletToInvestor[msg.sender].lock_start;\n                \n                _can_release = _can_release + \n                    _tokens_promised * \n                    percent_per_milestone[i-1]/10000/2592000 * _second_in_bracket;\n\n                break;\n            }\n        }\n\n\n        //Get the quatity of tokens he has already withdrawned,\n        uint256 _has_withdrawn = walletToInvestor[_callerAddress].tokens_received;\n\n        //Get the amount of tokens the investor can actually withdraw: \n        uint256 _able_to_release = _can_release - _has_withdrawn;\n\n        //Update \n        walletToInvestor[_callerAddress].tokens_received = walletToInvestor[_callerAddress].tokens_received \n                                                            + _able_to_release;\n        //return \n        return  _able_to_release;\n    }\n\n    /**\n     * @dev Adds a new Investor.\n     */\n    function new_Investor(uint256 _amount, address _newInvestor_address, bool _under250K) public {\n\n        //require that the owner has enough legacy tokens to satisfy the promised tokens for locking\n        require(legacy_token.balanceOf(_newInvestor_address)>= _amount, \n        \"You don't have enough Legacy tokens for the price requirement.\");\n\n        require(walletToInvestor[_newInvestor_address].tokens_promised== 0, \n        \"This address is already in the vesting contract.\");\n\n        // transfer the tokens to the contract\n        legacy_token.transferFrom(_newInvestor_address, address(this), _amount);\n\n        if(_under250K){\n            addresses_O50I.push(_newInvestor_address);\n            tokens_O50I.push(_amount);\n        }else{\n            addresses_O250I.push();\n            tokens_O250I.push(_amount);\n        }\n\n        // create the new Investor struc\n        Investor memory investor = Investor(_newInvestor_address, \n                                                0, \n                                                _amount, \n                                                uint64(block.timestamp),\n                                                true);\n        // push the new Investor structto the Investors arra\n        walletToInvestor[_newInvestor_address]=investor;  \n    }\n\n    /**\n     * @dev View function that an investor can use to see how many tokens he can withdraw\n     */\n    function view_can_release_percent() public view returns (uint256) {\n\n        // require that the investor has not already withdrawn everything\n        require(walletToInvestor[msg.sender].tokens_received < walletToInvestor[msg.sender].tokens_promised, \n                \"All tokens have been claimed\");\n        \n\n        uint256 _current_time = block.timestamp;\n\n        uint256 _can_release = 0;  //Sum them all up in a variable called **can_elease**\n        uint256 _second_in_bracket = 0;\n\n        uint _tokens_promised = walletToInvestor[msg.sender].tokens_promised;\n        \n        for(uint i = 1; i<= percent_per_milestone.length; i++){\n        \n            if(_current_time > (walletToInvestor[msg.sender].lock_start+2592000*i)){\n                //Check how much time has elapsed how may percentage brakctes/months \n                    //we have passed since the initLock\n                _second_in_bracket =2592000*i -2592000*(i-1);\n                \n                // For each bracket, claculate the the tokens to be released in that period  \n                _can_release = _can_release + \n                    _tokens_promised * \n                    percent_per_milestone[i-1]/10000/2592000 * _second_in_bracket;// remember the percent_per \n                                                                                // milestone are percents multiplied by 1000 \n                \n            }else{\n                //If the current time is in the middle of one of the months\n                _second_in_bracket = _current_time - 2592000*(i-1)-walletToInvestor[msg.sender].lock_start;\n                \n                _can_release = _can_release + \n                    _tokens_promised * \n                    percent_per_milestone[i-1]/10000/2592000 * _second_in_bracket;\n\n                break;\n            }\n        }\n\n\n        //Get the quatity of tokens he has already withdrawned,\n        uint256 _has_withdrawn = walletToInvestor[msg.sender].tokens_received;\n\n        //Get the amount of tokens the investor can actually withdraw: \n        uint256 _able_to_release = _can_release - _has_withdrawn;\n\n        //return \n        return  _able_to_release;\n    }\n\n    /**\n     * @dev View function to get contract balance\n     */\n    function contract_balance() public view returns (uint256) {\n        return legacy_token.balanceOf(address(this));\n    }\n}",
  "sourcePath": "contracts/LockContract.sol",
  "type": "contract"
}