{
  "abi": [
    {
      "inputs": [
        {
          "internalType": "address[]",
          "name": "_addresses_O50I",
          "type": "address[]"
        },
        {
          "internalType": "address[]",
          "name": "_addresses_O250I",
          "type": "address[]"
        },
        {
          "internalType": "uint256[]",
          "name": "_tokens_O50I",
          "type": "uint256[]"
        },
        {
          "internalType": "uint256[]",
          "name": "_tokens_O250I",
          "type": "uint256[]"
        },
        {
          "internalType": "uint256[]",
          "name": "_percent_per_milestone",
          "type": "uint256[]"
        },
        {
          "internalType": "uint256",
          "name": "_tokens_O50ITotal",
          "type": "uint256"
        },
        {
          "internalType": "uint256",
          "name": "_tokens_O250ITotal",
          "type": "uint256"
        },
        {
          "internalType": "uint256",
          "name": "_timeLock_O50I",
          "type": "uint256"
        },
        {
          "internalType": "uint256",
          "name": "_timeLock_O250I",
          "type": "uint256"
        },
        {
          "internalType": "address",
          "name": "_tokenAddress",
          "type": "address"
        }
      ],
      "stateMutability": "nonpayable",
      "type": "constructor"
    },
    {
      "anonymous": false,
      "inputs": [
        {
          "indexed": true,
          "internalType": "address",
          "name": "_token",
          "type": "address"
        },
        {
          "indexed": false,
          "internalType": "uint256",
          "name": "amount",
          "type": "uint256"
        }
      ],
      "name": "ERC20Released",
      "type": "event"
    },
    {
      "anonymous": false,
      "inputs": [
        {
          "indexed": true,
          "internalType": "address",
          "name": "previousOwner",
          "type": "address"
        },
        {
          "indexed": true,
          "internalType": "address",
          "name": "newOwner",
          "type": "address"
        }
      ],
      "name": "OwnershipTransferred",
      "type": "event"
    },
    {
      "inputs": [],
      "name": "contract_balance",
      "outputs": [
        {
          "internalType": "uint256",
          "name": "",
          "type": "uint256"
        }
      ],
      "stateMutability": "view",
      "type": "function"
    },
    {
      "inputs": [],
      "name": "get_initLock",
      "outputs": [
        {
          "internalType": "uint256",
          "name": "",
          "type": "uint256"
        }
      ],
      "stateMutability": "view",
      "type": "function"
    },
    {
      "inputs": [],
      "name": "legacy_token",
      "outputs": [
        {
          "internalType": "contract IERC20",
          "name": "",
          "type": "address"
        }
      ],
      "stateMutability": "view",
      "type": "function"
    },
    {
      "inputs": [
        {
          "internalType": "uint256",
          "name": "_amount",
          "type": "uint256"
        },
        {
          "internalType": "address",
          "name": "_newInvestor_address",
          "type": "address"
        }
      ],
      "name": "new_Investor",
      "outputs": [],
      "stateMutability": "nonpayable",
      "type": "function"
    },
    {
      "inputs": [],
      "name": "owner",
      "outputs": [
        {
          "internalType": "address",
          "name": "",
          "type": "address"
        }
      ],
      "stateMutability": "view",
      "type": "function"
    },
    {
      "inputs": [],
      "name": "release",
      "outputs": [],
      "stateMutability": "nonpayable",
      "type": "function"
    },
    {
      "inputs": [],
      "name": "renounceOwnership",
      "outputs": [],
      "stateMutability": "nonpayable",
      "type": "function"
    },
    {
      "inputs": [
        {
          "internalType": "address",
          "name": "newOwner",
          "type": "address"
        }
      ],
      "name": "transferOwnership",
      "outputs": [],
      "stateMutability": "nonpayable",
      "type": "function"
    },
    {
      "inputs": [],
      "name": "view_can_release_percent",
      "outputs": [
        {
          "internalType": "uint256",
          "name": "",
          "type": "uint256"
        }
      ],
      "stateMutability": "view",
      "type": "function"
    },
    {
      "inputs": [
        {
          "internalType": "address",
          "name": "",
          "type": "address"
        }
      ],
      "name": "walletToInvestor",
      "outputs": [
        {
          "internalType": "address",
          "name": "investor_address",
          "type": "address"
        },
        {
          "internalType": "uint256",
          "name": "tokens_received",
          "type": "uint256"
        },
        {
          "internalType": "uint256",
          "name": "tokens_promised",
          "type": "uint256"
        },
        {
          "internalType": "uint256",
          "name": "vesting_start",
          "type": "uint256"
        },
        {
          "internalType": "bool",
          "name": "under250k_investor",
          "type": "bool"
        }
      ],
      "stateMutability": "view",
      "type": "function"
    }
  ],
  "bytecode": "60806040523480156200001157600080fd5b5060405162001b8638038062001b86833981016040819052620000349162000703565b6200003f336200048a565b42600955855162000058906008906020890190620004da565b508951600c8190558951600d55620000789060049060208d01906200052a565b5088516200008e9060059060208c01906200052a565b508751620000a49060069060208b0190620004da565b508651620000ba9060079060208a0190620004da565b50600e859055600f84905560005b600c54811015620002875760006001600160a01b031660048281548110620000f457620000f46200081f565b6000918252602090912001546001600160a01b031603620001715760405162461bcd60e51b8152602060048201526034602482015260008051602062001b6683398151915260448201527f72657373206973207a65726f206164647265737300000000000000000000000060648201526084015b60405180910390fd5b6000600482815481106200018957620001896200081f565b6000918252602082200154600680546001600160a01b0390921693509084908110620001b957620001b96200081f565b9060005260206000200154905060006040518060a00160405280846001600160a01b03168152602001600081526020018381526020018842620001fd91906200084b565b8152600160209182018190526001600160a01b0395861660009081526002808452604091829020855181546001600160a01b031916991698909817885592840151918701919091558201519085015560608101516003850155608001516004909301805460ff191693151593909317909255508190506200027e8162000866565b915050620000c8565b5060005b600d54811015620004415760006001600160a01b031660058281548110620002b757620002b76200081f565b6000918252602090912001546001600160a01b031603620003305760405162461bcd60e51b8152602060048201526034602482015260008051602062001b6683398151915260448201527f72657373206973207a65726f2061646472657373000000000000000000000000606482015260840162000168565b6000600582815481106200034857620003486200081f565b6000918252602082200154600780546001600160a01b03909216935090849081106200037857620003786200081f565b9060005260206000200154905060006040518060a00160405280846001600160a01b03168152602001600081526020018381526020018742620003bc91906200084b565b8152600060209182018190526001600160a01b0395861681526002808352604091829020845181546001600160a01b03191698169790971787559183015160018701558201519085015560608101516003850155608001516004909301805460ff19169315159390931790925550819050620004388162000866565b9150506200028b565b5060128054600180546001600160a01b0319166001600160a01b0390941693841790556001600160a81b0319169091179055601091909155601155506200088295505050505050565b600080546001600160a01b038381166001600160a01b0319831681178455604051919092169283917f8be0079c531659141344cd1fd0a4f28419497f9722a3daafe3b4186f6b6457e09190a35050565b82805482825590600052602060002090810192821562000518579160200282015b8281111562000518578251825591602001919060010190620004fb565b506200052692915062000582565b5090565b82805482825590600052602060002090810192821562000518579160200282015b828111156200051857825182546001600160a01b0319166001600160a01b039091161782556020909201916001909101906200054b565b5b8082111562000526576000815560010162000583565b634e487b7160e01b600052604160045260246000fd5b604051601f8201601f191681016001600160401b0381118282101715620005da57620005da62000599565b604052919050565b60006001600160401b03821115620005fe57620005fe62000599565b5060051b60200190565b80516001600160a01b03811681146200062057600080fd5b919050565b600082601f8301126200063757600080fd5b81516020620006506200064a83620005e2565b620005af565b82815260059290921b840181019181810190868411156200067057600080fd5b8286015b848110156200069657620006888162000608565b835291830191830162000674565b509695505050505050565b600082601f830112620006b357600080fd5b81516020620006c66200064a83620005e2565b82815260059290921b84018101918181019086841115620006e657600080fd5b8286015b84811015620006965780518352918301918301620006ea565b6000806000806000806000806000806101408b8d0312156200072457600080fd5b8a516001600160401b03808211156200073c57600080fd5b6200074a8e838f0162000625565b9b5060208d01519150808211156200076157600080fd5b6200076f8e838f0162000625565b9a5060408d01519150808211156200078657600080fd5b620007948e838f01620006a1565b995060608d0151915080821115620007ab57600080fd5b620007b98e838f01620006a1565b985060808d0151915080821115620007d057600080fd5b50620007df8d828e01620006a1565b96505060a08b0151945060c08b0151935060e08b015192506101008b015191506200080e6101208c0162000608565b90509295989b9194979a5092959850565b634e487b7160e01b600052603260045260246000fd5b634e487b7160e01b600052601160045260246000fd5b6000821982111562000861576200086162000835565b500190565b6000600182016200087b576200087b62000835565b5060010190565b6112d480620008926000396000f3fe608060405234801561001057600080fd5b506004361061009e5760003560e01c8063910d25ba11610066578063910d25ba1461010857806392347b5e14610110578063df1299791461018e578063f2fde38b146101a1578063f5cd7277146101b457600080fd5b8063057440d3146100a35780634fb4190e146100be578063715018a6146100d357806386d1a69f146100db5780638da5cb5b146100e3575b600080fd5b6100ab6101bc565b6040519081526020015b60405180910390f35b6100d16100cc3660046110e8565b61022e565b005b6100d1610675565b6100d16106db565b6000546001600160a01b03165b6040516001600160a01b0390911681526020016100b5565b6009546100ab565b61015a61011e366004611114565b6002602081905260009182526040909120805460018201549282015460038301546004909301546001600160a01b039092169392909160ff1685565b604080516001600160a01b03909616865260208601949094529284019190915260608301521515608082015260a0016100b5565b6001546100f0906001600160a01b031681565b6100d16101af366004611114565b610841565b6100ab61090c565b6001546040516370a0823160e01b81523060048201526000916001600160a01b0316906370a0823190602401602060405180830381865afa158015610205573d6000803e3d6000fd5b505050506040513d601f19601f82011682018060405250810190610229919061112f565b905090565b6802b5e3af16b18800008210156102a25760405162461bcd60e51b815260206004820152602d60248201527f54686520696e766573746f722073686f756c64206c6f636b206174206c65617360448201526c3a101a9835903a37b5b2b7399760991b60648201526084015b60405180910390fd5b6001546040516370a0823160e01b81526001600160a01b038381166004830152849216906370a0823190602401602060405180830381865afa1580156102ec573d6000803e3d6000fd5b505050506040513d601f19601f82011682018060405250810190610310919061112f565b10156103845760405162461bcd60e51b815260206004820152603e60248201527f596f7520646f6e2774206861766520656e6f756768204c656761637920746f6b60448201527f656e7320666f722074686520707269636520726571756972656d656e742e00006064820152608401610299565b6001600160a01b03811660009081526002602081905260409091200154156104075760405162461bcd60e51b815260206004820152603060248201527f54686973206164647265737320697320616c726561647920696e20746865207660448201526f32b9ba34b7339031b7b73a3930b1ba1760811b6064820152608401610299565b6001546040516323b872dd60e01b81526001600160a01b03838116600483015230602483015260448201859052909116906323b872dd906064016020604051808303816000875af1158015610460573d6000803e3d6000fd5b505050506040513d601f19601f820116820180604052508101906104849190611148565b506802b5e3af16b188000082101580156104a65750680d8d726b7177a8000082105b156105cb576004805460018082019092557f8a35acfbc15ff81a39ae7d344fd709f28e8600b4aa8c65c6b64bfe7fe36bd19b0180546001600160a01b0319166001600160a01b03841690811790915560068054928301815560009081527ff652222313e28459528d920b65115c16c04f3efc82aaedc97be59f3f377c0d3f9092018490556040805160a08101825291825260208201839052810184905260105460608201906105559042611180565b8152600160209182018190526001600160a01b0394851660009081526002808452604091829020855181546001600160a01b031916981697909717875592840151918601919091558201519084015560608101516003840155608001516004909201805460ff1916921515929092179091555050565b6005805460018082019092557f036b6384b5eca791c62761152d0c79bb0604c104a5fb6f4eb0703f3154bb3db00180546001600160a01b0319166001600160a01b03841690811790915560078054928301815560009081527fa66cc928b5edb82af9bd49922954155ab7b0942694bea4ce44661d9a8736c6889092018490556040805160a08101825291825260208201839052810184905260115460608201906105559042611180565b6000546001600160a01b031633146106cf5760405162461bcd60e51b815260206004820181905260248201527f4f776e61626c653a2063616c6c6572206973206e6f7420746865206f776e65726044820152606401610299565b6106d96000610b64565b565b601254600160a01b900460ff16156107265760405162461bcd60e51b815260206004820152600e60248201526d4e6f2072652d656e7472616e637960901b6044820152606401610299565b6012805460ff60a01b1916600160a01b17905533600090815260026020819052604082200154900361078c5760405162461bcd60e51b815260206004820152600f60248201526e2737ba1030b71034b73b32b9ba37b960891b6044820152606401610299565b60006107983342610bb4565b905080600a60008282546107ac9190611180565b90915550506012546040518281526001600160a01b03909116907fc0e523490dd523c33b1878c9eb14ff46991e3f5b2cd33710918618f2a39cba1b9060200160405180910390a260125461080a906001600160a01b03163383610e20565b336000908152600260205260408120600101805483929061082c908490611180565b90915550506012805460ff60a01b1916905550565b6000546001600160a01b0316331461089b5760405162461bcd60e51b815260206004820181905260248201527f4f776e61626c653a2063616c6c6572206973206e6f7420746865206f776e65726044820152606401610299565b6001600160a01b0381166109005760405162461bcd60e51b815260206004820152602660248201527f4f776e61626c653a206e6577206f776e657220697320746865207a65726f206160448201526564647265737360d01b6064820152608401610299565b61090981610b64565b50565b336000908152600260208190526040822060018101549101548082106109745760405162461bcd60e51b815260206004820152601c60248201527f416c6c20746f6b656e732068617665206265656e20636c61696d6564000000006044820152606401610299565b3360009081526002602052604090206003015442908082116109d85760405162461bcd60e51b815260206004820152601c60248201527f4c6f636b2074696d6520686173206e6f742070617373656420796574000000006044820152606401610299565b60008060015b6008548111610b4b576109f48162278d00611198565b6109fe9085611180565b851115610aa057610a106001826111b7565b610a1d9062278d00611198565b610a2a8262278d00611198565b610a3491906111b7565b91508162278d006127106008610a4b6001866111b7565b81548110610a5b57610a5b6111ce565b906000526020600020015489610a719190611198565b610a7b91906111e4565b610a8591906111e4565b610a8f9190611198565b610a999084611180565b9250610b39565b83610aac6001836111b7565b610ab99062278d00611198565b610ac390876111b7565b610acd91906111b7565b91508162278d006127106008610ae46001866111b7565b81548110610af457610af46111ce565b906000526020600020015489610b0a9190611198565b610b1491906111e4565b610b1e91906111e4565b610b289190611198565b610b329084611180565b9250610b4b565b80610b4381611206565b9150506109de565b506000610b5887846111b7565b98975050505050505050565b600080546001600160a01b038381166001600160a01b0319831681178455604051919092169283917f8be0079c531659141344cd1fd0a4f28419497f9722a3daafe3b4186f6b6457e09190a35050565b6001600160a01b038216600090815260026020819052604082206001810154910154808210610c255760405162461bcd60e51b815260206004820152601c60248201527f416c6c20746f6b656e732068617665206265656e20636c61696d6564000000006044820152606401610299565b6001600160a01b0385166000908152600260205260409020600301548490808211610c925760405162461bcd60e51b815260206004820152601c60248201527f4c6f636b2074696d6520686173206e6f742070617373656420796574000000006044820152606401610299565b60008060015b6008548111610e0557610cae8162278d00611198565b610cb89085611180565b851115610d5a57610cca6001826111b7565b610cd79062278d00611198565b610ce48262278d00611198565b610cee91906111b7565b91508162278d006127106008610d056001866111b7565b81548110610d1557610d156111ce565b906000526020600020015489610d2b9190611198565b610d3591906111e4565b610d3f91906111e4565b610d499190611198565b610d539084611180565b9250610df3565b83610d666001836111b7565b610d739062278d00611198565b610d7d90876111b7565b610d8791906111b7565b91508162278d006127106008610d9e6001866111b7565b81548110610dae57610dae6111ce565b906000526020600020015489610dc49190611198565b610dce91906111e4565b610dd891906111e4565b610de29190611198565b610dec9084611180565b9250610e05565b80610dfd81611206565b915050610c98565b506000610e1287846111b7565b9a9950505050505050505050565b604080516001600160a01b038416602482015260448082018490528251808303909101815260649091019091526020810180516001600160e01b031663a9059cbb60e01b179052610e72908490610e77565b505050565b6000610ecc826040518060400160405280602081526020017f5361666545524332303a206c6f772d6c6576656c2063616c6c206661696c6564815250856001600160a01b0316610f499092919063ffffffff16565b805190915015610e725780806020019051810190610eea9190611148565b610e725760405162461bcd60e51b815260206004820152602a60248201527f5361666545524332303a204552433230206f7065726174696f6e20646964206e6044820152691bdd081cdd58d8d9595960b21b6064820152608401610299565b6060610f588484600085610f62565b90505b9392505050565b606082471015610fc35760405162461bcd60e51b815260206004820152602660248201527f416464726573733a20696e73756666696369656e742062616c616e636520666f6044820152651c8818d85b1b60d21b6064820152608401610299565b6001600160a01b0385163b61101a5760405162461bcd60e51b815260206004820152601d60248201527f416464726573733a2063616c6c20746f206e6f6e2d636f6e74726163740000006044820152606401610299565b600080866001600160a01b03168587604051611036919061124f565b60006040518083038185875af1925050503d8060008114611073576040519150601f19603f3d011682016040523d82523d6000602084013e611078565b606091505b5091509150611088828286611093565b979650505050505050565b606083156110a2575081610f5b565b8251156110b25782518084602001fd5b8160405162461bcd60e51b8152600401610299919061126b565b80356001600160a01b03811681146110e357600080fd5b919050565b600080604083850312156110fb57600080fd5b8235915061110b602084016110cc565b90509250929050565b60006020828403121561112657600080fd5b610f5b826110cc565b60006020828403121561114157600080fd5b5051919050565b60006020828403121561115a57600080fd5b81518015158114610f5b57600080fd5b634e487b7160e01b600052601160045260246000fd5b600082198211156111935761119361116a565b500190565b60008160001904831182151516156111b2576111b261116a565b500290565b6000828210156111c9576111c961116a565b500390565b634e487b7160e01b600052603260045260246000fd5b60008261120157634e487b7160e01b600052601260045260246000fd5b500490565b6000600182016112185761121861116a565b5060010190565b60005b8381101561123a578181015183820152602001611222565b83811115611249576000848401525b50505050565b6000825161126181846020870161121f565b9190910192915050565b602081526000825180602084015261128a81604085016020870161121f565b601f01601f1916919091016040019291505056fea2646970667358221220eea15d5c37f5f5660c180fe78639a20ea2187335280a25c3a1948148c588fc7264736f6c634300080f0033436f6e7374727563746f723a206c6f636b656420496e766573746f7220616464",
  "bytecodeSha1": "da39a3ee5e6b4b0d3255bfef95601890afd80709",
  "compiler": {
    "evm_version": "istanbul",
    "optimizer": {
      "enabled": true,
      "runs": 200
    },
    "version": "0.8.15+commit.e14f2714"
  },
  "contractName": "LockContract",
  "language": "Solidity",
  "natspec": {
    "details": "This contract handles the vesting of a ERC20 tokens for a given beneficiary. Custody of the _token amount can be given to this contract, which will release the _token to the beneficiary following a given schedule. The vesting schedule is established by a key->value pair in the form of _duration->_amounts. This two arrays have the same length and are iterated by the _milestone variable",
    "kind": "dev",
    "methods": {
      "constructor": {
        "details": "Set the beneficiary, start timestamp and locking durations and amounts."
      },
      "contract_balance()": {
        "details": "View function to get contract balance"
      },
      "new_Investor(uint256,address)": {
        "details": "Adds a new Investor."
      },
      "owner()": {
        "details": "Returns the address of the current owner."
      },
      "release()": {
        "details": "Release the tokens  Emits a {ERC20Released} event."
      },
      "renounceOwnership()": {
        "details": "Leaves the contract without owner. It will not be possible to call `onlyOwner` functions anymore. Can only be called by the current owner. NOTE: Renouncing ownership will leave the contract without an owner, thereby removing any functionality that is only available to the owner."
      },
      "transferOwnership(address)": {
        "details": "Transfers ownership of the contract to a new account (`newOwner`). Can only be called by the current owner."
      },
      "view_can_release_percent()": {
        "details": "View function that an investor can use to see how many tokens he can withdraw"
      }
    },
    "title": "LockContract",
    "version": 1
  },
  "opcodes": "PUSH1 0x80 PUSH1 0x40 MSTORE CALLVALUE DUP1 ISZERO PUSH2 0x10 JUMPI PUSH1 0x0 DUP1 REVERT JUMPDEST POP PUSH1 0x4 CALLDATASIZE LT PUSH2 0x9E JUMPI PUSH1 0x0 CALLDATALOAD PUSH1 0xE0 SHR DUP1 PUSH4 0x910D25BA GT PUSH2 0x66 JUMPI DUP1 PUSH4 0x910D25BA EQ PUSH2 0x108 JUMPI DUP1 PUSH4 0x92347B5E EQ PUSH2 0x110 JUMPI DUP1 PUSH4 0xDF129979 EQ PUSH2 0x18E JUMPI DUP1 PUSH4 0xF2FDE38B EQ PUSH2 0x1A1 JUMPI DUP1 PUSH4 0xF5CD7277 EQ PUSH2 0x1B4 JUMPI PUSH1 0x0 DUP1 REVERT JUMPDEST DUP1 PUSH4 0x57440D3 EQ PUSH2 0xA3 JUMPI DUP1 PUSH4 0x4FB4190E EQ PUSH2 0xBE JUMPI DUP1 PUSH4 0x715018A6 EQ PUSH2 0xD3 JUMPI DUP1 PUSH4 0x86D1A69F EQ PUSH2 0xDB JUMPI DUP1 PUSH4 0x8DA5CB5B EQ PUSH2 0xE3 JUMPI JUMPDEST PUSH1 0x0 DUP1 REVERT JUMPDEST PUSH2 0xAB PUSH2 0x1BC JUMP JUMPDEST PUSH1 0x40 MLOAD SWAP1 DUP2 MSTORE PUSH1 0x20 ADD JUMPDEST PUSH1 0x40 MLOAD DUP1 SWAP2 SUB SWAP1 RETURN JUMPDEST PUSH2 0xD1 PUSH2 0xCC CALLDATASIZE PUSH1 0x4 PUSH2 0x10E8 JUMP JUMPDEST PUSH2 0x22E JUMP JUMPDEST STOP JUMPDEST PUSH2 0xD1 PUSH2 0x675 JUMP JUMPDEST PUSH2 0xD1 PUSH2 0x6DB JUMP JUMPDEST PUSH1 0x0 SLOAD PUSH1 0x1 PUSH1 0x1 PUSH1 0xA0 SHL SUB AND JUMPDEST PUSH1 0x40 MLOAD PUSH1 0x1 PUSH1 0x1 PUSH1 0xA0 SHL SUB SWAP1 SWAP2 AND DUP2 MSTORE PUSH1 0x20 ADD PUSH2 0xB5 JUMP JUMPDEST PUSH1 0x9 SLOAD PUSH2 0xAB JUMP JUMPDEST PUSH2 0x15A PUSH2 0x11E CALLDATASIZE PUSH1 0x4 PUSH2 0x1114 JUMP JUMPDEST PUSH1 0x2 PUSH1 0x20 DUP2 SWAP1 MSTORE PUSH1 0x0 SWAP2 DUP3 MSTORE PUSH1 0x40 SWAP1 SWAP2 KECCAK256 DUP1 SLOAD PUSH1 0x1 DUP3 ADD SLOAD SWAP3 DUP3 ADD SLOAD PUSH1 0x3 DUP4 ADD SLOAD PUSH1 0x4 SWAP1 SWAP4 ADD SLOAD PUSH1 0x1 PUSH1 0x1 PUSH1 0xA0 SHL SUB SWAP1 SWAP3 AND SWAP4 SWAP3 SWAP1 SWAP2 PUSH1 0xFF AND DUP6 JUMP JUMPDEST PUSH1 0x40 DUP1 MLOAD PUSH1 0x1 PUSH1 0x1 PUSH1 0xA0 SHL SUB SWAP1 SWAP7 AND DUP7 MSTORE PUSH1 0x20 DUP7 ADD SWAP5 SWAP1 SWAP5 MSTORE SWAP3 DUP5 ADD SWAP2 SWAP1 SWAP2 MSTORE PUSH1 0x60 DUP4 ADD MSTORE ISZERO ISZERO PUSH1 0x80 DUP3 ADD MSTORE PUSH1 0xA0 ADD PUSH2 0xB5 JUMP JUMPDEST PUSH1 0x1 SLOAD PUSH2 0xF0 SWAP1 PUSH1 0x1 PUSH1 0x1 PUSH1 0xA0 SHL SUB AND DUP2 JUMP JUMPDEST PUSH2 0xD1 PUSH2 0x1AF CALLDATASIZE PUSH1 0x4 PUSH2 0x1114 JUMP JUMPDEST PUSH2 0x841 JUMP JUMPDEST PUSH2 0xAB PUSH2 0x90C JUMP JUMPDEST PUSH1 0x1 SLOAD PUSH1 0x40 MLOAD PUSH4 0x70A08231 PUSH1 0xE0 SHL DUP2 MSTORE ADDRESS PUSH1 0x4 DUP3 ADD MSTORE PUSH1 0x0 SWAP2 PUSH1 0x1 PUSH1 0x1 PUSH1 0xA0 SHL SUB AND SWAP1 PUSH4 0x70A08231 SWAP1 PUSH1 0x24 ADD PUSH1 0x20 PUSH1 0x40 MLOAD DUP1 DUP4 SUB DUP2 DUP7 GAS STATICCALL ISZERO DUP1 ISZERO PUSH2 0x205 JUMPI RETURNDATASIZE PUSH1 0x0 DUP1 RETURNDATACOPY RETURNDATASIZE PUSH1 0x0 REVERT JUMPDEST POP POP POP POP PUSH1 0x40 MLOAD RETURNDATASIZE PUSH1 0x1F NOT PUSH1 0x1F DUP3 ADD AND DUP3 ADD DUP1 PUSH1 0x40 MSTORE POP DUP2 ADD SWAP1 PUSH2 0x229 SWAP2 SWAP1 PUSH2 0x112F JUMP JUMPDEST SWAP1 POP SWAP1 JUMP JUMPDEST PUSH9 0x2B5E3AF16B1880000 DUP3 LT ISZERO PUSH2 0x2A2 JUMPI PUSH1 0x40 MLOAD PUSH3 0x461BCD PUSH1 0xE5 SHL DUP2 MSTORE PUSH1 0x20 PUSH1 0x4 DUP3 ADD MSTORE PUSH1 0x2D PUSH1 0x24 DUP3 ADD MSTORE PUSH32 0x54686520696E766573746F722073686F756C64206C6F636B206174206C656173 PUSH1 0x44 DUP3 ADD MSTORE PUSH13 0x3A101A9835903A37B5B2B73997 PUSH1 0x99 SHL PUSH1 0x64 DUP3 ADD MSTORE PUSH1 0x84 ADD JUMPDEST PUSH1 0x40 MLOAD DUP1 SWAP2 SUB SWAP1 REVERT JUMPDEST PUSH1 0x1 SLOAD PUSH1 0x40 MLOAD PUSH4 0x70A08231 PUSH1 0xE0 SHL DUP2 MSTORE PUSH1 0x1 PUSH1 0x1 PUSH1 0xA0 SHL SUB DUP4 DUP2 AND PUSH1 0x4 DUP4 ADD MSTORE DUP5 SWAP3 AND SWAP1 PUSH4 0x70A08231 SWAP1 PUSH1 0x24 ADD PUSH1 0x20 PUSH1 0x40 MLOAD DUP1 DUP4 SUB DUP2 DUP7 GAS STATICCALL ISZERO DUP1 ISZERO PUSH2 0x2EC JUMPI RETURNDATASIZE PUSH1 0x0 DUP1 RETURNDATACOPY RETURNDATASIZE PUSH1 0x0 REVERT JUMPDEST POP POP POP POP PUSH1 0x40 MLOAD RETURNDATASIZE PUSH1 0x1F NOT PUSH1 0x1F DUP3 ADD AND DUP3 ADD DUP1 PUSH1 0x40 MSTORE POP DUP2 ADD SWAP1 PUSH2 0x310 SWAP2 SWAP1 PUSH2 0x112F JUMP JUMPDEST LT ISZERO PUSH2 0x384 JUMPI PUSH1 0x40 MLOAD PUSH3 0x461BCD PUSH1 0xE5 SHL DUP2 MSTORE PUSH1 0x20 PUSH1 0x4 DUP3 ADD MSTORE PUSH1 0x3E PUSH1 0x24 DUP3 ADD MSTORE PUSH32 0x596F7520646F6E2774206861766520656E6F756768204C656761637920746F6B PUSH1 0x44 DUP3 ADD MSTORE PUSH32 0x656E7320666F722074686520707269636520726571756972656D656E742E0000 PUSH1 0x64 DUP3 ADD MSTORE PUSH1 0x84 ADD PUSH2 0x299 JUMP JUMPDEST PUSH1 0x1 PUSH1 0x1 PUSH1 0xA0 SHL SUB DUP2 AND PUSH1 0x0 SWAP1 DUP2 MSTORE PUSH1 0x2 PUSH1 0x20 DUP2 SWAP1 MSTORE PUSH1 0x40 SWAP1 SWAP2 KECCAK256 ADD SLOAD ISZERO PUSH2 0x407 JUMPI PUSH1 0x40 MLOAD PUSH3 0x461BCD PUSH1 0xE5 SHL DUP2 MSTORE PUSH1 0x20 PUSH1 0x4 DUP3 ADD MSTORE PUSH1 0x30 PUSH1 0x24 DUP3 ADD MSTORE PUSH32 0x54686973206164647265737320697320616C726561647920696E207468652076 PUSH1 0x44 DUP3 ADD MSTORE PUSH16 0x32B9BA34B7339031B7B73A3930B1BA17 PUSH1 0x81 SHL PUSH1 0x64 DUP3 ADD MSTORE PUSH1 0x84 ADD PUSH2 0x299 JUMP JUMPDEST PUSH1 0x1 SLOAD PUSH1 0x40 MLOAD PUSH4 0x23B872DD PUSH1 0xE0 SHL DUP2 MSTORE PUSH1 0x1 PUSH1 0x1 PUSH1 0xA0 SHL SUB DUP4 DUP2 AND PUSH1 0x4 DUP4 ADD MSTORE ADDRESS PUSH1 0x24 DUP4 ADD MSTORE PUSH1 0x44 DUP3 ADD DUP6 SWAP1 MSTORE SWAP1 SWAP2 AND SWAP1 PUSH4 0x23B872DD SWAP1 PUSH1 0x64 ADD PUSH1 0x20 PUSH1 0x40 MLOAD DUP1 DUP4 SUB DUP2 PUSH1 0x0 DUP8 GAS CALL ISZERO DUP1 ISZERO PUSH2 0x460 JUMPI RETURNDATASIZE PUSH1 0x0 DUP1 RETURNDATACOPY RETURNDATASIZE PUSH1 0x0 REVERT JUMPDEST POP POP POP POP PUSH1 0x40 MLOAD RETURNDATASIZE PUSH1 0x1F NOT PUSH1 0x1F DUP3 ADD AND DUP3 ADD DUP1 PUSH1 0x40 MSTORE POP DUP2 ADD SWAP1 PUSH2 0x484 SWAP2 SWAP1 PUSH2 0x1148 JUMP JUMPDEST POP PUSH9 0x2B5E3AF16B1880000 DUP3 LT ISZERO DUP1 ISZERO PUSH2 0x4A6 JUMPI POP PUSH9 0xD8D726B7177A80000 DUP3 LT JUMPDEST ISZERO PUSH2 0x5CB JUMPI PUSH1 0x4 DUP1 SLOAD PUSH1 0x1 DUP1 DUP3 ADD SWAP1 SWAP3 SSTORE PUSH32 0x8A35ACFBC15FF81A39AE7D344FD709F28E8600B4AA8C65C6B64BFE7FE36BD19B ADD DUP1 SLOAD PUSH1 0x1 PUSH1 0x1 PUSH1 0xA0 SHL SUB NOT AND PUSH1 0x1 PUSH1 0x1 PUSH1 0xA0 SHL SUB DUP5 AND SWAP1 DUP2 OR SWAP1 SWAP2 SSTORE PUSH1 0x6 DUP1 SLOAD SWAP3 DUP4 ADD DUP2 SSTORE PUSH1 0x0 SWAP1 DUP2 MSTORE PUSH32 0xF652222313E28459528D920B65115C16C04F3EFC82AAEDC97BE59F3F377C0D3F SWAP1 SWAP3 ADD DUP5 SWAP1 SSTORE PUSH1 0x40 DUP1 MLOAD PUSH1 0xA0 DUP2 ADD DUP3 MSTORE SWAP2 DUP3 MSTORE PUSH1 0x20 DUP3 ADD DUP4 SWAP1 MSTORE DUP2 ADD DUP5 SWAP1 MSTORE PUSH1 0x10 SLOAD PUSH1 0x60 DUP3 ADD SWAP1 PUSH2 0x555 SWAP1 TIMESTAMP PUSH2 0x1180 JUMP JUMPDEST DUP2 MSTORE PUSH1 0x1 PUSH1 0x20 SWAP2 DUP3 ADD DUP2 SWAP1 MSTORE PUSH1 0x1 PUSH1 0x1 PUSH1 0xA0 SHL SUB SWAP5 DUP6 AND PUSH1 0x0 SWAP1 DUP2 MSTORE PUSH1 0x2 DUP1 DUP5 MSTORE PUSH1 0x40 SWAP2 DUP3 SWAP1 KECCAK256 DUP6 MLOAD DUP2 SLOAD PUSH1 0x1 PUSH1 0x1 PUSH1 0xA0 SHL SUB NOT AND SWAP9 AND SWAP8 SWAP1 SWAP8 OR DUP8 SSTORE SWAP3 DUP5 ADD MLOAD SWAP2 DUP7 ADD SWAP2 SWAP1 SWAP2 SSTORE DUP3 ADD MLOAD SWAP1 DUP5 ADD SSTORE PUSH1 0x60 DUP2 ADD MLOAD PUSH1 0x3 DUP5 ADD SSTORE PUSH1 0x80 ADD MLOAD PUSH1 0x4 SWAP1 SWAP3 ADD DUP1 SLOAD PUSH1 0xFF NOT AND SWAP3 ISZERO ISZERO SWAP3 SWAP1 SWAP3 OR SWAP1 SWAP2 SSTORE POP POP JUMP JUMPDEST PUSH1 0x5 DUP1 SLOAD PUSH1 0x1 DUP1 DUP3 ADD SWAP1 SWAP3 SSTORE PUSH32 0x36B6384B5ECA791C62761152D0C79BB0604C104A5FB6F4EB0703F3154BB3DB0 ADD DUP1 SLOAD PUSH1 0x1 PUSH1 0x1 PUSH1 0xA0 SHL SUB NOT AND PUSH1 0x1 PUSH1 0x1 PUSH1 0xA0 SHL SUB DUP5 AND SWAP1 DUP2 OR SWAP1 SWAP2 SSTORE PUSH1 0x7 DUP1 SLOAD SWAP3 DUP4 ADD DUP2 SSTORE PUSH1 0x0 SWAP1 DUP2 MSTORE PUSH32 0xA66CC928B5EDB82AF9BD49922954155AB7B0942694BEA4CE44661D9A8736C688 SWAP1 SWAP3 ADD DUP5 SWAP1 SSTORE PUSH1 0x40 DUP1 MLOAD PUSH1 0xA0 DUP2 ADD DUP3 MSTORE SWAP2 DUP3 MSTORE PUSH1 0x20 DUP3 ADD DUP4 SWAP1 MSTORE DUP2 ADD DUP5 SWAP1 MSTORE PUSH1 0x11 SLOAD PUSH1 0x60 DUP3 ADD SWAP1 PUSH2 0x555 SWAP1 TIMESTAMP PUSH2 0x1180 JUMP JUMPDEST PUSH1 0x0 SLOAD PUSH1 0x1 PUSH1 0x1 PUSH1 0xA0 SHL SUB AND CALLER EQ PUSH2 0x6CF JUMPI PUSH1 0x40 MLOAD PUSH3 0x461BCD PUSH1 0xE5 SHL DUP2 MSTORE PUSH1 0x20 PUSH1 0x4 DUP3 ADD DUP2 SWAP1 MSTORE PUSH1 0x24 DUP3 ADD MSTORE PUSH32 0x4F776E61626C653A2063616C6C6572206973206E6F7420746865206F776E6572 PUSH1 0x44 DUP3 ADD MSTORE PUSH1 0x64 ADD PUSH2 0x299 JUMP JUMPDEST PUSH2 0x6D9 PUSH1 0x0 PUSH2 0xB64 JUMP JUMPDEST JUMP JUMPDEST PUSH1 0x12 SLOAD PUSH1 0x1 PUSH1 0xA0 SHL SWAP1 DIV PUSH1 0xFF AND ISZERO PUSH2 0x726 JUMPI PUSH1 0x40 MLOAD PUSH3 0x461BCD PUSH1 0xE5 SHL DUP2 MSTORE PUSH1 0x20 PUSH1 0x4 DUP3 ADD MSTORE PUSH1 0xE PUSH1 0x24 DUP3 ADD MSTORE PUSH14 0x4E6F2072652D656E7472616E6379 PUSH1 0x90 SHL PUSH1 0x44 DUP3 ADD MSTORE PUSH1 0x64 ADD PUSH2 0x299 JUMP JUMPDEST PUSH1 0x12 DUP1 SLOAD PUSH1 0xFF PUSH1 0xA0 SHL NOT AND PUSH1 0x1 PUSH1 0xA0 SHL OR SWAP1 SSTORE CALLER PUSH1 0x0 SWAP1 DUP2 MSTORE PUSH1 0x2 PUSH1 0x20 DUP2 SWAP1 MSTORE PUSH1 0x40 DUP3 KECCAK256 ADD SLOAD SWAP1 SUB PUSH2 0x78C JUMPI PUSH1 0x40 MLOAD PUSH3 0x461BCD PUSH1 0xE5 SHL DUP2 MSTORE PUSH1 0x20 PUSH1 0x4 DUP3 ADD MSTORE PUSH1 0xF PUSH1 0x24 DUP3 ADD MSTORE PUSH15 0x2737BA1030B71034B73B32B9BA37B9 PUSH1 0x89 SHL PUSH1 0x44 DUP3 ADD MSTORE PUSH1 0x64 ADD PUSH2 0x299 JUMP JUMPDEST PUSH1 0x0 PUSH2 0x798 CALLER TIMESTAMP PUSH2 0xBB4 JUMP JUMPDEST SWAP1 POP DUP1 PUSH1 0xA PUSH1 0x0 DUP3 DUP3 SLOAD PUSH2 0x7AC SWAP2 SWAP1 PUSH2 0x1180 JUMP JUMPDEST SWAP1 SWAP2 SSTORE POP POP PUSH1 0x12 SLOAD PUSH1 0x40 MLOAD DUP3 DUP2 MSTORE PUSH1 0x1 PUSH1 0x1 PUSH1 0xA0 SHL SUB SWAP1 SWAP2 AND SWAP1 PUSH32 0xC0E523490DD523C33B1878C9EB14FF46991E3F5B2CD33710918618F2A39CBA1B SWAP1 PUSH1 0x20 ADD PUSH1 0x40 MLOAD DUP1 SWAP2 SUB SWAP1 LOG2 PUSH1 0x12 SLOAD PUSH2 0x80A SWAP1 PUSH1 0x1 PUSH1 0x1 PUSH1 0xA0 SHL SUB AND CALLER DUP4 PUSH2 0xE20 JUMP JUMPDEST CALLER PUSH1 0x0 SWAP1 DUP2 MSTORE PUSH1 0x2 PUSH1 0x20 MSTORE PUSH1 0x40 DUP2 KECCAK256 PUSH1 0x1 ADD DUP1 SLOAD DUP4 SWAP3 SWAP1 PUSH2 0x82C SWAP1 DUP5 SWAP1 PUSH2 0x1180 JUMP JUMPDEST SWAP1 SWAP2 SSTORE POP POP PUSH1 0x12 DUP1 SLOAD PUSH1 0xFF PUSH1 0xA0 SHL NOT AND SWAP1 SSTORE POP JUMP JUMPDEST PUSH1 0x0 SLOAD PUSH1 0x1 PUSH1 0x1 PUSH1 0xA0 SHL SUB AND CALLER EQ PUSH2 0x89B JUMPI PUSH1 0x40 MLOAD PUSH3 0x461BCD PUSH1 0xE5 SHL DUP2 MSTORE PUSH1 0x20 PUSH1 0x4 DUP3 ADD DUP2 SWAP1 MSTORE PUSH1 0x24 DUP3 ADD MSTORE PUSH32 0x4F776E61626C653A2063616C6C6572206973206E6F7420746865206F776E6572 PUSH1 0x44 DUP3 ADD MSTORE PUSH1 0x64 ADD PUSH2 0x299 JUMP JUMPDEST PUSH1 0x1 PUSH1 0x1 PUSH1 0xA0 SHL SUB DUP2 AND PUSH2 0x900 JUMPI PUSH1 0x40 MLOAD PUSH3 0x461BCD PUSH1 0xE5 SHL DUP2 MSTORE PUSH1 0x20 PUSH1 0x4 DUP3 ADD MSTORE PUSH1 0x26 PUSH1 0x24 DUP3 ADD MSTORE PUSH32 0x4F776E61626C653A206E6577206F776E657220697320746865207A65726F2061 PUSH1 0x44 DUP3 ADD MSTORE PUSH6 0x646472657373 PUSH1 0xD0 SHL PUSH1 0x64 DUP3 ADD MSTORE PUSH1 0x84 ADD PUSH2 0x299 JUMP JUMPDEST PUSH2 0x909 DUP2 PUSH2 0xB64 JUMP JUMPDEST POP JUMP JUMPDEST CALLER PUSH1 0x0 SWAP1 DUP2 MSTORE PUSH1 0x2 PUSH1 0x20 DUP2 SWAP1 MSTORE PUSH1 0x40 DUP3 KECCAK256 PUSH1 0x1 DUP2 ADD SLOAD SWAP2 ADD SLOAD DUP1 DUP3 LT PUSH2 0x974 JUMPI PUSH1 0x40 MLOAD PUSH3 0x461BCD PUSH1 0xE5 SHL DUP2 MSTORE PUSH1 0x20 PUSH1 0x4 DUP3 ADD MSTORE PUSH1 0x1C PUSH1 0x24 DUP3 ADD MSTORE PUSH32 0x416C6C20746F6B656E732068617665206265656E20636C61696D656400000000 PUSH1 0x44 DUP3 ADD MSTORE PUSH1 0x64 ADD PUSH2 0x299 JUMP JUMPDEST CALLER PUSH1 0x0 SWAP1 DUP2 MSTORE PUSH1 0x2 PUSH1 0x20 MSTORE PUSH1 0x40 SWAP1 KECCAK256 PUSH1 0x3 ADD SLOAD TIMESTAMP SWAP1 DUP1 DUP3 GT PUSH2 0x9D8 JUMPI PUSH1 0x40 MLOAD PUSH3 0x461BCD PUSH1 0xE5 SHL DUP2 MSTORE PUSH1 0x20 PUSH1 0x4 DUP3 ADD MSTORE PUSH1 0x1C PUSH1 0x24 DUP3 ADD MSTORE PUSH32 0x4C6F636B2074696D6520686173206E6F74207061737365642079657400000000 PUSH1 0x44 DUP3 ADD MSTORE PUSH1 0x64 ADD PUSH2 0x299 JUMP JUMPDEST PUSH1 0x0 DUP1 PUSH1 0x1 JUMPDEST PUSH1 0x8 SLOAD DUP2 GT PUSH2 0xB4B JUMPI PUSH2 0x9F4 DUP2 PUSH3 0x278D00 PUSH2 0x1198 JUMP JUMPDEST PUSH2 0x9FE SWAP1 DUP6 PUSH2 0x1180 JUMP JUMPDEST DUP6 GT ISZERO PUSH2 0xAA0 JUMPI PUSH2 0xA10 PUSH1 0x1 DUP3 PUSH2 0x11B7 JUMP JUMPDEST PUSH2 0xA1D SWAP1 PUSH3 0x278D00 PUSH2 0x1198 JUMP JUMPDEST PUSH2 0xA2A DUP3 PUSH3 0x278D00 PUSH2 0x1198 JUMP JUMPDEST PUSH2 0xA34 SWAP2 SWAP1 PUSH2 0x11B7 JUMP JUMPDEST SWAP2 POP DUP2 PUSH3 0x278D00 PUSH2 0x2710 PUSH1 0x8 PUSH2 0xA4B PUSH1 0x1 DUP7 PUSH2 0x11B7 JUMP JUMPDEST DUP2 SLOAD DUP2 LT PUSH2 0xA5B JUMPI PUSH2 0xA5B PUSH2 0x11CE JUMP JUMPDEST SWAP1 PUSH1 0x0 MSTORE PUSH1 0x20 PUSH1 0x0 KECCAK256 ADD SLOAD DUP10 PUSH2 0xA71 SWAP2 SWAP1 PUSH2 0x1198 JUMP JUMPDEST PUSH2 0xA7B SWAP2 SWAP1 PUSH2 0x11E4 JUMP JUMPDEST PUSH2 0xA85 SWAP2 SWAP1 PUSH2 0x11E4 JUMP JUMPDEST PUSH2 0xA8F SWAP2 SWAP1 PUSH2 0x1198 JUMP JUMPDEST PUSH2 0xA99 SWAP1 DUP5 PUSH2 0x1180 JUMP JUMPDEST SWAP3 POP PUSH2 0xB39 JUMP JUMPDEST DUP4 PUSH2 0xAAC PUSH1 0x1 DUP4 PUSH2 0x11B7 JUMP JUMPDEST PUSH2 0xAB9 SWAP1 PUSH3 0x278D00 PUSH2 0x1198 JUMP JUMPDEST PUSH2 0xAC3 SWAP1 DUP8 PUSH2 0x11B7 JUMP JUMPDEST PUSH2 0xACD SWAP2 SWAP1 PUSH2 0x11B7 JUMP JUMPDEST SWAP2 POP DUP2 PUSH3 0x278D00 PUSH2 0x2710 PUSH1 0x8 PUSH2 0xAE4 PUSH1 0x1 DUP7 PUSH2 0x11B7 JUMP JUMPDEST DUP2 SLOAD DUP2 LT PUSH2 0xAF4 JUMPI PUSH2 0xAF4 PUSH2 0x11CE JUMP JUMPDEST SWAP1 PUSH1 0x0 MSTORE PUSH1 0x20 PUSH1 0x0 KECCAK256 ADD SLOAD DUP10 PUSH2 0xB0A SWAP2 SWAP1 PUSH2 0x1198 JUMP JUMPDEST PUSH2 0xB14 SWAP2 SWAP1 PUSH2 0x11E4 JUMP JUMPDEST PUSH2 0xB1E SWAP2 SWAP1 PUSH2 0x11E4 JUMP JUMPDEST PUSH2 0xB28 SWAP2 SWAP1 PUSH2 0x1198 JUMP JUMPDEST PUSH2 0xB32 SWAP1 DUP5 PUSH2 0x1180 JUMP JUMPDEST SWAP3 POP PUSH2 0xB4B JUMP JUMPDEST DUP1 PUSH2 0xB43 DUP2 PUSH2 0x1206 JUMP JUMPDEST SWAP2 POP POP PUSH2 0x9DE JUMP JUMPDEST POP PUSH1 0x0 PUSH2 0xB58 DUP8 DUP5 PUSH2 0x11B7 JUMP JUMPDEST SWAP9 SWAP8 POP POP POP POP POP POP POP POP JUMP JUMPDEST PUSH1 0x0 DUP1 SLOAD PUSH1 0x1 PUSH1 0x1 PUSH1 0xA0 SHL SUB DUP4 DUP2 AND PUSH1 0x1 PUSH1 0x1 PUSH1 0xA0 SHL SUB NOT DUP4 AND DUP2 OR DUP5 SSTORE PUSH1 0x40 MLOAD SWAP2 SWAP1 SWAP3 AND SWAP3 DUP4 SWAP2 PUSH32 0x8BE0079C531659141344CD1FD0A4F28419497F9722A3DAAFE3B4186F6B6457E0 SWAP2 SWAP1 LOG3 POP POP JUMP JUMPDEST PUSH1 0x1 PUSH1 0x1 PUSH1 0xA0 SHL SUB DUP3 AND PUSH1 0x0 SWAP1 DUP2 MSTORE PUSH1 0x2 PUSH1 0x20 DUP2 SWAP1 MSTORE PUSH1 0x40 DUP3 KECCAK256 PUSH1 0x1 DUP2 ADD SLOAD SWAP2 ADD SLOAD DUP1 DUP3 LT PUSH2 0xC25 JUMPI PUSH1 0x40 MLOAD PUSH3 0x461BCD PUSH1 0xE5 SHL DUP2 MSTORE PUSH1 0x20 PUSH1 0x4 DUP3 ADD MSTORE PUSH1 0x1C PUSH1 0x24 DUP3 ADD MSTORE PUSH32 0x416C6C20746F6B656E732068617665206265656E20636C61696D656400000000 PUSH1 0x44 DUP3 ADD MSTORE PUSH1 0x64 ADD PUSH2 0x299 JUMP JUMPDEST PUSH1 0x1 PUSH1 0x1 PUSH1 0xA0 SHL SUB DUP6 AND PUSH1 0x0 SWAP1 DUP2 MSTORE PUSH1 0x2 PUSH1 0x20 MSTORE PUSH1 0x40 SWAP1 KECCAK256 PUSH1 0x3 ADD SLOAD DUP5 SWAP1 DUP1 DUP3 GT PUSH2 0xC92 JUMPI PUSH1 0x40 MLOAD PUSH3 0x461BCD PUSH1 0xE5 SHL DUP2 MSTORE PUSH1 0x20 PUSH1 0x4 DUP3 ADD MSTORE PUSH1 0x1C PUSH1 0x24 DUP3 ADD MSTORE PUSH32 0x4C6F636B2074696D6520686173206E6F74207061737365642079657400000000 PUSH1 0x44 DUP3 ADD MSTORE PUSH1 0x64 ADD PUSH2 0x299 JUMP JUMPDEST PUSH1 0x0 DUP1 PUSH1 0x1 JUMPDEST PUSH1 0x8 SLOAD DUP2 GT PUSH2 0xE05 JUMPI PUSH2 0xCAE DUP2 PUSH3 0x278D00 PUSH2 0x1198 JUMP JUMPDEST PUSH2 0xCB8 SWAP1 DUP6 PUSH2 0x1180 JUMP JUMPDEST DUP6 GT ISZERO PUSH2 0xD5A JUMPI PUSH2 0xCCA PUSH1 0x1 DUP3 PUSH2 0x11B7 JUMP JUMPDEST PUSH2 0xCD7 SWAP1 PUSH3 0x278D00 PUSH2 0x1198 JUMP JUMPDEST PUSH2 0xCE4 DUP3 PUSH3 0x278D00 PUSH2 0x1198 JUMP JUMPDEST PUSH2 0xCEE SWAP2 SWAP1 PUSH2 0x11B7 JUMP JUMPDEST SWAP2 POP DUP2 PUSH3 0x278D00 PUSH2 0x2710 PUSH1 0x8 PUSH2 0xD05 PUSH1 0x1 DUP7 PUSH2 0x11B7 JUMP JUMPDEST DUP2 SLOAD DUP2 LT PUSH2 0xD15 JUMPI PUSH2 0xD15 PUSH2 0x11CE JUMP JUMPDEST SWAP1 PUSH1 0x0 MSTORE PUSH1 0x20 PUSH1 0x0 KECCAK256 ADD SLOAD DUP10 PUSH2 0xD2B SWAP2 SWAP1 PUSH2 0x1198 JUMP JUMPDEST PUSH2 0xD35 SWAP2 SWAP1 PUSH2 0x11E4 JUMP JUMPDEST PUSH2 0xD3F SWAP2 SWAP1 PUSH2 0x11E4 JUMP JUMPDEST PUSH2 0xD49 SWAP2 SWAP1 PUSH2 0x1198 JUMP JUMPDEST PUSH2 0xD53 SWAP1 DUP5 PUSH2 0x1180 JUMP JUMPDEST SWAP3 POP PUSH2 0xDF3 JUMP JUMPDEST DUP4 PUSH2 0xD66 PUSH1 0x1 DUP4 PUSH2 0x11B7 JUMP JUMPDEST PUSH2 0xD73 SWAP1 PUSH3 0x278D00 PUSH2 0x1198 JUMP JUMPDEST PUSH2 0xD7D SWAP1 DUP8 PUSH2 0x11B7 JUMP JUMPDEST PUSH2 0xD87 SWAP2 SWAP1 PUSH2 0x11B7 JUMP JUMPDEST SWAP2 POP DUP2 PUSH3 0x278D00 PUSH2 0x2710 PUSH1 0x8 PUSH2 0xD9E PUSH1 0x1 DUP7 PUSH2 0x11B7 JUMP JUMPDEST DUP2 SLOAD DUP2 LT PUSH2 0xDAE JUMPI PUSH2 0xDAE PUSH2 0x11CE JUMP JUMPDEST SWAP1 PUSH1 0x0 MSTORE PUSH1 0x20 PUSH1 0x0 KECCAK256 ADD SLOAD DUP10 PUSH2 0xDC4 SWAP2 SWAP1 PUSH2 0x1198 JUMP JUMPDEST PUSH2 0xDCE SWAP2 SWAP1 PUSH2 0x11E4 JUMP JUMPDEST PUSH2 0xDD8 SWAP2 SWAP1 PUSH2 0x11E4 JUMP JUMPDEST PUSH2 0xDE2 SWAP2 SWAP1 PUSH2 0x1198 JUMP JUMPDEST PUSH2 0xDEC SWAP1 DUP5 PUSH2 0x1180 JUMP JUMPDEST SWAP3 POP PUSH2 0xE05 JUMP JUMPDEST DUP1 PUSH2 0xDFD DUP2 PUSH2 0x1206 JUMP JUMPDEST SWAP2 POP POP PUSH2 0xC98 JUMP JUMPDEST POP PUSH1 0x0 PUSH2 0xE12 DUP8 DUP5 PUSH2 0x11B7 JUMP JUMPDEST SWAP11 SWAP10 POP POP POP POP POP POP POP POP POP POP JUMP JUMPDEST PUSH1 0x40 DUP1 MLOAD PUSH1 0x1 PUSH1 0x1 PUSH1 0xA0 SHL SUB DUP5 AND PUSH1 0x24 DUP3 ADD MSTORE PUSH1 0x44 DUP1 DUP3 ADD DUP5 SWAP1 MSTORE DUP3 MLOAD DUP1 DUP4 SUB SWAP1 SWAP2 ADD DUP2 MSTORE PUSH1 0x64 SWAP1 SWAP2 ADD SWAP1 SWAP2 MSTORE PUSH1 0x20 DUP2 ADD DUP1 MLOAD PUSH1 0x1 PUSH1 0x1 PUSH1 0xE0 SHL SUB AND PUSH4 0xA9059CBB PUSH1 0xE0 SHL OR SWAP1 MSTORE PUSH2 0xE72 SWAP1 DUP5 SWAP1 PUSH2 0xE77 JUMP JUMPDEST POP POP POP JUMP JUMPDEST PUSH1 0x0 PUSH2 0xECC DUP3 PUSH1 0x40 MLOAD DUP1 PUSH1 0x40 ADD PUSH1 0x40 MSTORE DUP1 PUSH1 0x20 DUP2 MSTORE PUSH1 0x20 ADD PUSH32 0x5361666545524332303A206C6F772D6C6576656C2063616C6C206661696C6564 DUP2 MSTORE POP DUP6 PUSH1 0x1 PUSH1 0x1 PUSH1 0xA0 SHL SUB AND PUSH2 0xF49 SWAP1 SWAP3 SWAP2 SWAP1 PUSH4 0xFFFFFFFF AND JUMP JUMPDEST DUP1 MLOAD SWAP1 SWAP2 POP ISZERO PUSH2 0xE72 JUMPI DUP1 DUP1 PUSH1 0x20 ADD SWAP1 MLOAD DUP2 ADD SWAP1 PUSH2 0xEEA SWAP2 SWAP1 PUSH2 0x1148 JUMP JUMPDEST PUSH2 0xE72 JUMPI PUSH1 0x40 MLOAD PUSH3 0x461BCD PUSH1 0xE5 SHL DUP2 MSTORE PUSH1 0x20 PUSH1 0x4 DUP3 ADD MSTORE PUSH1 0x2A PUSH1 0x24 DUP3 ADD MSTORE PUSH32 0x5361666545524332303A204552433230206F7065726174696F6E20646964206E PUSH1 0x44 DUP3 ADD MSTORE PUSH10 0x1BDD081CDD58D8D95959 PUSH1 0xB2 SHL PUSH1 0x64 DUP3 ADD MSTORE PUSH1 0x84 ADD PUSH2 0x299 JUMP JUMPDEST PUSH1 0x60 PUSH2 0xF58 DUP5 DUP5 PUSH1 0x0 DUP6 PUSH2 0xF62 JUMP JUMPDEST SWAP1 POP JUMPDEST SWAP4 SWAP3 POP POP POP JUMP JUMPDEST PUSH1 0x60 DUP3 SELFBALANCE LT ISZERO PUSH2 0xFC3 JUMPI PUSH1 0x40 MLOAD PUSH3 0x461BCD PUSH1 0xE5 SHL DUP2 MSTORE PUSH1 0x20 PUSH1 0x4 DUP3 ADD MSTORE PUSH1 0x26 PUSH1 0x24 DUP3 ADD MSTORE PUSH32 0x416464726573733A20696E73756666696369656E742062616C616E636520666F PUSH1 0x44 DUP3 ADD MSTORE PUSH6 0x1C8818D85B1B PUSH1 0xD2 SHL PUSH1 0x64 DUP3 ADD MSTORE PUSH1 0x84 ADD PUSH2 0x299 JUMP JUMPDEST PUSH1 0x1 PUSH1 0x1 PUSH1 0xA0 SHL SUB DUP6 AND EXTCODESIZE PUSH2 0x101A JUMPI PUSH1 0x40 MLOAD PUSH3 0x461BCD PUSH1 0xE5 SHL DUP2 MSTORE PUSH1 0x20 PUSH1 0x4 DUP3 ADD MSTORE PUSH1 0x1D PUSH1 0x24 DUP3 ADD MSTORE PUSH32 0x416464726573733A2063616C6C20746F206E6F6E2D636F6E7472616374000000 PUSH1 0x44 DUP3 ADD MSTORE PUSH1 0x64 ADD PUSH2 0x299 JUMP JUMPDEST PUSH1 0x0 DUP1 DUP7 PUSH1 0x1 PUSH1 0x1 PUSH1 0xA0 SHL SUB AND DUP6 DUP8 PUSH1 0x40 MLOAD PUSH2 0x1036 SWAP2 SWAP1 PUSH2 0x124F JUMP JUMPDEST PUSH1 0x0 PUSH1 0x40 MLOAD DUP1 DUP4 SUB DUP2 DUP6 DUP8 GAS CALL SWAP3 POP POP POP RETURNDATASIZE DUP1 PUSH1 0x0 DUP2 EQ PUSH2 0x1073 JUMPI PUSH1 0x40 MLOAD SWAP2 POP PUSH1 0x1F NOT PUSH1 0x3F RETURNDATASIZE ADD AND DUP3 ADD PUSH1 0x40 MSTORE RETURNDATASIZE DUP3 MSTORE RETURNDATASIZE PUSH1 0x0 PUSH1 0x20 DUP5 ADD RETURNDATACOPY PUSH2 0x1078 JUMP JUMPDEST PUSH1 0x60 SWAP2 POP JUMPDEST POP SWAP2 POP SWAP2 POP PUSH2 0x1088 DUP3 DUP3 DUP7 PUSH2 0x1093 JUMP JUMPDEST SWAP8 SWAP7 POP POP POP POP POP POP POP JUMP JUMPDEST PUSH1 0x60 DUP4 ISZERO PUSH2 0x10A2 JUMPI POP DUP2 PUSH2 0xF5B JUMP JUMPDEST DUP3 MLOAD ISZERO PUSH2 0x10B2 JUMPI DUP3 MLOAD DUP1 DUP5 PUSH1 0x20 ADD REVERT JUMPDEST DUP2 PUSH1 0x40 MLOAD PUSH3 0x461BCD PUSH1 0xE5 SHL DUP2 MSTORE PUSH1 0x4 ADD PUSH2 0x299 SWAP2 SWAP1 PUSH2 0x126B JUMP JUMPDEST DUP1 CALLDATALOAD PUSH1 0x1 PUSH1 0x1 PUSH1 0xA0 SHL SUB DUP2 AND DUP2 EQ PUSH2 0x10E3 JUMPI PUSH1 0x0 DUP1 REVERT JUMPDEST SWAP2 SWAP1 POP JUMP JUMPDEST PUSH1 0x0 DUP1 PUSH1 0x40 DUP4 DUP6 SUB SLT ISZERO PUSH2 0x10FB JUMPI PUSH1 0x0 DUP1 REVERT JUMPDEST DUP3 CALLDATALOAD SWAP2 POP PUSH2 0x110B PUSH1 0x20 DUP5 ADD PUSH2 0x10CC JUMP JUMPDEST SWAP1 POP SWAP3 POP SWAP3 SWAP1 POP JUMP JUMPDEST PUSH1 0x0 PUSH1 0x20 DUP3 DUP5 SUB SLT ISZERO PUSH2 0x1126 JUMPI PUSH1 0x0 DUP1 REVERT JUMPDEST PUSH2 0xF5B DUP3 PUSH2 0x10CC JUMP JUMPDEST PUSH1 0x0 PUSH1 0x20 DUP3 DUP5 SUB SLT ISZERO PUSH2 0x1141 JUMPI PUSH1 0x0 DUP1 REVERT JUMPDEST POP MLOAD SWAP2 SWAP1 POP JUMP JUMPDEST PUSH1 0x0 PUSH1 0x20 DUP3 DUP5 SUB SLT ISZERO PUSH2 0x115A JUMPI PUSH1 0x0 DUP1 REVERT JUMPDEST DUP2 MLOAD DUP1 ISZERO ISZERO DUP2 EQ PUSH2 0xF5B JUMPI PUSH1 0x0 DUP1 REVERT JUMPDEST PUSH4 0x4E487B71 PUSH1 0xE0 SHL PUSH1 0x0 MSTORE PUSH1 0x11 PUSH1 0x4 MSTORE PUSH1 0x24 PUSH1 0x0 REVERT JUMPDEST PUSH1 0x0 DUP3 NOT DUP3 GT ISZERO PUSH2 0x1193 JUMPI PUSH2 0x1193 PUSH2 0x116A JUMP JUMPDEST POP ADD SWAP1 JUMP JUMPDEST PUSH1 0x0 DUP2 PUSH1 0x0 NOT DIV DUP4 GT DUP3 ISZERO ISZERO AND ISZERO PUSH2 0x11B2 JUMPI PUSH2 0x11B2 PUSH2 0x116A JUMP JUMPDEST POP MUL SWAP1 JUMP JUMPDEST PUSH1 0x0 DUP3 DUP3 LT ISZERO PUSH2 0x11C9 JUMPI PUSH2 0x11C9 PUSH2 0x116A JUMP JUMPDEST POP SUB SWAP1 JUMP JUMPDEST PUSH4 0x4E487B71 PUSH1 0xE0 SHL PUSH1 0x0 MSTORE PUSH1 0x32 PUSH1 0x4 MSTORE PUSH1 0x24 PUSH1 0x0 REVERT JUMPDEST PUSH1 0x0 DUP3 PUSH2 0x1201 JUMPI PUSH4 0x4E487B71 PUSH1 0xE0 SHL PUSH1 0x0 MSTORE PUSH1 0x12 PUSH1 0x4 MSTORE PUSH1 0x24 PUSH1 0x0 REVERT JUMPDEST POP DIV SWAP1 JUMP JUMPDEST PUSH1 0x0 PUSH1 0x1 DUP3 ADD PUSH2 0x1218 JUMPI PUSH2 0x1218 PUSH2 0x116A JUMP JUMPDEST POP PUSH1 0x1 ADD SWAP1 JUMP JUMPDEST PUSH1 0x0 JUMPDEST DUP4 DUP2 LT ISZERO PUSH2 0x123A JUMPI DUP2 DUP2 ADD MLOAD DUP4 DUP3 ADD MSTORE PUSH1 0x20 ADD PUSH2 0x1222 JUMP JUMPDEST DUP4 DUP2 GT ISZERO PUSH2 0x1249 JUMPI PUSH1 0x0 DUP5 DUP5 ADD MSTORE JUMPDEST POP POP POP POP JUMP JUMPDEST PUSH1 0x0 DUP3 MLOAD PUSH2 0x1261 DUP2 DUP5 PUSH1 0x20 DUP8 ADD PUSH2 0x121F JUMP JUMPDEST SWAP2 SWAP1 SWAP2 ADD SWAP3 SWAP2 POP POP JUMP JUMPDEST PUSH1 0x20 DUP2 MSTORE PUSH1 0x0 DUP3 MLOAD DUP1 PUSH1 0x20 DUP5 ADD MSTORE PUSH2 0x128A DUP2 PUSH1 0x40 DUP6 ADD PUSH1 0x20 DUP8 ADD PUSH2 0x121F JUMP JUMPDEST PUSH1 0x1F ADD PUSH1 0x1F NOT AND SWAP2 SWAP1 SWAP2 ADD PUSH1 0x40 ADD SWAP3 SWAP2 POP POP JUMP INVALID LOG2 PUSH5 0x6970667358 0x22 SLT KECCAK256 0xEE LOG1 0x5D 0x5C CALLDATACOPY CREATE2 CREATE2 PUSH7 0xC180FE78639A2 0xE LOG2 XOR PUSH20 0x35280A25C3A1948148C588FC7264736F6C634300 ADDMOD 0xF STOP CALLER ",
  "sha1": "0bc80c51675d1755cdcb0718a6739da03709868a",
  "source": "// SPDX-License-Identifier: MIT\n// OpenZeppelin Contracts (last updated v4.7.0) (finance/LockContract.sol)\npragma solidity ^0.8.0;\n\nimport \"@openzeppelin/contracts/token/ERC20/utils/SafeERC20.sol\";\nimport \"@openzeppelin/contracts/utils/Address.sol\";\nimport \"@openzeppelin/contracts/utils/Context.sol\";\nimport \"@openzeppelin/contracts/access/Ownable.sol\";\n\n/**\n * @title LockContract\n * @dev This contract handles the vesting of a ERC20 tokens for a given beneficiary. Custody of the _token amount\n * can be given to this contract, which will release the _token to the beneficiary following a given schedule.\n * The vesting schedule is established by a key->value pair in the form of _duration->_amounts. This two arrays\n * have the same length and are iterated by the _milestone variable\n */\ncontract LockContract is Context, Ownable  {\n\n    //Token\n    IERC20 public legacy_token;\n\n    //Events\n    event ERC20Released(address indexed _token, uint256 amount);\n\n    //Mappings\n    mapping(address => Investor) public walletToInvestor;\n\n    //Structs\n    struct Investor {\n        address investor_address;// probably can take it out\n\n        uint256 tokens_received;// amount of tokens the Investor has received\n\n        uint256 tokens_promised;// amount of tokens the Investor is owed\n\n        uint256 vesting_start;// saves the date of the initial locking of the contract\n\n        bool under250k_investor;// if true than it is an investor between 50k-250k, if false it is 250k+\n    }\n\n    //Variables\n    address[] investor_address;// array with all the investor aaddresses\n    address[] addresses_O50I;\n    address[] addresses_O250I;\n    uint256[] tokens_O50I;\n    uint256[] tokens_O250I;\n    uint256[] percent_per_milestone;//percentages per month that will be released (in basis points)\n    uint256 initLock;// initial lock period \n    uint256 erc20Released;// total amount of released tokens\n    uint256 numMilestones;// number of milestones (number of payments for each Investor)\n    uint256 num_O50I;// number of under 50k token vested investors\n    uint256 num_O250I;// number of over 50k token vested investors\n    uint256 totalTokens_O50I;// total tokens promised to investors with 50k-250k tokens vested\n    uint256 totalTokens_O250I;// total tokens promised to investors with more than 250k tokens vested\n    uint256 timeLock_O50I;// the time lock to be applied before vesting for investors with 50k-250k tokens vested\n    uint256 timeLock_O250I;//... investors with more than 250k tokens vested\n    address tokenAddress;// token address\n    bool internal locked;   // boolean to prevent reentrancy\n\n    //Functions\n    /**\n     * @dev Set the beneficiary, start timestamp and locking durations and amounts.\n     */\n    constructor(\n        address[] memory _addresses_O50I,// array with the addresses of the investors with 50k to 250k tokens\n        address[] memory _addresses_O250I,// array with the addresses of the investors with more than 250k tokens\n\n        uint256[] memory _tokens_O50I,// array with the token amount to be vested to the equivalent\n                                      // indexed addres in _addresses_O50I\n        uint256[] memory _tokens_O250I,// array with the token amount to be vested to the equivalent\n                                      // indexed addres in _addresses_O250I\n\n        uint256[] memory _percent_per_milestone,// has the basis point values of the percentages \n                                                // of tokens that should be released in total in \n                                                // the indexed month\n\n        uint256 _tokens_O50ITotal,// sum all the tokens for the investors with with 50k-250k tokens vested\n        uint256 _tokens_O250ITotal,// ... more than 250k tokens\n\n        uint256 _timeLock_O50I,// time lock period for investors with with 50k-250k tokens vested\n        uint256 _timeLock_O250I,// ... more than 250k tokens\n\n        address _tokenAddress// address of the token to be used\n    ) {\n\n        // marks the time point in which the contract was deployed and so the time\n        // in which the investors locking period (before vesting) started\n        initLock = block.timestamp;\n\n        // percentage of tokens an investor can withdraw at each milestone\n        percent_per_milestone = _percent_per_milestone;\n\n        // number of investors with...\n        num_O50I = _addresses_O50I.length;// with 50k-250k tokens vested\n        num_O250I = _addresses_O250I.length;// more than 250k tokens vested\n\n        // array of addresses of investors with ...\n        addresses_O50I= _addresses_O50I;// with 50k-250k tokens vested\n        addresses_O250I= _addresses_O250I;// more than 250k tokens vested\n\n        // array of tokens promised to investors with ...\n        tokens_O50I = _tokens_O50I;// with 50k-250k tokens vested\n        tokens_O250I = _tokens_O250I;// more than 250k tokens vested\n\n        // total tokens promised to investors with ...\n        totalTokens_O50I = _tokens_O50ITotal;// with 50k-250k tokens vested\n        totalTokens_O250I = _tokens_O250ITotal;// more than 250k tokens vested\n\n        // create an Investor struct for each investor with less than 50k tokens\n        for (uint i=0; i<num_O50I; i++){\n\n            // Investor address can't be the zero address\n            require(addresses_O50I[i] != address(0),\n                     \"Constructor: locked Investor address is zero address\");\n\n            // get the amount of tokens and the address correpsonding to this investor\n            address _investor_address = addresses_O50I[i];\n            uint256 _investor_tokens = tokens_O50I[i];\n           \n            // create the new Investor struct\n            Investor memory investor = Investor(_investor_address, \n                                                0, \n                                                _investor_tokens, \n                                                block.timestamp + _timeLock_O50I, \n                                                true);\n\n            // map the new Investor address to its struct\n            walletToInvestor[_investor_address]=investor;\n\n        }\n\n        // create an Investor struct for each investor with more than 250k tokens\n        for (uint i=0; i<num_O250I; i++){\n\n            // Investor address can't be the zero address\n            require(addresses_O250I[i] != address(0),\n                     \"Constructor: locked Investor address is zero address\");\n\n            // get the amount of tokens and the address correpsonding to this investor\n            address _investor_address = addresses_O250I[i];\n            uint256 _investor_tokens = tokens_O250I[i];\n           \n            // create the new Investor struct\n            Investor memory investor = Investor(_investor_address, \n                                                0, \n                                                _investor_tokens, \n                                                block.timestamp + _timeLock_O250I, \n                                                false);\n\n            // map the new Investor address to its struct\n            walletToInvestor[_investor_address]=investor;\n\n        }\n\n        // establish token address\n        tokenAddress = _tokenAddress;\n\n        // establish the IERC20 for legacy token to contract interactions\n        legacy_token = IERC20(_tokenAddress);\n\n        // Initialize the reentrancy variable to not locked\n        locked = false;\n\n        // establish the lock time for the two types of investors\n        timeLock_O50I = _timeLock_O50I;\n        timeLock_O250I = _timeLock_O250I;\n    }\n\n\n    // Modifiers\n    /**\n     * @dev Prevents reentrancy\n     */\n    modifier noReentrant() {\n        require(!locked, \"No re-entrancy\");\n        locked = true;\n        _;\n        locked = false;\n    }\n\n    /**\n     * @dev Only investors can call functions\n     */\n    modifier onlyInvestor() {\n        require(walletToInvestor[msg.sender].tokens_promised != 0, \"Not an investor\");\n        _;\n    }\n\n    /**\n     * @dev Release the tokens \n     *\n     * Emits a {ERC20Released} event.\n     */\n    function release() public virtual noReentrant() onlyInvestor(){\n\n        // gets the amount of tokens the investor can withdraw\n        uint256 releasable = can_release_percent(msg.sender, uint256(block.timestamp));\n\n        // adds that amount to the total released amount\n        erc20Released += releasable;\n\n        // emits an event\n        emit ERC20Released(tokenAddress, releasable);\n        // transfers the tokens to the investor\n        SafeERC20.safeTransfer(IERC20(tokenAddress), msg.sender, releasable);\n        // updates the investors struct to reflect the withdraw\n        walletToInvestor[msg.sender].tokens_received += releasable;\n    }\n\n\n    /**\n     * @dev Claculates and returns the amount of tokens that can be withdrawn, as function of milestones passed.\n     * Updates the investor struct with the amount of tokens he has withdrawn.\n     */\n    function can_release_percent(address _callerAddress, uint256 _timestamp) internal virtual returns (uint256) {\n\n        // get the quatity of tokens he has already withdrawned,\n        uint256 _has_withdrawn = walletToInvestor[_callerAddress].tokens_received;\n        // gets the investors promised tokens\n        uint256 _tokens_promised = walletToInvestor[_callerAddress].tokens_promised;\n\n        // require that the investor has not already withdrawn everything\n        require(_has_withdrawn < _tokens_promised, \"All tokens have been claimed\");\n        \n        // gets the current time\n        uint256 _current_time = _timestamp;\n        // gets the time in which the investors vesting starts\n        uint256 _vesting_start = walletToInvestor[_callerAddress].vesting_start;\n\n        // require that the locking time for this investor has passed and thevesting has started\n        require(_current_time > _vesting_start, 'Lock time has not passed yet');\n\n        // will save the amount that is calculated that can be released\n        uint256 _can_release = 0;\n        // saves the seconds the investor has spent vesting in each bracket, to allow the token withdraw calc\n        uint256 _second_in_bracket = 0;\n        \n        //Loop through every month until we reach the one the  vesting of this investor is currently on\n        for(uint i = 1; i<= percent_per_milestone.length; i++){\n        \n            // if the time the investor has been vesting is bigger than i month\n            if(_current_time > (_vesting_start+2592000*i)){\n\n                // check how much time has elapsed how may percentage brakctes/months \n                    //we have passed since the initLock\n                _second_in_bracket =2592000*i -2592000*(i-1);\n                \n                // for each bracket, claculate the the tokens to be released in that period  \n                _can_release = _can_release + \n                    _tokens_promised * \n                    percent_per_milestone[i-1]/10000/2592000 * _second_in_bracket;// remember the percent_per \n                                                                                // milestone are percents multiplied by 1000 \n                \n            }else{\n                //If the current time is in the middle of one of the months\n                _second_in_bracket = _current_time - 2592000*(i-1)-_vesting_start;\n                \n                _can_release = _can_release + \n                    _tokens_promised * \n                    percent_per_milestone[i-1]/10000/2592000 * _second_in_bracket;\n\n                break;\n            }\n        }\n\n        // get the amount of tokens the investor can actually withdraw: \n        uint256 _able_to_release = _can_release - _has_withdrawn;\n\n        // return \n        return  _able_to_release;\n    }\n\n    /**\n     * @dev Adds a new Investor.\n     */\n    function new_Investor(uint256 _amount, address _newInvestor_address) public {\n\n        // require that the owner locks at least 50k tokens\n        require( _amount >= 50*10**18, \"The investor should lock at least 50k tokens.\");\n\n        // require that the owner has enough legacy tokens to satisfy the promised tokens for locking\n        require(legacy_token.balanceOf(_newInvestor_address)>= _amount, \n        \"You don't have enough Legacy tokens for the price requirement.\");\n\n        // the investor should not already by locked\n        require(walletToInvestor[_newInvestor_address].tokens_promised== 0, \n        \"This address is already in the vesting contract.\");\n\n        // transfer the tokens to the contract\n        legacy_token.transferFrom(_newInvestor_address, address(this), _amount);\n\n        if(_amount >= 50*10**18 && _amount < 250*10**18){\n            addresses_O50I.push(_newInvestor_address);\n            tokens_O50I.push(_amount);\n\n            // create the new Investor struc\n            Investor memory investor = Investor(_newInvestor_address, \n                                                0, \n                                                _amount, \n                                                block.timestamp + timeLock_O50I,\n                                                true);\n\n            // push the new Investor struct to the Investors array\n            walletToInvestor[_newInvestor_address]=investor;  \n            \n        }else{\n            addresses_O250I.push(_newInvestor_address);\n            tokens_O250I.push(_amount);\n\n            // create the new Investor struc\n            Investor memory investor = Investor(_newInvestor_address, \n                                                0, \n                                                _amount, \n                                                block.timestamp + timeLock_O250I,\n         \n                                                true);\n\n            // push the new Investor struct to the Investors array\n            walletToInvestor[_newInvestor_address]=investor;  \n        }\n    }\n\n    /**\n     * @dev View function that an investor can use to see how many tokens he can withdraw\n     */\n    function view_can_release_percent() public view returns (uint256) {\n\n        // get the quatity of tokens he has already withdrawned,\n        uint256 _has_withdrawn = walletToInvestor[msg.sender].tokens_received;\n        // gets the investors promised tokens\n        uint256 _tokens_promised = walletToInvestor[msg.sender].tokens_promised;\n\n        // require that the investor has not already withdrawn everything\n        require(_has_withdrawn < _tokens_promised, \"All tokens have been claimed\");\n        \n        // gets the current time\n        uint256 _current_time = block.timestamp;\n        // gets the time in which the investors vesting starts\n        uint256 _vesting_start = walletToInvestor[msg.sender].vesting_start;\n\n        // require that the locking time for this investor has passed and thevesting has started\n        require(_current_time > _vesting_start, 'Lock time has not passed yet');\n\n        // will save the amount that is calculated that can be released\n        uint256 _can_release = 0;\n        // saves the seconds the investor has spent vesting in each bracket, to allow the token withdraw calc\n        uint256 _second_in_bracket = 0;\n        \n        //Loop through every milestone until we reach the one the  vesting of this investor is currently on\n        for(uint i = 1; i<= percent_per_milestone.length; i++){\n        \n            // if the time the investor has been vesting is bigger than i month\n            if(_current_time > (_vesting_start+2592000*i)){\n\n                // check how much time has elapsed how may percentage brakctes/months \n                    //we have passed since the initLock\n                _second_in_bracket =2592000*i -2592000*(i-1);\n                \n                // for each bracket, claculate the the tokens to be released in that period  \n                _can_release = _can_release + \n                    _tokens_promised * \n                    percent_per_milestone[i-1]/10000/2592000 * _second_in_bracket;// remember the percent_per \n                                                                                // milestone are percents multiplied by 1000 \n                \n            }else{\n                //If the current time is in the middle of one of the months\n                _second_in_bracket = _current_time - 2592000*(i-1)-_vesting_start;\n                \n                _can_release = _can_release + \n                    _tokens_promised * \n                    percent_per_milestone[i-1]/10000/2592000 * _second_in_bracket;\n\n                break;\n            }\n        }\n\n        // get the amount of tokens the investor can actually withdraw: \n        uint256 _able_to_release = _can_release - _has_withdrawn;\n\n        // return \n        return  _able_to_release;\n    }\n\n    /**\n     * @dev View function to get contract balance\n     */\n    function contract_balance() public view returns (uint256) {\n        return legacy_token.balanceOf(address(this));\n    }\n\n    function get_initLock() public view returns(uint256){\n        return initLock;\n    }\n}",
  "sourcePath": "contracts/LockContract.sol",
  "type": "contract"
}