{
  "abi": [
    {
      "inputs": [
        {
          "internalType": "address[]",
          "name": "_addresses_O50I",
          "type": "address[]"
        },
        {
          "internalType": "address[]",
          "name": "_addresses_O250I",
          "type": "address[]"
        },
        {
          "internalType": "uint256[]",
          "name": "_tokens_O50I",
          "type": "uint256[]"
        },
        {
          "internalType": "uint256[]",
          "name": "_tokens_O250I",
          "type": "uint256[]"
        },
        {
          "internalType": "uint256[]",
          "name": "_percent_per_milestone",
          "type": "uint256[]"
        },
        {
          "internalType": "uint256",
          "name": "_totalTokens_O50I",
          "type": "uint256"
        },
        {
          "internalType": "uint256",
          "name": "_totalTokens_O250I",
          "type": "uint256"
        },
        {
          "internalType": "uint256",
          "name": "_timeLock_O50I",
          "type": "uint256"
        },
        {
          "internalType": "uint256",
          "name": "_timeLock_O250I",
          "type": "uint256"
        },
        {
          "internalType": "address",
          "name": "_tokenAddress",
          "type": "address"
        }
      ],
      "stateMutability": "nonpayable",
      "type": "constructor"
    },
    {
      "anonymous": false,
      "inputs": [
        {
          "indexed": true,
          "internalType": "address",
          "name": "_token",
          "type": "address"
        },
        {
          "indexed": false,
          "internalType": "uint256",
          "name": "amount",
          "type": "uint256"
        }
      ],
      "name": "ERC20Released",
      "type": "event"
    },
    {
      "anonymous": false,
      "inputs": [
        {
          "indexed": true,
          "internalType": "address",
          "name": "previousOwner",
          "type": "address"
        },
        {
          "indexed": true,
          "internalType": "address",
          "name": "newOwner",
          "type": "address"
        }
      ],
      "name": "OwnershipTransferred",
      "type": "event"
    },
    {
      "inputs": [
        {
          "internalType": "address",
          "name": "_callerAddress",
          "type": "address"
        }
      ],
      "name": "can_release_percent",
      "outputs": [
        {
          "internalType": "uint256",
          "name": "",
          "type": "uint256"
        }
      ],
      "stateMutability": "view",
      "type": "function"
    },
    {
      "inputs": [],
      "name": "contract_balance",
      "outputs": [
        {
          "internalType": "uint256",
          "name": "",
          "type": "uint256"
        }
      ],
      "stateMutability": "view",
      "type": "function"
    },
    {
      "inputs": [],
      "name": "get_initLock",
      "outputs": [
        {
          "internalType": "uint256",
          "name": "",
          "type": "uint256"
        }
      ],
      "stateMutability": "view",
      "type": "function"
    },
    {
      "inputs": [],
      "name": "legacy_token",
      "outputs": [
        {
          "internalType": "contract IERC20",
          "name": "",
          "type": "address"
        }
      ],
      "stateMutability": "view",
      "type": "function"
    },
    {
      "inputs": [
        {
          "internalType": "uint256",
          "name": "_amount",
          "type": "uint256"
        },
        {
          "internalType": "address",
          "name": "_newInvestor_address",
          "type": "address"
        },
        {
          "internalType": "bool",
          "name": "_investor_type",
          "type": "bool"
        }
      ],
      "name": "new_Investor",
      "outputs": [],
      "stateMutability": "nonpayable",
      "type": "function"
    },
    {
      "inputs": [],
      "name": "owner",
      "outputs": [
        {
          "internalType": "address",
          "name": "",
          "type": "address"
        }
      ],
      "stateMutability": "view",
      "type": "function"
    },
    {
      "inputs": [],
      "name": "release",
      "outputs": [],
      "stateMutability": "nonpayable",
      "type": "function"
    },
    {
      "inputs": [],
      "name": "renounceOwnership",
      "outputs": [],
      "stateMutability": "nonpayable",
      "type": "function"
    },
    {
      "inputs": [
        {
          "internalType": "address",
          "name": "newOwner",
          "type": "address"
        }
      ],
      "name": "transferOwnership",
      "outputs": [],
      "stateMutability": "nonpayable",
      "type": "function"
    },
    {
      "inputs": [
        {
          "internalType": "address",
          "name": "",
          "type": "address"
        }
      ],
      "name": "walletToInvestor",
      "outputs": [
        {
          "internalType": "address",
          "name": "investor_address",
          "type": "address"
        },
        {
          "internalType": "uint256",
          "name": "tokens_received",
          "type": "uint256"
        },
        {
          "internalType": "uint256",
          "name": "tokens_promised",
          "type": "uint256"
        },
        {
          "internalType": "uint256",
          "name": "vesting_start",
          "type": "uint256"
        },
        {
          "internalType": "bool",
          "name": "under250k_investor",
          "type": "bool"
        }
      ],
      "stateMutability": "view",
      "type": "function"
    }
  ],
  "bytecode": "60806040523480156200001157600080fd5b5060405162001676380380620016768339810160408190526200003491620005cb565b6200003f3362000352565b42600955855162000058906008906020890190620003a2565b508951600c8190558951600d55620000789060049060208d0190620003f2565b5088516200008e9060059060208c0190620003f2565b508751620000a49060069060208b0190620003a2565b508651620000ba9060079060208a0190620003a2565b50600e859055600f84905560005b600c54811015620001e957600060048281548110620000eb57620000eb620006e7565b6000918252602082200154600680546001600160a01b03909216935090849081106200011b576200011b620006e7565b9060005260206000200154905060006040518060a00160405280846001600160a01b031681526020016000815260200183815260200188426200015f919062000713565b8152600160209182018190526001600160a01b0395861660009081526002808452604091829020855181546001600160a01b031916991698909817885592840151918701919091558201519085015560608101516003850155608001516004909301805460ff19169315159390931790925550819050620001e0816200072e565b915050620000c8565b5060005b600d548110156200030957600060058281548110620002105762000210620006e7565b6000918252602082200154600780546001600160a01b0390921693509084908110620002405762000240620006e7565b9060005260206000200154905060006040518060a00160405280846001600160a01b0316815260200160008152602001838152602001874262000284919062000713565b8152600060209182018190526001600160a01b0395861681526002808352604091829020845181546001600160a01b03191698169790971787559183015160018701558201519085015560608101516003850155608001516004909301805460ff1916931515939093179092555081905062000300816200072e565b915050620001ed565b5060128054600180546001600160a01b0319166001600160a01b0390941693841790556001600160a81b0319169091179055601091909155601155506200074a95505050505050565b600080546001600160a01b038381166001600160a01b0319831681178455604051919092169283917f8be0079c531659141344cd1fd0a4f28419497f9722a3daafe3b4186f6b6457e09190a35050565b828054828255906000526020600020908101928215620003e0579160200282015b82811115620003e0578251825591602001919060010190620003c3565b50620003ee9291506200044a565b5090565b828054828255906000526020600020908101928215620003e0579160200282015b82811115620003e057825182546001600160a01b0319166001600160a01b0390911617825560209092019160019091019062000413565b5b80821115620003ee57600081556001016200044b565b634e487b7160e01b600052604160045260246000fd5b604051601f8201601f191681016001600160401b0381118282101715620004a257620004a262000461565b604052919050565b60006001600160401b03821115620004c657620004c662000461565b5060051b60200190565b80516001600160a01b0381168114620004e857600080fd5b919050565b600082601f830112620004ff57600080fd5b81516020620005186200051283620004aa565b62000477565b82815260059290921b840181019181810190868411156200053857600080fd5b8286015b848110156200055e576200055081620004d0565b83529183019183016200053c565b509695505050505050565b600082601f8301126200057b57600080fd5b815160206200058e6200051283620004aa565b82815260059290921b84018101918181019086841115620005ae57600080fd5b8286015b848110156200055e5780518352918301918301620005b2565b6000806000806000806000806000806101408b8d031215620005ec57600080fd5b8a516001600160401b03808211156200060457600080fd5b620006128e838f01620004ed565b9b5060208d01519150808211156200062957600080fd5b620006378e838f01620004ed565b9a5060408d01519150808211156200064e57600080fd5b6200065c8e838f0162000569565b995060608d01519150808211156200067357600080fd5b620006818e838f0162000569565b985060808d01519150808211156200069857600080fd5b50620006a78d828e0162000569565b96505060a08b0151945060c08b0151935060e08b015192506101008b01519150620006d66101208c01620004d0565b90509295989b9194979a5092959850565b634e487b7160e01b600052603260045260246000fd5b634e487b7160e01b600052601160045260246000fd5b60008219821115620007295762000729620006fd565b500190565b600060018201620007435762000743620006fd565b5060010190565b610f1c806200075a6000396000f3fe608060405234801561001057600080fd5b506004361061009e5760003560e01c8063910d25ba11610066578063910d25ba1461010857806392347b5e14610110578063d41d826a1461018e578063df129979146101a1578063f2fde38b146101b457600080fd5b8063057440d3146100a3578063715018a6146100be578063785eaa61146100c857806386d1a69f146100db5780638da5cb5b146100e3575b600080fd5b6100ab6101c7565b6040519081526020015b60405180910390f35b6100c6610239565b005b6100ab6100d6366004610d13565b6102a4565b6100c661050f565b6000546001600160a01b03165b6040516001600160a01b0390911681526020016100b5565b6009546100ab565b61015a61011e366004610d13565b6002602081905260009182526040909120805460018201549282015460038301546004909301546001600160a01b039092169392909160ff1685565b604080516001600160a01b03909616865260208601949094529284019190915260608301521515608082015260a0016100b5565b6100c661019c366004610d3c565b610675565b6001546100f0906001600160a01b031681565b6100c66101c2366004610d13565b61094c565b6001546040516370a0823160e01b81523060048201526000916001600160a01b0316906370a0823190602401602060405180830381865afa158015610210573d6000803e3d6000fd5b505050506040513d601f19601f820116820180604052508101906102349190610d7c565b905090565b6000546001600160a01b031633146102985760405162461bcd60e51b815260206004820181905260248201527f4f776e61626c653a2063616c6c6572206973206e6f7420746865206f776e657260448201526064015b60405180910390fd5b6102a26000610a17565b565b6001600160a01b0381166000908152600260208190526040822060018101549101548082106103155760405162461bcd60e51b815260206004820152601c60248201527f416c6c20746f6b656e732068617665206265656e20636c61696d656400000000604482015260640161028f565b6001600160a01b03841660009081526002602052604090206003015442908082116103825760405162461bcd60e51b815260206004820152601c60248201527f4c6f636b2074696d6520686173206e6f74207061737365642079657400000000604482015260640161028f565b60008060015b60085481116104f55761039e8162278d00610dab565b6103a89085610dca565b85111561044a576103ba600182610de2565b6103c79062278d00610dab565b6103d48262278d00610dab565b6103de9190610de2565b91508162278d0061271060086103f5600186610de2565b8154811061040557610405610df9565b90600052602060002001548961041b9190610dab565b6104259190610e0f565b61042f9190610e0f565b6104399190610dab565b6104439084610dca565b92506104e3565b83610456600183610de2565b6104639062278d00610dab565b61046d9087610de2565b6104779190610de2565b91508162278d00612710600861048e600186610de2565b8154811061049e5761049e610df9565b9060005260206000200154896104b49190610dab565b6104be9190610e0f565b6104c89190610e0f565b6104d29190610dab565b6104dc9084610dca565b92506104f5565b806104ed81610e31565b915050610388565b5060006105028784610de2565b9998505050505050505050565b601254600160a01b900460ff161561055a5760405162461bcd60e51b815260206004820152600e60248201526d4e6f2072652d656e7472616e637960901b604482015260640161028f565b6012805460ff60a01b1916600160a01b1790553360009081526002602081905260408220015490036105c05760405162461bcd60e51b815260206004820152600f60248201526e2737ba1030b71034b73b32b9ba37b960891b604482015260640161028f565b60006105cb336102a4565b6012549091506105e5906001600160a01b03163383610a67565b80600a60008282546105f79190610dca565b90915550506012546040518281526001600160a01b03909116907fc0e523490dd523c33b1878c9eb14ff46991e3f5b2cd33710918618f2a39cba1b9060200160405180910390a23360009081526002602052604081206001018054839290610660908490610dca565b90915550506012805460ff60a01b1916905550565b6001600160a01b03821660009081526002602081905260409091200154156106f85760405162461bcd60e51b815260206004820152603060248201527f54686973206164647265737320697320616c726561647920696e20746865207660448201526f32b9ba34b7339031b7b73a3930b1ba1760811b606482015260840161028f565b6001546040516323b872dd60e01b81526001600160a01b03848116600483015230602483015260448201869052909116906323b872dd906064016020604051808303816000875af1158015610751573d6000803e3d6000fd5b505050506040513d601f19601f820116820180604052508101906107759190610e4a565b50801561089d576004805460018082019092557f8a35acfbc15ff81a39ae7d344fd709f28e8600b4aa8c65c6b64bfe7fe36bd19b0180546001600160a01b0319166001600160a01b03851690811790915560068054928301815560009081527ff652222313e28459528d920b65115c16c04f3efc82aaedc97be59f3f377c0d3f9092018590556040805160a08101825291825260208201839052810185905260105460608201906108269042610dca565b8152600160209182018190526001600160a01b0395861660009081526002808452604091829020855181546001600160a01b031916991698909817885592840151918701919091558201519085015560608101516003850155608001516004909301805460ff191693151593909317909255505050565b6005805460018082019092557f036b6384b5eca791c62761152d0c79bb0604c104a5fb6f4eb0703f3154bb3db00180546001600160a01b0319166001600160a01b03851690811790915560078054928301815560009081527fa66cc928b5edb82af9bd49922954155ab7b0942694bea4ce44661d9a8736c6889092018590556040805160a08101825291825260208201839052810185905260115460608201906108269042610dca565b505050565b6000546001600160a01b031633146109a65760405162461bcd60e51b815260206004820181905260248201527f4f776e61626c653a2063616c6c6572206973206e6f7420746865206f776e6572604482015260640161028f565b6001600160a01b038116610a0b5760405162461bcd60e51b815260206004820152602660248201527f4f776e61626c653a206e6577206f776e657220697320746865207a65726f206160448201526564647265737360d01b606482015260840161028f565b610a1481610a17565b50565b600080546001600160a01b038381166001600160a01b0319831681178455604051919092169283917f8be0079c531659141344cd1fd0a4f28419497f9722a3daafe3b4186f6b6457e09190a35050565b604080516001600160a01b03848116602483015260448083018590528351808403909101815260649092018352602080830180516001600160e01b031663a9059cbb60e01b17905283518085019094528084527f5361666545524332303a206c6f772d6c6576656c2063616c6c206661696c65649084015261094792869291600091610af7918516908490610b74565b8051909150156109475780806020019051810190610b159190610e4a565b6109475760405162461bcd60e51b815260206004820152602a60248201527f5361666545524332303a204552433230206f7065726174696f6e20646964206e6044820152691bdd081cdd58d8d9595960b21b606482015260840161028f565b6060610b838484600085610b8d565b90505b9392505050565b606082471015610bee5760405162461bcd60e51b815260206004820152602660248201527f416464726573733a20696e73756666696369656e742062616c616e636520666f6044820152651c8818d85b1b60d21b606482015260840161028f565b6001600160a01b0385163b610c455760405162461bcd60e51b815260206004820152601d60248201527f416464726573733a2063616c6c20746f206e6f6e2d636f6e7472616374000000604482015260640161028f565b600080866001600160a01b03168587604051610c619190610e97565b60006040518083038185875af1925050503d8060008114610c9e576040519150601f19603f3d011682016040523d82523d6000602084013e610ca3565b606091505b5091509150610cb3828286610cbe565b979650505050505050565b60608315610ccd575081610b86565b825115610cdd5782518084602001fd5b8160405162461bcd60e51b815260040161028f9190610eb3565b80356001600160a01b0381168114610d0e57600080fd5b919050565b600060208284031215610d2557600080fd5b610b8682610cf7565b8015158114610a1457600080fd5b600080600060608486031215610d5157600080fd5b83359250610d6160208501610cf7565b91506040840135610d7181610d2e565b809150509250925092565b600060208284031215610d8e57600080fd5b5051919050565b634e487b7160e01b600052601160045260246000fd5b6000816000190483118215151615610dc557610dc5610d95565b500290565b60008219821115610ddd57610ddd610d95565b500190565b600082821015610df457610df4610d95565b500390565b634e487b7160e01b600052603260045260246000fd5b600082610e2c57634e487b7160e01b600052601260045260246000fd5b500490565b600060018201610e4357610e43610d95565b5060010190565b600060208284031215610e5c57600080fd5b8151610b8681610d2e565b60005b83811015610e82578181015183820152602001610e6a565b83811115610e91576000848401525b50505050565b60008251610ea9818460208701610e67565b9190910192915050565b6020815260008251806020840152610ed2816040850160208701610e67565b601f01601f1916919091016040019291505056fea2646970667358221220b44116d11b04e15cc534934327b5bdb31f8951b929be7c0b99cec86e1ba652fc64736f6c634300080f0033",
  "bytecodeSha1": "177ed4f8fa43b370ca8f881c32e986b2a1b928ce",
  "compiler": {
    "evm_version": "istanbul",
    "optimizer": {
      "enabled": true,
      "runs": 200
    },
    "version": "0.8.15+commit.e14f2714"
  },
  "contractName": "LockContract",
  "language": "Solidity",
  "natspec": {
    "details": "This contract handles the vesting of a ERC20 tokens for a given beneficiary. Custody of the _token amount can be given to this contract, which will release the _token to the beneficiary following a given schedule. The vesting schedule is established by a key->value pair in the form of _duration->_amounts. This two arrays have the same length and are iterated by the _milestone variable",
    "kind": "dev",
    "methods": {
      "can_release_percent(address)": {
        "details": "Calculates and returns the amount of tokens that can be withdrawn, as function of milestones passed."
      },
      "constructor": {
        "details": "Set the beneficiary, start timestamp and locking durations and amounts."
      },
      "contract_balance()": {
        "details": "View function to get contract balance"
      },
      "new_Investor(uint256,address,bool)": {
        "details": "Adds a new Investor."
      },
      "owner()": {
        "details": "Returns the address of the current owner."
      },
      "release()": {
        "details": "Release the tokens Emits a {ERC20Released} event."
      },
      "renounceOwnership()": {
        "details": "Leaves the contract without owner. It will not be possible to call `onlyOwner` functions anymore. Can only be called by the current owner. NOTE: Renouncing ownership will leave the contract without an owner, thereby removing any functionality that is only available to the owner."
      },
      "transferOwnership(address)": {
        "details": "Transfers ownership of the contract to a new account (`newOwner`). Can only be called by the current owner."
      }
    },
    "title": "LockContract",
    "version": 1
  },
  "opcodes": "PUSH1 0x80 PUSH1 0x40 MSTORE CALLVALUE DUP1 ISZERO PUSH2 0x10 JUMPI PUSH1 0x0 DUP1 REVERT JUMPDEST POP PUSH1 0x4 CALLDATASIZE LT PUSH2 0x9E JUMPI PUSH1 0x0 CALLDATALOAD PUSH1 0xE0 SHR DUP1 PUSH4 0x910D25BA GT PUSH2 0x66 JUMPI DUP1 PUSH4 0x910D25BA EQ PUSH2 0x108 JUMPI DUP1 PUSH4 0x92347B5E EQ PUSH2 0x110 JUMPI DUP1 PUSH4 0xD41D826A EQ PUSH2 0x18E JUMPI DUP1 PUSH4 0xDF129979 EQ PUSH2 0x1A1 JUMPI DUP1 PUSH4 0xF2FDE38B EQ PUSH2 0x1B4 JUMPI PUSH1 0x0 DUP1 REVERT JUMPDEST DUP1 PUSH4 0x57440D3 EQ PUSH2 0xA3 JUMPI DUP1 PUSH4 0x715018A6 EQ PUSH2 0xBE JUMPI DUP1 PUSH4 0x785EAA61 EQ PUSH2 0xC8 JUMPI DUP1 PUSH4 0x86D1A69F EQ PUSH2 0xDB JUMPI DUP1 PUSH4 0x8DA5CB5B EQ PUSH2 0xE3 JUMPI JUMPDEST PUSH1 0x0 DUP1 REVERT JUMPDEST PUSH2 0xAB PUSH2 0x1C7 JUMP JUMPDEST PUSH1 0x40 MLOAD SWAP1 DUP2 MSTORE PUSH1 0x20 ADD JUMPDEST PUSH1 0x40 MLOAD DUP1 SWAP2 SUB SWAP1 RETURN JUMPDEST PUSH2 0xC6 PUSH2 0x239 JUMP JUMPDEST STOP JUMPDEST PUSH2 0xAB PUSH2 0xD6 CALLDATASIZE PUSH1 0x4 PUSH2 0xD13 JUMP JUMPDEST PUSH2 0x2A4 JUMP JUMPDEST PUSH2 0xC6 PUSH2 0x50F JUMP JUMPDEST PUSH1 0x0 SLOAD PUSH1 0x1 PUSH1 0x1 PUSH1 0xA0 SHL SUB AND JUMPDEST PUSH1 0x40 MLOAD PUSH1 0x1 PUSH1 0x1 PUSH1 0xA0 SHL SUB SWAP1 SWAP2 AND DUP2 MSTORE PUSH1 0x20 ADD PUSH2 0xB5 JUMP JUMPDEST PUSH1 0x9 SLOAD PUSH2 0xAB JUMP JUMPDEST PUSH2 0x15A PUSH2 0x11E CALLDATASIZE PUSH1 0x4 PUSH2 0xD13 JUMP JUMPDEST PUSH1 0x2 PUSH1 0x20 DUP2 SWAP1 MSTORE PUSH1 0x0 SWAP2 DUP3 MSTORE PUSH1 0x40 SWAP1 SWAP2 KECCAK256 DUP1 SLOAD PUSH1 0x1 DUP3 ADD SLOAD SWAP3 DUP3 ADD SLOAD PUSH1 0x3 DUP4 ADD SLOAD PUSH1 0x4 SWAP1 SWAP4 ADD SLOAD PUSH1 0x1 PUSH1 0x1 PUSH1 0xA0 SHL SUB SWAP1 SWAP3 AND SWAP4 SWAP3 SWAP1 SWAP2 PUSH1 0xFF AND DUP6 JUMP JUMPDEST PUSH1 0x40 DUP1 MLOAD PUSH1 0x1 PUSH1 0x1 PUSH1 0xA0 SHL SUB SWAP1 SWAP7 AND DUP7 MSTORE PUSH1 0x20 DUP7 ADD SWAP5 SWAP1 SWAP5 MSTORE SWAP3 DUP5 ADD SWAP2 SWAP1 SWAP2 MSTORE PUSH1 0x60 DUP4 ADD MSTORE ISZERO ISZERO PUSH1 0x80 DUP3 ADD MSTORE PUSH1 0xA0 ADD PUSH2 0xB5 JUMP JUMPDEST PUSH2 0xC6 PUSH2 0x19C CALLDATASIZE PUSH1 0x4 PUSH2 0xD3C JUMP JUMPDEST PUSH2 0x675 JUMP JUMPDEST PUSH1 0x1 SLOAD PUSH2 0xF0 SWAP1 PUSH1 0x1 PUSH1 0x1 PUSH1 0xA0 SHL SUB AND DUP2 JUMP JUMPDEST PUSH2 0xC6 PUSH2 0x1C2 CALLDATASIZE PUSH1 0x4 PUSH2 0xD13 JUMP JUMPDEST PUSH2 0x94C JUMP JUMPDEST PUSH1 0x1 SLOAD PUSH1 0x40 MLOAD PUSH4 0x70A08231 PUSH1 0xE0 SHL DUP2 MSTORE ADDRESS PUSH1 0x4 DUP3 ADD MSTORE PUSH1 0x0 SWAP2 PUSH1 0x1 PUSH1 0x1 PUSH1 0xA0 SHL SUB AND SWAP1 PUSH4 0x70A08231 SWAP1 PUSH1 0x24 ADD PUSH1 0x20 PUSH1 0x40 MLOAD DUP1 DUP4 SUB DUP2 DUP7 GAS STATICCALL ISZERO DUP1 ISZERO PUSH2 0x210 JUMPI RETURNDATASIZE PUSH1 0x0 DUP1 RETURNDATACOPY RETURNDATASIZE PUSH1 0x0 REVERT JUMPDEST POP POP POP POP PUSH1 0x40 MLOAD RETURNDATASIZE PUSH1 0x1F NOT PUSH1 0x1F DUP3 ADD AND DUP3 ADD DUP1 PUSH1 0x40 MSTORE POP DUP2 ADD SWAP1 PUSH2 0x234 SWAP2 SWAP1 PUSH2 0xD7C JUMP JUMPDEST SWAP1 POP SWAP1 JUMP JUMPDEST PUSH1 0x0 SLOAD PUSH1 0x1 PUSH1 0x1 PUSH1 0xA0 SHL SUB AND CALLER EQ PUSH2 0x298 JUMPI PUSH1 0x40 MLOAD PUSH3 0x461BCD PUSH1 0xE5 SHL DUP2 MSTORE PUSH1 0x20 PUSH1 0x4 DUP3 ADD DUP2 SWAP1 MSTORE PUSH1 0x24 DUP3 ADD MSTORE PUSH32 0x4F776E61626C653A2063616C6C6572206973206E6F7420746865206F776E6572 PUSH1 0x44 DUP3 ADD MSTORE PUSH1 0x64 ADD JUMPDEST PUSH1 0x40 MLOAD DUP1 SWAP2 SUB SWAP1 REVERT JUMPDEST PUSH2 0x2A2 PUSH1 0x0 PUSH2 0xA17 JUMP JUMPDEST JUMP JUMPDEST PUSH1 0x1 PUSH1 0x1 PUSH1 0xA0 SHL SUB DUP2 AND PUSH1 0x0 SWAP1 DUP2 MSTORE PUSH1 0x2 PUSH1 0x20 DUP2 SWAP1 MSTORE PUSH1 0x40 DUP3 KECCAK256 PUSH1 0x1 DUP2 ADD SLOAD SWAP2 ADD SLOAD DUP1 DUP3 LT PUSH2 0x315 JUMPI PUSH1 0x40 MLOAD PUSH3 0x461BCD PUSH1 0xE5 SHL DUP2 MSTORE PUSH1 0x20 PUSH1 0x4 DUP3 ADD MSTORE PUSH1 0x1C PUSH1 0x24 DUP3 ADD MSTORE PUSH32 0x416C6C20746F6B656E732068617665206265656E20636C61696D656400000000 PUSH1 0x44 DUP3 ADD MSTORE PUSH1 0x64 ADD PUSH2 0x28F JUMP JUMPDEST PUSH1 0x1 PUSH1 0x1 PUSH1 0xA0 SHL SUB DUP5 AND PUSH1 0x0 SWAP1 DUP2 MSTORE PUSH1 0x2 PUSH1 0x20 MSTORE PUSH1 0x40 SWAP1 KECCAK256 PUSH1 0x3 ADD SLOAD TIMESTAMP SWAP1 DUP1 DUP3 GT PUSH2 0x382 JUMPI PUSH1 0x40 MLOAD PUSH3 0x461BCD PUSH1 0xE5 SHL DUP2 MSTORE PUSH1 0x20 PUSH1 0x4 DUP3 ADD MSTORE PUSH1 0x1C PUSH1 0x24 DUP3 ADD MSTORE PUSH32 0x4C6F636B2074696D6520686173206E6F74207061737365642079657400000000 PUSH1 0x44 DUP3 ADD MSTORE PUSH1 0x64 ADD PUSH2 0x28F JUMP JUMPDEST PUSH1 0x0 DUP1 PUSH1 0x1 JUMPDEST PUSH1 0x8 SLOAD DUP2 GT PUSH2 0x4F5 JUMPI PUSH2 0x39E DUP2 PUSH3 0x278D00 PUSH2 0xDAB JUMP JUMPDEST PUSH2 0x3A8 SWAP1 DUP6 PUSH2 0xDCA JUMP JUMPDEST DUP6 GT ISZERO PUSH2 0x44A JUMPI PUSH2 0x3BA PUSH1 0x1 DUP3 PUSH2 0xDE2 JUMP JUMPDEST PUSH2 0x3C7 SWAP1 PUSH3 0x278D00 PUSH2 0xDAB JUMP JUMPDEST PUSH2 0x3D4 DUP3 PUSH3 0x278D00 PUSH2 0xDAB JUMP JUMPDEST PUSH2 0x3DE SWAP2 SWAP1 PUSH2 0xDE2 JUMP JUMPDEST SWAP2 POP DUP2 PUSH3 0x278D00 PUSH2 0x2710 PUSH1 0x8 PUSH2 0x3F5 PUSH1 0x1 DUP7 PUSH2 0xDE2 JUMP JUMPDEST DUP2 SLOAD DUP2 LT PUSH2 0x405 JUMPI PUSH2 0x405 PUSH2 0xDF9 JUMP JUMPDEST SWAP1 PUSH1 0x0 MSTORE PUSH1 0x20 PUSH1 0x0 KECCAK256 ADD SLOAD DUP10 PUSH2 0x41B SWAP2 SWAP1 PUSH2 0xDAB JUMP JUMPDEST PUSH2 0x425 SWAP2 SWAP1 PUSH2 0xE0F JUMP JUMPDEST PUSH2 0x42F SWAP2 SWAP1 PUSH2 0xE0F JUMP JUMPDEST PUSH2 0x439 SWAP2 SWAP1 PUSH2 0xDAB JUMP JUMPDEST PUSH2 0x443 SWAP1 DUP5 PUSH2 0xDCA JUMP JUMPDEST SWAP3 POP PUSH2 0x4E3 JUMP JUMPDEST DUP4 PUSH2 0x456 PUSH1 0x1 DUP4 PUSH2 0xDE2 JUMP JUMPDEST PUSH2 0x463 SWAP1 PUSH3 0x278D00 PUSH2 0xDAB JUMP JUMPDEST PUSH2 0x46D SWAP1 DUP8 PUSH2 0xDE2 JUMP JUMPDEST PUSH2 0x477 SWAP2 SWAP1 PUSH2 0xDE2 JUMP JUMPDEST SWAP2 POP DUP2 PUSH3 0x278D00 PUSH2 0x2710 PUSH1 0x8 PUSH2 0x48E PUSH1 0x1 DUP7 PUSH2 0xDE2 JUMP JUMPDEST DUP2 SLOAD DUP2 LT PUSH2 0x49E JUMPI PUSH2 0x49E PUSH2 0xDF9 JUMP JUMPDEST SWAP1 PUSH1 0x0 MSTORE PUSH1 0x20 PUSH1 0x0 KECCAK256 ADD SLOAD DUP10 PUSH2 0x4B4 SWAP2 SWAP1 PUSH2 0xDAB JUMP JUMPDEST PUSH2 0x4BE SWAP2 SWAP1 PUSH2 0xE0F JUMP JUMPDEST PUSH2 0x4C8 SWAP2 SWAP1 PUSH2 0xE0F JUMP JUMPDEST PUSH2 0x4D2 SWAP2 SWAP1 PUSH2 0xDAB JUMP JUMPDEST PUSH2 0x4DC SWAP1 DUP5 PUSH2 0xDCA JUMP JUMPDEST SWAP3 POP PUSH2 0x4F5 JUMP JUMPDEST DUP1 PUSH2 0x4ED DUP2 PUSH2 0xE31 JUMP JUMPDEST SWAP2 POP POP PUSH2 0x388 JUMP JUMPDEST POP PUSH1 0x0 PUSH2 0x502 DUP8 DUP5 PUSH2 0xDE2 JUMP JUMPDEST SWAP10 SWAP9 POP POP POP POP POP POP POP POP POP JUMP JUMPDEST PUSH1 0x12 SLOAD PUSH1 0x1 PUSH1 0xA0 SHL SWAP1 DIV PUSH1 0xFF AND ISZERO PUSH2 0x55A JUMPI PUSH1 0x40 MLOAD PUSH3 0x461BCD PUSH1 0xE5 SHL DUP2 MSTORE PUSH1 0x20 PUSH1 0x4 DUP3 ADD MSTORE PUSH1 0xE PUSH1 0x24 DUP3 ADD MSTORE PUSH14 0x4E6F2072652D656E7472616E6379 PUSH1 0x90 SHL PUSH1 0x44 DUP3 ADD MSTORE PUSH1 0x64 ADD PUSH2 0x28F JUMP JUMPDEST PUSH1 0x12 DUP1 SLOAD PUSH1 0xFF PUSH1 0xA0 SHL NOT AND PUSH1 0x1 PUSH1 0xA0 SHL OR SWAP1 SSTORE CALLER PUSH1 0x0 SWAP1 DUP2 MSTORE PUSH1 0x2 PUSH1 0x20 DUP2 SWAP1 MSTORE PUSH1 0x40 DUP3 KECCAK256 ADD SLOAD SWAP1 SUB PUSH2 0x5C0 JUMPI PUSH1 0x40 MLOAD PUSH3 0x461BCD PUSH1 0xE5 SHL DUP2 MSTORE PUSH1 0x20 PUSH1 0x4 DUP3 ADD MSTORE PUSH1 0xF PUSH1 0x24 DUP3 ADD MSTORE PUSH15 0x2737BA1030B71034B73B32B9BA37B9 PUSH1 0x89 SHL PUSH1 0x44 DUP3 ADD MSTORE PUSH1 0x64 ADD PUSH2 0x28F JUMP JUMPDEST PUSH1 0x0 PUSH2 0x5CB CALLER PUSH2 0x2A4 JUMP JUMPDEST PUSH1 0x12 SLOAD SWAP1 SWAP2 POP PUSH2 0x5E5 SWAP1 PUSH1 0x1 PUSH1 0x1 PUSH1 0xA0 SHL SUB AND CALLER DUP4 PUSH2 0xA67 JUMP JUMPDEST DUP1 PUSH1 0xA PUSH1 0x0 DUP3 DUP3 SLOAD PUSH2 0x5F7 SWAP2 SWAP1 PUSH2 0xDCA JUMP JUMPDEST SWAP1 SWAP2 SSTORE POP POP PUSH1 0x12 SLOAD PUSH1 0x40 MLOAD DUP3 DUP2 MSTORE PUSH1 0x1 PUSH1 0x1 PUSH1 0xA0 SHL SUB SWAP1 SWAP2 AND SWAP1 PUSH32 0xC0E523490DD523C33B1878C9EB14FF46991E3F5B2CD33710918618F2A39CBA1B SWAP1 PUSH1 0x20 ADD PUSH1 0x40 MLOAD DUP1 SWAP2 SUB SWAP1 LOG2 CALLER PUSH1 0x0 SWAP1 DUP2 MSTORE PUSH1 0x2 PUSH1 0x20 MSTORE PUSH1 0x40 DUP2 KECCAK256 PUSH1 0x1 ADD DUP1 SLOAD DUP4 SWAP3 SWAP1 PUSH2 0x660 SWAP1 DUP5 SWAP1 PUSH2 0xDCA JUMP JUMPDEST SWAP1 SWAP2 SSTORE POP POP PUSH1 0x12 DUP1 SLOAD PUSH1 0xFF PUSH1 0xA0 SHL NOT AND SWAP1 SSTORE POP JUMP JUMPDEST PUSH1 0x1 PUSH1 0x1 PUSH1 0xA0 SHL SUB DUP3 AND PUSH1 0x0 SWAP1 DUP2 MSTORE PUSH1 0x2 PUSH1 0x20 DUP2 SWAP1 MSTORE PUSH1 0x40 SWAP1 SWAP2 KECCAK256 ADD SLOAD ISZERO PUSH2 0x6F8 JUMPI PUSH1 0x40 MLOAD PUSH3 0x461BCD PUSH1 0xE5 SHL DUP2 MSTORE PUSH1 0x20 PUSH1 0x4 DUP3 ADD MSTORE PUSH1 0x30 PUSH1 0x24 DUP3 ADD MSTORE PUSH32 0x54686973206164647265737320697320616C726561647920696E207468652076 PUSH1 0x44 DUP3 ADD MSTORE PUSH16 0x32B9BA34B7339031B7B73A3930B1BA17 PUSH1 0x81 SHL PUSH1 0x64 DUP3 ADD MSTORE PUSH1 0x84 ADD PUSH2 0x28F JUMP JUMPDEST PUSH1 0x1 SLOAD PUSH1 0x40 MLOAD PUSH4 0x23B872DD PUSH1 0xE0 SHL DUP2 MSTORE PUSH1 0x1 PUSH1 0x1 PUSH1 0xA0 SHL SUB DUP5 DUP2 AND PUSH1 0x4 DUP4 ADD MSTORE ADDRESS PUSH1 0x24 DUP4 ADD MSTORE PUSH1 0x44 DUP3 ADD DUP7 SWAP1 MSTORE SWAP1 SWAP2 AND SWAP1 PUSH4 0x23B872DD SWAP1 PUSH1 0x64 ADD PUSH1 0x20 PUSH1 0x40 MLOAD DUP1 DUP4 SUB DUP2 PUSH1 0x0 DUP8 GAS CALL ISZERO DUP1 ISZERO PUSH2 0x751 JUMPI RETURNDATASIZE PUSH1 0x0 DUP1 RETURNDATACOPY RETURNDATASIZE PUSH1 0x0 REVERT JUMPDEST POP POP POP POP PUSH1 0x40 MLOAD RETURNDATASIZE PUSH1 0x1F NOT PUSH1 0x1F DUP3 ADD AND DUP3 ADD DUP1 PUSH1 0x40 MSTORE POP DUP2 ADD SWAP1 PUSH2 0x775 SWAP2 SWAP1 PUSH2 0xE4A JUMP JUMPDEST POP DUP1 ISZERO PUSH2 0x89D JUMPI PUSH1 0x4 DUP1 SLOAD PUSH1 0x1 DUP1 DUP3 ADD SWAP1 SWAP3 SSTORE PUSH32 0x8A35ACFBC15FF81A39AE7D344FD709F28E8600B4AA8C65C6B64BFE7FE36BD19B ADD DUP1 SLOAD PUSH1 0x1 PUSH1 0x1 PUSH1 0xA0 SHL SUB NOT AND PUSH1 0x1 PUSH1 0x1 PUSH1 0xA0 SHL SUB DUP6 AND SWAP1 DUP2 OR SWAP1 SWAP2 SSTORE PUSH1 0x6 DUP1 SLOAD SWAP3 DUP4 ADD DUP2 SSTORE PUSH1 0x0 SWAP1 DUP2 MSTORE PUSH32 0xF652222313E28459528D920B65115C16C04F3EFC82AAEDC97BE59F3F377C0D3F SWAP1 SWAP3 ADD DUP6 SWAP1 SSTORE PUSH1 0x40 DUP1 MLOAD PUSH1 0xA0 DUP2 ADD DUP3 MSTORE SWAP2 DUP3 MSTORE PUSH1 0x20 DUP3 ADD DUP4 SWAP1 MSTORE DUP2 ADD DUP6 SWAP1 MSTORE PUSH1 0x10 SLOAD PUSH1 0x60 DUP3 ADD SWAP1 PUSH2 0x826 SWAP1 TIMESTAMP PUSH2 0xDCA JUMP JUMPDEST DUP2 MSTORE PUSH1 0x1 PUSH1 0x20 SWAP2 DUP3 ADD DUP2 SWAP1 MSTORE PUSH1 0x1 PUSH1 0x1 PUSH1 0xA0 SHL SUB SWAP6 DUP7 AND PUSH1 0x0 SWAP1 DUP2 MSTORE PUSH1 0x2 DUP1 DUP5 MSTORE PUSH1 0x40 SWAP2 DUP3 SWAP1 KECCAK256 DUP6 MLOAD DUP2 SLOAD PUSH1 0x1 PUSH1 0x1 PUSH1 0xA0 SHL SUB NOT AND SWAP10 AND SWAP9 SWAP1 SWAP9 OR DUP9 SSTORE SWAP3 DUP5 ADD MLOAD SWAP2 DUP8 ADD SWAP2 SWAP1 SWAP2 SSTORE DUP3 ADD MLOAD SWAP1 DUP6 ADD SSTORE PUSH1 0x60 DUP2 ADD MLOAD PUSH1 0x3 DUP6 ADD SSTORE PUSH1 0x80 ADD MLOAD PUSH1 0x4 SWAP1 SWAP4 ADD DUP1 SLOAD PUSH1 0xFF NOT AND SWAP4 ISZERO ISZERO SWAP4 SWAP1 SWAP4 OR SWAP1 SWAP3 SSTORE POP POP POP JUMP JUMPDEST PUSH1 0x5 DUP1 SLOAD PUSH1 0x1 DUP1 DUP3 ADD SWAP1 SWAP3 SSTORE PUSH32 0x36B6384B5ECA791C62761152D0C79BB0604C104A5FB6F4EB0703F3154BB3DB0 ADD DUP1 SLOAD PUSH1 0x1 PUSH1 0x1 PUSH1 0xA0 SHL SUB NOT AND PUSH1 0x1 PUSH1 0x1 PUSH1 0xA0 SHL SUB DUP6 AND SWAP1 DUP2 OR SWAP1 SWAP2 SSTORE PUSH1 0x7 DUP1 SLOAD SWAP3 DUP4 ADD DUP2 SSTORE PUSH1 0x0 SWAP1 DUP2 MSTORE PUSH32 0xA66CC928B5EDB82AF9BD49922954155AB7B0942694BEA4CE44661D9A8736C688 SWAP1 SWAP3 ADD DUP6 SWAP1 SSTORE PUSH1 0x40 DUP1 MLOAD PUSH1 0xA0 DUP2 ADD DUP3 MSTORE SWAP2 DUP3 MSTORE PUSH1 0x20 DUP3 ADD DUP4 SWAP1 MSTORE DUP2 ADD DUP6 SWAP1 MSTORE PUSH1 0x11 SLOAD PUSH1 0x60 DUP3 ADD SWAP1 PUSH2 0x826 SWAP1 TIMESTAMP PUSH2 0xDCA JUMP JUMPDEST POP POP POP JUMP JUMPDEST PUSH1 0x0 SLOAD PUSH1 0x1 PUSH1 0x1 PUSH1 0xA0 SHL SUB AND CALLER EQ PUSH2 0x9A6 JUMPI PUSH1 0x40 MLOAD PUSH3 0x461BCD PUSH1 0xE5 SHL DUP2 MSTORE PUSH1 0x20 PUSH1 0x4 DUP3 ADD DUP2 SWAP1 MSTORE PUSH1 0x24 DUP3 ADD MSTORE PUSH32 0x4F776E61626C653A2063616C6C6572206973206E6F7420746865206F776E6572 PUSH1 0x44 DUP3 ADD MSTORE PUSH1 0x64 ADD PUSH2 0x28F JUMP JUMPDEST PUSH1 0x1 PUSH1 0x1 PUSH1 0xA0 SHL SUB DUP2 AND PUSH2 0xA0B JUMPI PUSH1 0x40 MLOAD PUSH3 0x461BCD PUSH1 0xE5 SHL DUP2 MSTORE PUSH1 0x20 PUSH1 0x4 DUP3 ADD MSTORE PUSH1 0x26 PUSH1 0x24 DUP3 ADD MSTORE PUSH32 0x4F776E61626C653A206E6577206F776E657220697320746865207A65726F2061 PUSH1 0x44 DUP3 ADD MSTORE PUSH6 0x646472657373 PUSH1 0xD0 SHL PUSH1 0x64 DUP3 ADD MSTORE PUSH1 0x84 ADD PUSH2 0x28F JUMP JUMPDEST PUSH2 0xA14 DUP2 PUSH2 0xA17 JUMP JUMPDEST POP JUMP JUMPDEST PUSH1 0x0 DUP1 SLOAD PUSH1 0x1 PUSH1 0x1 PUSH1 0xA0 SHL SUB DUP4 DUP2 AND PUSH1 0x1 PUSH1 0x1 PUSH1 0xA0 SHL SUB NOT DUP4 AND DUP2 OR DUP5 SSTORE PUSH1 0x40 MLOAD SWAP2 SWAP1 SWAP3 AND SWAP3 DUP4 SWAP2 PUSH32 0x8BE0079C531659141344CD1FD0A4F28419497F9722A3DAAFE3B4186F6B6457E0 SWAP2 SWAP1 LOG3 POP POP JUMP JUMPDEST PUSH1 0x40 DUP1 MLOAD PUSH1 0x1 PUSH1 0x1 PUSH1 0xA0 SHL SUB DUP5 DUP2 AND PUSH1 0x24 DUP4 ADD MSTORE PUSH1 0x44 DUP1 DUP4 ADD DUP6 SWAP1 MSTORE DUP4 MLOAD DUP1 DUP5 SUB SWAP1 SWAP2 ADD DUP2 MSTORE PUSH1 0x64 SWAP1 SWAP3 ADD DUP4 MSTORE PUSH1 0x20 DUP1 DUP4 ADD DUP1 MLOAD PUSH1 0x1 PUSH1 0x1 PUSH1 0xE0 SHL SUB AND PUSH4 0xA9059CBB PUSH1 0xE0 SHL OR SWAP1 MSTORE DUP4 MLOAD DUP1 DUP6 ADD SWAP1 SWAP5 MSTORE DUP1 DUP5 MSTORE PUSH32 0x5361666545524332303A206C6F772D6C6576656C2063616C6C206661696C6564 SWAP1 DUP5 ADD MSTORE PUSH2 0x947 SWAP3 DUP7 SWAP3 SWAP2 PUSH1 0x0 SWAP2 PUSH2 0xAF7 SWAP2 DUP6 AND SWAP1 DUP5 SWAP1 PUSH2 0xB74 JUMP JUMPDEST DUP1 MLOAD SWAP1 SWAP2 POP ISZERO PUSH2 0x947 JUMPI DUP1 DUP1 PUSH1 0x20 ADD SWAP1 MLOAD DUP2 ADD SWAP1 PUSH2 0xB15 SWAP2 SWAP1 PUSH2 0xE4A JUMP JUMPDEST PUSH2 0x947 JUMPI PUSH1 0x40 MLOAD PUSH3 0x461BCD PUSH1 0xE5 SHL DUP2 MSTORE PUSH1 0x20 PUSH1 0x4 DUP3 ADD MSTORE PUSH1 0x2A PUSH1 0x24 DUP3 ADD MSTORE PUSH32 0x5361666545524332303A204552433230206F7065726174696F6E20646964206E PUSH1 0x44 DUP3 ADD MSTORE PUSH10 0x1BDD081CDD58D8D95959 PUSH1 0xB2 SHL PUSH1 0x64 DUP3 ADD MSTORE PUSH1 0x84 ADD PUSH2 0x28F JUMP JUMPDEST PUSH1 0x60 PUSH2 0xB83 DUP5 DUP5 PUSH1 0x0 DUP6 PUSH2 0xB8D JUMP JUMPDEST SWAP1 POP JUMPDEST SWAP4 SWAP3 POP POP POP JUMP JUMPDEST PUSH1 0x60 DUP3 SELFBALANCE LT ISZERO PUSH2 0xBEE JUMPI PUSH1 0x40 MLOAD PUSH3 0x461BCD PUSH1 0xE5 SHL DUP2 MSTORE PUSH1 0x20 PUSH1 0x4 DUP3 ADD MSTORE PUSH1 0x26 PUSH1 0x24 DUP3 ADD MSTORE PUSH32 0x416464726573733A20696E73756666696369656E742062616C616E636520666F PUSH1 0x44 DUP3 ADD MSTORE PUSH6 0x1C8818D85B1B PUSH1 0xD2 SHL PUSH1 0x64 DUP3 ADD MSTORE PUSH1 0x84 ADD PUSH2 0x28F JUMP JUMPDEST PUSH1 0x1 PUSH1 0x1 PUSH1 0xA0 SHL SUB DUP6 AND EXTCODESIZE PUSH2 0xC45 JUMPI PUSH1 0x40 MLOAD PUSH3 0x461BCD PUSH1 0xE5 SHL DUP2 MSTORE PUSH1 0x20 PUSH1 0x4 DUP3 ADD MSTORE PUSH1 0x1D PUSH1 0x24 DUP3 ADD MSTORE PUSH32 0x416464726573733A2063616C6C20746F206E6F6E2D636F6E7472616374000000 PUSH1 0x44 DUP3 ADD MSTORE PUSH1 0x64 ADD PUSH2 0x28F JUMP JUMPDEST PUSH1 0x0 DUP1 DUP7 PUSH1 0x1 PUSH1 0x1 PUSH1 0xA0 SHL SUB AND DUP6 DUP8 PUSH1 0x40 MLOAD PUSH2 0xC61 SWAP2 SWAP1 PUSH2 0xE97 JUMP JUMPDEST PUSH1 0x0 PUSH1 0x40 MLOAD DUP1 DUP4 SUB DUP2 DUP6 DUP8 GAS CALL SWAP3 POP POP POP RETURNDATASIZE DUP1 PUSH1 0x0 DUP2 EQ PUSH2 0xC9E JUMPI PUSH1 0x40 MLOAD SWAP2 POP PUSH1 0x1F NOT PUSH1 0x3F RETURNDATASIZE ADD AND DUP3 ADD PUSH1 0x40 MSTORE RETURNDATASIZE DUP3 MSTORE RETURNDATASIZE PUSH1 0x0 PUSH1 0x20 DUP5 ADD RETURNDATACOPY PUSH2 0xCA3 JUMP JUMPDEST PUSH1 0x60 SWAP2 POP JUMPDEST POP SWAP2 POP SWAP2 POP PUSH2 0xCB3 DUP3 DUP3 DUP7 PUSH2 0xCBE JUMP JUMPDEST SWAP8 SWAP7 POP POP POP POP POP POP POP JUMP JUMPDEST PUSH1 0x60 DUP4 ISZERO PUSH2 0xCCD JUMPI POP DUP2 PUSH2 0xB86 JUMP JUMPDEST DUP3 MLOAD ISZERO PUSH2 0xCDD JUMPI DUP3 MLOAD DUP1 DUP5 PUSH1 0x20 ADD REVERT JUMPDEST DUP2 PUSH1 0x40 MLOAD PUSH3 0x461BCD PUSH1 0xE5 SHL DUP2 MSTORE PUSH1 0x4 ADD PUSH2 0x28F SWAP2 SWAP1 PUSH2 0xEB3 JUMP JUMPDEST DUP1 CALLDATALOAD PUSH1 0x1 PUSH1 0x1 PUSH1 0xA0 SHL SUB DUP2 AND DUP2 EQ PUSH2 0xD0E JUMPI PUSH1 0x0 DUP1 REVERT JUMPDEST SWAP2 SWAP1 POP JUMP JUMPDEST PUSH1 0x0 PUSH1 0x20 DUP3 DUP5 SUB SLT ISZERO PUSH2 0xD25 JUMPI PUSH1 0x0 DUP1 REVERT JUMPDEST PUSH2 0xB86 DUP3 PUSH2 0xCF7 JUMP JUMPDEST DUP1 ISZERO ISZERO DUP2 EQ PUSH2 0xA14 JUMPI PUSH1 0x0 DUP1 REVERT JUMPDEST PUSH1 0x0 DUP1 PUSH1 0x0 PUSH1 0x60 DUP5 DUP7 SUB SLT ISZERO PUSH2 0xD51 JUMPI PUSH1 0x0 DUP1 REVERT JUMPDEST DUP4 CALLDATALOAD SWAP3 POP PUSH2 0xD61 PUSH1 0x20 DUP6 ADD PUSH2 0xCF7 JUMP JUMPDEST SWAP2 POP PUSH1 0x40 DUP5 ADD CALLDATALOAD PUSH2 0xD71 DUP2 PUSH2 0xD2E JUMP JUMPDEST DUP1 SWAP2 POP POP SWAP3 POP SWAP3 POP SWAP3 JUMP JUMPDEST PUSH1 0x0 PUSH1 0x20 DUP3 DUP5 SUB SLT ISZERO PUSH2 0xD8E JUMPI PUSH1 0x0 DUP1 REVERT JUMPDEST POP MLOAD SWAP2 SWAP1 POP JUMP JUMPDEST PUSH4 0x4E487B71 PUSH1 0xE0 SHL PUSH1 0x0 MSTORE PUSH1 0x11 PUSH1 0x4 MSTORE PUSH1 0x24 PUSH1 0x0 REVERT JUMPDEST PUSH1 0x0 DUP2 PUSH1 0x0 NOT DIV DUP4 GT DUP3 ISZERO ISZERO AND ISZERO PUSH2 0xDC5 JUMPI PUSH2 0xDC5 PUSH2 0xD95 JUMP JUMPDEST POP MUL SWAP1 JUMP JUMPDEST PUSH1 0x0 DUP3 NOT DUP3 GT ISZERO PUSH2 0xDDD JUMPI PUSH2 0xDDD PUSH2 0xD95 JUMP JUMPDEST POP ADD SWAP1 JUMP JUMPDEST PUSH1 0x0 DUP3 DUP3 LT ISZERO PUSH2 0xDF4 JUMPI PUSH2 0xDF4 PUSH2 0xD95 JUMP JUMPDEST POP SUB SWAP1 JUMP JUMPDEST PUSH4 0x4E487B71 PUSH1 0xE0 SHL PUSH1 0x0 MSTORE PUSH1 0x32 PUSH1 0x4 MSTORE PUSH1 0x24 PUSH1 0x0 REVERT JUMPDEST PUSH1 0x0 DUP3 PUSH2 0xE2C JUMPI PUSH4 0x4E487B71 PUSH1 0xE0 SHL PUSH1 0x0 MSTORE PUSH1 0x12 PUSH1 0x4 MSTORE PUSH1 0x24 PUSH1 0x0 REVERT JUMPDEST POP DIV SWAP1 JUMP JUMPDEST PUSH1 0x0 PUSH1 0x1 DUP3 ADD PUSH2 0xE43 JUMPI PUSH2 0xE43 PUSH2 0xD95 JUMP JUMPDEST POP PUSH1 0x1 ADD SWAP1 JUMP JUMPDEST PUSH1 0x0 PUSH1 0x20 DUP3 DUP5 SUB SLT ISZERO PUSH2 0xE5C JUMPI PUSH1 0x0 DUP1 REVERT JUMPDEST DUP2 MLOAD PUSH2 0xB86 DUP2 PUSH2 0xD2E JUMP JUMPDEST PUSH1 0x0 JUMPDEST DUP4 DUP2 LT ISZERO PUSH2 0xE82 JUMPI DUP2 DUP2 ADD MLOAD DUP4 DUP3 ADD MSTORE PUSH1 0x20 ADD PUSH2 0xE6A JUMP JUMPDEST DUP4 DUP2 GT ISZERO PUSH2 0xE91 JUMPI PUSH1 0x0 DUP5 DUP5 ADD MSTORE JUMPDEST POP POP POP POP JUMP JUMPDEST PUSH1 0x0 DUP3 MLOAD PUSH2 0xEA9 DUP2 DUP5 PUSH1 0x20 DUP8 ADD PUSH2 0xE67 JUMP JUMPDEST SWAP2 SWAP1 SWAP2 ADD SWAP3 SWAP2 POP POP JUMP JUMPDEST PUSH1 0x20 DUP2 MSTORE PUSH1 0x0 DUP3 MLOAD DUP1 PUSH1 0x20 DUP5 ADD MSTORE PUSH2 0xED2 DUP2 PUSH1 0x40 DUP6 ADD PUSH1 0x20 DUP8 ADD PUSH2 0xE67 JUMP JUMPDEST PUSH1 0x1F ADD PUSH1 0x1F NOT AND SWAP2 SWAP1 SWAP2 ADD PUSH1 0x40 ADD SWAP3 SWAP2 POP POP JUMP INVALID LOG2 PUSH5 0x6970667358 0x22 SLT KECCAK256 0xB4 COINBASE AND 0xD1 SHL DIV 0xE1 0x5C 0xC5 CALLVALUE SWAP4 NUMBER 0x27 0xB5 0xBD 0xB3 0x1F DUP10 MLOAD 0xB9 0x29 0xBE PUSH29 0xB99CEC86E1BA652FC64736F6C634300080F0033000000000000000000 ",
  "sha1": "8e14cf50773586fe2fb9714bbd163ea754c52d52",
  "source": "// SPDX-License-Identifier: MIT\n// OpenZeppelin Contracts (last updated v4.7.0) (finance/LockContract.sol)\npragma solidity ^0.8.0;\n\nimport \"@openzeppelin/contracts/token/ERC20/utils/SafeERC20.sol\";\nimport \"@openzeppelin/contracts/utils/Address.sol\";\nimport \"@openzeppelin/contracts/utils/Context.sol\";\nimport \"@openzeppelin/contracts/access/Ownable.sol\";\n\n/**\n * @title LockContract\n * @dev This contract handles the vesting of a ERC20 tokens for a given beneficiary. Custody of the _token amount\n * can be given to this contract, which will release the _token to the beneficiary following a given schedule.\n * The vesting schedule is established by a key->value pair in the form of _duration->_amounts. This two arrays\n * have the same length and are iterated by the _milestone variable\n */\ncontract LockContract is Context, Ownable {\n    //Token\n    IERC20 public legacy_token;\n\n    //Events\n    event ERC20Released(address indexed _token, uint256 amount);\n\n    //Mappings\n    mapping(address => Investor) public walletToInvestor;\n\n    //Structs\n    struct Investor {\n        address investor_address; // probably can take it out\n        uint256 tokens_received; // amount of tokens the Investor has received\n        uint256 tokens_promised; // amount of tokens the Investor is owed\n        uint256 vesting_start; // saves the date of the initial locking of the contract\n        bool under250k_investor; // if true than it is an investor between 50k-250k, if false it is 250k+\n    }\n\n    //Variables\n    address[] investor_address; // array with all the investor aaddresses\n    address[] addresses_O50I;\n    address[] addresses_O250I;\n    uint256[] tokens_O50I;\n    uint256[] tokens_O250I;\n    uint256[] percent_per_milestone; //percentages per month that will be released (in basis points)\n    uint256 initLock; // initial lock period\n    uint256 erc20Released; // total amount of released tokens\n    uint256 numMilestones; // number of milestones (number of payments for each Investor)\n    uint256 num_O50I; // number of under 50k investors\n    uint256 num_O250I; // number of over 50k investors\n    uint256 totalTokens_O50I; // total tokens promised to investors with 50k-250ks\n    uint256 totalTokens_O250I; // total tokens promised to investors with more than 250ks\n    uint256 timeLock_O50I; // the time lock to be applied before vesting for investors with 50k-250ks\n    uint256 timeLock_O250I; //... investors with more than 250ks\n    address tokenAddress; // token address\n    bool internal locked; // boolean to prevent reentrancy\n\n    //Functions\n    /**\n     * @dev Set the beneficiary, start timestamp and locking durations and amounts.\n     */\n    constructor(\n        address[] memory _addresses_O50I, // array with the addresses of the investors with 50k to 250ks\n        address[] memory _addresses_O250I, // ... more than 250ks\n        uint256[] memory _tokens_O50I, // array with the token amount to be to the equivalent\n        // indexed address in _addresses_O50I\n        uint256[] memory _tokens_O250I, // ... addres in _addresses_O250I\n        uint256[] memory _percent_per_milestone, // has the basis point values of the percentages\n        // of tokens that should be released in total in\n        // the indexed month\n\n        uint256 _totalTokens_O50I, // sum all the tokens for the investors with with 50k-250ks\n        uint256 _totalTokens_O250I, // ... more than 250ks\n        uint256 _timeLock_O50I, // time lock period for investors with with 50k-250ks\n        uint256 _timeLock_O250I, // ... more than 250ks\n        address _tokenAddress // address of the token to be used\n    ) {\n        // marks the time point in which the contract was deployed and so the time\n        // in which the investors locking period (before vesting) started\n        initLock = block.timestamp;\n\n        // percentage of tokens an investor can withdraw at each milestone\n        percent_per_milestone = _percent_per_milestone;\n\n        // number of investors with...\n        num_O50I = _addresses_O50I.length; // with 50k-250ks\n        num_O250I = _addresses_O250I.length; // more than 250ks\n\n        // array of addresses of investors with ...\n        addresses_O50I = _addresses_O50I; // with 50k-250ks\n        addresses_O250I = _addresses_O250I; // more than 250ks\n\n        // array of tokens promised to investors with ...\n        tokens_O50I = _tokens_O50I; // with 50k-250ks\n        tokens_O250I = _tokens_O250I; // more than 250ks\n\n        // total tokens promised to investors with ...\n        totalTokens_O50I = _totalTokens_O50I; // with 50k-250ks\n        totalTokens_O250I = _totalTokens_O250I; // more than 250ks\n\n        // create an Investor struct for each investor with less than 50ks\n        for (uint256 i = 0; i < num_O50I; i++) {\n            // get the amount of tokens and the address correpsonding to this investor\n            address _investor_address = addresses_O50I[i];\n            uint256 _investor_tokens = tokens_O50I[i];\n\n            // create the new Investor struct\n            Investor memory investor = Investor(\n                _investor_address,\n                0,\n                _investor_tokens,\n                block.timestamp + _timeLock_O50I,\n                true\n            );\n\n            // map the new Investor address to its struct\n            walletToInvestor[_investor_address] = investor;\n        }\n\n        // create an Investor struct for each investor with more than 250ks\n        for (uint256 i = 0; i < num_O250I; i++) {\n            // get the amount of tokens and the address correpsonding to this investor\n            address _investor_address = addresses_O250I[i];\n            uint256 _investor_tokens = tokens_O250I[i];\n\n            // create the new Investor struct\n            Investor memory investor = Investor(\n                _investor_address,\n                0,\n                _investor_tokens,\n                block.timestamp + _timeLock_O250I,\n                false\n            );\n\n            // map the new Investor address to its struct\n            walletToInvestor[_investor_address] = investor;\n        }\n\n        // establish token address\n        tokenAddress = _tokenAddress;\n\n        // establish the IERC20 for legacy token to contract interactions\n        legacy_token = IERC20(_tokenAddress);\n\n        // Initialize the reentrancy variable to not locked\n        locked = false;\n\n        // establish the lock time for the two types of investors\n        timeLock_O50I = _timeLock_O50I;\n        timeLock_O250I = _timeLock_O250I;\n    }\n\n    // Modifiers\n    /**\n     * @dev Prevents reentrancy\n     */\n    modifier noReentrant() {\n        require(!locked, \"No re-entrancy\");\n        locked = true;\n        _;\n        locked = false;\n    }\n\n    /**\n     * @dev Only investors can call functions\n     */\n    modifier onlyInvestor() {\n        require(\n            walletToInvestor[msg.sender].tokens_promised != 0,\n            \"Not an investor\"\n        );\n        _;\n    }\n\n    /**\n     * @dev Release the tokens\n     *\n     * Emits a {ERC20Released} event.\n     */\n    function release() public virtual noReentrant onlyInvestor {\n        // gets the amount of tokens the investor can withdraw\n        uint256 releasable = can_release_percent(msg.sender);\n\n        // transfers the tokens to the investor\n        SafeERC20.safeTransfer(IERC20(tokenAddress), msg.sender, releasable);\n\n        // adds that amount to the total released amount\n        erc20Released += releasable;\n\n        // emits an event\n        emit ERC20Released(tokenAddress, releasable);\n\n        // updates the investors struct to reflect the withdraw\n        walletToInvestor[msg.sender].tokens_received += releasable;\n    }\n\n    /**\n     * @dev Calculates and returns the amount of tokens that can be withdrawn,\n     * as function of milestones passed.\n     */\n    function can_release_percent(address _callerAddress)\n        public\n        view\n        virtual\n        returns (uint256)\n    {\n        // get the quatity of tokens he has already withdrawned,\n        uint256 _has_withdrawn = walletToInvestor[_callerAddress]\n            .tokens_received;\n        // gets the investors promised tokens\n        uint256 _tokens_promised = walletToInvestor[_callerAddress]\n            .tokens_promised;\n\n        // require that the investor has not already withdrawn everything\n        require(\n            _has_withdrawn < _tokens_promised,\n            \"All tokens have been claimed\"\n        );\n\n        // gets the current time\n        uint256 _current_time = uint256(block.timestamp);\n        // gets the time in which the investors vesting starts\n        uint256 _vesting_start = walletToInvestor[_callerAddress].vesting_start;\n\n        // require that the locking time for this investor has passed and thevesting has started\n        require(_current_time > _vesting_start, \"Lock time has not passed yet\");\n\n        // will save the amount that is calculated that can be released\n        uint256 _can_release = 0;\n        // saves the seconds the investor has spent vesting in each bracket, to allow the token withdraw calc\n        uint256 _second_in_bracket = 0;\n\n        //Loop through every month until we reach the one the  vesting of this investor is currently on\n        for (uint256 i = 1; i <= percent_per_milestone.length; i++) {\n            // if the time the investor has been vesting is bigger than i month\n            if (_current_time > (_vesting_start + 2592000 * i)) {\n                // check how much time has elapsed how may percentage brakctes/months\n                //we have passed since the initLock\n                _second_in_bracket = 2592000 * i - 2592000 * (i - 1);\n\n                // for each bracket, claculate the the tokens to be released in that period\n                _can_release =\n                    _can_release +\n                    ((_tokens_promised * percent_per_milestone[i - 1]) /\n                        10000 /\n                        2592000) *\n                    _second_in_bracket; // remember the percent_per\n                // milestone are percents multiplied by 1000\n            } else {\n                //If the current time is in the middle of one of the months\n                _second_in_bracket =\n                    _current_time -\n                    2592000 *\n                    (i - 1) -\n                    _vesting_start;\n\n                _can_release =\n                    _can_release +\n                    ((_tokens_promised * percent_per_milestone[i - 1]) /\n                        10000 /\n                        2592000) *\n                    _second_in_bracket;\n\n                break;\n            }\n        }\n\n        // get the amount of tokens the investor can actually withdraw:\n        uint256 _able_to_release = _can_release - _has_withdrawn;\n\n        // return\n        return _able_to_release;\n    }\n\n    /**\n     * @dev Adds a new Investor.\n     */\n    function new_Investor(\n        uint256 _amount,\n        address _newInvestor_address,\n        bool _investor_type\n    ) public {\n        // the investor should not already by locked\n        require(\n            walletToInvestor[_newInvestor_address].tokens_promised == 0,\n            \"This address is already in the vesting contract.\"\n        );\n\n        // transfer the tokens to the contract\n        legacy_token.transferFrom(_newInvestor_address, address(this), _amount);\n\n        if (_investor_type) {\n            addresses_O50I.push(_newInvestor_address);\n            tokens_O50I.push(_amount);\n\n            // create the new Investor struc\n            Investor memory investor = Investor(\n                _newInvestor_address,\n                0,\n                _amount,\n                block.timestamp + timeLock_O50I,\n                true\n            );\n\n            // push the new Investor struct to the Investors array\n            walletToInvestor[_newInvestor_address] = investor;\n        } else {\n            addresses_O250I.push(_newInvestor_address);\n            tokens_O250I.push(_amount);\n\n            // create the new Investor struc\n            Investor memory investor = Investor(\n                _newInvestor_address,\n                0,\n                _amount,\n                block.timestamp + timeLock_O250I,\n                true\n            );\n\n            // push the new Investor struct to the Investors array\n            walletToInvestor[_newInvestor_address] = investor;\n        }\n    }\n\n    /**\n     * @dev View function to get contract balance\n     */\n    function contract_balance() public view returns (uint256) {\n        return legacy_token.balanceOf(address(this));\n    }\n\n    function get_initLock() public view returns (uint256) {\n        return initLock;\n    }\n}\n",
  "sourcePath": "contracts/LockContract.sol",
  "type": "contract"
}