{
  "abi": [
    {
      "inputs": [
        {
          "internalType": "address[]",
          "name": "_addresses_O50I",
          "type": "address[]"
        },
        {
          "internalType": "address[]",
          "name": "_addresses_O250I",
          "type": "address[]"
        },
        {
          "internalType": "uint256[]",
          "name": "_tokens_O50I",
          "type": "uint256[]"
        },
        {
          "internalType": "uint256[]",
          "name": "_tokens_O250I",
          "type": "uint256[]"
        },
        {
          "internalType": "uint256[]",
          "name": "_percent_per_milestone",
          "type": "uint256[]"
        },
        {
          "internalType": "uint256",
          "name": "_tokens_O50ITotal",
          "type": "uint256"
        },
        {
          "internalType": "uint256",
          "name": "_tokens_O250ITotal",
          "type": "uint256"
        },
        {
          "internalType": "address",
          "name": "_tokenAddress",
          "type": "address"
        }
      ],
      "stateMutability": "nonpayable",
      "type": "constructor"
    },
    {
      "anonymous": false,
      "inputs": [
        {
          "indexed": true,
          "internalType": "address",
          "name": "_token",
          "type": "address"
        },
        {
          "indexed": false,
          "internalType": "uint256",
          "name": "amount",
          "type": "uint256"
        }
      ],
      "name": "ERC20Released",
      "type": "event"
    },
    {
      "anonymous": false,
      "inputs": [
        {
          "indexed": true,
          "internalType": "address",
          "name": "previousOwner",
          "type": "address"
        },
        {
          "indexed": true,
          "internalType": "address",
          "name": "newOwner",
          "type": "address"
        }
      ],
      "name": "OwnershipTransferred",
      "type": "event"
    },
    {
      "inputs": [],
      "name": "contract_balance",
      "outputs": [
        {
          "internalType": "uint256",
          "name": "",
          "type": "uint256"
        }
      ],
      "stateMutability": "view",
      "type": "function"
    },
    {
      "inputs": [],
      "name": "get_initLock",
      "outputs": [
        {
          "internalType": "uint256",
          "name": "",
          "type": "uint256"
        }
      ],
      "stateMutability": "view",
      "type": "function"
    },
    {
      "inputs": [],
      "name": "legacy_token",
      "outputs": [
        {
          "internalType": "contract IERC20",
          "name": "",
          "type": "address"
        }
      ],
      "stateMutability": "view",
      "type": "function"
    },
    {
      "inputs": [
        {
          "internalType": "uint256",
          "name": "_amount",
          "type": "uint256"
        },
        {
          "internalType": "address",
          "name": "_newInvestor_address",
          "type": "address"
        },
        {
          "internalType": "bool",
          "name": "_under250K",
          "type": "bool"
        }
      ],
      "name": "new_Investor",
      "outputs": [],
      "stateMutability": "nonpayable",
      "type": "function"
    },
    {
      "inputs": [],
      "name": "owner",
      "outputs": [
        {
          "internalType": "address",
          "name": "",
          "type": "address"
        }
      ],
      "stateMutability": "view",
      "type": "function"
    },
    {
      "inputs": [],
      "name": "release",
      "outputs": [],
      "stateMutability": "nonpayable",
      "type": "function"
    },
    {
      "inputs": [],
      "name": "renounceOwnership",
      "outputs": [],
      "stateMutability": "nonpayable",
      "type": "function"
    },
    {
      "inputs": [
        {
          "internalType": "address",
          "name": "newOwner",
          "type": "address"
        }
      ],
      "name": "transferOwnership",
      "outputs": [],
      "stateMutability": "nonpayable",
      "type": "function"
    },
    {
      "inputs": [],
      "name": "view_can_release_percent",
      "outputs": [
        {
          "internalType": "uint256",
          "name": "",
          "type": "uint256"
        }
      ],
      "stateMutability": "view",
      "type": "function"
    },
    {
      "inputs": [
        {
          "internalType": "address",
          "name": "",
          "type": "address"
        }
      ],
      "name": "walletToInvestor",
      "outputs": [
        {
          "internalType": "address",
          "name": "investor_address",
          "type": "address"
        },
        {
          "internalType": "uint256",
          "name": "tokens_received",
          "type": "uint256"
        },
        {
          "internalType": "uint256",
          "name": "tokens_promised",
          "type": "uint256"
        },
        {
          "internalType": "uint256",
          "name": "lock_start",
          "type": "uint256"
        },
        {
          "internalType": "bool",
          "name": "under250k_investor",
          "type": "bool"
        }
      ],
      "stateMutability": "view",
      "type": "function"
    }
  ],
  "bytecode": "60806040523480156200001157600080fd5b50604051620019bf380380620019bf8339810160408190526200003491620006b8565b6200003f336200043f565b426009558351620000589060089060208701906200048f565b508751600c8190558751600d55620000789060049060208b0190620004df565b5086516200008e9060059060208a0190620004df565b508551620000a49060069060208901906200048f565b508451620000ba9060079060208801906200048f565b50600e839055600f82905560005b600c54811015620002665760006001600160a01b031660048281548110620000f457620000f4620007bf565b6000918252602090912001546001600160a01b031603620001715760405162461bcd60e51b815260206004820152603460248201526000805160206200199f83398151915260448201527f72657373206973207a65726f206164647265737300000000000000000000000060648201526084015b60405180910390fd5b600060048281548110620001895762000189620007bf565b6000918252602082200154600680546001600160a01b0390921693509084908110620001b957620001b9620007bf565b6000918252602080832091909101546040805160a0810182526001600160a01b03968716808252818501868152828401948552426060840190815260016080850181815293895260029788905294909720925183546001600160a01b03191699169890981782559651918101919091559051918101919091559051600382015591516004909201805460ff19169215159290921790915550806200025d81620007d5565b915050620000c8565b5060005b600d54811015620003ff5760006001600160a01b031660058281548110620002965762000296620007bf565b6000918252602090912001546001600160a01b0316036200030f5760405162461bcd60e51b815260206004820152603460248201526000805160206200199f83398151915260448201527f72657373206973207a65726f2061646472657373000000000000000000000000606482015260840162000168565b600060058281548110620003275762000327620007bf565b6000918252602082200154600780546001600160a01b0390921693509084908110620003575762000357620007bf565b6000918252602080832091909101546040805160a0810182526001600160a01b0396871680825281850186815282840194855242606084019081526080840188815292885260029687905293909620915182546001600160a01b03191698169790971781559351600185015590519183019190915551600382015591516004909201805460ff1916921515929092179091555080620003f681620007d5565b9150506200026a565b5060108054600180546001600160a01b0319166001600160a01b0390941693841790556001600160a81b031916909117905550620007fd95505050505050565b600080546001600160a01b038381166001600160a01b0319831681178455604051919092169283917f8be0079c531659141344cd1fd0a4f28419497f9722a3daafe3b4186f6b6457e09190a35050565b828054828255906000526020600020908101928215620004cd579160200282015b82811115620004cd578251825591602001919060010190620004b0565b50620004db92915062000537565b5090565b828054828255906000526020600020908101928215620004cd579160200282015b82811115620004cd57825182546001600160a01b0319166001600160a01b0390911617825560209092019160019091019062000500565b5b80821115620004db576000815560010162000538565b634e487b7160e01b600052604160045260246000fd5b604051601f8201601f191681016001600160401b03811182821017156200058f576200058f6200054e565b604052919050565b60006001600160401b03821115620005b357620005b36200054e565b5060051b60200190565b80516001600160a01b0381168114620005d557600080fd5b919050565b600082601f830112620005ec57600080fd5b8151602062000605620005ff8362000597565b62000564565b82815260059290921b840181019181810190868411156200062557600080fd5b8286015b848110156200064b576200063d81620005bd565b835291830191830162000629565b509695505050505050565b600082601f8301126200066857600080fd5b815160206200067b620005ff8362000597565b82815260059290921b840181019181810190868411156200069b57600080fd5b8286015b848110156200064b57805183529183019183016200069f565b600080600080600080600080610100898b031215620006d657600080fd5b88516001600160401b0380821115620006ee57600080fd5b620006fc8c838d01620005da565b995060208b01519150808211156200071357600080fd5b620007218c838d01620005da565b985060408b01519150808211156200073857600080fd5b620007468c838d0162000656565b975060608b01519150808211156200075d57600080fd5b6200076b8c838d0162000656565b965060808b01519150808211156200078257600080fd5b50620007918b828c0162000656565b94505060a0890151925060c08901519150620007b060e08a01620005bd565b90509295985092959890939650565b634e487b7160e01b600052603260045260246000fd5b600060018201620007f657634e487b7160e01b600052601160045260246000fd5b5060010190565b611192806200080d6000396000f3fe608060405234801561001057600080fd5b506004361061009e5760003560e01c806392347b5e1161006657806392347b5e146100fd578063d41d826a1461017b578063df1299791461018e578063f2fde38b146101a1578063f5cd7277146101b457600080fd5b8063057440d3146100a3578063715018a6146100be57806386d1a69f146100c85780638da5cb5b146100d0578063910d25ba146100f5575b600080fd5b6100ab6101bc565b6040519081526020015b60405180910390f35b6100c661022e565b005b6100c6610299565b6000546001600160a01b03165b6040516001600160a01b0390911681526020016100b5565b6009546100ab565b61014761010b366004610f89565b6002602081905260009182526040909120805460018201549282015460038301546004909301546001600160a01b039092169392909160ff1685565b604080516001600160a01b03909616865260208601949094529284019190915260608301521515608082015260a0016100b5565b6100c6610189366004610fb2565b6103ac565b6001546100dd906001600160a01b031681565b6100c66101af366004610f89565b6106e7565b6100ab6107b2565b6001546040516370a0823160e01b81523060048201526000916001600160a01b0316906370a0823190602401602060405180830381865afa158015610205573d6000803e3d6000fd5b505050506040513d601f19601f820116820180604052508101906102299190610ff2565b905090565b6000546001600160a01b0316331461028d5760405162461bcd60e51b815260206004820181905260248201527f4f776e61626c653a2063616c6c6572206973206e6f7420746865206f776e657260448201526064015b60405180910390fd5b61029760006109f1565b565b601054600160a01b900460ff16156102e45760405162461bcd60e51b815260206004820152600e60248201526d4e6f2072652d656e7472616e637960901b6044820152606401610284565b6010805460ff60a01b1916600160a01b17905560006103033342610a41565b905080600a60008282546103179190611021565b90915550506010546040518281526001600160a01b03909116907fc0e523490dd523c33b1878c9eb14ff46991e3f5b2cd33710918618f2a39cba1b9060200160405180910390a2601054610375906001600160a01b03163383610cd1565b3360009081526002602052604081206001018054839290610397908490611021565b90915550506010805460ff60a01b1916905550565b6001546040516370a0823160e01b81526001600160a01b038481166004830152859216906370a0823190602401602060405180830381865afa1580156103f6573d6000803e3d6000fd5b505050506040513d601f19601f8201168201806040525081019061041a9190610ff2565b101561048e5760405162461bcd60e51b815260206004820152603e60248201527f596f7520646f6e2774206861766520656e6f756768204c656761637920746f6b60448201527f656e7320666f722074686520707269636520726571756972656d656e742e00006064820152608401610284565b6001600160a01b03821660009081526002602081905260409091200154156105115760405162461bcd60e51b815260206004820152603060248201527f54686973206164647265737320697320616c726561647920696e20746865207660448201526f32b9ba34b7339031b7b73a3930b1ba1760811b6064820152608401610284565b6001546040516323b872dd60e01b81526001600160a01b03848116600483015230602483015260448201869052909116906323b872dd906064016020604051808303816000875af115801561056a573d6000803e3d6000fd5b505050506040513d601f19601f8201168201806040525081019061058e9190611039565b508015610612576004805460018082019092557f8a35acfbc15ff81a39ae7d344fd709f28e8600b4aa8c65c6b64bfe7fe36bd19b0180546001600160a01b0319166001600160a01b0385161790556006805491820181556000527ff652222313e28459528d920b65115c16c04f3efc82aaedc97be59f3f377c0d3f01839055610650565b6005805460019081019091556007805491820181556000527fa66cc928b5edb82af9bd49922954155ab7b0942694bea4ce44661d9a8736c688018390555b506040805160a0810182526001600160a01b03928316808252600060208084018281528486019788524267ffffffffffffffff166060860190815260016080870181815295855260029384905296909320945185546001600160a01b031916971696909617845594519383019390935593519281019290925551600382015590516004909101805460ff1916911515919091179055565b6000546001600160a01b031633146107415760405162461bcd60e51b815260206004820181905260248201527f4f776e61626c653a2063616c6c6572206973206e6f7420746865206f776e65726044820152606401610284565b6001600160a01b0381166107a65760405162461bcd60e51b815260206004820152602660248201527f4f776e61626c653a206e6577206f776e657220697320746865207a65726f206160448201526564647265737360d01b6064820152608401610284565b6107af816109f1565b50565b3360009081526002602081905260408220908101546001909101541061081a5760405162461bcd60e51b815260206004820152601c60248201527f416c6c20746f6b656e732068617665206265656e20636c61696d6564000000006044820152606401610284565b33600090815260026020819052604082200154429190819060015b60085481116109c75761084b8162278d00611056565b336000908152600260205260409020600301546108689190611021565b85111561090a5761087a600182611075565b6108879062278d00611056565b6108948262278d00611056565b61089e9190611075565b92508262278d0061271060086108b5600186611075565b815481106108c5576108c561108c565b9060005260206000200154856108db9190611056565b6108e591906110a2565b6108ef91906110a2565b6108f99190611056565b6109039085611021565b93506109b5565b33600090815260026020526040902060030154610928600183611075565b6109359062278d00611056565b61093f9087611075565b6109499190611075565b92508262278d006127106008610960600186611075565b815481106109705761097061108c565b9060005260206000200154856109869190611056565b61099091906110a2565b61099a91906110a2565b6109a49190611056565b6109ae9085611021565b93506109c7565b806109bf816110c4565b915050610835565b5033600090815260026020526040812060010154906109e68286611075565b979650505050505050565b600080546001600160a01b038381166001600160a01b0319831681178455604051919092169283917f8be0079c531659141344cd1fd0a4f28419497f9722a3daafe3b4186f6b6457e09190a35050565b33600090815260026020819052604082209081015460019091015410610aa95760405162461bcd60e51b815260206004820152601c60248201527f416c6c20746f6b656e732068617665206265656e20636c61696d6564000000006044820152606401610284565b33600090815260026020819052604082200154839190819060015b6008548111610c5657610ada8162278d00611056565b33600090815260026020526040902060030154610af79190611021565b851115610b9957610b09600182611075565b610b169062278d00611056565b610b238262278d00611056565b610b2d9190611075565b92508262278d006127106008610b44600186611075565b81548110610b5457610b5461108c565b906000526020600020015485610b6a9190611056565b610b7491906110a2565b610b7e91906110a2565b610b889190611056565b610b929085611021565b9350610c44565b33600090815260026020526040902060030154610bb7600183611075565b610bc49062278d00611056565b610bce9087611075565b610bd89190611075565b92508262278d006127106008610bef600186611075565b81548110610bff57610bff61108c565b906000526020600020015485610c159190611056565b610c1f91906110a2565b610c2991906110a2565b610c339190611056565b610c3d9085611021565b9350610c56565b80610c4e816110c4565b915050610ac4565b506001600160a01b03871660009081526002602052604081206001015490610c7e8286611075565b6001600160a01b038a16600090815260026020526040902060010154909150610ca8908290611021565b6001600160a01b038a166000908152600260205260409020600101559550505050505092915050565b604080516001600160a01b038416602482015260448082018490528251808303909101815260649091019091526020810180516001600160e01b031663a9059cbb60e01b179052610d23908490610d28565b505050565b6000610d7d826040518060400160405280602081526020017f5361666545524332303a206c6f772d6c6576656c2063616c6c206661696c6564815250856001600160a01b0316610dfa9092919063ffffffff16565b805190915015610d235780806020019051810190610d9b9190611039565b610d235760405162461bcd60e51b815260206004820152602a60248201527f5361666545524332303a204552433230206f7065726174696f6e20646964206e6044820152691bdd081cdd58d8d9595960b21b6064820152608401610284565b6060610e098484600085610e13565b90505b9392505050565b606082471015610e745760405162461bcd60e51b815260206004820152602660248201527f416464726573733a20696e73756666696369656e742062616c616e636520666f6044820152651c8818d85b1b60d21b6064820152608401610284565b6001600160a01b0385163b610ecb5760405162461bcd60e51b815260206004820152601d60248201527f416464726573733a2063616c6c20746f206e6f6e2d636f6e74726163740000006044820152606401610284565b600080866001600160a01b03168587604051610ee7919061110d565b60006040518083038185875af1925050503d8060008114610f24576040519150601f19603f3d011682016040523d82523d6000602084013e610f29565b606091505b50915091506109e682828660608315610f43575081610e0c565b825115610f535782518084602001fd5b8160405162461bcd60e51b81526004016102849190611129565b80356001600160a01b0381168114610f8457600080fd5b919050565b600060208284031215610f9b57600080fd5b610e0c82610f6d565b80151581146107af57600080fd5b600080600060608486031215610fc757600080fd5b83359250610fd760208501610f6d565b91506040840135610fe781610fa4565b809150509250925092565b60006020828403121561100457600080fd5b5051919050565b634e487b7160e01b600052601160045260246000fd5b600082198211156110345761103461100b565b500190565b60006020828403121561104b57600080fd5b8151610e0c81610fa4565b60008160001904831182151516156110705761107061100b565b500290565b6000828210156110875761108761100b565b500390565b634e487b7160e01b600052603260045260246000fd5b6000826110bf57634e487b7160e01b600052601260045260246000fd5b500490565b6000600182016110d6576110d661100b565b5060010190565b60005b838110156110f85781810151838201526020016110e0565b83811115611107576000848401525b50505050565b6000825161111f8184602087016110dd565b9190910192915050565b60208152600082518060208401526111488160408501602087016110dd565b601f01601f1916919091016040019291505056fea2646970667358221220344358f5b28574899a39d737fd1c175735c9997a2866d38405e83e79c6b1fc1264736f6c634300080f0033436f6e7374727563746f723a206c6f636b656420496e766573746f7220616464",
  "bytecodeSha1": "da39a3ee5e6b4b0d3255bfef95601890afd80709",
  "compiler": {
    "evm_version": "istanbul",
    "optimizer": {
      "enabled": true,
      "runs": 200
    },
    "version": "0.8.15+commit.e14f2714"
  },
  "contractName": "LockContract",
  "language": "Solidity",
  "natspec": {
    "details": "This contract handles the vesting of a ERC20 tokens for a given beneficiary. Custody of the _token amount can be given to this contract, which will release the _token to the beneficiary following a given schedule. The vesting schedule is established by a key->value pair in the form of _duration->_amounts. This two arrays have the same length and are iterated by the _milestone variable",
    "kind": "dev",
    "methods": {
      "constructor": {
        "details": "Set the beneficiary, start timestamp and locking durations and amounts."
      },
      "contract_balance()": {
        "details": "View function to get contract balance"
      },
      "new_Investor(uint256,address,bool)": {
        "details": "Adds a new Investor."
      },
      "owner()": {
        "details": "Returns the address of the current owner."
      },
      "release()": {
        "details": "Release the tokens  Emits a {ERC20Released} event."
      },
      "renounceOwnership()": {
        "details": "Leaves the contract without owner. It will not be possible to call `onlyOwner` functions anymore. Can only be called by the current owner. NOTE: Renouncing ownership will leave the contract without an owner, thereby removing any functionality that is only available to the owner."
      },
      "transferOwnership(address)": {
        "details": "Transfers ownership of the contract to a new account (`newOwner`). Can only be called by the current owner."
      },
      "view_can_release_percent()": {
        "details": "View function that an investor can use to see how many tokens he can withdraw"
      }
    },
    "title": "LockContract",
    "version": 1
  },
  "opcodes": "PUSH1 0x80 PUSH1 0x40 MSTORE CALLVALUE DUP1 ISZERO PUSH2 0x10 JUMPI PUSH1 0x0 DUP1 REVERT JUMPDEST POP PUSH1 0x4 CALLDATASIZE LT PUSH2 0x9E JUMPI PUSH1 0x0 CALLDATALOAD PUSH1 0xE0 SHR DUP1 PUSH4 0x92347B5E GT PUSH2 0x66 JUMPI DUP1 PUSH4 0x92347B5E EQ PUSH2 0xFD JUMPI DUP1 PUSH4 0xD41D826A EQ PUSH2 0x17B JUMPI DUP1 PUSH4 0xDF129979 EQ PUSH2 0x18E JUMPI DUP1 PUSH4 0xF2FDE38B EQ PUSH2 0x1A1 JUMPI DUP1 PUSH4 0xF5CD7277 EQ PUSH2 0x1B4 JUMPI PUSH1 0x0 DUP1 REVERT JUMPDEST DUP1 PUSH4 0x57440D3 EQ PUSH2 0xA3 JUMPI DUP1 PUSH4 0x715018A6 EQ PUSH2 0xBE JUMPI DUP1 PUSH4 0x86D1A69F EQ PUSH2 0xC8 JUMPI DUP1 PUSH4 0x8DA5CB5B EQ PUSH2 0xD0 JUMPI DUP1 PUSH4 0x910D25BA EQ PUSH2 0xF5 JUMPI JUMPDEST PUSH1 0x0 DUP1 REVERT JUMPDEST PUSH2 0xAB PUSH2 0x1BC JUMP JUMPDEST PUSH1 0x40 MLOAD SWAP1 DUP2 MSTORE PUSH1 0x20 ADD JUMPDEST PUSH1 0x40 MLOAD DUP1 SWAP2 SUB SWAP1 RETURN JUMPDEST PUSH2 0xC6 PUSH2 0x22E JUMP JUMPDEST STOP JUMPDEST PUSH2 0xC6 PUSH2 0x299 JUMP JUMPDEST PUSH1 0x0 SLOAD PUSH1 0x1 PUSH1 0x1 PUSH1 0xA0 SHL SUB AND JUMPDEST PUSH1 0x40 MLOAD PUSH1 0x1 PUSH1 0x1 PUSH1 0xA0 SHL SUB SWAP1 SWAP2 AND DUP2 MSTORE PUSH1 0x20 ADD PUSH2 0xB5 JUMP JUMPDEST PUSH1 0x9 SLOAD PUSH2 0xAB JUMP JUMPDEST PUSH2 0x147 PUSH2 0x10B CALLDATASIZE PUSH1 0x4 PUSH2 0xF89 JUMP JUMPDEST PUSH1 0x2 PUSH1 0x20 DUP2 SWAP1 MSTORE PUSH1 0x0 SWAP2 DUP3 MSTORE PUSH1 0x40 SWAP1 SWAP2 KECCAK256 DUP1 SLOAD PUSH1 0x1 DUP3 ADD SLOAD SWAP3 DUP3 ADD SLOAD PUSH1 0x3 DUP4 ADD SLOAD PUSH1 0x4 SWAP1 SWAP4 ADD SLOAD PUSH1 0x1 PUSH1 0x1 PUSH1 0xA0 SHL SUB SWAP1 SWAP3 AND SWAP4 SWAP3 SWAP1 SWAP2 PUSH1 0xFF AND DUP6 JUMP JUMPDEST PUSH1 0x40 DUP1 MLOAD PUSH1 0x1 PUSH1 0x1 PUSH1 0xA0 SHL SUB SWAP1 SWAP7 AND DUP7 MSTORE PUSH1 0x20 DUP7 ADD SWAP5 SWAP1 SWAP5 MSTORE SWAP3 DUP5 ADD SWAP2 SWAP1 SWAP2 MSTORE PUSH1 0x60 DUP4 ADD MSTORE ISZERO ISZERO PUSH1 0x80 DUP3 ADD MSTORE PUSH1 0xA0 ADD PUSH2 0xB5 JUMP JUMPDEST PUSH2 0xC6 PUSH2 0x189 CALLDATASIZE PUSH1 0x4 PUSH2 0xFB2 JUMP JUMPDEST PUSH2 0x3AC JUMP JUMPDEST PUSH1 0x1 SLOAD PUSH2 0xDD SWAP1 PUSH1 0x1 PUSH1 0x1 PUSH1 0xA0 SHL SUB AND DUP2 JUMP JUMPDEST PUSH2 0xC6 PUSH2 0x1AF CALLDATASIZE PUSH1 0x4 PUSH2 0xF89 JUMP JUMPDEST PUSH2 0x6E7 JUMP JUMPDEST PUSH2 0xAB PUSH2 0x7B2 JUMP JUMPDEST PUSH1 0x1 SLOAD PUSH1 0x40 MLOAD PUSH4 0x70A08231 PUSH1 0xE0 SHL DUP2 MSTORE ADDRESS PUSH1 0x4 DUP3 ADD MSTORE PUSH1 0x0 SWAP2 PUSH1 0x1 PUSH1 0x1 PUSH1 0xA0 SHL SUB AND SWAP1 PUSH4 0x70A08231 SWAP1 PUSH1 0x24 ADD PUSH1 0x20 PUSH1 0x40 MLOAD DUP1 DUP4 SUB DUP2 DUP7 GAS STATICCALL ISZERO DUP1 ISZERO PUSH2 0x205 JUMPI RETURNDATASIZE PUSH1 0x0 DUP1 RETURNDATACOPY RETURNDATASIZE PUSH1 0x0 REVERT JUMPDEST POP POP POP POP PUSH1 0x40 MLOAD RETURNDATASIZE PUSH1 0x1F NOT PUSH1 0x1F DUP3 ADD AND DUP3 ADD DUP1 PUSH1 0x40 MSTORE POP DUP2 ADD SWAP1 PUSH2 0x229 SWAP2 SWAP1 PUSH2 0xFF2 JUMP JUMPDEST SWAP1 POP SWAP1 JUMP JUMPDEST PUSH1 0x0 SLOAD PUSH1 0x1 PUSH1 0x1 PUSH1 0xA0 SHL SUB AND CALLER EQ PUSH2 0x28D JUMPI PUSH1 0x40 MLOAD PUSH3 0x461BCD PUSH1 0xE5 SHL DUP2 MSTORE PUSH1 0x20 PUSH1 0x4 DUP3 ADD DUP2 SWAP1 MSTORE PUSH1 0x24 DUP3 ADD MSTORE PUSH32 0x4F776E61626C653A2063616C6C6572206973206E6F7420746865206F776E6572 PUSH1 0x44 DUP3 ADD MSTORE PUSH1 0x64 ADD JUMPDEST PUSH1 0x40 MLOAD DUP1 SWAP2 SUB SWAP1 REVERT JUMPDEST PUSH2 0x297 PUSH1 0x0 PUSH2 0x9F1 JUMP JUMPDEST JUMP JUMPDEST PUSH1 0x10 SLOAD PUSH1 0x1 PUSH1 0xA0 SHL SWAP1 DIV PUSH1 0xFF AND ISZERO PUSH2 0x2E4 JUMPI PUSH1 0x40 MLOAD PUSH3 0x461BCD PUSH1 0xE5 SHL DUP2 MSTORE PUSH1 0x20 PUSH1 0x4 DUP3 ADD MSTORE PUSH1 0xE PUSH1 0x24 DUP3 ADD MSTORE PUSH14 0x4E6F2072652D656E7472616E6379 PUSH1 0x90 SHL PUSH1 0x44 DUP3 ADD MSTORE PUSH1 0x64 ADD PUSH2 0x284 JUMP JUMPDEST PUSH1 0x10 DUP1 SLOAD PUSH1 0xFF PUSH1 0xA0 SHL NOT AND PUSH1 0x1 PUSH1 0xA0 SHL OR SWAP1 SSTORE PUSH1 0x0 PUSH2 0x303 CALLER TIMESTAMP PUSH2 0xA41 JUMP JUMPDEST SWAP1 POP DUP1 PUSH1 0xA PUSH1 0x0 DUP3 DUP3 SLOAD PUSH2 0x317 SWAP2 SWAP1 PUSH2 0x1021 JUMP JUMPDEST SWAP1 SWAP2 SSTORE POP POP PUSH1 0x10 SLOAD PUSH1 0x40 MLOAD DUP3 DUP2 MSTORE PUSH1 0x1 PUSH1 0x1 PUSH1 0xA0 SHL SUB SWAP1 SWAP2 AND SWAP1 PUSH32 0xC0E523490DD523C33B1878C9EB14FF46991E3F5B2CD33710918618F2A39CBA1B SWAP1 PUSH1 0x20 ADD PUSH1 0x40 MLOAD DUP1 SWAP2 SUB SWAP1 LOG2 PUSH1 0x10 SLOAD PUSH2 0x375 SWAP1 PUSH1 0x1 PUSH1 0x1 PUSH1 0xA0 SHL SUB AND CALLER DUP4 PUSH2 0xCD1 JUMP JUMPDEST CALLER PUSH1 0x0 SWAP1 DUP2 MSTORE PUSH1 0x2 PUSH1 0x20 MSTORE PUSH1 0x40 DUP2 KECCAK256 PUSH1 0x1 ADD DUP1 SLOAD DUP4 SWAP3 SWAP1 PUSH2 0x397 SWAP1 DUP5 SWAP1 PUSH2 0x1021 JUMP JUMPDEST SWAP1 SWAP2 SSTORE POP POP PUSH1 0x10 DUP1 SLOAD PUSH1 0xFF PUSH1 0xA0 SHL NOT AND SWAP1 SSTORE POP JUMP JUMPDEST PUSH1 0x1 SLOAD PUSH1 0x40 MLOAD PUSH4 0x70A08231 PUSH1 0xE0 SHL DUP2 MSTORE PUSH1 0x1 PUSH1 0x1 PUSH1 0xA0 SHL SUB DUP5 DUP2 AND PUSH1 0x4 DUP4 ADD MSTORE DUP6 SWAP3 AND SWAP1 PUSH4 0x70A08231 SWAP1 PUSH1 0x24 ADD PUSH1 0x20 PUSH1 0x40 MLOAD DUP1 DUP4 SUB DUP2 DUP7 GAS STATICCALL ISZERO DUP1 ISZERO PUSH2 0x3F6 JUMPI RETURNDATASIZE PUSH1 0x0 DUP1 RETURNDATACOPY RETURNDATASIZE PUSH1 0x0 REVERT JUMPDEST POP POP POP POP PUSH1 0x40 MLOAD RETURNDATASIZE PUSH1 0x1F NOT PUSH1 0x1F DUP3 ADD AND DUP3 ADD DUP1 PUSH1 0x40 MSTORE POP DUP2 ADD SWAP1 PUSH2 0x41A SWAP2 SWAP1 PUSH2 0xFF2 JUMP JUMPDEST LT ISZERO PUSH2 0x48E JUMPI PUSH1 0x40 MLOAD PUSH3 0x461BCD PUSH1 0xE5 SHL DUP2 MSTORE PUSH1 0x20 PUSH1 0x4 DUP3 ADD MSTORE PUSH1 0x3E PUSH1 0x24 DUP3 ADD MSTORE PUSH32 0x596F7520646F6E2774206861766520656E6F756768204C656761637920746F6B PUSH1 0x44 DUP3 ADD MSTORE PUSH32 0x656E7320666F722074686520707269636520726571756972656D656E742E0000 PUSH1 0x64 DUP3 ADD MSTORE PUSH1 0x84 ADD PUSH2 0x284 JUMP JUMPDEST PUSH1 0x1 PUSH1 0x1 PUSH1 0xA0 SHL SUB DUP3 AND PUSH1 0x0 SWAP1 DUP2 MSTORE PUSH1 0x2 PUSH1 0x20 DUP2 SWAP1 MSTORE PUSH1 0x40 SWAP1 SWAP2 KECCAK256 ADD SLOAD ISZERO PUSH2 0x511 JUMPI PUSH1 0x40 MLOAD PUSH3 0x461BCD PUSH1 0xE5 SHL DUP2 MSTORE PUSH1 0x20 PUSH1 0x4 DUP3 ADD MSTORE PUSH1 0x30 PUSH1 0x24 DUP3 ADD MSTORE PUSH32 0x54686973206164647265737320697320616C726561647920696E207468652076 PUSH1 0x44 DUP3 ADD MSTORE PUSH16 0x32B9BA34B7339031B7B73A3930B1BA17 PUSH1 0x81 SHL PUSH1 0x64 DUP3 ADD MSTORE PUSH1 0x84 ADD PUSH2 0x284 JUMP JUMPDEST PUSH1 0x1 SLOAD PUSH1 0x40 MLOAD PUSH4 0x23B872DD PUSH1 0xE0 SHL DUP2 MSTORE PUSH1 0x1 PUSH1 0x1 PUSH1 0xA0 SHL SUB DUP5 DUP2 AND PUSH1 0x4 DUP4 ADD MSTORE ADDRESS PUSH1 0x24 DUP4 ADD MSTORE PUSH1 0x44 DUP3 ADD DUP7 SWAP1 MSTORE SWAP1 SWAP2 AND SWAP1 PUSH4 0x23B872DD SWAP1 PUSH1 0x64 ADD PUSH1 0x20 PUSH1 0x40 MLOAD DUP1 DUP4 SUB DUP2 PUSH1 0x0 DUP8 GAS CALL ISZERO DUP1 ISZERO PUSH2 0x56A JUMPI RETURNDATASIZE PUSH1 0x0 DUP1 RETURNDATACOPY RETURNDATASIZE PUSH1 0x0 REVERT JUMPDEST POP POP POP POP PUSH1 0x40 MLOAD RETURNDATASIZE PUSH1 0x1F NOT PUSH1 0x1F DUP3 ADD AND DUP3 ADD DUP1 PUSH1 0x40 MSTORE POP DUP2 ADD SWAP1 PUSH2 0x58E SWAP2 SWAP1 PUSH2 0x1039 JUMP JUMPDEST POP DUP1 ISZERO PUSH2 0x612 JUMPI PUSH1 0x4 DUP1 SLOAD PUSH1 0x1 DUP1 DUP3 ADD SWAP1 SWAP3 SSTORE PUSH32 0x8A35ACFBC15FF81A39AE7D344FD709F28E8600B4AA8C65C6B64BFE7FE36BD19B ADD DUP1 SLOAD PUSH1 0x1 PUSH1 0x1 PUSH1 0xA0 SHL SUB NOT AND PUSH1 0x1 PUSH1 0x1 PUSH1 0xA0 SHL SUB DUP6 AND OR SWAP1 SSTORE PUSH1 0x6 DUP1 SLOAD SWAP2 DUP3 ADD DUP2 SSTORE PUSH1 0x0 MSTORE PUSH32 0xF652222313E28459528D920B65115C16C04F3EFC82AAEDC97BE59F3F377C0D3F ADD DUP4 SWAP1 SSTORE PUSH2 0x650 JUMP JUMPDEST PUSH1 0x5 DUP1 SLOAD PUSH1 0x1 SWAP1 DUP2 ADD SWAP1 SWAP2 SSTORE PUSH1 0x7 DUP1 SLOAD SWAP2 DUP3 ADD DUP2 SSTORE PUSH1 0x0 MSTORE PUSH32 0xA66CC928B5EDB82AF9BD49922954155AB7B0942694BEA4CE44661D9A8736C688 ADD DUP4 SWAP1 SSTORE JUMPDEST POP PUSH1 0x40 DUP1 MLOAD PUSH1 0xA0 DUP2 ADD DUP3 MSTORE PUSH1 0x1 PUSH1 0x1 PUSH1 0xA0 SHL SUB SWAP3 DUP4 AND DUP1 DUP3 MSTORE PUSH1 0x0 PUSH1 0x20 DUP1 DUP5 ADD DUP3 DUP2 MSTORE DUP5 DUP7 ADD SWAP8 DUP9 MSTORE TIMESTAMP PUSH8 0xFFFFFFFFFFFFFFFF AND PUSH1 0x60 DUP7 ADD SWAP1 DUP2 MSTORE PUSH1 0x1 PUSH1 0x80 DUP8 ADD DUP2 DUP2 MSTORE SWAP6 DUP6 MSTORE PUSH1 0x2 SWAP4 DUP5 SWAP1 MSTORE SWAP7 SWAP1 SWAP4 KECCAK256 SWAP5 MLOAD DUP6 SLOAD PUSH1 0x1 PUSH1 0x1 PUSH1 0xA0 SHL SUB NOT AND SWAP8 AND SWAP7 SWAP1 SWAP7 OR DUP5 SSTORE SWAP5 MLOAD SWAP4 DUP4 ADD SWAP4 SWAP1 SWAP4 SSTORE SWAP4 MLOAD SWAP3 DUP2 ADD SWAP3 SWAP1 SWAP3 SSTORE MLOAD PUSH1 0x3 DUP3 ADD SSTORE SWAP1 MLOAD PUSH1 0x4 SWAP1 SWAP2 ADD DUP1 SLOAD PUSH1 0xFF NOT AND SWAP2 ISZERO ISZERO SWAP2 SWAP1 SWAP2 OR SWAP1 SSTORE JUMP JUMPDEST PUSH1 0x0 SLOAD PUSH1 0x1 PUSH1 0x1 PUSH1 0xA0 SHL SUB AND CALLER EQ PUSH2 0x741 JUMPI PUSH1 0x40 MLOAD PUSH3 0x461BCD PUSH1 0xE5 SHL DUP2 MSTORE PUSH1 0x20 PUSH1 0x4 DUP3 ADD DUP2 SWAP1 MSTORE PUSH1 0x24 DUP3 ADD MSTORE PUSH32 0x4F776E61626C653A2063616C6C6572206973206E6F7420746865206F776E6572 PUSH1 0x44 DUP3 ADD MSTORE PUSH1 0x64 ADD PUSH2 0x284 JUMP JUMPDEST PUSH1 0x1 PUSH1 0x1 PUSH1 0xA0 SHL SUB DUP2 AND PUSH2 0x7A6 JUMPI PUSH1 0x40 MLOAD PUSH3 0x461BCD PUSH1 0xE5 SHL DUP2 MSTORE PUSH1 0x20 PUSH1 0x4 DUP3 ADD MSTORE PUSH1 0x26 PUSH1 0x24 DUP3 ADD MSTORE PUSH32 0x4F776E61626C653A206E6577206F776E657220697320746865207A65726F2061 PUSH1 0x44 DUP3 ADD MSTORE PUSH6 0x646472657373 PUSH1 0xD0 SHL PUSH1 0x64 DUP3 ADD MSTORE PUSH1 0x84 ADD PUSH2 0x284 JUMP JUMPDEST PUSH2 0x7AF DUP2 PUSH2 0x9F1 JUMP JUMPDEST POP JUMP JUMPDEST CALLER PUSH1 0x0 SWAP1 DUP2 MSTORE PUSH1 0x2 PUSH1 0x20 DUP2 SWAP1 MSTORE PUSH1 0x40 DUP3 KECCAK256 SWAP1 DUP2 ADD SLOAD PUSH1 0x1 SWAP1 SWAP2 ADD SLOAD LT PUSH2 0x81A JUMPI PUSH1 0x40 MLOAD PUSH3 0x461BCD PUSH1 0xE5 SHL DUP2 MSTORE PUSH1 0x20 PUSH1 0x4 DUP3 ADD MSTORE PUSH1 0x1C PUSH1 0x24 DUP3 ADD MSTORE PUSH32 0x416C6C20746F6B656E732068617665206265656E20636C61696D656400000000 PUSH1 0x44 DUP3 ADD MSTORE PUSH1 0x64 ADD PUSH2 0x284 JUMP JUMPDEST CALLER PUSH1 0x0 SWAP1 DUP2 MSTORE PUSH1 0x2 PUSH1 0x20 DUP2 SWAP1 MSTORE PUSH1 0x40 DUP3 KECCAK256 ADD SLOAD TIMESTAMP SWAP2 SWAP1 DUP2 SWAP1 PUSH1 0x1 JUMPDEST PUSH1 0x8 SLOAD DUP2 GT PUSH2 0x9C7 JUMPI PUSH2 0x84B DUP2 PUSH3 0x278D00 PUSH2 0x1056 JUMP JUMPDEST CALLER PUSH1 0x0 SWAP1 DUP2 MSTORE PUSH1 0x2 PUSH1 0x20 MSTORE PUSH1 0x40 SWAP1 KECCAK256 PUSH1 0x3 ADD SLOAD PUSH2 0x868 SWAP2 SWAP1 PUSH2 0x1021 JUMP JUMPDEST DUP6 GT ISZERO PUSH2 0x90A JUMPI PUSH2 0x87A PUSH1 0x1 DUP3 PUSH2 0x1075 JUMP JUMPDEST PUSH2 0x887 SWAP1 PUSH3 0x278D00 PUSH2 0x1056 JUMP JUMPDEST PUSH2 0x894 DUP3 PUSH3 0x278D00 PUSH2 0x1056 JUMP JUMPDEST PUSH2 0x89E SWAP2 SWAP1 PUSH2 0x1075 JUMP JUMPDEST SWAP3 POP DUP3 PUSH3 0x278D00 PUSH2 0x2710 PUSH1 0x8 PUSH2 0x8B5 PUSH1 0x1 DUP7 PUSH2 0x1075 JUMP JUMPDEST DUP2 SLOAD DUP2 LT PUSH2 0x8C5 JUMPI PUSH2 0x8C5 PUSH2 0x108C JUMP JUMPDEST SWAP1 PUSH1 0x0 MSTORE PUSH1 0x20 PUSH1 0x0 KECCAK256 ADD SLOAD DUP6 PUSH2 0x8DB SWAP2 SWAP1 PUSH2 0x1056 JUMP JUMPDEST PUSH2 0x8E5 SWAP2 SWAP1 PUSH2 0x10A2 JUMP JUMPDEST PUSH2 0x8EF SWAP2 SWAP1 PUSH2 0x10A2 JUMP JUMPDEST PUSH2 0x8F9 SWAP2 SWAP1 PUSH2 0x1056 JUMP JUMPDEST PUSH2 0x903 SWAP1 DUP6 PUSH2 0x1021 JUMP JUMPDEST SWAP4 POP PUSH2 0x9B5 JUMP JUMPDEST CALLER PUSH1 0x0 SWAP1 DUP2 MSTORE PUSH1 0x2 PUSH1 0x20 MSTORE PUSH1 0x40 SWAP1 KECCAK256 PUSH1 0x3 ADD SLOAD PUSH2 0x928 PUSH1 0x1 DUP4 PUSH2 0x1075 JUMP JUMPDEST PUSH2 0x935 SWAP1 PUSH3 0x278D00 PUSH2 0x1056 JUMP JUMPDEST PUSH2 0x93F SWAP1 DUP8 PUSH2 0x1075 JUMP JUMPDEST PUSH2 0x949 SWAP2 SWAP1 PUSH2 0x1075 JUMP JUMPDEST SWAP3 POP DUP3 PUSH3 0x278D00 PUSH2 0x2710 PUSH1 0x8 PUSH2 0x960 PUSH1 0x1 DUP7 PUSH2 0x1075 JUMP JUMPDEST DUP2 SLOAD DUP2 LT PUSH2 0x970 JUMPI PUSH2 0x970 PUSH2 0x108C JUMP JUMPDEST SWAP1 PUSH1 0x0 MSTORE PUSH1 0x20 PUSH1 0x0 KECCAK256 ADD SLOAD DUP6 PUSH2 0x986 SWAP2 SWAP1 PUSH2 0x1056 JUMP JUMPDEST PUSH2 0x990 SWAP2 SWAP1 PUSH2 0x10A2 JUMP JUMPDEST PUSH2 0x99A SWAP2 SWAP1 PUSH2 0x10A2 JUMP JUMPDEST PUSH2 0x9A4 SWAP2 SWAP1 PUSH2 0x1056 JUMP JUMPDEST PUSH2 0x9AE SWAP1 DUP6 PUSH2 0x1021 JUMP JUMPDEST SWAP4 POP PUSH2 0x9C7 JUMP JUMPDEST DUP1 PUSH2 0x9BF DUP2 PUSH2 0x10C4 JUMP JUMPDEST SWAP2 POP POP PUSH2 0x835 JUMP JUMPDEST POP CALLER PUSH1 0x0 SWAP1 DUP2 MSTORE PUSH1 0x2 PUSH1 0x20 MSTORE PUSH1 0x40 DUP2 KECCAK256 PUSH1 0x1 ADD SLOAD SWAP1 PUSH2 0x9E6 DUP3 DUP7 PUSH2 0x1075 JUMP JUMPDEST SWAP8 SWAP7 POP POP POP POP POP POP POP JUMP JUMPDEST PUSH1 0x0 DUP1 SLOAD PUSH1 0x1 PUSH1 0x1 PUSH1 0xA0 SHL SUB DUP4 DUP2 AND PUSH1 0x1 PUSH1 0x1 PUSH1 0xA0 SHL SUB NOT DUP4 AND DUP2 OR DUP5 SSTORE PUSH1 0x40 MLOAD SWAP2 SWAP1 SWAP3 AND SWAP3 DUP4 SWAP2 PUSH32 0x8BE0079C531659141344CD1FD0A4F28419497F9722A3DAAFE3B4186F6B6457E0 SWAP2 SWAP1 LOG3 POP POP JUMP JUMPDEST CALLER PUSH1 0x0 SWAP1 DUP2 MSTORE PUSH1 0x2 PUSH1 0x20 DUP2 SWAP1 MSTORE PUSH1 0x40 DUP3 KECCAK256 SWAP1 DUP2 ADD SLOAD PUSH1 0x1 SWAP1 SWAP2 ADD SLOAD LT PUSH2 0xAA9 JUMPI PUSH1 0x40 MLOAD PUSH3 0x461BCD PUSH1 0xE5 SHL DUP2 MSTORE PUSH1 0x20 PUSH1 0x4 DUP3 ADD MSTORE PUSH1 0x1C PUSH1 0x24 DUP3 ADD MSTORE PUSH32 0x416C6C20746F6B656E732068617665206265656E20636C61696D656400000000 PUSH1 0x44 DUP3 ADD MSTORE PUSH1 0x64 ADD PUSH2 0x284 JUMP JUMPDEST CALLER PUSH1 0x0 SWAP1 DUP2 MSTORE PUSH1 0x2 PUSH1 0x20 DUP2 SWAP1 MSTORE PUSH1 0x40 DUP3 KECCAK256 ADD SLOAD DUP4 SWAP2 SWAP1 DUP2 SWAP1 PUSH1 0x1 JUMPDEST PUSH1 0x8 SLOAD DUP2 GT PUSH2 0xC56 JUMPI PUSH2 0xADA DUP2 PUSH3 0x278D00 PUSH2 0x1056 JUMP JUMPDEST CALLER PUSH1 0x0 SWAP1 DUP2 MSTORE PUSH1 0x2 PUSH1 0x20 MSTORE PUSH1 0x40 SWAP1 KECCAK256 PUSH1 0x3 ADD SLOAD PUSH2 0xAF7 SWAP2 SWAP1 PUSH2 0x1021 JUMP JUMPDEST DUP6 GT ISZERO PUSH2 0xB99 JUMPI PUSH2 0xB09 PUSH1 0x1 DUP3 PUSH2 0x1075 JUMP JUMPDEST PUSH2 0xB16 SWAP1 PUSH3 0x278D00 PUSH2 0x1056 JUMP JUMPDEST PUSH2 0xB23 DUP3 PUSH3 0x278D00 PUSH2 0x1056 JUMP JUMPDEST PUSH2 0xB2D SWAP2 SWAP1 PUSH2 0x1075 JUMP JUMPDEST SWAP3 POP DUP3 PUSH3 0x278D00 PUSH2 0x2710 PUSH1 0x8 PUSH2 0xB44 PUSH1 0x1 DUP7 PUSH2 0x1075 JUMP JUMPDEST DUP2 SLOAD DUP2 LT PUSH2 0xB54 JUMPI PUSH2 0xB54 PUSH2 0x108C JUMP JUMPDEST SWAP1 PUSH1 0x0 MSTORE PUSH1 0x20 PUSH1 0x0 KECCAK256 ADD SLOAD DUP6 PUSH2 0xB6A SWAP2 SWAP1 PUSH2 0x1056 JUMP JUMPDEST PUSH2 0xB74 SWAP2 SWAP1 PUSH2 0x10A2 JUMP JUMPDEST PUSH2 0xB7E SWAP2 SWAP1 PUSH2 0x10A2 JUMP JUMPDEST PUSH2 0xB88 SWAP2 SWAP1 PUSH2 0x1056 JUMP JUMPDEST PUSH2 0xB92 SWAP1 DUP6 PUSH2 0x1021 JUMP JUMPDEST SWAP4 POP PUSH2 0xC44 JUMP JUMPDEST CALLER PUSH1 0x0 SWAP1 DUP2 MSTORE PUSH1 0x2 PUSH1 0x20 MSTORE PUSH1 0x40 SWAP1 KECCAK256 PUSH1 0x3 ADD SLOAD PUSH2 0xBB7 PUSH1 0x1 DUP4 PUSH2 0x1075 JUMP JUMPDEST PUSH2 0xBC4 SWAP1 PUSH3 0x278D00 PUSH2 0x1056 JUMP JUMPDEST PUSH2 0xBCE SWAP1 DUP8 PUSH2 0x1075 JUMP JUMPDEST PUSH2 0xBD8 SWAP2 SWAP1 PUSH2 0x1075 JUMP JUMPDEST SWAP3 POP DUP3 PUSH3 0x278D00 PUSH2 0x2710 PUSH1 0x8 PUSH2 0xBEF PUSH1 0x1 DUP7 PUSH2 0x1075 JUMP JUMPDEST DUP2 SLOAD DUP2 LT PUSH2 0xBFF JUMPI PUSH2 0xBFF PUSH2 0x108C JUMP JUMPDEST SWAP1 PUSH1 0x0 MSTORE PUSH1 0x20 PUSH1 0x0 KECCAK256 ADD SLOAD DUP6 PUSH2 0xC15 SWAP2 SWAP1 PUSH2 0x1056 JUMP JUMPDEST PUSH2 0xC1F SWAP2 SWAP1 PUSH2 0x10A2 JUMP JUMPDEST PUSH2 0xC29 SWAP2 SWAP1 PUSH2 0x10A2 JUMP JUMPDEST PUSH2 0xC33 SWAP2 SWAP1 PUSH2 0x1056 JUMP JUMPDEST PUSH2 0xC3D SWAP1 DUP6 PUSH2 0x1021 JUMP JUMPDEST SWAP4 POP PUSH2 0xC56 JUMP JUMPDEST DUP1 PUSH2 0xC4E DUP2 PUSH2 0x10C4 JUMP JUMPDEST SWAP2 POP POP PUSH2 0xAC4 JUMP JUMPDEST POP PUSH1 0x1 PUSH1 0x1 PUSH1 0xA0 SHL SUB DUP8 AND PUSH1 0x0 SWAP1 DUP2 MSTORE PUSH1 0x2 PUSH1 0x20 MSTORE PUSH1 0x40 DUP2 KECCAK256 PUSH1 0x1 ADD SLOAD SWAP1 PUSH2 0xC7E DUP3 DUP7 PUSH2 0x1075 JUMP JUMPDEST PUSH1 0x1 PUSH1 0x1 PUSH1 0xA0 SHL SUB DUP11 AND PUSH1 0x0 SWAP1 DUP2 MSTORE PUSH1 0x2 PUSH1 0x20 MSTORE PUSH1 0x40 SWAP1 KECCAK256 PUSH1 0x1 ADD SLOAD SWAP1 SWAP2 POP PUSH2 0xCA8 SWAP1 DUP3 SWAP1 PUSH2 0x1021 JUMP JUMPDEST PUSH1 0x1 PUSH1 0x1 PUSH1 0xA0 SHL SUB DUP11 AND PUSH1 0x0 SWAP1 DUP2 MSTORE PUSH1 0x2 PUSH1 0x20 MSTORE PUSH1 0x40 SWAP1 KECCAK256 PUSH1 0x1 ADD SSTORE SWAP6 POP POP POP POP POP POP SWAP3 SWAP2 POP POP JUMP JUMPDEST PUSH1 0x40 DUP1 MLOAD PUSH1 0x1 PUSH1 0x1 PUSH1 0xA0 SHL SUB DUP5 AND PUSH1 0x24 DUP3 ADD MSTORE PUSH1 0x44 DUP1 DUP3 ADD DUP5 SWAP1 MSTORE DUP3 MLOAD DUP1 DUP4 SUB SWAP1 SWAP2 ADD DUP2 MSTORE PUSH1 0x64 SWAP1 SWAP2 ADD SWAP1 SWAP2 MSTORE PUSH1 0x20 DUP2 ADD DUP1 MLOAD PUSH1 0x1 PUSH1 0x1 PUSH1 0xE0 SHL SUB AND PUSH4 0xA9059CBB PUSH1 0xE0 SHL OR SWAP1 MSTORE PUSH2 0xD23 SWAP1 DUP5 SWAP1 PUSH2 0xD28 JUMP JUMPDEST POP POP POP JUMP JUMPDEST PUSH1 0x0 PUSH2 0xD7D DUP3 PUSH1 0x40 MLOAD DUP1 PUSH1 0x40 ADD PUSH1 0x40 MSTORE DUP1 PUSH1 0x20 DUP2 MSTORE PUSH1 0x20 ADD PUSH32 0x5361666545524332303A206C6F772D6C6576656C2063616C6C206661696C6564 DUP2 MSTORE POP DUP6 PUSH1 0x1 PUSH1 0x1 PUSH1 0xA0 SHL SUB AND PUSH2 0xDFA SWAP1 SWAP3 SWAP2 SWAP1 PUSH4 0xFFFFFFFF AND JUMP JUMPDEST DUP1 MLOAD SWAP1 SWAP2 POP ISZERO PUSH2 0xD23 JUMPI DUP1 DUP1 PUSH1 0x20 ADD SWAP1 MLOAD DUP2 ADD SWAP1 PUSH2 0xD9B SWAP2 SWAP1 PUSH2 0x1039 JUMP JUMPDEST PUSH2 0xD23 JUMPI PUSH1 0x40 MLOAD PUSH3 0x461BCD PUSH1 0xE5 SHL DUP2 MSTORE PUSH1 0x20 PUSH1 0x4 DUP3 ADD MSTORE PUSH1 0x2A PUSH1 0x24 DUP3 ADD MSTORE PUSH32 0x5361666545524332303A204552433230206F7065726174696F6E20646964206E PUSH1 0x44 DUP3 ADD MSTORE PUSH10 0x1BDD081CDD58D8D95959 PUSH1 0xB2 SHL PUSH1 0x64 DUP3 ADD MSTORE PUSH1 0x84 ADD PUSH2 0x284 JUMP JUMPDEST PUSH1 0x60 PUSH2 0xE09 DUP5 DUP5 PUSH1 0x0 DUP6 PUSH2 0xE13 JUMP JUMPDEST SWAP1 POP JUMPDEST SWAP4 SWAP3 POP POP POP JUMP JUMPDEST PUSH1 0x60 DUP3 SELFBALANCE LT ISZERO PUSH2 0xE74 JUMPI PUSH1 0x40 MLOAD PUSH3 0x461BCD PUSH1 0xE5 SHL DUP2 MSTORE PUSH1 0x20 PUSH1 0x4 DUP3 ADD MSTORE PUSH1 0x26 PUSH1 0x24 DUP3 ADD MSTORE PUSH32 0x416464726573733A20696E73756666696369656E742062616C616E636520666F PUSH1 0x44 DUP3 ADD MSTORE PUSH6 0x1C8818D85B1B PUSH1 0xD2 SHL PUSH1 0x64 DUP3 ADD MSTORE PUSH1 0x84 ADD PUSH2 0x284 JUMP JUMPDEST PUSH1 0x1 PUSH1 0x1 PUSH1 0xA0 SHL SUB DUP6 AND EXTCODESIZE PUSH2 0xECB JUMPI PUSH1 0x40 MLOAD PUSH3 0x461BCD PUSH1 0xE5 SHL DUP2 MSTORE PUSH1 0x20 PUSH1 0x4 DUP3 ADD MSTORE PUSH1 0x1D PUSH1 0x24 DUP3 ADD MSTORE PUSH32 0x416464726573733A2063616C6C20746F206E6F6E2D636F6E7472616374000000 PUSH1 0x44 DUP3 ADD MSTORE PUSH1 0x64 ADD PUSH2 0x284 JUMP JUMPDEST PUSH1 0x0 DUP1 DUP7 PUSH1 0x1 PUSH1 0x1 PUSH1 0xA0 SHL SUB AND DUP6 DUP8 PUSH1 0x40 MLOAD PUSH2 0xEE7 SWAP2 SWAP1 PUSH2 0x110D JUMP JUMPDEST PUSH1 0x0 PUSH1 0x40 MLOAD DUP1 DUP4 SUB DUP2 DUP6 DUP8 GAS CALL SWAP3 POP POP POP RETURNDATASIZE DUP1 PUSH1 0x0 DUP2 EQ PUSH2 0xF24 JUMPI PUSH1 0x40 MLOAD SWAP2 POP PUSH1 0x1F NOT PUSH1 0x3F RETURNDATASIZE ADD AND DUP3 ADD PUSH1 0x40 MSTORE RETURNDATASIZE DUP3 MSTORE RETURNDATASIZE PUSH1 0x0 PUSH1 0x20 DUP5 ADD RETURNDATACOPY PUSH2 0xF29 JUMP JUMPDEST PUSH1 0x60 SWAP2 POP JUMPDEST POP SWAP2 POP SWAP2 POP PUSH2 0x9E6 DUP3 DUP3 DUP7 PUSH1 0x60 DUP4 ISZERO PUSH2 0xF43 JUMPI POP DUP2 PUSH2 0xE0C JUMP JUMPDEST DUP3 MLOAD ISZERO PUSH2 0xF53 JUMPI DUP3 MLOAD DUP1 DUP5 PUSH1 0x20 ADD REVERT JUMPDEST DUP2 PUSH1 0x40 MLOAD PUSH3 0x461BCD PUSH1 0xE5 SHL DUP2 MSTORE PUSH1 0x4 ADD PUSH2 0x284 SWAP2 SWAP1 PUSH2 0x1129 JUMP JUMPDEST DUP1 CALLDATALOAD PUSH1 0x1 PUSH1 0x1 PUSH1 0xA0 SHL SUB DUP2 AND DUP2 EQ PUSH2 0xF84 JUMPI PUSH1 0x0 DUP1 REVERT JUMPDEST SWAP2 SWAP1 POP JUMP JUMPDEST PUSH1 0x0 PUSH1 0x20 DUP3 DUP5 SUB SLT ISZERO PUSH2 0xF9B JUMPI PUSH1 0x0 DUP1 REVERT JUMPDEST PUSH2 0xE0C DUP3 PUSH2 0xF6D JUMP JUMPDEST DUP1 ISZERO ISZERO DUP2 EQ PUSH2 0x7AF JUMPI PUSH1 0x0 DUP1 REVERT JUMPDEST PUSH1 0x0 DUP1 PUSH1 0x0 PUSH1 0x60 DUP5 DUP7 SUB SLT ISZERO PUSH2 0xFC7 JUMPI PUSH1 0x0 DUP1 REVERT JUMPDEST DUP4 CALLDATALOAD SWAP3 POP PUSH2 0xFD7 PUSH1 0x20 DUP6 ADD PUSH2 0xF6D JUMP JUMPDEST SWAP2 POP PUSH1 0x40 DUP5 ADD CALLDATALOAD PUSH2 0xFE7 DUP2 PUSH2 0xFA4 JUMP JUMPDEST DUP1 SWAP2 POP POP SWAP3 POP SWAP3 POP SWAP3 JUMP JUMPDEST PUSH1 0x0 PUSH1 0x20 DUP3 DUP5 SUB SLT ISZERO PUSH2 0x1004 JUMPI PUSH1 0x0 DUP1 REVERT JUMPDEST POP MLOAD SWAP2 SWAP1 POP JUMP JUMPDEST PUSH4 0x4E487B71 PUSH1 0xE0 SHL PUSH1 0x0 MSTORE PUSH1 0x11 PUSH1 0x4 MSTORE PUSH1 0x24 PUSH1 0x0 REVERT JUMPDEST PUSH1 0x0 DUP3 NOT DUP3 GT ISZERO PUSH2 0x1034 JUMPI PUSH2 0x1034 PUSH2 0x100B JUMP JUMPDEST POP ADD SWAP1 JUMP JUMPDEST PUSH1 0x0 PUSH1 0x20 DUP3 DUP5 SUB SLT ISZERO PUSH2 0x104B JUMPI PUSH1 0x0 DUP1 REVERT JUMPDEST DUP2 MLOAD PUSH2 0xE0C DUP2 PUSH2 0xFA4 JUMP JUMPDEST PUSH1 0x0 DUP2 PUSH1 0x0 NOT DIV DUP4 GT DUP3 ISZERO ISZERO AND ISZERO PUSH2 0x1070 JUMPI PUSH2 0x1070 PUSH2 0x100B JUMP JUMPDEST POP MUL SWAP1 JUMP JUMPDEST PUSH1 0x0 DUP3 DUP3 LT ISZERO PUSH2 0x1087 JUMPI PUSH2 0x1087 PUSH2 0x100B JUMP JUMPDEST POP SUB SWAP1 JUMP JUMPDEST PUSH4 0x4E487B71 PUSH1 0xE0 SHL PUSH1 0x0 MSTORE PUSH1 0x32 PUSH1 0x4 MSTORE PUSH1 0x24 PUSH1 0x0 REVERT JUMPDEST PUSH1 0x0 DUP3 PUSH2 0x10BF JUMPI PUSH4 0x4E487B71 PUSH1 0xE0 SHL PUSH1 0x0 MSTORE PUSH1 0x12 PUSH1 0x4 MSTORE PUSH1 0x24 PUSH1 0x0 REVERT JUMPDEST POP DIV SWAP1 JUMP JUMPDEST PUSH1 0x0 PUSH1 0x1 DUP3 ADD PUSH2 0x10D6 JUMPI PUSH2 0x10D6 PUSH2 0x100B JUMP JUMPDEST POP PUSH1 0x1 ADD SWAP1 JUMP JUMPDEST PUSH1 0x0 JUMPDEST DUP4 DUP2 LT ISZERO PUSH2 0x10F8 JUMPI DUP2 DUP2 ADD MLOAD DUP4 DUP3 ADD MSTORE PUSH1 0x20 ADD PUSH2 0x10E0 JUMP JUMPDEST DUP4 DUP2 GT ISZERO PUSH2 0x1107 JUMPI PUSH1 0x0 DUP5 DUP5 ADD MSTORE JUMPDEST POP POP POP POP JUMP JUMPDEST PUSH1 0x0 DUP3 MLOAD PUSH2 0x111F DUP2 DUP5 PUSH1 0x20 DUP8 ADD PUSH2 0x10DD JUMP JUMPDEST SWAP2 SWAP1 SWAP2 ADD SWAP3 SWAP2 POP POP JUMP JUMPDEST PUSH1 0x20 DUP2 MSTORE PUSH1 0x0 DUP3 MLOAD DUP1 PUSH1 0x20 DUP5 ADD MSTORE PUSH2 0x1148 DUP2 PUSH1 0x40 DUP6 ADD PUSH1 0x20 DUP8 ADD PUSH2 0x10DD JUMP JUMPDEST PUSH1 0x1F ADD PUSH1 0x1F NOT AND SWAP2 SWAP1 SWAP2 ADD PUSH1 0x40 ADD SWAP3 SWAP2 POP POP JUMP INVALID LOG2 PUSH5 0x6970667358 0x22 SLT KECCAK256 CALLVALUE NUMBER PC CREATE2 0xB2 DUP6 PUSH21 0x899A39D737FD1C175735C9997A2866D38405E83E79 0xC6 0xB1 0xFC SLT PUSH5 0x736F6C6343 STOP ADDMOD 0xF STOP CALLER ",
  "sha1": "12d9e563927a93adf253cc49213e13f88f8d9df8",
  "source": "// SPDX-License-Identifier: MIT\n// OpenZeppelin Contracts (last updated v4.7.0) (finance/LockContract.sol)\npragma solidity ^0.8.0;\n\nimport \"@openzeppelin/contracts/token/ERC20/utils/SafeERC20.sol\";\nimport \"@openzeppelin/contracts/utils/Address.sol\";\nimport \"@openzeppelin/contracts/utils/Context.sol\";\nimport \"@openzeppelin/contracts/utils/math/Math.sol\";\nimport \"@openzeppelin/contracts/access/Ownable.sol\";\n\n/**\n * @title LockContract\n * @dev This contract handles the vesting of a ERC20 tokens for a given beneficiary. Custody of the _token amount\n * can be given to this contract, which will release the _token to the beneficiary following a given schedule.\n * The vesting schedule is established by a key->value pair in the form of _duration->_amounts. This two arrays\n * have the same length and are iterated by the _milestone variable\n */\ncontract LockContract is Context, Ownable  {\n\n    //Token\n    IERC20 public legacy_token;\n\n    //Events\n    event ERC20Released(address indexed _token, uint256 amount);\n\n    //Mappings\n    mapping(address => Investor) public walletToInvestor;\n\n    //Structs\n    struct Investor {\n        address investor_address;// probably can take it out\n\n        uint256 tokens_received;// amount of tokens the Investor has received\n\n        uint256 tokens_promised;// amount of tokens the Investor is owed\n\n        uint256 lock_start;// saves the date of the initial locking of the contract\n\n        bool under250k_investor;// if true than it is an investor between 50k-250k, if false it is 250k+\n    }\n\n    //Variables\n    address[] investor_address;// array with all the investor aaddresses\n    address[] addresses_O50I;\n    address[] addresses_O250I;\n    uint256[] tokens_O50I;\n    uint256[] tokens_O250I;\n    uint256[] percent_per_milestone;//percentages per month that will be released (in basis points)\n    uint256 initLock;// initial lock period \n    uint256 erc20Released;// total amount of released tokens\n    uint256 numMilestones;// number of milestones (number of payments for each Investor)\n    uint256 num_O50I;// number of under 50k token vested investors\n    uint256 num_O250I;// number of over 50k token vested investors\n    uint256 totalTokens_O50I;// total tokens promised to investors with 50k-250k tokens vested\n    uint256 totalTokens_O250I;// total tokens promised to investors with more than 250k tokens vested\n    address tokenAddress;// token address\n    bool internal locked;   // boolean to prevent reentrancy\n\n    //Functions\n    /**\n     * @dev Set the beneficiary, start timestamp and locking durations and amounts.\n     */\n    constructor(\n        address[] memory _addresses_O50I,\n        address[] memory _addresses_O250I,\n        uint256[] memory _tokens_O50I,\n        uint256[] memory _tokens_O250I,\n        uint256[] memory _percent_per_milestone,\n        uint256 _tokens_O50ITotal,// sum all the tokens for the investors with with 50k-250k tokens vested\n        uint256 _tokens_O250ITotal,// ... more than 250k tokens\n        address _tokenAddress\n    ) {\n\n        initLock = block.timestamp;\n\n        // percentage of tokens an investor can withdraw at each milestone\n        percent_per_milestone = _percent_per_milestone;\n\n        // number of investors with...\n        num_O50I = _addresses_O50I.length;// with 50k-250k tokens vested\n        num_O250I = _addresses_O250I.length;// more than 250k tokens vested\n\n        // array of addresses of investors with ...\n        addresses_O50I= _addresses_O50I;// with 50k-250k tokens vested\n        addresses_O250I= _addresses_O250I;// more than 250k tokens vested\n\n        // array of tokens promised to investors with ...\n        tokens_O50I = _tokens_O50I;// with 50k-250k tokens vested\n        tokens_O250I = _tokens_O250I;// more than 250k tokens vested\n\n        // total tokens promised to investors with ...\n        totalTokens_O50I = _tokens_O50ITotal;// with 50k-250k tokens vested\n        totalTokens_O250I = _tokens_O250ITotal;// more than 250k tokens vested\n\n        // create an Investor struct for each investor with less than 50k tokens\n        for (uint i=0; i<num_O50I; i++){\n\n            // Investor address can't be the zero address\n            require(addresses_O50I[i] != address(0),\n                     \"Constructor: locked Investor address is zero address\");\n\n            // get the amount of tokens and the address correpsonding to this investor\n            address _investor_address = addresses_O50I[i];\n            uint256 _investor_tokens = tokens_O50I[i];\n           \n            // create the new Investor struct\n            Investor memory investor = Investor(_investor_address, \n                                                0, \n                                                _investor_tokens, \n                                                block.timestamp, \n                                                true);\n\n            // map the new Investor address to its struct\n            walletToInvestor[_investor_address]=investor;\n\n        }\n\n        // create an Investor struct for each investor with more than 250k tokens\n        for (uint i=0; i<num_O250I; i++){\n\n            // Investor address can't be the zero address\n            require(addresses_O250I[i] != address(0),\n                     \"Constructor: locked Investor address is zero address\");\n\n            // get the amount of tokens and the address correpsonding to this investor\n            address _investor_address = addresses_O250I[i];\n            uint256 _investor_tokens = tokens_O250I[i];\n           \n            // create the new Investor struct\n            Investor memory investor = Investor(_investor_address, \n                                                0, \n                                                _investor_tokens, \n                                                block.timestamp, \n                                                false);\n\n            // map the new Investor address to its struct\n            walletToInvestor[_investor_address]=investor;\n\n        }\n\n        // establish token address\n        tokenAddress = _tokenAddress;\n\n        // establish the IERC20 for legacy token to contract interactions\n        legacy_token = IERC20(_tokenAddress);\n\n        // Initialize the reentrancy variable to not locked\n        locked = false;\n\n    }\n\n\n    // Modifier\n    /**\n     * @dev Prevents reentrancy\n     */\n    modifier noReentrant() {\n        require(!locked, \"No re-entrancy\");\n        locked = true;\n        _;\n        locked = false;\n    }\n\n    /**\n     * @dev Release the tokens \n     *\n     * Emits a {ERC20Released} event.\n     */\n    function release() public virtual noReentrant(){\n        uint256 releasable = can_release_percent(msg.sender, uint256(block.timestamp));\n        erc20Released += releasable;\n        emit ERC20Released(tokenAddress, releasable);\n        SafeERC20.safeTransfer(IERC20(tokenAddress), msg.sender, releasable);\n        walletToInvestor[msg.sender].tokens_received += releasable;\n    }\n\n\n    /**\n     * @dev Claculates and returns the amount of tokens that can be withdrawn, as function of milestones passed.\n     * Updates the investor struct with the amount of tokens he has withdrawn.\n     */\n    function can_release_percent(address _callerAddress, uint256 timestamp) internal virtual returns (uint256) {\n\n        // require that the investor has not already withdrawn everything\n        require(walletToInvestor[msg.sender].tokens_received < walletToInvestor[msg.sender].tokens_promised, \n                \"All tokens have been claimed\");\n        \n\n        uint256 _current_time =timestamp;\n\n        uint256 _can_release = 0;  //Sum them all up in a variable called **can_elease**\n        uint256 _second_in_bracket = 0;\n\n        uint _tokens_promised = walletToInvestor[msg.sender].tokens_promised;\n        \n        for(uint i = 1; i<= percent_per_milestone.length; i++){\n        \n            if(_current_time > (walletToInvestor[msg.sender].lock_start+2592000*i)){\n                //Check how much time has elapsed how may percentage brakctes/months \n                    //we have passed since the initLock\n                _second_in_bracket =2592000*i -2592000*(i-1);\n                \n                // For each bracket, claculate the the tokens to be released in that period  \n                _can_release = _can_release + \n                    _tokens_promised * \n                    percent_per_milestone[i-1]/10000/2592000 * _second_in_bracket;// remember the percent_per \n                                                                                // milestone are percents multiplied by 1000 \n                \n            }else{\n                //If the current time is in the middle of one of the months\n                _second_in_bracket = _current_time - 2592000*(i-1)-walletToInvestor[msg.sender].lock_start;\n                \n                _can_release = _can_release + \n                    _tokens_promised * \n                    percent_per_milestone[i-1]/10000/2592000 * _second_in_bracket;\n\n                break;\n            }\n        }\n\n\n        //Get the quatity of tokens he has already withdrawned,\n        uint256 _has_withdrawn = walletToInvestor[_callerAddress].tokens_received;\n\n        //Get the amount of tokens the investor can actually withdraw: \n        uint256 _able_to_release = _can_release - _has_withdrawn;\n\n        //Update \n        walletToInvestor[_callerAddress].tokens_received = walletToInvestor[_callerAddress].tokens_received \n                                                            + _able_to_release;\n        //return \n        return  _able_to_release;\n    }\n\n    /**\n     * @dev Adds a new Investor.\n     */\n    function new_Investor(uint256 _amount, address _newInvestor_address, bool _under250K) public {\n\n        //require that the owner has enough legacy tokens to satisfy the promised tokens for locking\n        require(legacy_token.balanceOf(_newInvestor_address)>= _amount, \n        \"You don't have enough Legacy tokens for the price requirement.\");\n\n        require(walletToInvestor[_newInvestor_address].tokens_promised== 0, \n        \"This address is already in the vesting contract.\");\n\n        // transfer the tokens to the contract\n        legacy_token.transferFrom(_newInvestor_address, address(this), _amount);\n\n        if(_under250K){\n            addresses_O50I.push(_newInvestor_address);\n            tokens_O50I.push(_amount);\n        }else{\n            addresses_O250I.push();\n            tokens_O250I.push(_amount);\n        }\n\n        // create the new Investor struc\n        Investor memory investor = Investor(_newInvestor_address, \n                                                0, \n                                                _amount, \n                                                uint64(block.timestamp),\n                                                true);\n        // push the new Investor structto the Investors arra\n        walletToInvestor[_newInvestor_address]=investor;  \n    }\n\n    /**\n     * @dev View function that an investor can use to see how many tokens he can withdraw\n     */\n    function view_can_release_percent() public view returns (uint256) {\n\n        // require that the investor has not already withdrawn everything\n        require(walletToInvestor[msg.sender].tokens_received < walletToInvestor[msg.sender].tokens_promised, \n                \"All tokens have been claimed\");\n        \n\n        uint256 _current_time = block.timestamp;\n\n        uint256 _can_release = 0;  //Sum them all up in a variable called **can_elease**\n        uint256 _second_in_bracket = 0;\n\n        uint _tokens_promised = walletToInvestor[msg.sender].tokens_promised;\n        \n        for(uint i = 1; i<= percent_per_milestone.length; i++){\n        \n            if(_current_time > (walletToInvestor[msg.sender].lock_start+2592000*i)){\n                //Check how much time has elapsed how may percentage brakctes/months \n                    //we have passed since the initLock\n                _second_in_bracket =2592000*i -2592000*(i-1);\n                \n                // For each bracket, claculate the the tokens to be released in that period  \n                _can_release = _can_release + \n                    _tokens_promised * \n                    percent_per_milestone[i-1]/10000/2592000 * _second_in_bracket;// remember the percent_per \n                                                                                // milestone are percents multiplied by 1000 \n                \n            }else{\n                //If the current time is in the middle of one of the months\n                _second_in_bracket = _current_time - 2592000*(i-1)-walletToInvestor[msg.sender].lock_start;\n                \n                _can_release = _can_release + \n                    _tokens_promised * \n                    percent_per_milestone[i-1]/10000/2592000 * _second_in_bracket;\n\n                break;\n            }\n        }\n\n\n        //Get the quatity of tokens he has already withdrawned,\n        uint256 _has_withdrawn = walletToInvestor[msg.sender].tokens_received;\n\n        //Get the amount of tokens the investor can actually withdraw: \n        uint256 _able_to_release = _can_release - _has_withdrawn;\n\n        //return \n        return  _able_to_release;\n    }\n\n    /**\n     * @dev View function to get contract balance\n     */\n    function contract_balance() public view returns (uint256) {\n        return legacy_token.balanceOf(address(this));\n    }\n\n    function get_initLock() public view returns(uint256){\n        return initLock;\n    }\n}",
  "sourcePath": "contracts/LockContract.sol",
  "type": "contract"
}