{
  "abi": [
    {
      "inputs": [
        {
          "internalType": "address[]",
          "name": "_addresses_O50I",
          "type": "address[]"
        },
        {
          "internalType": "address[]",
          "name": "_addresses_O250I",
          "type": "address[]"
        },
        {
          "internalType": "uint256[]",
          "name": "_tokens_O50I",
          "type": "uint256[]"
        },
        {
          "internalType": "uint256[]",
          "name": "_tokens_O250I",
          "type": "uint256[]"
        },
        {
          "internalType": "uint256[]",
          "name": "_percent_per_milestone",
          "type": "uint256[]"
        },
        {
          "internalType": "uint256",
          "name": "_timeLock_O250I",
          "type": "uint256"
        },
        {
          "internalType": "address",
          "name": "_tokenAddress",
          "type": "address"
        }
      ],
      "stateMutability": "nonpayable",
      "type": "constructor"
    },
    {
      "anonymous": false,
      "inputs": [
        {
          "indexed": true,
          "internalType": "address",
          "name": "_token",
          "type": "address"
        },
        {
          "indexed": false,
          "internalType": "uint256",
          "name": "amount",
          "type": "uint256"
        }
      ],
      "name": "ERC20Released",
      "type": "event"
    },
    {
      "anonymous": false,
      "inputs": [
        {
          "indexed": true,
          "internalType": "address",
          "name": "previousOwner",
          "type": "address"
        },
        {
          "indexed": true,
          "internalType": "address",
          "name": "newOwner",
          "type": "address"
        }
      ],
      "name": "OwnershipTransferred",
      "type": "event"
    },
    {
      "inputs": [
        {
          "internalType": "address",
          "name": "_callerAddress",
          "type": "address"
        }
      ],
      "name": "can_release_percent",
      "outputs": [
        {
          "internalType": "uint256",
          "name": "",
          "type": "uint256"
        }
      ],
      "stateMutability": "view",
      "type": "function"
    },
    {
      "inputs": [],
      "name": "legacy_token",
      "outputs": [
        {
          "internalType": "contract IERC20",
          "name": "",
          "type": "address"
        }
      ],
      "stateMutability": "view",
      "type": "function"
    },
    {
      "inputs": [
        {
          "internalType": "uint256",
          "name": "_amount",
          "type": "uint256"
        },
        {
          "internalType": "address",
          "name": "_newInvestor_address",
          "type": "address"
        },
        {
          "internalType": "uint256",
          "name": "_timeLock",
          "type": "uint256"
        }
      ],
      "name": "new_Investor",
      "outputs": [],
      "stateMutability": "nonpayable",
      "type": "function"
    },
    {
      "inputs": [],
      "name": "owner",
      "outputs": [
        {
          "internalType": "address",
          "name": "",
          "type": "address"
        }
      ],
      "stateMutability": "view",
      "type": "function"
    },
    {
      "inputs": [],
      "name": "release",
      "outputs": [],
      "stateMutability": "nonpayable",
      "type": "function"
    },
    {
      "inputs": [],
      "name": "renounceOwnership",
      "outputs": [],
      "stateMutability": "nonpayable",
      "type": "function"
    },
    {
      "inputs": [
        {
          "internalType": "address",
          "name": "newOwner",
          "type": "address"
        }
      ],
      "name": "transferOwnership",
      "outputs": [],
      "stateMutability": "nonpayable",
      "type": "function"
    },
    {
      "inputs": [
        {
          "internalType": "address",
          "name": "",
          "type": "address"
        }
      ],
      "name": "walletToInvestor",
      "outputs": [
        {
          "internalType": "uint256",
          "name": "tokens_received",
          "type": "uint256"
        },
        {
          "internalType": "uint256",
          "name": "tokens_promised",
          "type": "uint256"
        },
        {
          "internalType": "uint256",
          "name": "vesting_start",
          "type": "uint256"
        }
      ],
      "stateMutability": "view",
      "type": "function"
    }
  ],
  "bytecode": "60806040523480156200001157600080fd5b506040516200100e3803806200100e83398101604081905262000034916200042e565b6200003f336200020d565b8251620000549060049060208601906200025d565b508651865160005b82811015620001055760008a82815181106200007c576200007c6200052b565b6020026020010151905060008983815181106200009d576200009d6200052b565b602090810291909101810151604080516060810182526000808252818501938452428284019081526001600160a01b03909716815260029485905291909120905181559051600182015592519201919091555080620000fc8162000557565b9150506200005c565b5060005b81811015620001cb5760008982815181106200012957620001296200052b565b6020026020010151905060008883815181106200014a576200014a6200052b565b60200260200101519050600060405180606001604052806000815260200183815260200189426200017c919062000573565b90526001600160a01b0390931660009081526002602081815260409283902086518155908601516001820155919094015193019290925550819050620001c28162000557565b91505062000109565b505060098054600180546001600160a01b0319166001600160a01b0390951694851790556001600160a81b031916909217909155506200058f95505050505050565b600080546001600160a01b038381166001600160a01b0319831681178455604051919092169283917f8be0079c531659141344cd1fd0a4f28419497f9722a3daafe3b4186f6b6457e09190a35050565b8280548282559060005260206000209081019282156200029b579160200282015b828111156200029b5782518255916020019190600101906200027e565b50620002a9929150620002ad565b5090565b5b80821115620002a95760008155600101620002ae565b634e487b7160e01b600052604160045260246000fd5b604051601f8201601f191681016001600160401b0381118282101715620003055762000305620002c4565b604052919050565b60006001600160401b03821115620003295762000329620002c4565b5060051b60200190565b80516001600160a01b03811681146200034b57600080fd5b919050565b600082601f8301126200036257600080fd5b815160206200037b62000375836200030d565b620002da565b82815260059290921b840181019181810190868411156200039b57600080fd5b8286015b84811015620003c157620003b38162000333565b83529183019183016200039f565b509695505050505050565b600082601f830112620003de57600080fd5b81516020620003f162000375836200030d565b82815260059290921b840181019181810190868411156200041157600080fd5b8286015b84811015620003c1578051835291830191830162000415565b600080600080600080600060e0888a0312156200044a57600080fd5b87516001600160401b03808211156200046257600080fd5b620004708b838c0162000350565b985060208a01519150808211156200048757600080fd5b620004958b838c0162000350565b975060408a0151915080821115620004ac57600080fd5b620004ba8b838c01620003cc565b965060608a0151915080821115620004d157600080fd5b620004df8b838c01620003cc565b955060808a0151915080821115620004f657600080fd5b50620005058a828b01620003cc565b93505060a088015191506200051d60c0890162000333565b905092959891949750929550565b634e487b7160e01b600052603260045260246000fd5b634e487b7160e01b600052601160045260246000fd5b6000600182016200056c576200056c62000541565b5060010190565b8082018082111562000589576200058962000541565b92915050565b610a6f806200059f6000396000f3fe608060405234801561001057600080fd5b50600436106100885760003560e01c806392347b5e1161005b57806392347b5e146100ea578063a0f0a76614610133578063df12997914610146578063f2fde38b1461015957600080fd5b8063715018a61461008d578063785eaa611461009757806386d1a69f146100bd5780638da5cb5b146100c5575b600080fd5b61009561016c565b005b6100aa6100a53660046108e1565b6101ab565b6040519081526020015b60405180910390f35b6100956103f2565b6000546001600160a01b03165b6040516001600160a01b0390911681526020016100b4565b6101186100f83660046108e1565b600260208190526000918252604090912080546001820154919092015483565b604080519384526020840192909252908201526060016100b4565b610095610141366004610903565b610606565b6001546100d2906001600160a01b031681565b6100956101673660046108e1565b6107da565b6000546001600160a01b0316331461019f5760405162461bcd60e51b815260040161019690610938565b60405180910390fd5b6101a96000610875565b565b6001600160a01b0381166000908152600260205260408120805460019091015480821061021a5760405162461bcd60e51b815260206004820152601c60248201527f416c6c20746f6b656e732068617665206265656e20636c61696d6564000000006044820152606401610196565b6001600160a01b0384166000908152600260208190526040909120015442908082116102965760405162461bcd60e51b815260206004820152602560248201527f4669727374206d6f6e7468206f662076657374696e6720686173206e6f742070604482015264185cdcd95960da1b6064820152608401610196565b60008060015b60045481116103db576102b28162278d00610983565b6102bc90856109a0565b8511156103305762278d009150818061271060046102db6001866109b3565b815481106102eb576102eb6109c6565b9060005260206000200154896103019190610983565b61030b91906109dc565b61031591906109dc565b61031f9190610983565b61032990846109a0565b92506103c9565b8361033c6001836109b3565b6103499062278d00610983565b61035390876109b3565b61035d91906109b3565b91508162278d0061271060046103746001866109b3565b81548110610384576103846109c6565b90600052602060002001548961039a9190610983565b6103a491906109dc565b6103ae91906109dc565b6103b89190610983565b6103c290846109a0565b92506103db565b806103d3816109fe565b91505061029c565b506103e686836109b3565b98975050505050505050565b600954600160a01b900460ff161561043d5760405162461bcd60e51b815260206004820152600e60248201526d4e6f2072652d656e7472616e637960901b6044820152606401610196565b6009805460ff60a01b1916600160a01b1790553360009081526002602052604081206001015490036104a35760405162461bcd60e51b815260206004820152600f60248201526e2737ba1030b71034b73b32b9ba37b960891b6044820152606401610196565b60006104ae336101ab565b60015460405163a9059cbb60e01b8152336004820152602481018390529192506000916001600160a01b039091169063a9059cbb906044016020604051808303816000875af1158015610505573d6000803e3d6000fd5b505050506040513d601f19601f820116820180604052508101906105299190610a17565b9050806105785760405162461bcd60e51b815260206004820152601960248201527f4661696c656420746f2072656c6561736520746f6b656e732e000000000000006044820152606401610196565b816005600082825461058a91906109a0565b90915550506009546040518381526001600160a01b03909116907fc0e523490dd523c33b1878c9eb14ff46991e3f5b2cd33710918618f2a39cba1b9060200160405180910390a233600090815260026020526040812080548492906105f09084906109a0565b90915550506009805460ff60a01b191690555050565b6000546001600160a01b031633146106305760405162461bcd60e51b815260040161019690610938565b6001600160a01b038216600090815260026020526040902060010154156106b25760405162461bcd60e51b815260206004820152603060248201527f54686973206164647265737320697320616c726561647920696e20746865207660448201526f32b9ba34b7339031b7b73a3930b1ba1760811b6064820152608401610196565b60015460405163a9059cbb60e01b8152306004820152602481018590526000916001600160a01b03169063a9059cbb906044016020604051808303816000875af1158015610704573d6000803e3d6000fd5b505050506040513d601f19601f820116820180604052508101906107289190610a17565b9050806107775760405162461bcd60e51b815260206004820152601960248201527f4661696c656420746f206465706f73697420746f6b656e732e000000000000006044820152606401610196565b6000604051806060016040528060008152602001868152602001844261079d91906109a0565b90526001600160a01b0390941660009081526002602081815260409283902087518155908701516001820155919095015194019390935550505050565b6000546001600160a01b031633146108045760405162461bcd60e51b815260040161019690610938565b6001600160a01b0381166108695760405162461bcd60e51b815260206004820152602660248201527f4f776e61626c653a206e6577206f776e657220697320746865207a65726f206160448201526564647265737360d01b6064820152608401610196565b61087281610875565b50565b600080546001600160a01b038381166001600160a01b0319831681178455604051919092169283917f8be0079c531659141344cd1fd0a4f28419497f9722a3daafe3b4186f6b6457e09190a35050565b80356001600160a01b03811681146108dc57600080fd5b919050565b6000602082840312156108f357600080fd5b6108fc826108c5565b9392505050565b60008060006060848603121561091857600080fd5b83359250610928602085016108c5565b9150604084013590509250925092565b6020808252818101527f4f776e61626c653a2063616c6c6572206973206e6f7420746865206f776e6572604082015260600190565b634e487b7160e01b600052601160045260246000fd5b808202811582820484141761099a5761099a61096d565b92915050565b8082018082111561099a5761099a61096d565b8181038181111561099a5761099a61096d565b634e487b7160e01b600052603260045260246000fd5b6000826109f957634e487b7160e01b600052601260045260246000fd5b500490565b600060018201610a1057610a1061096d565b5060010190565b600060208284031215610a2957600080fd5b815180151581146108fc57600080fdfea2646970667358221220352719f444e75d852dd20051de89c0a407a1ae265346d2962442d08702c5b49d64736f6c63430008110033",
  "bytecodeSha1": "7e293e1a7aa9a8c2594aaf0b4b0370e23264bd89",
  "compiler": {
    "evm_version": "istanbul",
    "optimizer": {
      "enabled": true,
      "runs": 200
    },
    "version": "0.8.17+commit.8df45f5f"
  },
  "contractName": "VestingContract",
  "language": "Solidity",
  "natspec": {
    "details": "This contract handles the vesting of a ERC20 tokens for a given beneficiary. Custody of the _token amount can be given to this contract, which will release the _token to the beneficiary following a given schedule. The vesting schedule is established by an array of basis point. Each index of that array corresponds to a month after the vesting period starts (aka after the locking period is over)",
    "kind": "dev",
    "methods": {
      "can_release_percent(address)": {
        "details": "Calculates and returns the amount of tokens that can be withdrawn, as function of milestones passed."
      },
      "constructor": {
        "details": "Set the beneficiary, start timestamp and locking durations and amounts."
      },
      "new_Investor(uint256,address,uint256)": {
        "details": "Adds a new Investor."
      },
      "owner()": {
        "details": "Returns the address of the current owner."
      },
      "release()": {
        "details": "Release the tokens Emits a {ERC20Released} event."
      },
      "renounceOwnership()": {
        "details": "Leaves the contract without owner. It will not be possible to call `onlyOwner` functions anymore. Can only be called by the current owner. NOTE: Renouncing ownership will leave the contract without an owner, thereby removing any functionality that is only available to the owner."
      },
      "transferOwnership(address)": {
        "details": "Transfers ownership of the contract to a new account (`newOwner`). Can only be called by the current owner."
      }
    },
    "title": "LockContract",
    "version": 1
  },
  "opcodes": "PUSH1 0x80 PUSH1 0x40 MSTORE CALLVALUE DUP1 ISZERO PUSH2 0x10 JUMPI PUSH1 0x0 DUP1 REVERT JUMPDEST POP PUSH1 0x4 CALLDATASIZE LT PUSH2 0x88 JUMPI PUSH1 0x0 CALLDATALOAD PUSH1 0xE0 SHR DUP1 PUSH4 0x92347B5E GT PUSH2 0x5B JUMPI DUP1 PUSH4 0x92347B5E EQ PUSH2 0xEA JUMPI DUP1 PUSH4 0xA0F0A766 EQ PUSH2 0x133 JUMPI DUP1 PUSH4 0xDF129979 EQ PUSH2 0x146 JUMPI DUP1 PUSH4 0xF2FDE38B EQ PUSH2 0x159 JUMPI PUSH1 0x0 DUP1 REVERT JUMPDEST DUP1 PUSH4 0x715018A6 EQ PUSH2 0x8D JUMPI DUP1 PUSH4 0x785EAA61 EQ PUSH2 0x97 JUMPI DUP1 PUSH4 0x86D1A69F EQ PUSH2 0xBD JUMPI DUP1 PUSH4 0x8DA5CB5B EQ PUSH2 0xC5 JUMPI JUMPDEST PUSH1 0x0 DUP1 REVERT JUMPDEST PUSH2 0x95 PUSH2 0x16C JUMP JUMPDEST STOP JUMPDEST PUSH2 0xAA PUSH2 0xA5 CALLDATASIZE PUSH1 0x4 PUSH2 0x8E1 JUMP JUMPDEST PUSH2 0x1AB JUMP JUMPDEST PUSH1 0x40 MLOAD SWAP1 DUP2 MSTORE PUSH1 0x20 ADD JUMPDEST PUSH1 0x40 MLOAD DUP1 SWAP2 SUB SWAP1 RETURN JUMPDEST PUSH2 0x95 PUSH2 0x3F2 JUMP JUMPDEST PUSH1 0x0 SLOAD PUSH1 0x1 PUSH1 0x1 PUSH1 0xA0 SHL SUB AND JUMPDEST PUSH1 0x40 MLOAD PUSH1 0x1 PUSH1 0x1 PUSH1 0xA0 SHL SUB SWAP1 SWAP2 AND DUP2 MSTORE PUSH1 0x20 ADD PUSH2 0xB4 JUMP JUMPDEST PUSH2 0x118 PUSH2 0xF8 CALLDATASIZE PUSH1 0x4 PUSH2 0x8E1 JUMP JUMPDEST PUSH1 0x2 PUSH1 0x20 DUP2 SWAP1 MSTORE PUSH1 0x0 SWAP2 DUP3 MSTORE PUSH1 0x40 SWAP1 SWAP2 KECCAK256 DUP1 SLOAD PUSH1 0x1 DUP3 ADD SLOAD SWAP2 SWAP1 SWAP3 ADD SLOAD DUP4 JUMP JUMPDEST PUSH1 0x40 DUP1 MLOAD SWAP4 DUP5 MSTORE PUSH1 0x20 DUP5 ADD SWAP3 SWAP1 SWAP3 MSTORE SWAP1 DUP3 ADD MSTORE PUSH1 0x60 ADD PUSH2 0xB4 JUMP JUMPDEST PUSH2 0x95 PUSH2 0x141 CALLDATASIZE PUSH1 0x4 PUSH2 0x903 JUMP JUMPDEST PUSH2 0x606 JUMP JUMPDEST PUSH1 0x1 SLOAD PUSH2 0xD2 SWAP1 PUSH1 0x1 PUSH1 0x1 PUSH1 0xA0 SHL SUB AND DUP2 JUMP JUMPDEST PUSH2 0x95 PUSH2 0x167 CALLDATASIZE PUSH1 0x4 PUSH2 0x8E1 JUMP JUMPDEST PUSH2 0x7DA JUMP JUMPDEST PUSH1 0x0 SLOAD PUSH1 0x1 PUSH1 0x1 PUSH1 0xA0 SHL SUB AND CALLER EQ PUSH2 0x19F JUMPI PUSH1 0x40 MLOAD PUSH3 0x461BCD PUSH1 0xE5 SHL DUP2 MSTORE PUSH1 0x4 ADD PUSH2 0x196 SWAP1 PUSH2 0x938 JUMP JUMPDEST PUSH1 0x40 MLOAD DUP1 SWAP2 SUB SWAP1 REVERT JUMPDEST PUSH2 0x1A9 PUSH1 0x0 PUSH2 0x875 JUMP JUMPDEST JUMP JUMPDEST PUSH1 0x1 PUSH1 0x1 PUSH1 0xA0 SHL SUB DUP2 AND PUSH1 0x0 SWAP1 DUP2 MSTORE PUSH1 0x2 PUSH1 0x20 MSTORE PUSH1 0x40 DUP2 KECCAK256 DUP1 SLOAD PUSH1 0x1 SWAP1 SWAP2 ADD SLOAD DUP1 DUP3 LT PUSH2 0x21A JUMPI PUSH1 0x40 MLOAD PUSH3 0x461BCD PUSH1 0xE5 SHL DUP2 MSTORE PUSH1 0x20 PUSH1 0x4 DUP3 ADD MSTORE PUSH1 0x1C PUSH1 0x24 DUP3 ADD MSTORE PUSH32 0x416C6C20746F6B656E732068617665206265656E20636C61696D656400000000 PUSH1 0x44 DUP3 ADD MSTORE PUSH1 0x64 ADD PUSH2 0x196 JUMP JUMPDEST PUSH1 0x1 PUSH1 0x1 PUSH1 0xA0 SHL SUB DUP5 AND PUSH1 0x0 SWAP1 DUP2 MSTORE PUSH1 0x2 PUSH1 0x20 DUP2 SWAP1 MSTORE PUSH1 0x40 SWAP1 SWAP2 KECCAK256 ADD SLOAD TIMESTAMP SWAP1 DUP1 DUP3 GT PUSH2 0x296 JUMPI PUSH1 0x40 MLOAD PUSH3 0x461BCD PUSH1 0xE5 SHL DUP2 MSTORE PUSH1 0x20 PUSH1 0x4 DUP3 ADD MSTORE PUSH1 0x25 PUSH1 0x24 DUP3 ADD MSTORE PUSH32 0x4669727374206D6F6E7468206F662076657374696E6720686173206E6F742070 PUSH1 0x44 DUP3 ADD MSTORE PUSH5 0x185CDCD959 PUSH1 0xDA SHL PUSH1 0x64 DUP3 ADD MSTORE PUSH1 0x84 ADD PUSH2 0x196 JUMP JUMPDEST PUSH1 0x0 DUP1 PUSH1 0x1 JUMPDEST PUSH1 0x4 SLOAD DUP2 GT PUSH2 0x3DB JUMPI PUSH2 0x2B2 DUP2 PUSH3 0x278D00 PUSH2 0x983 JUMP JUMPDEST PUSH2 0x2BC SWAP1 DUP6 PUSH2 0x9A0 JUMP JUMPDEST DUP6 GT ISZERO PUSH2 0x330 JUMPI PUSH3 0x278D00 SWAP2 POP DUP2 DUP1 PUSH2 0x2710 PUSH1 0x4 PUSH2 0x2DB PUSH1 0x1 DUP7 PUSH2 0x9B3 JUMP JUMPDEST DUP2 SLOAD DUP2 LT PUSH2 0x2EB JUMPI PUSH2 0x2EB PUSH2 0x9C6 JUMP JUMPDEST SWAP1 PUSH1 0x0 MSTORE PUSH1 0x20 PUSH1 0x0 KECCAK256 ADD SLOAD DUP10 PUSH2 0x301 SWAP2 SWAP1 PUSH2 0x983 JUMP JUMPDEST PUSH2 0x30B SWAP2 SWAP1 PUSH2 0x9DC JUMP JUMPDEST PUSH2 0x315 SWAP2 SWAP1 PUSH2 0x9DC JUMP JUMPDEST PUSH2 0x31F SWAP2 SWAP1 PUSH2 0x983 JUMP JUMPDEST PUSH2 0x329 SWAP1 DUP5 PUSH2 0x9A0 JUMP JUMPDEST SWAP3 POP PUSH2 0x3C9 JUMP JUMPDEST DUP4 PUSH2 0x33C PUSH1 0x1 DUP4 PUSH2 0x9B3 JUMP JUMPDEST PUSH2 0x349 SWAP1 PUSH3 0x278D00 PUSH2 0x983 JUMP JUMPDEST PUSH2 0x353 SWAP1 DUP8 PUSH2 0x9B3 JUMP JUMPDEST PUSH2 0x35D SWAP2 SWAP1 PUSH2 0x9B3 JUMP JUMPDEST SWAP2 POP DUP2 PUSH3 0x278D00 PUSH2 0x2710 PUSH1 0x4 PUSH2 0x374 PUSH1 0x1 DUP7 PUSH2 0x9B3 JUMP JUMPDEST DUP2 SLOAD DUP2 LT PUSH2 0x384 JUMPI PUSH2 0x384 PUSH2 0x9C6 JUMP JUMPDEST SWAP1 PUSH1 0x0 MSTORE PUSH1 0x20 PUSH1 0x0 KECCAK256 ADD SLOAD DUP10 PUSH2 0x39A SWAP2 SWAP1 PUSH2 0x983 JUMP JUMPDEST PUSH2 0x3A4 SWAP2 SWAP1 PUSH2 0x9DC JUMP JUMPDEST PUSH2 0x3AE SWAP2 SWAP1 PUSH2 0x9DC JUMP JUMPDEST PUSH2 0x3B8 SWAP2 SWAP1 PUSH2 0x983 JUMP JUMPDEST PUSH2 0x3C2 SWAP1 DUP5 PUSH2 0x9A0 JUMP JUMPDEST SWAP3 POP PUSH2 0x3DB JUMP JUMPDEST DUP1 PUSH2 0x3D3 DUP2 PUSH2 0x9FE JUMP JUMPDEST SWAP2 POP POP PUSH2 0x29C JUMP JUMPDEST POP PUSH2 0x3E6 DUP7 DUP4 PUSH2 0x9B3 JUMP JUMPDEST SWAP9 SWAP8 POP POP POP POP POP POP POP POP JUMP JUMPDEST PUSH1 0x9 SLOAD PUSH1 0x1 PUSH1 0xA0 SHL SWAP1 DIV PUSH1 0xFF AND ISZERO PUSH2 0x43D JUMPI PUSH1 0x40 MLOAD PUSH3 0x461BCD PUSH1 0xE5 SHL DUP2 MSTORE PUSH1 0x20 PUSH1 0x4 DUP3 ADD MSTORE PUSH1 0xE PUSH1 0x24 DUP3 ADD MSTORE PUSH14 0x4E6F2072652D656E7472616E6379 PUSH1 0x90 SHL PUSH1 0x44 DUP3 ADD MSTORE PUSH1 0x64 ADD PUSH2 0x196 JUMP JUMPDEST PUSH1 0x9 DUP1 SLOAD PUSH1 0xFF PUSH1 0xA0 SHL NOT AND PUSH1 0x1 PUSH1 0xA0 SHL OR SWAP1 SSTORE CALLER PUSH1 0x0 SWAP1 DUP2 MSTORE PUSH1 0x2 PUSH1 0x20 MSTORE PUSH1 0x40 DUP2 KECCAK256 PUSH1 0x1 ADD SLOAD SWAP1 SUB PUSH2 0x4A3 JUMPI PUSH1 0x40 MLOAD PUSH3 0x461BCD PUSH1 0xE5 SHL DUP2 MSTORE PUSH1 0x20 PUSH1 0x4 DUP3 ADD MSTORE PUSH1 0xF PUSH1 0x24 DUP3 ADD MSTORE PUSH15 0x2737BA1030B71034B73B32B9BA37B9 PUSH1 0x89 SHL PUSH1 0x44 DUP3 ADD MSTORE PUSH1 0x64 ADD PUSH2 0x196 JUMP JUMPDEST PUSH1 0x0 PUSH2 0x4AE CALLER PUSH2 0x1AB JUMP JUMPDEST PUSH1 0x1 SLOAD PUSH1 0x40 MLOAD PUSH4 0xA9059CBB PUSH1 0xE0 SHL DUP2 MSTORE CALLER PUSH1 0x4 DUP3 ADD MSTORE PUSH1 0x24 DUP2 ADD DUP4 SWAP1 MSTORE SWAP2 SWAP3 POP PUSH1 0x0 SWAP2 PUSH1 0x1 PUSH1 0x1 PUSH1 0xA0 SHL SUB SWAP1 SWAP2 AND SWAP1 PUSH4 0xA9059CBB SWAP1 PUSH1 0x44 ADD PUSH1 0x20 PUSH1 0x40 MLOAD DUP1 DUP4 SUB DUP2 PUSH1 0x0 DUP8 GAS CALL ISZERO DUP1 ISZERO PUSH2 0x505 JUMPI RETURNDATASIZE PUSH1 0x0 DUP1 RETURNDATACOPY RETURNDATASIZE PUSH1 0x0 REVERT JUMPDEST POP POP POP POP PUSH1 0x40 MLOAD RETURNDATASIZE PUSH1 0x1F NOT PUSH1 0x1F DUP3 ADD AND DUP3 ADD DUP1 PUSH1 0x40 MSTORE POP DUP2 ADD SWAP1 PUSH2 0x529 SWAP2 SWAP1 PUSH2 0xA17 JUMP JUMPDEST SWAP1 POP DUP1 PUSH2 0x578 JUMPI PUSH1 0x40 MLOAD PUSH3 0x461BCD PUSH1 0xE5 SHL DUP2 MSTORE PUSH1 0x20 PUSH1 0x4 DUP3 ADD MSTORE PUSH1 0x19 PUSH1 0x24 DUP3 ADD MSTORE PUSH32 0x4661696C656420746F2072656C6561736520746F6B656E732E00000000000000 PUSH1 0x44 DUP3 ADD MSTORE PUSH1 0x64 ADD PUSH2 0x196 JUMP JUMPDEST DUP2 PUSH1 0x5 PUSH1 0x0 DUP3 DUP3 SLOAD PUSH2 0x58A SWAP2 SWAP1 PUSH2 0x9A0 JUMP JUMPDEST SWAP1 SWAP2 SSTORE POP POP PUSH1 0x9 SLOAD PUSH1 0x40 MLOAD DUP4 DUP2 MSTORE PUSH1 0x1 PUSH1 0x1 PUSH1 0xA0 SHL SUB SWAP1 SWAP2 AND SWAP1 PUSH32 0xC0E523490DD523C33B1878C9EB14FF46991E3F5B2CD33710918618F2A39CBA1B SWAP1 PUSH1 0x20 ADD PUSH1 0x40 MLOAD DUP1 SWAP2 SUB SWAP1 LOG2 CALLER PUSH1 0x0 SWAP1 DUP2 MSTORE PUSH1 0x2 PUSH1 0x20 MSTORE PUSH1 0x40 DUP2 KECCAK256 DUP1 SLOAD DUP5 SWAP3 SWAP1 PUSH2 0x5F0 SWAP1 DUP5 SWAP1 PUSH2 0x9A0 JUMP JUMPDEST SWAP1 SWAP2 SSTORE POP POP PUSH1 0x9 DUP1 SLOAD PUSH1 0xFF PUSH1 0xA0 SHL NOT AND SWAP1 SSTORE POP POP JUMP JUMPDEST PUSH1 0x0 SLOAD PUSH1 0x1 PUSH1 0x1 PUSH1 0xA0 SHL SUB AND CALLER EQ PUSH2 0x630 JUMPI PUSH1 0x40 MLOAD PUSH3 0x461BCD PUSH1 0xE5 SHL DUP2 MSTORE PUSH1 0x4 ADD PUSH2 0x196 SWAP1 PUSH2 0x938 JUMP JUMPDEST PUSH1 0x1 PUSH1 0x1 PUSH1 0xA0 SHL SUB DUP3 AND PUSH1 0x0 SWAP1 DUP2 MSTORE PUSH1 0x2 PUSH1 0x20 MSTORE PUSH1 0x40 SWAP1 KECCAK256 PUSH1 0x1 ADD SLOAD ISZERO PUSH2 0x6B2 JUMPI PUSH1 0x40 MLOAD PUSH3 0x461BCD PUSH1 0xE5 SHL DUP2 MSTORE PUSH1 0x20 PUSH1 0x4 DUP3 ADD MSTORE PUSH1 0x30 PUSH1 0x24 DUP3 ADD MSTORE PUSH32 0x54686973206164647265737320697320616C726561647920696E207468652076 PUSH1 0x44 DUP3 ADD MSTORE PUSH16 0x32B9BA34B7339031B7B73A3930B1BA17 PUSH1 0x81 SHL PUSH1 0x64 DUP3 ADD MSTORE PUSH1 0x84 ADD PUSH2 0x196 JUMP JUMPDEST PUSH1 0x1 SLOAD PUSH1 0x40 MLOAD PUSH4 0xA9059CBB PUSH1 0xE0 SHL DUP2 MSTORE ADDRESS PUSH1 0x4 DUP3 ADD MSTORE PUSH1 0x24 DUP2 ADD DUP6 SWAP1 MSTORE PUSH1 0x0 SWAP2 PUSH1 0x1 PUSH1 0x1 PUSH1 0xA0 SHL SUB AND SWAP1 PUSH4 0xA9059CBB SWAP1 PUSH1 0x44 ADD PUSH1 0x20 PUSH1 0x40 MLOAD DUP1 DUP4 SUB DUP2 PUSH1 0x0 DUP8 GAS CALL ISZERO DUP1 ISZERO PUSH2 0x704 JUMPI RETURNDATASIZE PUSH1 0x0 DUP1 RETURNDATACOPY RETURNDATASIZE PUSH1 0x0 REVERT JUMPDEST POP POP POP POP PUSH1 0x40 MLOAD RETURNDATASIZE PUSH1 0x1F NOT PUSH1 0x1F DUP3 ADD AND DUP3 ADD DUP1 PUSH1 0x40 MSTORE POP DUP2 ADD SWAP1 PUSH2 0x728 SWAP2 SWAP1 PUSH2 0xA17 JUMP JUMPDEST SWAP1 POP DUP1 PUSH2 0x777 JUMPI PUSH1 0x40 MLOAD PUSH3 0x461BCD PUSH1 0xE5 SHL DUP2 MSTORE PUSH1 0x20 PUSH1 0x4 DUP3 ADD MSTORE PUSH1 0x19 PUSH1 0x24 DUP3 ADD MSTORE PUSH32 0x4661696C656420746F206465706F73697420746F6B656E732E00000000000000 PUSH1 0x44 DUP3 ADD MSTORE PUSH1 0x64 ADD PUSH2 0x196 JUMP JUMPDEST PUSH1 0x0 PUSH1 0x40 MLOAD DUP1 PUSH1 0x60 ADD PUSH1 0x40 MSTORE DUP1 PUSH1 0x0 DUP2 MSTORE PUSH1 0x20 ADD DUP7 DUP2 MSTORE PUSH1 0x20 ADD DUP5 TIMESTAMP PUSH2 0x79D SWAP2 SWAP1 PUSH2 0x9A0 JUMP JUMPDEST SWAP1 MSTORE PUSH1 0x1 PUSH1 0x1 PUSH1 0xA0 SHL SUB SWAP1 SWAP5 AND PUSH1 0x0 SWAP1 DUP2 MSTORE PUSH1 0x2 PUSH1 0x20 DUP2 DUP2 MSTORE PUSH1 0x40 SWAP3 DUP4 SWAP1 KECCAK256 DUP8 MLOAD DUP2 SSTORE SWAP1 DUP8 ADD MLOAD PUSH1 0x1 DUP3 ADD SSTORE SWAP2 SWAP1 SWAP6 ADD MLOAD SWAP5 ADD SWAP4 SWAP1 SWAP4 SSTORE POP POP POP POP JUMP JUMPDEST PUSH1 0x0 SLOAD PUSH1 0x1 PUSH1 0x1 PUSH1 0xA0 SHL SUB AND CALLER EQ PUSH2 0x804 JUMPI PUSH1 0x40 MLOAD PUSH3 0x461BCD PUSH1 0xE5 SHL DUP2 MSTORE PUSH1 0x4 ADD PUSH2 0x196 SWAP1 PUSH2 0x938 JUMP JUMPDEST PUSH1 0x1 PUSH1 0x1 PUSH1 0xA0 SHL SUB DUP2 AND PUSH2 0x869 JUMPI PUSH1 0x40 MLOAD PUSH3 0x461BCD PUSH1 0xE5 SHL DUP2 MSTORE PUSH1 0x20 PUSH1 0x4 DUP3 ADD MSTORE PUSH1 0x26 PUSH1 0x24 DUP3 ADD MSTORE PUSH32 0x4F776E61626C653A206E6577206F776E657220697320746865207A65726F2061 PUSH1 0x44 DUP3 ADD MSTORE PUSH6 0x646472657373 PUSH1 0xD0 SHL PUSH1 0x64 DUP3 ADD MSTORE PUSH1 0x84 ADD PUSH2 0x196 JUMP JUMPDEST PUSH2 0x872 DUP2 PUSH2 0x875 JUMP JUMPDEST POP JUMP JUMPDEST PUSH1 0x0 DUP1 SLOAD PUSH1 0x1 PUSH1 0x1 PUSH1 0xA0 SHL SUB DUP4 DUP2 AND PUSH1 0x1 PUSH1 0x1 PUSH1 0xA0 SHL SUB NOT DUP4 AND DUP2 OR DUP5 SSTORE PUSH1 0x40 MLOAD SWAP2 SWAP1 SWAP3 AND SWAP3 DUP4 SWAP2 PUSH32 0x8BE0079C531659141344CD1FD0A4F28419497F9722A3DAAFE3B4186F6B6457E0 SWAP2 SWAP1 LOG3 POP POP JUMP JUMPDEST DUP1 CALLDATALOAD PUSH1 0x1 PUSH1 0x1 PUSH1 0xA0 SHL SUB DUP2 AND DUP2 EQ PUSH2 0x8DC JUMPI PUSH1 0x0 DUP1 REVERT JUMPDEST SWAP2 SWAP1 POP JUMP JUMPDEST PUSH1 0x0 PUSH1 0x20 DUP3 DUP5 SUB SLT ISZERO PUSH2 0x8F3 JUMPI PUSH1 0x0 DUP1 REVERT JUMPDEST PUSH2 0x8FC DUP3 PUSH2 0x8C5 JUMP JUMPDEST SWAP4 SWAP3 POP POP POP JUMP JUMPDEST PUSH1 0x0 DUP1 PUSH1 0x0 PUSH1 0x60 DUP5 DUP7 SUB SLT ISZERO PUSH2 0x918 JUMPI PUSH1 0x0 DUP1 REVERT JUMPDEST DUP4 CALLDATALOAD SWAP3 POP PUSH2 0x928 PUSH1 0x20 DUP6 ADD PUSH2 0x8C5 JUMP JUMPDEST SWAP2 POP PUSH1 0x40 DUP5 ADD CALLDATALOAD SWAP1 POP SWAP3 POP SWAP3 POP SWAP3 JUMP JUMPDEST PUSH1 0x20 DUP1 DUP3 MSTORE DUP2 DUP2 ADD MSTORE PUSH32 0x4F776E61626C653A2063616C6C6572206973206E6F7420746865206F776E6572 PUSH1 0x40 DUP3 ADD MSTORE PUSH1 0x60 ADD SWAP1 JUMP JUMPDEST PUSH4 0x4E487B71 PUSH1 0xE0 SHL PUSH1 0x0 MSTORE PUSH1 0x11 PUSH1 0x4 MSTORE PUSH1 0x24 PUSH1 0x0 REVERT JUMPDEST DUP1 DUP3 MUL DUP2 ISZERO DUP3 DUP3 DIV DUP5 EQ OR PUSH2 0x99A JUMPI PUSH2 0x99A PUSH2 0x96D JUMP JUMPDEST SWAP3 SWAP2 POP POP JUMP JUMPDEST DUP1 DUP3 ADD DUP1 DUP3 GT ISZERO PUSH2 0x99A JUMPI PUSH2 0x99A PUSH2 0x96D JUMP JUMPDEST DUP2 DUP2 SUB DUP2 DUP2 GT ISZERO PUSH2 0x99A JUMPI PUSH2 0x99A PUSH2 0x96D JUMP JUMPDEST PUSH4 0x4E487B71 PUSH1 0xE0 SHL PUSH1 0x0 MSTORE PUSH1 0x32 PUSH1 0x4 MSTORE PUSH1 0x24 PUSH1 0x0 REVERT JUMPDEST PUSH1 0x0 DUP3 PUSH2 0x9F9 JUMPI PUSH4 0x4E487B71 PUSH1 0xE0 SHL PUSH1 0x0 MSTORE PUSH1 0x12 PUSH1 0x4 MSTORE PUSH1 0x24 PUSH1 0x0 REVERT JUMPDEST POP DIV SWAP1 JUMP JUMPDEST PUSH1 0x0 PUSH1 0x1 DUP3 ADD PUSH2 0xA10 JUMPI PUSH2 0xA10 PUSH2 0x96D JUMP JUMPDEST POP PUSH1 0x1 ADD SWAP1 JUMP JUMPDEST PUSH1 0x0 PUSH1 0x20 DUP3 DUP5 SUB SLT ISZERO PUSH2 0xA29 JUMPI PUSH1 0x0 DUP1 REVERT JUMPDEST DUP2 MLOAD DUP1 ISZERO ISZERO DUP2 EQ PUSH2 0x8FC JUMPI PUSH1 0x0 DUP1 REVERT INVALID LOG2 PUSH5 0x6970667358 0x22 SLT KECCAK256 CALLDATALOAD 0x27 NOT DELEGATECALL DIFFICULTY 0xE7 0x5D DUP6 0x2D 0xD2 STOP MLOAD 0xDE DUP10 0xC0 LOG4 SMOD LOG1 0xAE 0x26 MSTORE8 CHAINID 0xD2 SWAP7 0x24 TIMESTAMP 0xD0 DUP8 MUL 0xC5 0xB4 SWAP14 PUSH5 0x736F6C6343 STOP ADDMOD GT STOP CALLER ",
  "sha1": "093e49804efbf947564e1a5d29ad455021bbc9bf",
  "source": "// SPDX-License-Identifier: MIT\n// OpenZeppelin Contracts (last updated v4.7.0) (finance/LockContract.sol)\npragma solidity ^0.8.0;\n\nimport \"@openzeppelin/contracts/token/ERC20/IERC20.sol\";\nimport \"@openzeppelin/contracts/utils/Address.sol\";\nimport \"@openzeppelin/contracts/utils/Context.sol\";\nimport \"@openzeppelin/contracts/access/Ownable.sol\";\n\n/**\n * @title LockContract\n * @dev This contract handles the vesting of a ERC20 tokens for a given beneficiary. Custody of the _token amount\n * can be given to this contract, which will release the _token to the beneficiary following a given schedule.\n * The vesting schedule is established by an array of basis point. Each index of that array\n * corresponds to a month after the vesting period starts (aka after the locking period is over)\n */\ncontract VestingContract is Context, Ownable {\n    //Token\n    IERC20 public legacy_token;\n\n    //Events\n    event ERC20Released(address indexed _token, uint256 amount);\n\n    //Mappings\n    mapping(address => Investor) public walletToInvestor;\n\n    //Structs\n    struct Investor {\n        uint256 tokens_received; // amount of tokens the Investor has received\n        uint256 tokens_promised; // amount of tokens the Investor is owed\n        uint256 vesting_start; // saves the date in which the locking period ends\n        //and the vesting (token releases) starts\n    }\n\n    //Variables\n    address[] investor_address; // array with all the investor aaddresses\n    uint256[] percent_per_milestone; //percentages per month that will be released (in basis points)\n    uint256 erc20Released; // total amount of released tokens\n    uint256 numMilestones; // number of milestones (number of payments for each Investor)\n    uint256 totalTokens_O50I; // total tokens promised to investors with 50k-250ks\n    uint256 totalTokens_O250I; // total tokens promised to investors with more than 250ks\n    address tokenAddress; // token address\n    bool internal locked; // boolean to prevent reentrancy\n\n    // Modifiers\n    /**\n     * @dev Prevents reentrancy\n     */\n    modifier noReentrant() {\n        require(!locked, \"No re-entrancy\");\n        locked = true;\n        _;\n        locked = false;\n    }\n\n    /**\n     * @dev Only investors can call functions\n     */\n    modifier onlyInvestor() {\n        require(\n            walletToInvestor[msg.sender].tokens_promised != 0,\n            \"Not an investor\"\n        );\n        _;\n    }\n\n    //Functions\n    /**\n     * @dev Set the beneficiary, start timestamp and locking durations and amounts.\n     */\n    constructor(\n        address[] memory _addresses_O50I, // array with the addresses of the investors with 50k to 250ks\n        address[] memory _addresses_O250I, // ... more than 250ks\n        uint256[] memory _tokens_O50I, // array with the token amount to be to the equivalent\n        // indexed address in _addresses_O50I\n        uint256[] memory _tokens_O250I, // ... addres in _addresses_O250I\n        uint256[] memory _percent_per_milestone, // has the basis point values of the percentages\n        // of tokens that should be released in total in\n        // the indexed month\n        uint256 _timeLock_O250I, // ... more than 250ks\n        address _tokenAddress // address of the token to be used\n    ) {\n        // percentage of tokens an investor can withdraw at each milestone\n        percent_per_milestone = _percent_per_milestone;\n\n        // number of investors with...\n        uint256 _num_O50I = _addresses_O50I.length; // with 50k-250ks\n        uint256 _num_O250I = _addresses_O250I.length; // more than 250ks\n\n        // create an Investor struct for each investor with less than 50ks\n        for (uint256 i = 0; i < _num_O50I; i++) {\n            // get the amount of tokens and the address correpsonding to this investor\n            address _investor_address = _addresses_O50I[i];\n            uint256 _investor_tokens = _tokens_O50I[i];\n\n            // create the new Investor struct\n            Investor memory investor = Investor(\n                0,\n                _investor_tokens,\n                block.timestamp\n            );\n\n            // map the new Investor address to its struct\n            walletToInvestor[_investor_address] = investor;\n        }\n\n        // create an Investor struct for each investor with more than 250ks\n        for (uint256 i = 0; i < _num_O250I; i++) {\n            // get the amount of tokens and the address correpsonding to this investor\n            address _investor_address = _addresses_O250I[i];\n            uint256 _investor_tokens = _tokens_O250I[i];\n\n            // create the new Investor struct\n            Investor memory investor = Investor(\n                0,\n                _investor_tokens,\n                block.timestamp + _timeLock_O250I\n            );\n\n            // map the new Investor address to its struct\n            walletToInvestor[_investor_address] = investor;\n        }\n\n        // establish token address\n        tokenAddress = _tokenAddress;\n\n        // establish the IERC20 for legacy token to contract interactions\n        legacy_token = IERC20(_tokenAddress);\n\n        // Initialize the reentrancy variable to not locked\n        locked = false;\n    }\n\n    /**\n     * @dev Calculates and returns the amount of tokens that can be withdrawn,\n     * as function of milestones passed.\n     */\n    function can_release_percent(address _callerAddress)\n        public\n        view\n        returns (uint256)\n    {\n        // get the quatity of tokens he has already withdrawned,\n        uint256 _has_withdrawn = walletToInvestor[_callerAddress]\n            .tokens_received;\n        // gets the investors promised tokens\n        uint256 _tokens_promised = walletToInvestor[_callerAddress]\n            .tokens_promised;\n\n        // require that the investor has not already withdrawn everything\n        require(\n            _has_withdrawn < _tokens_promised,\n            \"All tokens have been claimed\"\n        );\n\n        // gets the current time\n        uint256 _current_time = uint256(block.timestamp);\n        // gets the time in which the investors vesting starts\n        uint256 _vesting_start = walletToInvestor[_callerAddress].vesting_start;\n\n        // require that the first month of vesting has passed (and as consequence, checks if the lock\n        //period has passed already)\n        require(\n            _current_time > _vesting_start,\n            \"First month of vesting has not passed\"\n        );\n\n        // will save the amount that is calculated that can be released\n        uint256 _can_release = 0;\n        // saves the seconds the investor has spent vesting in each bracket, to allow the token withdraw calc\n        uint256 _second_in_bracket = 0;\n\n        //Loop through every month until we reach the one the  vesting of this investor is currently on\n        for (uint256 i = 1; i <= percent_per_milestone.length; i++) {\n            // if the time the investor has been vesting is bigger than i month\n            if (_current_time > (_vesting_start + 2592000 * i)) {\n                // check how much time has elapsed how may percentage brakctes/months\n                //we have passed since the initLock\n                _second_in_bracket = 2592000;\n\n                // for each bracket, claculate the the tokens to be released in that period\n                _can_release =\n                    _can_release +\n                    ((_tokens_promised * percent_per_milestone[i - 1]) /\n                        10000 /\n                        2592000) *\n                    _second_in_bracket; // remember the percent_per\n                // milestone are percents multiplied by 1000\n            } else {\n                //If the current time is in the middle of one of the months\n                _second_in_bracket =\n                    _current_time -\n                    2592000 *\n                    (i - 1) -\n                    _vesting_start;\n\n                _can_release =\n                    _can_release +\n                    ((_tokens_promised * percent_per_milestone[i - 1]) /\n                        10000 /\n                        2592000) *\n                    _second_in_bracket;\n\n                break;\n            }\n        }\n\n        // get the amount of tokens the investor can actually withdraw:\n        return _can_release - _has_withdrawn;\n    }\n\n    /**\n     * @dev Release the tokens\n     *\n     * Emits a {ERC20Released} event.\n     */\n    function release() public virtual noReentrant onlyInvestor {\n        // gets the amount of tokens the investor can withdraw\n        uint256 releasable = can_release_percent(msg.sender);\n\n        // transfers the tokens to the investor\n        bool success = legacy_token.transfer(msg.sender, releasable);\n        require(success, \"Failed to release tokens.\");\n\n        // adds that amount to the total released amount\n        erc20Released += releasable;\n\n        // emits an event\n        emit ERC20Released(tokenAddress, releasable);\n\n        // updates the investors struct to reflect the withdraw\n        walletToInvestor[msg.sender].tokens_received += releasable;\n    }\n\n    /**\n     * @dev Adds a new Investor.\n     */\n    function new_Investor(\n        uint256 _amount,\n        address _newInvestor_address,\n        uint256 _timeLock\n    ) public onlyOwner {\n        // the investor should not already by locked\n        require(\n            walletToInvestor[_newInvestor_address].tokens_promised == 0,\n            \"This address is already in the vesting contract.\"\n        );\n\n        // transfer the tokens to the contract\n        bool success = legacy_token.transfer(address(this), _amount);\n        require(success, \"Failed to deposit tokens.\");\n\n        // create the new Investor struc\n        Investor memory investor = Investor(\n            0,\n            _amount,\n            block.timestamp + _timeLock\n        );\n\n        // push the new Investor struct to the Investors array\n        walletToInvestor[_newInvestor_address] = investor;\n    }\n}\n",
  "sourcePath": "contracts/VestingContract.sol",
  "type": "contract"
}