{
  "abi": [
    {
      "inputs": [
        {
          "internalType": "uint256[]",
          "name": "percentPerMilestone_",
          "type": "uint256[]"
        },
        {
          "internalType": "address",
          "name": "_TOKEN_ADDRESS",
          "type": "address"
        }
      ],
      "stateMutability": "nonpayable",
      "type": "constructor"
    },
    {
      "inputs": [
        {
          "internalType": "uint256",
          "name": "currentTime",
          "type": "uint256"
        },
        {
          "internalType": "uint256",
          "name": "vestingStart",
          "type": "uint256"
        }
      ],
      "name": "LockOrCliffNotOver",
      "type": "error"
    },
    {
      "inputs": [
        {
          "internalType": "address",
          "name": "investorAddress",
          "type": "address"
        }
      ],
      "name": "addressAlreadyVested",
      "type": "error"
    },
    {
      "inputs": [
        {
          "internalType": "uint256",
          "name": "numAmounts",
          "type": "uint256"
        },
        {
          "internalType": "uint256",
          "name": "numAddresses",
          "type": "uint256"
        }
      ],
      "name": "addressAmountMismatch",
      "type": "error"
    },
    {
      "inputs": [],
      "name": "allTokensClaimed",
      "type": "error"
    },
    {
      "inputs": [
        {
          "internalType": "uint256",
          "name": "amountNeeded",
          "type": "uint256"
        },
        {
          "internalType": "uint256",
          "name": "contract_balance",
          "type": "uint256"
        }
      ],
      "name": "contractLacksFunds",
      "type": "error"
    },
    {
      "inputs": [],
      "name": "notInvestor",
      "type": "error"
    },
    {
      "inputs": [
        {
          "internalType": "uint256",
          "name": "percSum",
          "type": "uint256"
        }
      ],
      "name": "percSumIncorrect",
      "type": "error"
    },
    {
      "anonymous": false,
      "inputs": [
        {
          "indexed": true,
          "internalType": "address",
          "name": "_token",
          "type": "address"
        },
        {
          "indexed": false,
          "internalType": "uint256",
          "name": "amount",
          "type": "uint256"
        }
      ],
      "name": "ERC20Released",
      "type": "event"
    },
    {
      "anonymous": false,
      "inputs": [
        {
          "indexed": true,
          "internalType": "address",
          "name": "previousOwner",
          "type": "address"
        },
        {
          "indexed": true,
          "internalType": "address",
          "name": "newOwner",
          "type": "address"
        }
      ],
      "name": "OwnershipTransferred",
      "type": "event"
    },
    {
      "inputs": [],
      "name": "TOKEN_ADDRESS",
      "outputs": [
        {
          "internalType": "address",
          "name": "",
          "type": "address"
        }
      ],
      "stateMutability": "view",
      "type": "function"
    },
    {
      "inputs": [
        {
          "internalType": "address",
          "name": "callerAddress",
          "type": "address"
        }
      ],
      "name": "canReleasePercent",
      "outputs": [
        {
          "internalType": "uint256",
          "name": "",
          "type": "uint256"
        }
      ],
      "stateMutability": "view",
      "type": "function"
    },
    {
      "inputs": [],
      "name": "erc20Released",
      "outputs": [
        {
          "internalType": "uint256",
          "name": "",
          "type": "uint256"
        }
      ],
      "stateMutability": "view",
      "type": "function"
    },
    {
      "inputs": [
        {
          "internalType": "uint256",
          "name": "",
          "type": "uint256"
        }
      ],
      "name": "investorAddresses",
      "outputs": [
        {
          "internalType": "address",
          "name": "",
          "type": "address"
        }
      ],
      "stateMutability": "view",
      "type": "function"
    },
    {
      "inputs": [
        {
          "internalType": "uint256",
          "name": "amount",
          "type": "uint256"
        },
        {
          "internalType": "uint256",
          "name": "timeLock",
          "type": "uint256"
        },
        {
          "internalType": "address",
          "name": "newInvestorAddress",
          "type": "address"
        }
      ],
      "name": "newInvestor",
      "outputs": [],
      "stateMutability": "nonpayable",
      "type": "function"
    },
    {
      "inputs": [
        {
          "internalType": "address[]",
          "name": "addressesO50I",
          "type": "address[]"
        },
        {
          "internalType": "address[]",
          "name": "addressesO250I",
          "type": "address[]"
        },
        {
          "internalType": "uint256[]",
          "name": "tokensO50I",
          "type": "uint256[]"
        },
        {
          "internalType": "uint256[]",
          "name": "tokensO250I",
          "type": "uint256[]"
        },
        {
          "internalType": "uint256",
          "name": "timeLockO250I",
          "type": "uint256"
        }
      ],
      "name": "newMulInvestors",
      "outputs": [],
      "stateMutability": "nonpayable",
      "type": "function"
    },
    {
      "inputs": [],
      "name": "owner",
      "outputs": [
        {
          "internalType": "address",
          "name": "",
          "type": "address"
        }
      ],
      "stateMutability": "view",
      "type": "function"
    },
    {
      "inputs": [
        {
          "internalType": "uint256",
          "name": "",
          "type": "uint256"
        }
      ],
      "name": "percentPerMilestone",
      "outputs": [
        {
          "internalType": "uint256",
          "name": "",
          "type": "uint256"
        }
      ],
      "stateMutability": "view",
      "type": "function"
    },
    {
      "inputs": [],
      "name": "release",
      "outputs": [],
      "stateMutability": "nonpayable",
      "type": "function"
    },
    {
      "inputs": [],
      "name": "renounceOwnership",
      "outputs": [],
      "stateMutability": "nonpayable",
      "type": "function"
    },
    {
      "inputs": [],
      "name": "totalTokensVested",
      "outputs": [
        {
          "internalType": "uint256",
          "name": "",
          "type": "uint256"
        }
      ],
      "stateMutability": "view",
      "type": "function"
    },
    {
      "inputs": [
        {
          "internalType": "address",
          "name": "newOwner",
          "type": "address"
        }
      ],
      "name": "transferOwnership",
      "outputs": [],
      "stateMutability": "nonpayable",
      "type": "function"
    },
    {
      "inputs": [
        {
          "internalType": "address",
          "name": "",
          "type": "address"
        }
      ],
      "name": "walletToInvestor",
      "outputs": [
        {
          "internalType": "uint256",
          "name": "tokens_received",
          "type": "uint256"
        },
        {
          "internalType": "uint256",
          "name": "tokens_promised",
          "type": "uint256"
        },
        {
          "internalType": "uint256",
          "name": "vesting_start",
          "type": "uint256"
        }
      ],
      "stateMutability": "view",
      "type": "function"
    }
  ],
  "bytecode": "60c06040523480156200001157600080fd5b50604051620016a9380380620016a98339810160408190526200003491620001ee565b6200003f33620000b1565b60006200004c8362000101565b9050806127101462000078576040516361ffe00960e01b81526004810182905260240160405180910390fd5b82516200008d90600390602086019062000154565b50506001600160a01b031660a0819052608052506006805460ff191690556200032f565b600080546001600160a01b038381166001600160a01b0319831681178455604051919092169283917f8be0079c531659141344cd1fd0a4f28419497f9722a3daafe3b4186f6b6457e09190a35050565b6000805b82518110156200014e57828181518110620001245762000124620002cb565b602002602001015182620001399190620002f7565b9150620001468162000313565b905062000105565b50919050565b82805482825590600052602060002090810192821562000192579160200282015b828111156200019257825182559160200191906001019062000175565b50620001a0929150620001a4565b5090565b5b80821115620001a05760008155600101620001a5565b634e487b7160e01b600052604160045260246000fd5b80516001600160a01b0381168114620001e957600080fd5b919050565b600080604083850312156200020257600080fd5b82516001600160401b03808211156200021a57600080fd5b818501915085601f8301126200022f57600080fd5b8151602082821115620002465762000246620001bb565b8160051b604051601f19603f830116810181811086821117156200026e576200026e620001bb565b6040529283528183019350848101820192898411156200028d57600080fd5b948201945b83861015620002ad5785518552948201949382019362000292565b9650620002be9050878201620001d1565b9450505050509250929050565b634e487b7160e01b600052603260045260246000fd5b634e487b7160e01b600052601160045260246000fd5b808201808211156200030d576200030d620002e1565b92915050565b600060018201620003285762000328620002e1565b5060010190565b60805160a05161134062000369600039600060f50152600081816104ef0152818161060a01528181610788015261081001526113406000f3fe608060405234801561001057600080fd5b50600436106100cf5760003560e01c8063715018a61161008c57806392347b5e1161006657806392347b5e1461019457806395a25efa146101dd578063f2fde38b146101f0578063f7799a151461020357600080fd5b8063715018a61461017357806386d1a69f1461017b5780638da5cb5b1461018357600080fd5b80630415af81146100d45780630bdf5300146100f05780630ec482e81461012f5780635b1a00b21461013857806364b497661461014b578063711e01c61461015e575b600080fd5b6100dd60055481565b6040519081526020015b60405180910390f35b6101177f000000000000000000000000000000000000000000000000000000000000000081565b6040516001600160a01b0390911681526020016100e7565b6100dd60045481565b6100dd610146366004610f39565b610216565b6100dd610159366004610f6e565b610237565b61017161016c366004610f90565b610402565b005b61017161052e565b610171610542565b6000546001600160a01b0316610117565b6101c26101a2366004610f6e565b600160208190526000918252604090912080549181015460029091015483565b604080519384526020840192909252908201526060016100e7565b6101176101eb366004610f39565b61069d565b6101716101fe366004610f6e565b6106c7565b6101716102113660046110fd565b610740565b6003818154811061022657600080fd5b600091825260209091200154905081565b6001600160a01b0381166000908152600160208190526040822080549101548082106102765760405163089f33c360e31b815260040160405180910390fd5b6001600160a01b0384166000908152600160205260409020600201544290808210156102c457604051630ba692bf60e11b815260048101839052602481018290526044015b60405180910390fd5b60008060015b60035481116103eb576102e08162278d006111c8565b6102ea90856111e5565b8511156103425761271060036103016001846111f8565b815481106103115761031161120b565b90600052602060002001548761032791906111c8565b6103319190611221565b61033b90846111e5565b92506103db565b8361034e6001836111f8565b61035b9062278d006111c8565b61036590876111f8565b61036f91906111f8565b915062278d006127108360036103866001866111f8565b815481106103965761039661120b565b9060005260206000200154896103ac91906111c8565b6103b691906111c8565b6103c09190611221565b6103ca9190611221565b6103d490846111e5565b92506103eb565b6103e481611243565b90506102ca565b506103f686836111f8565b98975050505050505050565b61040a610b3d565b6001600160a01b0381166000908152600160208190526040909120015415610450576040516376501d1960e01b81526001600160a01b03821660048201526024016102bb565b6000604051806060016040528060008152602001858152602001844261047691906111e5565b90526001600160a01b038084166000818152600160208181526040808420875181559187015182840155860151600291820155805491820181559091527f405787fa12a823e0f2b7631cc41b3ba8828b3321ca811111fa75cd3aa3bb5ace0180546001600160a01b0319169091179055909150610517907f000000000000000000000000000000000000000000000000000000000000000016333087610b97565b8360055461052591906111e5565b60055550505050565b610536610b3d565b6105406000610c08565b565b60065460ff16156105865760405162461bcd60e51b815260206004820152600e60248201526d4e6f2072652d656e7472616e637960901b60448201526064016102bb565b6006805460ff191660019081179091553360009081526020829052604081209091015490036105c8576040516314d63e9760e31b815260040160405180910390fd5b60006105d333610237565b336000908152600160205260409020549091506105f19082906111e5565b33600081815260016020526040902091909155610639907f00000000000000000000000000000000000000000000000000000000000000006001600160a01b03169083610c58565b8060045461064791906111e5565b6004556005546106589082906111f8565b60055560405181815233907fc0e523490dd523c33b1878c9eb14ff46991e3f5b2cd33710918618f2a39cba1b9060200160405180910390a2506006805460ff19169055565b600281815481106106ad57600080fd5b6000918252602090912001546001600160a01b0316905081565b6106cf610b3d565b6001600160a01b0381166107345760405162461bcd60e51b815260206004820152602660248201527f4f776e61626c653a206e6577206f776e657220697320746865207a65726f206160448201526564647265737360d01b60648201526084016102bb565b61073d81610c08565b50565b610748610b3d565b600061075383610c8d565b61075c85610c8d565b61076691906111e5565b6040516370a0823160e01b815230600482015290915081906001600160a01b037f000000000000000000000000000000000000000000000000000000000000000016906370a0823190602401602060405180830381865afa1580156107cf573d6000803e3d6000fd5b505050506040513d601f19601f820116820180604052508101906107f3919061125c565b10156108a5576040516370a0823160e01b815230600482015281907f00000000000000000000000000000000000000000000000000000000000000006001600160a01b0316906370a0823190602401602060405180830381865afa15801561085f573d6000803e3d6000fd5b505050506040513d601f19601f82011682018060405250810190610883919061125c565b6040516301afaf1360e41b8152600481019290925260248201526044016102bb565b8551855160005b828110156109d85760008982815181106108c8576108c861120b565b6020026020010151905060008883815181106108e6576108e661120b565b6020026020010151905060016000836001600160a01b03166001600160a01b0316815260200190815260200160002060010154600014610944576040516376501d1960e01b81526001600160a01b03831660048201526024016102bb565b6040805160608101825260008082526020808301948552428385019081526001600160a01b03909616808352600191829052938220925183559351828501559351600291820155805492830181559092527f405787fa12a823e0f2b7631cc41b3ba8828b3321ca811111fa75cd3aa3bb5ace0180546001600160a01b03191690911790556109d181611243565b90506108ac565b5060005b81811015610b215760008882815181106109f8576109f861120b565b602002602001015190506000878381518110610a1657610a1661120b565b6020026020010151905060016000836001600160a01b03166001600160a01b0316815260200190815260200160002060010154600014610a74576040516376501d1960e01b81526001600160a01b03831660048201526024016102bb565b60006040518060600160405280600081526020018381526020018942610a9a91906111e5565b90526001600160a01b03909316600081815260016020818152604080842088518155918801518284015590960151600296870155855490810186559490527f405787fa12a823e0f2b7631cc41b3ba8828b3321ca811111fa75cd3aa3bb5ace90930180546001600160a01b03191690931790925550610b1a905081611243565b90506109dc565b5082600554610b3091906111e5565b6005555050505050505050565b6000546001600160a01b031633146105405760405162461bcd60e51b815260206004820181905260248201527f4f776e61626c653a2063616c6c6572206973206e6f7420746865206f776e657260448201526064016102bb565b6040516001600160a01b0380851660248301528316604482015260648101829052610c029085906323b872dd60e01b906084015b60408051601f198184030181529190526020810180516001600160e01b03166001600160e01b031990931692909217909152610cd7565b50505050565b600080546001600160a01b038381166001600160a01b0319831681178455604051919092169283917f8be0079c531659141344cd1fd0a4f28419497f9722a3daafe3b4186f6b6457e09190a35050565b6040516001600160a01b038316602482015260448101829052610c8890849063a9059cbb60e01b90606401610bcb565b505050565b6000805b8251811015610cd157828181518110610cac57610cac61120b565b602002602001015182610cbf91906111e5565b9150610cca81611243565b9050610c91565b50919050565b6000610d2c826040518060400160405280602081526020017f5361666545524332303a206c6f772d6c6576656c2063616c6c206661696c6564815250856001600160a01b0316610da99092919063ffffffff16565b805190915015610c885780806020019051810190610d4a9190611275565b610c885760405162461bcd60e51b815260206004820152602a60248201527f5361666545524332303a204552433230206f7065726174696f6e20646964206e6044820152691bdd081cdd58d8d9595960b21b60648201526084016102bb565b6060610db88484600085610dc0565b949350505050565b606082471015610e215760405162461bcd60e51b815260206004820152602660248201527f416464726573733a20696e73756666696369656e742062616c616e636520666f6044820152651c8818d85b1b60d21b60648201526084016102bb565b600080866001600160a01b03168587604051610e3d91906112bb565b60006040518083038185875af1925050503d8060008114610e7a576040519150601f19603f3d011682016040523d82523d6000602084013e610e7f565b606091505b5091509150610e9087838387610e9b565b979650505050505050565b60608315610f0a578251600003610f03576001600160a01b0385163b610f035760405162461bcd60e51b815260206004820152601d60248201527f416464726573733a2063616c6c20746f206e6f6e2d636f6e747261637400000060448201526064016102bb565b5081610db8565b610db88383815115610f1f5781518083602001fd5b8060405162461bcd60e51b81526004016102bb91906112d7565b600060208284031215610f4b57600080fd5b5035919050565b80356001600160a01b0381168114610f6957600080fd5b919050565b600060208284031215610f8057600080fd5b610f8982610f52565b9392505050565b600080600060608486031215610fa557600080fd5b8335925060208401359150610fbc60408501610f52565b90509250925092565b634e487b7160e01b600052604160045260246000fd5b604051601f8201601f1916810167ffffffffffffffff8111828210171561100457611004610fc5565b604052919050565b600067ffffffffffffffff82111561102657611026610fc5565b5060051b60200190565b600082601f83011261104157600080fd5b813560206110566110518361100c565b610fdb565b82815260059290921b8401810191818101908684111561107557600080fd5b8286015b848110156110975761108a81610f52565b8352918301918301611079565b509695505050505050565b600082601f8301126110b357600080fd5b813560206110c36110518361100c565b82815260059290921b840181019181810190868411156110e257600080fd5b8286015b8481101561109757803583529183019183016110e6565b600080600080600060a0868803121561111557600080fd5b853567ffffffffffffffff8082111561112d57600080fd5b61113989838a01611030565b9650602088013591508082111561114f57600080fd5b61115b89838a01611030565b9550604088013591508082111561117157600080fd5b61117d89838a016110a2565b9450606088013591508082111561119357600080fd5b506111a0888289016110a2565b95989497509295608001359392505050565b634e487b7160e01b600052601160045260246000fd5b80820281158282048414176111df576111df6111b2565b92915050565b808201808211156111df576111df6111b2565b818103818111156111df576111df6111b2565b634e487b7160e01b600052603260045260246000fd5b60008261123e57634e487b7160e01b600052601260045260246000fd5b500490565b600060018201611255576112556111b2565b5060010190565b60006020828403121561126e57600080fd5b5051919050565b60006020828403121561128757600080fd5b81518015158114610f8957600080fd5b60005b838110156112b257818101518382015260200161129a565b50506000910152565b600082516112cd818460208701611297565b9190910192915050565b60208152600082518060208401526112f6816040850160208701611297565b601f01601f1916919091016040019291505056fea2646970667358221220f60978d5b2de715e1e02173f01a323fd09ad794eb59427a731cf1fbeb506947e64736f6c63430008130033",
  "bytecodeSha1": "70dd7fe02bb76ed4afa18336ecc68621b356a5d2",
  "compiler": {
    "evm_version": "istanbul",
    "optimizer": {
      "enabled": true,
      "runs": 200
    },
    "version": "0.8.19+commit.7dd6d404"
  },
  "contractName": "VestingContract",
  "language": "Solidity",
  "natspec": {
    "details": "This contract handles the vesting of a ERC20 tokens for a given beneficiary. Custody of the _token amount can be given to this contract, which will release the _token to the beneficiary following a given schedule. The vesting schedule is established by an array of basis point. Each index of that array corresponds to a month after the vesting period starts (aka after the locking period is over)",
    "kind": "dev",
    "methods": {
      "canReleasePercent(address)": {
        "details": "Calculates and returns the amount of tokens that can be withdrawn, as function of milestones passed."
      },
      "newInvestor(uint256,uint256,address)": {
        "details": "Adds a new Investor."
      },
      "newMulInvestors(address[],address[],uint256[],uint256[],uint256)": {
        "details": "Set the initial investors and their promised tokens"
      },
      "owner()": {
        "details": "Returns the address of the current owner."
      },
      "release()": {
        "details": "Release the tokens Emits a {ERC20Released} event."
      },
      "renounceOwnership()": {
        "details": "Leaves the contract without owner. It will not be possible to call `onlyOwner` functions anymore. Can only be called by the current owner. NOTE: Renouncing ownership will leave the contract without an owner, thereby removing any functionality that is only available to the owner."
      },
      "transferOwnership(address)": {
        "details": "Transfers ownership of the contract to a new account (`newOwner`). Can only be called by the current owner."
      }
    },
    "title": "VestingContract",
    "version": 1
  },
  "opcodes": "PUSH1 0x80 PUSH1 0x40 MSTORE CALLVALUE DUP1 ISZERO PUSH2 0x10 JUMPI PUSH1 0x0 DUP1 REVERT JUMPDEST POP PUSH1 0x4 CALLDATASIZE LT PUSH2 0xCF JUMPI PUSH1 0x0 CALLDATALOAD PUSH1 0xE0 SHR DUP1 PUSH4 0x715018A6 GT PUSH2 0x8C JUMPI DUP1 PUSH4 0x92347B5E GT PUSH2 0x66 JUMPI DUP1 PUSH4 0x92347B5E EQ PUSH2 0x194 JUMPI DUP1 PUSH4 0x95A25EFA EQ PUSH2 0x1DD JUMPI DUP1 PUSH4 0xF2FDE38B EQ PUSH2 0x1F0 JUMPI DUP1 PUSH4 0xF7799A15 EQ PUSH2 0x203 JUMPI PUSH1 0x0 DUP1 REVERT JUMPDEST DUP1 PUSH4 0x715018A6 EQ PUSH2 0x173 JUMPI DUP1 PUSH4 0x86D1A69F EQ PUSH2 0x17B JUMPI DUP1 PUSH4 0x8DA5CB5B EQ PUSH2 0x183 JUMPI PUSH1 0x0 DUP1 REVERT JUMPDEST DUP1 PUSH4 0x415AF81 EQ PUSH2 0xD4 JUMPI DUP1 PUSH4 0xBDF5300 EQ PUSH2 0xF0 JUMPI DUP1 PUSH4 0xEC482E8 EQ PUSH2 0x12F JUMPI DUP1 PUSH4 0x5B1A00B2 EQ PUSH2 0x138 JUMPI DUP1 PUSH4 0x64B49766 EQ PUSH2 0x14B JUMPI DUP1 PUSH4 0x711E01C6 EQ PUSH2 0x15E JUMPI JUMPDEST PUSH1 0x0 DUP1 REVERT JUMPDEST PUSH2 0xDD PUSH1 0x5 SLOAD DUP2 JUMP JUMPDEST PUSH1 0x40 MLOAD SWAP1 DUP2 MSTORE PUSH1 0x20 ADD JUMPDEST PUSH1 0x40 MLOAD DUP1 SWAP2 SUB SWAP1 RETURN JUMPDEST PUSH2 0x117 PUSH32 0x0 DUP2 JUMP JUMPDEST PUSH1 0x40 MLOAD PUSH1 0x1 PUSH1 0x1 PUSH1 0xA0 SHL SUB SWAP1 SWAP2 AND DUP2 MSTORE PUSH1 0x20 ADD PUSH2 0xE7 JUMP JUMPDEST PUSH2 0xDD PUSH1 0x4 SLOAD DUP2 JUMP JUMPDEST PUSH2 0xDD PUSH2 0x146 CALLDATASIZE PUSH1 0x4 PUSH2 0xF39 JUMP JUMPDEST PUSH2 0x216 JUMP JUMPDEST PUSH2 0xDD PUSH2 0x159 CALLDATASIZE PUSH1 0x4 PUSH2 0xF6E JUMP JUMPDEST PUSH2 0x237 JUMP JUMPDEST PUSH2 0x171 PUSH2 0x16C CALLDATASIZE PUSH1 0x4 PUSH2 0xF90 JUMP JUMPDEST PUSH2 0x402 JUMP JUMPDEST STOP JUMPDEST PUSH2 0x171 PUSH2 0x52E JUMP JUMPDEST PUSH2 0x171 PUSH2 0x542 JUMP JUMPDEST PUSH1 0x0 SLOAD PUSH1 0x1 PUSH1 0x1 PUSH1 0xA0 SHL SUB AND PUSH2 0x117 JUMP JUMPDEST PUSH2 0x1C2 PUSH2 0x1A2 CALLDATASIZE PUSH1 0x4 PUSH2 0xF6E JUMP JUMPDEST PUSH1 0x1 PUSH1 0x20 DUP2 SWAP1 MSTORE PUSH1 0x0 SWAP2 DUP3 MSTORE PUSH1 0x40 SWAP1 SWAP2 KECCAK256 DUP1 SLOAD SWAP2 DUP2 ADD SLOAD PUSH1 0x2 SWAP1 SWAP2 ADD SLOAD DUP4 JUMP JUMPDEST PUSH1 0x40 DUP1 MLOAD SWAP4 DUP5 MSTORE PUSH1 0x20 DUP5 ADD SWAP3 SWAP1 SWAP3 MSTORE SWAP1 DUP3 ADD MSTORE PUSH1 0x60 ADD PUSH2 0xE7 JUMP JUMPDEST PUSH2 0x117 PUSH2 0x1EB CALLDATASIZE PUSH1 0x4 PUSH2 0xF39 JUMP JUMPDEST PUSH2 0x69D JUMP JUMPDEST PUSH2 0x171 PUSH2 0x1FE CALLDATASIZE PUSH1 0x4 PUSH2 0xF6E JUMP JUMPDEST PUSH2 0x6C7 JUMP JUMPDEST PUSH2 0x171 PUSH2 0x211 CALLDATASIZE PUSH1 0x4 PUSH2 0x10FD JUMP JUMPDEST PUSH2 0x740 JUMP JUMPDEST PUSH1 0x3 DUP2 DUP2 SLOAD DUP2 LT PUSH2 0x226 JUMPI PUSH1 0x0 DUP1 REVERT JUMPDEST PUSH1 0x0 SWAP2 DUP3 MSTORE PUSH1 0x20 SWAP1 SWAP2 KECCAK256 ADD SLOAD SWAP1 POP DUP2 JUMP JUMPDEST PUSH1 0x1 PUSH1 0x1 PUSH1 0xA0 SHL SUB DUP2 AND PUSH1 0x0 SWAP1 DUP2 MSTORE PUSH1 0x1 PUSH1 0x20 DUP2 SWAP1 MSTORE PUSH1 0x40 DUP3 KECCAK256 DUP1 SLOAD SWAP2 ADD SLOAD DUP1 DUP3 LT PUSH2 0x276 JUMPI PUSH1 0x40 MLOAD PUSH4 0x89F33C3 PUSH1 0xE3 SHL DUP2 MSTORE PUSH1 0x4 ADD PUSH1 0x40 MLOAD DUP1 SWAP2 SUB SWAP1 REVERT JUMPDEST PUSH1 0x1 PUSH1 0x1 PUSH1 0xA0 SHL SUB DUP5 AND PUSH1 0x0 SWAP1 DUP2 MSTORE PUSH1 0x1 PUSH1 0x20 MSTORE PUSH1 0x40 SWAP1 KECCAK256 PUSH1 0x2 ADD SLOAD TIMESTAMP SWAP1 DUP1 DUP3 LT ISZERO PUSH2 0x2C4 JUMPI PUSH1 0x40 MLOAD PUSH4 0xBA692BF PUSH1 0xE1 SHL DUP2 MSTORE PUSH1 0x4 DUP2 ADD DUP4 SWAP1 MSTORE PUSH1 0x24 DUP2 ADD DUP3 SWAP1 MSTORE PUSH1 0x44 ADD JUMPDEST PUSH1 0x40 MLOAD DUP1 SWAP2 SUB SWAP1 REVERT JUMPDEST PUSH1 0x0 DUP1 PUSH1 0x1 JUMPDEST PUSH1 0x3 SLOAD DUP2 GT PUSH2 0x3EB JUMPI PUSH2 0x2E0 DUP2 PUSH3 0x278D00 PUSH2 0x11C8 JUMP JUMPDEST PUSH2 0x2EA SWAP1 DUP6 PUSH2 0x11E5 JUMP JUMPDEST DUP6 GT ISZERO PUSH2 0x342 JUMPI PUSH2 0x2710 PUSH1 0x3 PUSH2 0x301 PUSH1 0x1 DUP5 PUSH2 0x11F8 JUMP JUMPDEST DUP2 SLOAD DUP2 LT PUSH2 0x311 JUMPI PUSH2 0x311 PUSH2 0x120B JUMP JUMPDEST SWAP1 PUSH1 0x0 MSTORE PUSH1 0x20 PUSH1 0x0 KECCAK256 ADD SLOAD DUP8 PUSH2 0x327 SWAP2 SWAP1 PUSH2 0x11C8 JUMP JUMPDEST PUSH2 0x331 SWAP2 SWAP1 PUSH2 0x1221 JUMP JUMPDEST PUSH2 0x33B SWAP1 DUP5 PUSH2 0x11E5 JUMP JUMPDEST SWAP3 POP PUSH2 0x3DB JUMP JUMPDEST DUP4 PUSH2 0x34E PUSH1 0x1 DUP4 PUSH2 0x11F8 JUMP JUMPDEST PUSH2 0x35B SWAP1 PUSH3 0x278D00 PUSH2 0x11C8 JUMP JUMPDEST PUSH2 0x365 SWAP1 DUP8 PUSH2 0x11F8 JUMP JUMPDEST PUSH2 0x36F SWAP2 SWAP1 PUSH2 0x11F8 JUMP JUMPDEST SWAP2 POP PUSH3 0x278D00 PUSH2 0x2710 DUP4 PUSH1 0x3 PUSH2 0x386 PUSH1 0x1 DUP7 PUSH2 0x11F8 JUMP JUMPDEST DUP2 SLOAD DUP2 LT PUSH2 0x396 JUMPI PUSH2 0x396 PUSH2 0x120B JUMP JUMPDEST SWAP1 PUSH1 0x0 MSTORE PUSH1 0x20 PUSH1 0x0 KECCAK256 ADD SLOAD DUP10 PUSH2 0x3AC SWAP2 SWAP1 PUSH2 0x11C8 JUMP JUMPDEST PUSH2 0x3B6 SWAP2 SWAP1 PUSH2 0x11C8 JUMP JUMPDEST PUSH2 0x3C0 SWAP2 SWAP1 PUSH2 0x1221 JUMP JUMPDEST PUSH2 0x3CA SWAP2 SWAP1 PUSH2 0x1221 JUMP JUMPDEST PUSH2 0x3D4 SWAP1 DUP5 PUSH2 0x11E5 JUMP JUMPDEST SWAP3 POP PUSH2 0x3EB JUMP JUMPDEST PUSH2 0x3E4 DUP2 PUSH2 0x1243 JUMP JUMPDEST SWAP1 POP PUSH2 0x2CA JUMP JUMPDEST POP PUSH2 0x3F6 DUP7 DUP4 PUSH2 0x11F8 JUMP JUMPDEST SWAP9 SWAP8 POP POP POP POP POP POP POP POP JUMP JUMPDEST PUSH2 0x40A PUSH2 0xB3D JUMP JUMPDEST PUSH1 0x1 PUSH1 0x1 PUSH1 0xA0 SHL SUB DUP2 AND PUSH1 0x0 SWAP1 DUP2 MSTORE PUSH1 0x1 PUSH1 0x20 DUP2 SWAP1 MSTORE PUSH1 0x40 SWAP1 SWAP2 KECCAK256 ADD SLOAD ISZERO PUSH2 0x450 JUMPI PUSH1 0x40 MLOAD PUSH4 0x76501D19 PUSH1 0xE0 SHL DUP2 MSTORE PUSH1 0x1 PUSH1 0x1 PUSH1 0xA0 SHL SUB DUP3 AND PUSH1 0x4 DUP3 ADD MSTORE PUSH1 0x24 ADD PUSH2 0x2BB JUMP JUMPDEST PUSH1 0x0 PUSH1 0x40 MLOAD DUP1 PUSH1 0x60 ADD PUSH1 0x40 MSTORE DUP1 PUSH1 0x0 DUP2 MSTORE PUSH1 0x20 ADD DUP6 DUP2 MSTORE PUSH1 0x20 ADD DUP5 TIMESTAMP PUSH2 0x476 SWAP2 SWAP1 PUSH2 0x11E5 JUMP JUMPDEST SWAP1 MSTORE PUSH1 0x1 PUSH1 0x1 PUSH1 0xA0 SHL SUB DUP1 DUP5 AND PUSH1 0x0 DUP2 DUP2 MSTORE PUSH1 0x1 PUSH1 0x20 DUP2 DUP2 MSTORE PUSH1 0x40 DUP1 DUP5 KECCAK256 DUP8 MLOAD DUP2 SSTORE SWAP2 DUP8 ADD MLOAD DUP3 DUP5 ADD SSTORE DUP7 ADD MLOAD PUSH1 0x2 SWAP2 DUP3 ADD SSTORE DUP1 SLOAD SWAP2 DUP3 ADD DUP2 SSTORE SWAP1 SWAP2 MSTORE PUSH32 0x405787FA12A823E0F2B7631CC41B3BA8828B3321CA811111FA75CD3AA3BB5ACE ADD DUP1 SLOAD PUSH1 0x1 PUSH1 0x1 PUSH1 0xA0 SHL SUB NOT AND SWAP1 SWAP2 OR SWAP1 SSTORE SWAP1 SWAP2 POP PUSH2 0x517 SWAP1 PUSH32 0x0 AND CALLER ADDRESS DUP8 PUSH2 0xB97 JUMP JUMPDEST DUP4 PUSH1 0x5 SLOAD PUSH2 0x525 SWAP2 SWAP1 PUSH2 0x11E5 JUMP JUMPDEST PUSH1 0x5 SSTORE POP POP POP POP JUMP JUMPDEST PUSH2 0x536 PUSH2 0xB3D JUMP JUMPDEST PUSH2 0x540 PUSH1 0x0 PUSH2 0xC08 JUMP JUMPDEST JUMP JUMPDEST PUSH1 0x6 SLOAD PUSH1 0xFF AND ISZERO PUSH2 0x586 JUMPI PUSH1 0x40 MLOAD PUSH3 0x461BCD PUSH1 0xE5 SHL DUP2 MSTORE PUSH1 0x20 PUSH1 0x4 DUP3 ADD MSTORE PUSH1 0xE PUSH1 0x24 DUP3 ADD MSTORE PUSH14 0x4E6F2072652D656E7472616E6379 PUSH1 0x90 SHL PUSH1 0x44 DUP3 ADD MSTORE PUSH1 0x64 ADD PUSH2 0x2BB JUMP JUMPDEST PUSH1 0x6 DUP1 SLOAD PUSH1 0xFF NOT AND PUSH1 0x1 SWAP1 DUP2 OR SWAP1 SWAP2 SSTORE CALLER PUSH1 0x0 SWAP1 DUP2 MSTORE PUSH1 0x20 DUP3 SWAP1 MSTORE PUSH1 0x40 DUP2 KECCAK256 SWAP1 SWAP2 ADD SLOAD SWAP1 SUB PUSH2 0x5C8 JUMPI PUSH1 0x40 MLOAD PUSH4 0x14D63E97 PUSH1 0xE3 SHL DUP2 MSTORE PUSH1 0x4 ADD PUSH1 0x40 MLOAD DUP1 SWAP2 SUB SWAP1 REVERT JUMPDEST PUSH1 0x0 PUSH2 0x5D3 CALLER PUSH2 0x237 JUMP JUMPDEST CALLER PUSH1 0x0 SWAP1 DUP2 MSTORE PUSH1 0x1 PUSH1 0x20 MSTORE PUSH1 0x40 SWAP1 KECCAK256 SLOAD SWAP1 SWAP2 POP PUSH2 0x5F1 SWAP1 DUP3 SWAP1 PUSH2 0x11E5 JUMP JUMPDEST CALLER PUSH1 0x0 DUP2 DUP2 MSTORE PUSH1 0x1 PUSH1 0x20 MSTORE PUSH1 0x40 SWAP1 KECCAK256 SWAP2 SWAP1 SWAP2 SSTORE PUSH2 0x639 SWAP1 PUSH32 0x0 PUSH1 0x1 PUSH1 0x1 PUSH1 0xA0 SHL SUB AND SWAP1 DUP4 PUSH2 0xC58 JUMP JUMPDEST DUP1 PUSH1 0x4 SLOAD PUSH2 0x647 SWAP2 SWAP1 PUSH2 0x11E5 JUMP JUMPDEST PUSH1 0x4 SSTORE PUSH1 0x5 SLOAD PUSH2 0x658 SWAP1 DUP3 SWAP1 PUSH2 0x11F8 JUMP JUMPDEST PUSH1 0x5 SSTORE PUSH1 0x40 MLOAD DUP2 DUP2 MSTORE CALLER SWAP1 PUSH32 0xC0E523490DD523C33B1878C9EB14FF46991E3F5B2CD33710918618F2A39CBA1B SWAP1 PUSH1 0x20 ADD PUSH1 0x40 MLOAD DUP1 SWAP2 SUB SWAP1 LOG2 POP PUSH1 0x6 DUP1 SLOAD PUSH1 0xFF NOT AND SWAP1 SSTORE JUMP JUMPDEST PUSH1 0x2 DUP2 DUP2 SLOAD DUP2 LT PUSH2 0x6AD JUMPI PUSH1 0x0 DUP1 REVERT JUMPDEST PUSH1 0x0 SWAP2 DUP3 MSTORE PUSH1 0x20 SWAP1 SWAP2 KECCAK256 ADD SLOAD PUSH1 0x1 PUSH1 0x1 PUSH1 0xA0 SHL SUB AND SWAP1 POP DUP2 JUMP JUMPDEST PUSH2 0x6CF PUSH2 0xB3D JUMP JUMPDEST PUSH1 0x1 PUSH1 0x1 PUSH1 0xA0 SHL SUB DUP2 AND PUSH2 0x734 JUMPI PUSH1 0x40 MLOAD PUSH3 0x461BCD PUSH1 0xE5 SHL DUP2 MSTORE PUSH1 0x20 PUSH1 0x4 DUP3 ADD MSTORE PUSH1 0x26 PUSH1 0x24 DUP3 ADD MSTORE PUSH32 0x4F776E61626C653A206E6577206F776E657220697320746865207A65726F2061 PUSH1 0x44 DUP3 ADD MSTORE PUSH6 0x646472657373 PUSH1 0xD0 SHL PUSH1 0x64 DUP3 ADD MSTORE PUSH1 0x84 ADD PUSH2 0x2BB JUMP JUMPDEST PUSH2 0x73D DUP2 PUSH2 0xC08 JUMP JUMPDEST POP JUMP JUMPDEST PUSH2 0x748 PUSH2 0xB3D JUMP JUMPDEST PUSH1 0x0 PUSH2 0x753 DUP4 PUSH2 0xC8D JUMP JUMPDEST PUSH2 0x75C DUP6 PUSH2 0xC8D JUMP JUMPDEST PUSH2 0x766 SWAP2 SWAP1 PUSH2 0x11E5 JUMP JUMPDEST PUSH1 0x40 MLOAD PUSH4 0x70A08231 PUSH1 0xE0 SHL DUP2 MSTORE ADDRESS PUSH1 0x4 DUP3 ADD MSTORE SWAP1 SWAP2 POP DUP2 SWAP1 PUSH1 0x1 PUSH1 0x1 PUSH1 0xA0 SHL SUB PUSH32 0x0 AND SWAP1 PUSH4 0x70A08231 SWAP1 PUSH1 0x24 ADD PUSH1 0x20 PUSH1 0x40 MLOAD DUP1 DUP4 SUB DUP2 DUP7 GAS STATICCALL ISZERO DUP1 ISZERO PUSH2 0x7CF JUMPI RETURNDATASIZE PUSH1 0x0 DUP1 RETURNDATACOPY RETURNDATASIZE PUSH1 0x0 REVERT JUMPDEST POP POP POP POP PUSH1 0x40 MLOAD RETURNDATASIZE PUSH1 0x1F NOT PUSH1 0x1F DUP3 ADD AND DUP3 ADD DUP1 PUSH1 0x40 MSTORE POP DUP2 ADD SWAP1 PUSH2 0x7F3 SWAP2 SWAP1 PUSH2 0x125C JUMP JUMPDEST LT ISZERO PUSH2 0x8A5 JUMPI PUSH1 0x40 MLOAD PUSH4 0x70A08231 PUSH1 0xE0 SHL DUP2 MSTORE ADDRESS PUSH1 0x4 DUP3 ADD MSTORE DUP2 SWAP1 PUSH32 0x0 PUSH1 0x1 PUSH1 0x1 PUSH1 0xA0 SHL SUB AND SWAP1 PUSH4 0x70A08231 SWAP1 PUSH1 0x24 ADD PUSH1 0x20 PUSH1 0x40 MLOAD DUP1 DUP4 SUB DUP2 DUP7 GAS STATICCALL ISZERO DUP1 ISZERO PUSH2 0x85F JUMPI RETURNDATASIZE PUSH1 0x0 DUP1 RETURNDATACOPY RETURNDATASIZE PUSH1 0x0 REVERT JUMPDEST POP POP POP POP PUSH1 0x40 MLOAD RETURNDATASIZE PUSH1 0x1F NOT PUSH1 0x1F DUP3 ADD AND DUP3 ADD DUP1 PUSH1 0x40 MSTORE POP DUP2 ADD SWAP1 PUSH2 0x883 SWAP2 SWAP1 PUSH2 0x125C JUMP JUMPDEST PUSH1 0x40 MLOAD PUSH4 0x1AFAF13 PUSH1 0xE4 SHL DUP2 MSTORE PUSH1 0x4 DUP2 ADD SWAP3 SWAP1 SWAP3 MSTORE PUSH1 0x24 DUP3 ADD MSTORE PUSH1 0x44 ADD PUSH2 0x2BB JUMP JUMPDEST DUP6 MLOAD DUP6 MLOAD PUSH1 0x0 JUMPDEST DUP3 DUP2 LT ISZERO PUSH2 0x9D8 JUMPI PUSH1 0x0 DUP10 DUP3 DUP2 MLOAD DUP2 LT PUSH2 0x8C8 JUMPI PUSH2 0x8C8 PUSH2 0x120B JUMP JUMPDEST PUSH1 0x20 MUL PUSH1 0x20 ADD ADD MLOAD SWAP1 POP PUSH1 0x0 DUP9 DUP4 DUP2 MLOAD DUP2 LT PUSH2 0x8E6 JUMPI PUSH2 0x8E6 PUSH2 0x120B JUMP JUMPDEST PUSH1 0x20 MUL PUSH1 0x20 ADD ADD MLOAD SWAP1 POP PUSH1 0x1 PUSH1 0x0 DUP4 PUSH1 0x1 PUSH1 0x1 PUSH1 0xA0 SHL SUB AND PUSH1 0x1 PUSH1 0x1 PUSH1 0xA0 SHL SUB AND DUP2 MSTORE PUSH1 0x20 ADD SWAP1 DUP2 MSTORE PUSH1 0x20 ADD PUSH1 0x0 KECCAK256 PUSH1 0x1 ADD SLOAD PUSH1 0x0 EQ PUSH2 0x944 JUMPI PUSH1 0x40 MLOAD PUSH4 0x76501D19 PUSH1 0xE0 SHL DUP2 MSTORE PUSH1 0x1 PUSH1 0x1 PUSH1 0xA0 SHL SUB DUP4 AND PUSH1 0x4 DUP3 ADD MSTORE PUSH1 0x24 ADD PUSH2 0x2BB JUMP JUMPDEST PUSH1 0x40 DUP1 MLOAD PUSH1 0x60 DUP2 ADD DUP3 MSTORE PUSH1 0x0 DUP1 DUP3 MSTORE PUSH1 0x20 DUP1 DUP4 ADD SWAP5 DUP6 MSTORE TIMESTAMP DUP4 DUP6 ADD SWAP1 DUP2 MSTORE PUSH1 0x1 PUSH1 0x1 PUSH1 0xA0 SHL SUB SWAP1 SWAP7 AND DUP1 DUP4 MSTORE PUSH1 0x1 SWAP2 DUP3 SWAP1 MSTORE SWAP4 DUP3 KECCAK256 SWAP3 MLOAD DUP4 SSTORE SWAP4 MLOAD DUP3 DUP6 ADD SSTORE SWAP4 MLOAD PUSH1 0x2 SWAP2 DUP3 ADD SSTORE DUP1 SLOAD SWAP3 DUP4 ADD DUP2 SSTORE SWAP1 SWAP3 MSTORE PUSH32 0x405787FA12A823E0F2B7631CC41B3BA8828B3321CA811111FA75CD3AA3BB5ACE ADD DUP1 SLOAD PUSH1 0x1 PUSH1 0x1 PUSH1 0xA0 SHL SUB NOT AND SWAP1 SWAP2 OR SWAP1 SSTORE PUSH2 0x9D1 DUP2 PUSH2 0x1243 JUMP JUMPDEST SWAP1 POP PUSH2 0x8AC JUMP JUMPDEST POP PUSH1 0x0 JUMPDEST DUP2 DUP2 LT ISZERO PUSH2 0xB21 JUMPI PUSH1 0x0 DUP9 DUP3 DUP2 MLOAD DUP2 LT PUSH2 0x9F8 JUMPI PUSH2 0x9F8 PUSH2 0x120B JUMP JUMPDEST PUSH1 0x20 MUL PUSH1 0x20 ADD ADD MLOAD SWAP1 POP PUSH1 0x0 DUP8 DUP4 DUP2 MLOAD DUP2 LT PUSH2 0xA16 JUMPI PUSH2 0xA16 PUSH2 0x120B JUMP JUMPDEST PUSH1 0x20 MUL PUSH1 0x20 ADD ADD MLOAD SWAP1 POP PUSH1 0x1 PUSH1 0x0 DUP4 PUSH1 0x1 PUSH1 0x1 PUSH1 0xA0 SHL SUB AND PUSH1 0x1 PUSH1 0x1 PUSH1 0xA0 SHL SUB AND DUP2 MSTORE PUSH1 0x20 ADD SWAP1 DUP2 MSTORE PUSH1 0x20 ADD PUSH1 0x0 KECCAK256 PUSH1 0x1 ADD SLOAD PUSH1 0x0 EQ PUSH2 0xA74 JUMPI PUSH1 0x40 MLOAD PUSH4 0x76501D19 PUSH1 0xE0 SHL DUP2 MSTORE PUSH1 0x1 PUSH1 0x1 PUSH1 0xA0 SHL SUB DUP4 AND PUSH1 0x4 DUP3 ADD MSTORE PUSH1 0x24 ADD PUSH2 0x2BB JUMP JUMPDEST PUSH1 0x0 PUSH1 0x40 MLOAD DUP1 PUSH1 0x60 ADD PUSH1 0x40 MSTORE DUP1 PUSH1 0x0 DUP2 MSTORE PUSH1 0x20 ADD DUP4 DUP2 MSTORE PUSH1 0x20 ADD DUP10 TIMESTAMP PUSH2 0xA9A SWAP2 SWAP1 PUSH2 0x11E5 JUMP JUMPDEST SWAP1 MSTORE PUSH1 0x1 PUSH1 0x1 PUSH1 0xA0 SHL SUB SWAP1 SWAP4 AND PUSH1 0x0 DUP2 DUP2 MSTORE PUSH1 0x1 PUSH1 0x20 DUP2 DUP2 MSTORE PUSH1 0x40 DUP1 DUP5 KECCAK256 DUP9 MLOAD DUP2 SSTORE SWAP2 DUP9 ADD MLOAD DUP3 DUP5 ADD SSTORE SWAP1 SWAP7 ADD MLOAD PUSH1 0x2 SWAP7 DUP8 ADD SSTORE DUP6 SLOAD SWAP1 DUP2 ADD DUP7 SSTORE SWAP5 SWAP1 MSTORE PUSH32 0x405787FA12A823E0F2B7631CC41B3BA8828B3321CA811111FA75CD3AA3BB5ACE SWAP1 SWAP4 ADD DUP1 SLOAD PUSH1 0x1 PUSH1 0x1 PUSH1 0xA0 SHL SUB NOT AND SWAP1 SWAP4 OR SWAP1 SWAP3 SSTORE POP PUSH2 0xB1A SWAP1 POP DUP2 PUSH2 0x1243 JUMP JUMPDEST SWAP1 POP PUSH2 0x9DC JUMP JUMPDEST POP DUP3 PUSH1 0x5 SLOAD PUSH2 0xB30 SWAP2 SWAP1 PUSH2 0x11E5 JUMP JUMPDEST PUSH1 0x5 SSTORE POP POP POP POP POP POP POP POP JUMP JUMPDEST PUSH1 0x0 SLOAD PUSH1 0x1 PUSH1 0x1 PUSH1 0xA0 SHL SUB AND CALLER EQ PUSH2 0x540 JUMPI PUSH1 0x40 MLOAD PUSH3 0x461BCD PUSH1 0xE5 SHL DUP2 MSTORE PUSH1 0x20 PUSH1 0x4 DUP3 ADD DUP2 SWAP1 MSTORE PUSH1 0x24 DUP3 ADD MSTORE PUSH32 0x4F776E61626C653A2063616C6C6572206973206E6F7420746865206F776E6572 PUSH1 0x44 DUP3 ADD MSTORE PUSH1 0x64 ADD PUSH2 0x2BB JUMP JUMPDEST PUSH1 0x40 MLOAD PUSH1 0x1 PUSH1 0x1 PUSH1 0xA0 SHL SUB DUP1 DUP6 AND PUSH1 0x24 DUP4 ADD MSTORE DUP4 AND PUSH1 0x44 DUP3 ADD MSTORE PUSH1 0x64 DUP2 ADD DUP3 SWAP1 MSTORE PUSH2 0xC02 SWAP1 DUP6 SWAP1 PUSH4 0x23B872DD PUSH1 0xE0 SHL SWAP1 PUSH1 0x84 ADD JUMPDEST PUSH1 0x40 DUP1 MLOAD PUSH1 0x1F NOT DUP2 DUP5 SUB ADD DUP2 MSTORE SWAP2 SWAP1 MSTORE PUSH1 0x20 DUP2 ADD DUP1 MLOAD PUSH1 0x1 PUSH1 0x1 PUSH1 0xE0 SHL SUB AND PUSH1 0x1 PUSH1 0x1 PUSH1 0xE0 SHL SUB NOT SWAP1 SWAP4 AND SWAP3 SWAP1 SWAP3 OR SWAP1 SWAP2 MSTORE PUSH2 0xCD7 JUMP JUMPDEST POP POP POP POP JUMP JUMPDEST PUSH1 0x0 DUP1 SLOAD PUSH1 0x1 PUSH1 0x1 PUSH1 0xA0 SHL SUB DUP4 DUP2 AND PUSH1 0x1 PUSH1 0x1 PUSH1 0xA0 SHL SUB NOT DUP4 AND DUP2 OR DUP5 SSTORE PUSH1 0x40 MLOAD SWAP2 SWAP1 SWAP3 AND SWAP3 DUP4 SWAP2 PUSH32 0x8BE0079C531659141344CD1FD0A4F28419497F9722A3DAAFE3B4186F6B6457E0 SWAP2 SWAP1 LOG3 POP POP JUMP JUMPDEST PUSH1 0x40 MLOAD PUSH1 0x1 PUSH1 0x1 PUSH1 0xA0 SHL SUB DUP4 AND PUSH1 0x24 DUP3 ADD MSTORE PUSH1 0x44 DUP2 ADD DUP3 SWAP1 MSTORE PUSH2 0xC88 SWAP1 DUP5 SWAP1 PUSH4 0xA9059CBB PUSH1 0xE0 SHL SWAP1 PUSH1 0x64 ADD PUSH2 0xBCB JUMP JUMPDEST POP POP POP JUMP JUMPDEST PUSH1 0x0 DUP1 JUMPDEST DUP3 MLOAD DUP2 LT ISZERO PUSH2 0xCD1 JUMPI DUP3 DUP2 DUP2 MLOAD DUP2 LT PUSH2 0xCAC JUMPI PUSH2 0xCAC PUSH2 0x120B JUMP JUMPDEST PUSH1 0x20 MUL PUSH1 0x20 ADD ADD MLOAD DUP3 PUSH2 0xCBF SWAP2 SWAP1 PUSH2 0x11E5 JUMP JUMPDEST SWAP2 POP PUSH2 0xCCA DUP2 PUSH2 0x1243 JUMP JUMPDEST SWAP1 POP PUSH2 0xC91 JUMP JUMPDEST POP SWAP2 SWAP1 POP JUMP JUMPDEST PUSH1 0x0 PUSH2 0xD2C DUP3 PUSH1 0x40 MLOAD DUP1 PUSH1 0x40 ADD PUSH1 0x40 MSTORE DUP1 PUSH1 0x20 DUP2 MSTORE PUSH1 0x20 ADD PUSH32 0x5361666545524332303A206C6F772D6C6576656C2063616C6C206661696C6564 DUP2 MSTORE POP DUP6 PUSH1 0x1 PUSH1 0x1 PUSH1 0xA0 SHL SUB AND PUSH2 0xDA9 SWAP1 SWAP3 SWAP2 SWAP1 PUSH4 0xFFFFFFFF AND JUMP JUMPDEST DUP1 MLOAD SWAP1 SWAP2 POP ISZERO PUSH2 0xC88 JUMPI DUP1 DUP1 PUSH1 0x20 ADD SWAP1 MLOAD DUP2 ADD SWAP1 PUSH2 0xD4A SWAP2 SWAP1 PUSH2 0x1275 JUMP JUMPDEST PUSH2 0xC88 JUMPI PUSH1 0x40 MLOAD PUSH3 0x461BCD PUSH1 0xE5 SHL DUP2 MSTORE PUSH1 0x20 PUSH1 0x4 DUP3 ADD MSTORE PUSH1 0x2A PUSH1 0x24 DUP3 ADD MSTORE PUSH32 0x5361666545524332303A204552433230206F7065726174696F6E20646964206E PUSH1 0x44 DUP3 ADD MSTORE PUSH10 0x1BDD081CDD58D8D95959 PUSH1 0xB2 SHL PUSH1 0x64 DUP3 ADD MSTORE PUSH1 0x84 ADD PUSH2 0x2BB JUMP JUMPDEST PUSH1 0x60 PUSH2 0xDB8 DUP5 DUP5 PUSH1 0x0 DUP6 PUSH2 0xDC0 JUMP JUMPDEST SWAP5 SWAP4 POP POP POP POP JUMP JUMPDEST PUSH1 0x60 DUP3 SELFBALANCE LT ISZERO PUSH2 0xE21 JUMPI PUSH1 0x40 MLOAD PUSH3 0x461BCD PUSH1 0xE5 SHL DUP2 MSTORE PUSH1 0x20 PUSH1 0x4 DUP3 ADD MSTORE PUSH1 0x26 PUSH1 0x24 DUP3 ADD MSTORE PUSH32 0x416464726573733A20696E73756666696369656E742062616C616E636520666F PUSH1 0x44 DUP3 ADD MSTORE PUSH6 0x1C8818D85B1B PUSH1 0xD2 SHL PUSH1 0x64 DUP3 ADD MSTORE PUSH1 0x84 ADD PUSH2 0x2BB JUMP JUMPDEST PUSH1 0x0 DUP1 DUP7 PUSH1 0x1 PUSH1 0x1 PUSH1 0xA0 SHL SUB AND DUP6 DUP8 PUSH1 0x40 MLOAD PUSH2 0xE3D SWAP2 SWAP1 PUSH2 0x12BB JUMP JUMPDEST PUSH1 0x0 PUSH1 0x40 MLOAD DUP1 DUP4 SUB DUP2 DUP6 DUP8 GAS CALL SWAP3 POP POP POP RETURNDATASIZE DUP1 PUSH1 0x0 DUP2 EQ PUSH2 0xE7A JUMPI PUSH1 0x40 MLOAD SWAP2 POP PUSH1 0x1F NOT PUSH1 0x3F RETURNDATASIZE ADD AND DUP3 ADD PUSH1 0x40 MSTORE RETURNDATASIZE DUP3 MSTORE RETURNDATASIZE PUSH1 0x0 PUSH1 0x20 DUP5 ADD RETURNDATACOPY PUSH2 0xE7F JUMP JUMPDEST PUSH1 0x60 SWAP2 POP JUMPDEST POP SWAP2 POP SWAP2 POP PUSH2 0xE90 DUP8 DUP4 DUP4 DUP8 PUSH2 0xE9B JUMP JUMPDEST SWAP8 SWAP7 POP POP POP POP POP POP POP JUMP JUMPDEST PUSH1 0x60 DUP4 ISZERO PUSH2 0xF0A JUMPI DUP3 MLOAD PUSH1 0x0 SUB PUSH2 0xF03 JUMPI PUSH1 0x1 PUSH1 0x1 PUSH1 0xA0 SHL SUB DUP6 AND EXTCODESIZE PUSH2 0xF03 JUMPI PUSH1 0x40 MLOAD PUSH3 0x461BCD PUSH1 0xE5 SHL DUP2 MSTORE PUSH1 0x20 PUSH1 0x4 DUP3 ADD MSTORE PUSH1 0x1D PUSH1 0x24 DUP3 ADD MSTORE PUSH32 0x416464726573733A2063616C6C20746F206E6F6E2D636F6E7472616374000000 PUSH1 0x44 DUP3 ADD MSTORE PUSH1 0x64 ADD PUSH2 0x2BB JUMP JUMPDEST POP DUP2 PUSH2 0xDB8 JUMP JUMPDEST PUSH2 0xDB8 DUP4 DUP4 DUP2 MLOAD ISZERO PUSH2 0xF1F JUMPI DUP2 MLOAD DUP1 DUP4 PUSH1 0x20 ADD REVERT JUMPDEST DUP1 PUSH1 0x40 MLOAD PUSH3 0x461BCD PUSH1 0xE5 SHL DUP2 MSTORE PUSH1 0x4 ADD PUSH2 0x2BB SWAP2 SWAP1 PUSH2 0x12D7 JUMP JUMPDEST PUSH1 0x0 PUSH1 0x20 DUP3 DUP5 SUB SLT ISZERO PUSH2 0xF4B JUMPI PUSH1 0x0 DUP1 REVERT JUMPDEST POP CALLDATALOAD SWAP2 SWAP1 POP JUMP JUMPDEST DUP1 CALLDATALOAD PUSH1 0x1 PUSH1 0x1 PUSH1 0xA0 SHL SUB DUP2 AND DUP2 EQ PUSH2 0xF69 JUMPI PUSH1 0x0 DUP1 REVERT JUMPDEST SWAP2 SWAP1 POP JUMP JUMPDEST PUSH1 0x0 PUSH1 0x20 DUP3 DUP5 SUB SLT ISZERO PUSH2 0xF80 JUMPI PUSH1 0x0 DUP1 REVERT JUMPDEST PUSH2 0xF89 DUP3 PUSH2 0xF52 JUMP JUMPDEST SWAP4 SWAP3 POP POP POP JUMP JUMPDEST PUSH1 0x0 DUP1 PUSH1 0x0 PUSH1 0x60 DUP5 DUP7 SUB SLT ISZERO PUSH2 0xFA5 JUMPI PUSH1 0x0 DUP1 REVERT JUMPDEST DUP4 CALLDATALOAD SWAP3 POP PUSH1 0x20 DUP5 ADD CALLDATALOAD SWAP2 POP PUSH2 0xFBC PUSH1 0x40 DUP6 ADD PUSH2 0xF52 JUMP JUMPDEST SWAP1 POP SWAP3 POP SWAP3 POP SWAP3 JUMP JUMPDEST PUSH4 0x4E487B71 PUSH1 0xE0 SHL PUSH1 0x0 MSTORE PUSH1 0x41 PUSH1 0x4 MSTORE PUSH1 0x24 PUSH1 0x0 REVERT JUMPDEST PUSH1 0x40 MLOAD PUSH1 0x1F DUP3 ADD PUSH1 0x1F NOT AND DUP2 ADD PUSH8 0xFFFFFFFFFFFFFFFF DUP2 GT DUP3 DUP3 LT OR ISZERO PUSH2 0x1004 JUMPI PUSH2 0x1004 PUSH2 0xFC5 JUMP JUMPDEST PUSH1 0x40 MSTORE SWAP2 SWAP1 POP JUMP JUMPDEST PUSH1 0x0 PUSH8 0xFFFFFFFFFFFFFFFF DUP3 GT ISZERO PUSH2 0x1026 JUMPI PUSH2 0x1026 PUSH2 0xFC5 JUMP JUMPDEST POP PUSH1 0x5 SHL PUSH1 0x20 ADD SWAP1 JUMP JUMPDEST PUSH1 0x0 DUP3 PUSH1 0x1F DUP4 ADD SLT PUSH2 0x1041 JUMPI PUSH1 0x0 DUP1 REVERT JUMPDEST DUP2 CALLDATALOAD PUSH1 0x20 PUSH2 0x1056 PUSH2 0x1051 DUP4 PUSH2 0x100C JUMP JUMPDEST PUSH2 0xFDB JUMP JUMPDEST DUP3 DUP2 MSTORE PUSH1 0x5 SWAP3 SWAP1 SWAP3 SHL DUP5 ADD DUP2 ADD SWAP2 DUP2 DUP2 ADD SWAP1 DUP7 DUP5 GT ISZERO PUSH2 0x1075 JUMPI PUSH1 0x0 DUP1 REVERT JUMPDEST DUP3 DUP7 ADD JUMPDEST DUP5 DUP2 LT ISZERO PUSH2 0x1097 JUMPI PUSH2 0x108A DUP2 PUSH2 0xF52 JUMP JUMPDEST DUP4 MSTORE SWAP2 DUP4 ADD SWAP2 DUP4 ADD PUSH2 0x1079 JUMP JUMPDEST POP SWAP7 SWAP6 POP POP POP POP POP POP JUMP JUMPDEST PUSH1 0x0 DUP3 PUSH1 0x1F DUP4 ADD SLT PUSH2 0x10B3 JUMPI PUSH1 0x0 DUP1 REVERT JUMPDEST DUP2 CALLDATALOAD PUSH1 0x20 PUSH2 0x10C3 PUSH2 0x1051 DUP4 PUSH2 0x100C JUMP JUMPDEST DUP3 DUP2 MSTORE PUSH1 0x5 SWAP3 SWAP1 SWAP3 SHL DUP5 ADD DUP2 ADD SWAP2 DUP2 DUP2 ADD SWAP1 DUP7 DUP5 GT ISZERO PUSH2 0x10E2 JUMPI PUSH1 0x0 DUP1 REVERT JUMPDEST DUP3 DUP7 ADD JUMPDEST DUP5 DUP2 LT ISZERO PUSH2 0x1097 JUMPI DUP1 CALLDATALOAD DUP4 MSTORE SWAP2 DUP4 ADD SWAP2 DUP4 ADD PUSH2 0x10E6 JUMP JUMPDEST PUSH1 0x0 DUP1 PUSH1 0x0 DUP1 PUSH1 0x0 PUSH1 0xA0 DUP7 DUP9 SUB SLT ISZERO PUSH2 0x1115 JUMPI PUSH1 0x0 DUP1 REVERT JUMPDEST DUP6 CALLDATALOAD PUSH8 0xFFFFFFFFFFFFFFFF DUP1 DUP3 GT ISZERO PUSH2 0x112D JUMPI PUSH1 0x0 DUP1 REVERT JUMPDEST PUSH2 0x1139 DUP10 DUP4 DUP11 ADD PUSH2 0x1030 JUMP JUMPDEST SWAP7 POP PUSH1 0x20 DUP9 ADD CALLDATALOAD SWAP2 POP DUP1 DUP3 GT ISZERO PUSH2 0x114F JUMPI PUSH1 0x0 DUP1 REVERT JUMPDEST PUSH2 0x115B DUP10 DUP4 DUP11 ADD PUSH2 0x1030 JUMP JUMPDEST SWAP6 POP PUSH1 0x40 DUP9 ADD CALLDATALOAD SWAP2 POP DUP1 DUP3 GT ISZERO PUSH2 0x1171 JUMPI PUSH1 0x0 DUP1 REVERT JUMPDEST PUSH2 0x117D DUP10 DUP4 DUP11 ADD PUSH2 0x10A2 JUMP JUMPDEST SWAP5 POP PUSH1 0x60 DUP9 ADD CALLDATALOAD SWAP2 POP DUP1 DUP3 GT ISZERO PUSH2 0x1193 JUMPI PUSH1 0x0 DUP1 REVERT JUMPDEST POP PUSH2 0x11A0 DUP9 DUP3 DUP10 ADD PUSH2 0x10A2 JUMP JUMPDEST SWAP6 SWAP9 SWAP5 SWAP8 POP SWAP3 SWAP6 PUSH1 0x80 ADD CALLDATALOAD SWAP4 SWAP3 POP POP POP JUMP JUMPDEST PUSH4 0x4E487B71 PUSH1 0xE0 SHL PUSH1 0x0 MSTORE PUSH1 0x11 PUSH1 0x4 MSTORE PUSH1 0x24 PUSH1 0x0 REVERT JUMPDEST DUP1 DUP3 MUL DUP2 ISZERO DUP3 DUP3 DIV DUP5 EQ OR PUSH2 0x11DF JUMPI PUSH2 0x11DF PUSH2 0x11B2 JUMP JUMPDEST SWAP3 SWAP2 POP POP JUMP JUMPDEST DUP1 DUP3 ADD DUP1 DUP3 GT ISZERO PUSH2 0x11DF JUMPI PUSH2 0x11DF PUSH2 0x11B2 JUMP JUMPDEST DUP2 DUP2 SUB DUP2 DUP2 GT ISZERO PUSH2 0x11DF JUMPI PUSH2 0x11DF PUSH2 0x11B2 JUMP JUMPDEST PUSH4 0x4E487B71 PUSH1 0xE0 SHL PUSH1 0x0 MSTORE PUSH1 0x32 PUSH1 0x4 MSTORE PUSH1 0x24 PUSH1 0x0 REVERT JUMPDEST PUSH1 0x0 DUP3 PUSH2 0x123E JUMPI PUSH4 0x4E487B71 PUSH1 0xE0 SHL PUSH1 0x0 MSTORE PUSH1 0x12 PUSH1 0x4 MSTORE PUSH1 0x24 PUSH1 0x0 REVERT JUMPDEST POP DIV SWAP1 JUMP JUMPDEST PUSH1 0x0 PUSH1 0x1 DUP3 ADD PUSH2 0x1255 JUMPI PUSH2 0x1255 PUSH2 0x11B2 JUMP JUMPDEST POP PUSH1 0x1 ADD SWAP1 JUMP JUMPDEST PUSH1 0x0 PUSH1 0x20 DUP3 DUP5 SUB SLT ISZERO PUSH2 0x126E JUMPI PUSH1 0x0 DUP1 REVERT JUMPDEST POP MLOAD SWAP2 SWAP1 POP JUMP JUMPDEST PUSH1 0x0 PUSH1 0x20 DUP3 DUP5 SUB SLT ISZERO PUSH2 0x1287 JUMPI PUSH1 0x0 DUP1 REVERT JUMPDEST DUP2 MLOAD DUP1 ISZERO ISZERO DUP2 EQ PUSH2 0xF89 JUMPI PUSH1 0x0 DUP1 REVERT JUMPDEST PUSH1 0x0 JUMPDEST DUP4 DUP2 LT ISZERO PUSH2 0x12B2 JUMPI DUP2 DUP2 ADD MLOAD DUP4 DUP3 ADD MSTORE PUSH1 0x20 ADD PUSH2 0x129A JUMP JUMPDEST POP POP PUSH1 0x0 SWAP2 ADD MSTORE JUMP JUMPDEST PUSH1 0x0 DUP3 MLOAD PUSH2 0x12CD DUP2 DUP5 PUSH1 0x20 DUP8 ADD PUSH2 0x1297 JUMP JUMPDEST SWAP2 SWAP1 SWAP2 ADD SWAP3 SWAP2 POP POP JUMP JUMPDEST PUSH1 0x20 DUP2 MSTORE PUSH1 0x0 DUP3 MLOAD DUP1 PUSH1 0x20 DUP5 ADD MSTORE PUSH2 0x12F6 DUP2 PUSH1 0x40 DUP6 ADD PUSH1 0x20 DUP8 ADD PUSH2 0x1297 JUMP JUMPDEST PUSH1 0x1F ADD PUSH1 0x1F NOT AND SWAP2 SWAP1 SWAP2 ADD PUSH1 0x40 ADD SWAP3 SWAP2 POP POP JUMP INVALID LOG2 PUSH5 0x6970667358 0x22 SLT KECCAK256 0xF6 MULMOD PUSH25 0xD5B2DE715E1E02173F01A323FD09AD794EB59427A731CF1FBE 0xB5 MOD SWAP5 PUSH31 0x64736F6C634300081300330000000000000000000000000000000000000000 ",
  "sha1": "c8c93c68a218a48fe77dffb4f83ba2b45cf87928",
  "source": "// SPDX-License-Identifier: MIT\npragma solidity ^0.8.19;\n\nimport \"@openzeppelin/contracts/token/ERC20/utils/SafeERC20.sol\";\nimport \"@openzeppelin/contracts/token/ERC20/IERC20.sol\";\nimport \"@openzeppelin/contracts/access/Ownable.sol\";\n\n/**\n * @title VestingContract\n * @dev This contract handles the vesting of a ERC20 tokens for a given beneficiary. Custody of the _token amount\n * can be given to this contract, which will release the _token to the beneficiary following a given schedule.\n * The vesting schedule is established by an array of basis point. Each index of that array\n * corresponds to a month after the vesting period starts (aka after the locking period is over)\n */\ncontract VestingContract is Ownable {\n    // Token\n    using SafeERC20 for IERC20;\n    IERC20 immutable LEGACY_TOKEN;\n\n    // Structs\n    struct Investor {\n        uint256 tokens_received; // amount of tokens the Investor has received\n        uint256 tokens_promised; // amount of tokens the Investor is owed\n        uint256 vesting_start; // saves the date in which the locking/cliff period ends\n        //and the vesting (token releases) starts\n    }\n\n    // Mappings\n    mapping(address => Investor) public walletToInvestor;\n\n    //Variables\n    address[] public investorAddresses; // array with all the investor aaddresses\n    uint256[] public percentPerMilestone; //percentages per month that will be released (in basis points)\n    uint256 public erc20Released; // total amount of released tokens\n    uint256 public totalTokensVested;\n    uint256 constant SECONDS_IN_MONTH = 30 days;\n    address public immutable TOKEN_ADDRESS; // token address\n    bool internal locked; // boolean to prevent reentrancy\n\n    // Events\n    event ERC20Released(address indexed _token, uint256 amount);\n\n    // Errors\n    error contractLacksFunds(uint256 amountNeeded, uint256 contract_balance);\n    error LockOrCliffNotOver(uint256 currentTime, uint256 vestingStart);\n    error addressAmountMismatch(uint256 numAmounts, uint256 numAddresses);\n    error addressAlreadyVested(address investorAddress);\n    error percSumIncorrect(uint256 percSum);\n    error allTokensClaimed();\n    //error failedRelease();\n    //error failedDeposit();\n    error notInvestor();\n\n    // Modifiers\n    /**\n     * @dev Prevents reentrancy\n     */\n    modifier noReentrant() {\n        require(!locked, \"No re-entrancy\");\n        locked = true;\n        _;\n        locked = false;\n    }\n\n    /**\n     * @dev Only investors can call functions\n     */\n    modifier onlyInvestor() {\n        if (walletToInvestor[msg.sender].tokens_promised == 0) {\n            revert notInvestor();\n        }\n        _;\n    }\n\n    // Constructor\n    constructor(\n        uint256[] memory percentPerMilestone_, /* has the basis point values of the percentages\n                                                of tokens that should be released in total in\n                                                the indexed month\n                                                */\n        address _TOKEN_ADDRESS // address of the token to be used\n    ) {\n        // check if the percentages add up to 100%\n        uint256 _perc_sum = sumArr(percentPerMilestone_);\n        if (_perc_sum != 10_000) {\n            revert percSumIncorrect(_perc_sum);\n        }\n\n        // percentage of tokens an investor can withdraw at each milestone\n        percentPerMilestone = percentPerMilestone_;\n\n        // establish token address\n        TOKEN_ADDRESS = _TOKEN_ADDRESS;\n\n        // establish the IERC20 for legacy token to contract interactions\n        LEGACY_TOKEN = IERC20(_TOKEN_ADDRESS);\n\n        // Initialize the reentrancy variable to not locked\n        locked = false;\n    }\n\n    // Functions\n    /**\n     * @dev Set the initial investors and their promised tokens\n     */\n    function newMulInvestors(\n        address[] memory addressesO50I, // array with the addresses of the investors with 50k to 250ks\n        address[] memory addressesO250I, // ... more than 250ks\n        uint256[] memory tokensO50I, /* array with the token amount to be to the equivalent\n         indexed address in addressesO50I */\n        uint256[] memory tokensO250I, // ... addres in addressesO250I\n        uint256 timeLockO250I // ... more than 250ks\n    ) public onlyOwner {\n        // check if the contract has funds for the multiple users the owner wants to add\n        uint256 amountNeeded = sumArr(tokensO50I) + sumArr(tokensO250I);\n\n        if (LEGACY_TOKEN.balanceOf(address(this)) < amountNeeded) {\n            revert contractLacksFunds(\n                amountNeeded,\n                LEGACY_TOKEN.balanceOf(address(this))\n            );\n        }\n\n        // number of investors with...\n        uint256 numO50I = addressesO50I.length; // with 50k-250ks\n        uint256 numO250I = addressesO250I.length; // more than 250ks\n\n        // require that the  number of addresses is equal to the token amounts\n        if (numO50I != addressesO50I.length) {\n            revert addressAmountMismatch(numO50I, addressesO50I.length);\n        }\n\n        if (numO250I != addressesO250I.length) {\n            revert addressAmountMismatch(numO250I, addressesO250I.length);\n        }\n\n        // create an Investor struct for each investor with less than 50ks\n        for (uint256 i = 0; i < numO50I; ++i) {\n            // get the amount of tokens and the address correpsonding to this investor\n            address investorAddress = addressesO50I[i];\n            uint256 investorTokens = tokensO50I[i];\n\n            // the investor should not already by locked\n            if (walletToInvestor[investorAddress].tokens_promised != 0) {\n                revert addressAlreadyVested(investorAddress);\n            }\n\n            // create the new Investor struct\n            Investor memory investor = Investor(\n                0,\n                investorTokens,\n                block.timestamp\n            );\n\n            // map the new Investor address to its struct\n            walletToInvestor[investorAddress] = investor;\n\n            // add to the investor array of addresses\n            investorAddresses.push(investorAddress);\n        }\n\n        // create an Investor struct for each investor with more than 250ks\n        for (uint256 i = 0; i < numO250I; ++i) {\n            // get the amount of tokens and the address correpsonding to this investor\n            address investorAddress = addressesO250I[i];\n            uint256 investorTokens = tokensO250I[i];\n\n            // the investor should not already by locked\n            if (walletToInvestor[investorAddress].tokens_promised != 0) {\n                revert addressAlreadyVested(investorAddress);\n            }\n\n            // create the new Investor struct\n            Investor memory investor = Investor(\n                0,\n                investorTokens,\n                block.timestamp + timeLockO250I\n            );\n\n            // map the new Investor address to its struct\n            walletToInvestor[investorAddress] = investor;\n\n            // add to the investor array of addresses\n            investorAddresses.push(investorAddress);\n        }\n\n        // update the amount of tokens vested\n        totalTokensVested = totalTokensVested + amountNeeded;\n    }\n\n    /**\n     * @dev Release the tokens\n     *\n     * Emits a {ERC20Released} event.\n     */\n    function release() public virtual noReentrant onlyInvestor {\n        // gets the amount of tokens the investor can withdraw\n        uint256 releasable = canReleasePercent(msg.sender);\n\n        // updates the investors struct to reflect the withdraw\n        walletToInvestor[msg.sender].tokens_received =\n            walletToInvestor[msg.sender].tokens_received +\n            releasable;\n\n        // transfers the tokens to the investor\n        LEGACY_TOKEN.safeTransfer(msg.sender, releasable);\n\n        // adds that amount to the total released amount\n        erc20Released = erc20Released + releasable;\n\n        // update the amount of tokens vested\n        totalTokensVested = totalTokensVested - releasable;\n\n        // emits an event\n        emit ERC20Released(msg.sender, releasable);\n    }\n\n    /**\n     * @dev Adds a new Investor.\n     */\n    function newInvestor(\n        uint256 amount,\n        uint256 timeLock,\n        address newInvestorAddress\n    ) public onlyOwner {\n        // the investor should not already be vested\n        if (walletToInvestor[newInvestorAddress].tokens_promised != 0) {\n            revert addressAlreadyVested(newInvestorAddress);\n        }\n        // create the new Investor struc\n        Investor memory investor = Investor(\n            0,\n            amount,\n            block.timestamp + timeLock\n        );\n\n        // push the new Investor struct to the Investors array\n        walletToInvestor[newInvestorAddress] = investor;\n\n        // add to the investor array of addresses\n        investorAddresses.push(newInvestorAddress);\n\n        // transfer the tokens to the contract\n        LEGACY_TOKEN.safeTransferFrom(msg.sender, address(this), amount);\n\n        // update the amount of tokens vested\n        totalTokensVested = totalTokensVested + amount;\n    }\n\n    /**\n     * @dev Calculates and returns the amount of tokens that can be withdrawn,\n     * as function of milestones passed.\n     */\n    function canReleasePercent(address callerAddress)\n        public\n        view\n        returns (uint256)\n    {\n        // get the quatity of tokens he has already withdrawned,\n        uint256 hasWithdrawn = walletToInvestor[callerAddress].tokens_received;\n        // gets the investors promised tokens\n        uint256 tokensPromised = walletToInvestor[callerAddress]\n            .tokens_promised;\n\n        // require that the investor has not already withdrawn everything\n        if (hasWithdrawn >= tokensPromised) {\n            revert allTokensClaimed();\n        }\n\n        // gets the current time\n        uint256 currentTime = block.timestamp;\n        // gets the time in which the investors vesting starts\n        uint256 vestingStart = walletToInvestor[callerAddress].vesting_start;\n\n        /* require that the first month of cliff has passed (and as consequence, checks if the lock\n        period has passed already)*/\n        if (currentTime < vestingStart) {\n            revert LockOrCliffNotOver(currentTime, vestingStart);\n        }\n\n        // will save the amount that is calculated that can be released\n        uint256 canRelease = 0;\n        // saves the seconds the investor has spent vesting in each bracket, to allow the token withdraw calc\n        uint256 secondsInBracket = 0;\n\n        //Loop through every month until we reach the one the  vesting of this investor is currently on\n        for (uint256 i = 1; i <= percentPerMilestone.length; ++i) {\n            // if the time the investor has been vesting is bigger than i month\n            if (currentTime > (vestingStart + SECONDS_IN_MONTH * i)) {\n                // for each bracket, claculate the the tokens to be released in that period\n                canRelease =\n                    canRelease +\n                    (tokensPromised * percentPerMilestone[i - 1]) /\n                    10_000; // remember the percent_per\n                // milestone are percents multiplied by 10_000\n            } else {\n                //If the current time is in the middle of one of the months\n                secondsInBracket =\n                    currentTime -\n                    SECONDS_IN_MONTH *\n                    (i - 1) -\n                    vestingStart;\n\n                canRelease =\n                    canRelease +\n                    (tokensPromised *\n                        percentPerMilestone[i - 1] *\n                        secondsInBracket) /\n                    10_000 /\n                    SECONDS_IN_MONTH;\n\n                break;\n            }\n        }\n\n        // get the amount of tokens the investor can actually withdraw:\n        return canRelease - hasWithdrawn;\n    }\n\n    /**\n     * @dev Check if the contract has funds for the multiple users the owner wants to add\n     */\n    function sumArr(uint256[] memory arr)\n        internal\n        pure\n        returns (uint256 result)\n    {\n        for (uint256 i = 0; i < arr.length; ++i) {\n            result = result + arr[i];\n        }\n\n        return result;\n    }\n}\n",
  "sourcePath": "contracts/VestingContract.sol",
  "type": "contract"
}